{
	"contracts/MyArray.sol": {
		"MyContract": {
			"abi": [
				{
					"inputs": [
						{
							"internalType": "string",
							"name": "_value",
							"type": "string"
						}
					],
					"name": "addValue",
					"outputs": [],
					"stateMutability": "nonpayable",
					"type": "function"
				},
				{
					"inputs": [
						{
							"internalType": "uint256",
							"name": "",
							"type": "uint256"
						},
						{
							"internalType": "uint256",
							"name": "",
							"type": "uint256"
						}
					],
					"name": "array2D",
					"outputs": [
						{
							"internalType": "uint256",
							"name": "",
							"type": "uint256"
						}
					],
					"stateMutability": "view",
					"type": "function"
				},
				{
					"inputs": [
						{
							"internalType": "uint256",
							"name": "",
							"type": "uint256"
						}
					],
					"name": "stringArray",
					"outputs": [
						{
							"internalType": "string",
							"name": "",
							"type": "string"
						}
					],
					"stateMutability": "view",
					"type": "function"
				},
				{
					"inputs": [
						{
							"internalType": "uint256",
							"name": "",
							"type": "uint256"
						}
					],
					"name": "uintArray",
					"outputs": [
						{
							"internalType": "uint256",
							"name": "",
							"type": "uint256"
						}
					],
					"stateMutability": "view",
					"type": "function"
				},
				{
					"inputs": [],
					"name": "valueCount",
					"outputs": [
						{
							"internalType": "uint256",
							"name": "",
							"type": "uint256"
						}
					],
					"stateMutability": "view",
					"type": "function"
				},
				{
					"inputs": [
						{
							"internalType": "uint256",
							"name": "",
							"type": "uint256"
						}
					],
					"name": "values",
					"outputs": [
						{
							"internalType": "string",
							"name": "",
							"type": "string"
						}
					],
					"stateMutability": "view",
					"type": "function"
				}
			],
			"devdoc": {
				"kind": "dev",
				"methods": {},
				"version": 1
			},
			"evm": {
				"assembly": "    /* \"contracts/MyArray.sol\":69:546  contract MyContract{\r... */\n  mstore(0x40, 0x80)\n    /* \"contracts/MyArray.sol\":95:128  uint[] public uintArray = [1,2,3] */\n  mload(0x40)\n  dup1\n  0x60\n  add\n  0x40\n  mstore\n  dup1\n    /* \"contracts/MyArray.sol\":122:123  1 */\n  0x01\n    /* \"contracts/MyArray.sol\":95:128  uint[] public uintArray = [1,2,3] */\n  0xff\n  and\n  dup2\n  mstore\n  0x20\n  add\n    /* \"contracts/MyArray.sol\":124:125  2 */\n  0x02\n    /* \"contracts/MyArray.sol\":95:128  uint[] public uintArray = [1,2,3] */\n  0xff\n  and\n  dup2\n  mstore\n  0x20\n  add\n    /* \"contracts/MyArray.sol\":126:127  3 */\n  0x03\n    /* \"contracts/MyArray.sol\":95:128  uint[] public uintArray = [1,2,3] */\n  0xff\n  and\n  dup2\n  mstore\n  pop\n  0x00\n  swap1\n  0x03\n  tag_1\n  swap3\n  swap2\n  swap1\n  tag_2\n  jump\t// in\ntag_1:\n  pop\n    /* \"contracts/MyArray.sol\":135:192  string[] public stringArray = [\"apple\",\"banana\",\"carrot\"] */\n  mload(0x40)\n  dup1\n  0x60\n  add\n  0x40\n  mstore\n  dup1\n  mload(0x40)\n  dup1\n  0x40\n  add\n  0x40\n  mstore\n  dup1\n  0x05\n  dup2\n  mstore\n  0x20\n  add\n  0x6170706c65000000000000000000000000000000000000000000000000000000\n  dup2\n  mstore\n  pop\n  dup2\n  mstore\n  0x20\n  add\n  mload(0x40)\n  dup1\n  0x40\n  add\n  0x40\n  mstore\n  dup1\n  0x06\n  dup2\n  mstore\n  0x20\n  add\n  0x62616e616e610000000000000000000000000000000000000000000000000000\n  dup2\n  mstore\n  pop\n  dup2\n  mstore\n  0x20\n  add\n  mload(0x40)\n  dup1\n  0x40\n  add\n  0x40\n  mstore\n  dup1\n  0x06\n  dup2\n  mstore\n  0x20\n  add\n  0x636172726f740000000000000000000000000000000000000000000000000000\n  dup2\n  mstore\n  pop\n  dup2\n  mstore\n  pop\n  0x01\n  swap1\n  0x03\n  tag_3\n  swap3\n  swap2\n  swap1\n  tag_4\n  jump\t// in\ntag_3:\n  pop\n    /* \"contracts/MyArray.sol\":228:280  uint256[][] public array2D = [[1, 2, 3], [ 4, 5, 6]] */\n  mload(0x40)\n  dup1\n  0x40\n  add\n  0x40\n  mstore\n  dup1\n  mload(0x40)\n  dup1\n  0x60\n  add\n  0x40\n  mstore\n  dup1\n    /* \"contracts/MyArray.sol\":259:260  1 */\n  0x01\n    /* \"contracts/MyArray.sol\":228:280  uint256[][] public array2D = [[1, 2, 3], [ 4, 5, 6]] */\n  0xff\n  and\n  dup2\n  mstore\n  0x20\n  add\n    /* \"contracts/MyArray.sol\":262:263  2 */\n  0x02\n    /* \"contracts/MyArray.sol\":228:280  uint256[][] public array2D = [[1, 2, 3], [ 4, 5, 6]] */\n  0xff\n  and\n  dup2\n  mstore\n  0x20\n  add\n    /* \"contracts/MyArray.sol\":265:266  3 */\n  0x03\n    /* \"contracts/MyArray.sol\":228:280  uint256[][] public array2D = [[1, 2, 3], [ 4, 5, 6]] */\n  0xff\n  and\n  dup2\n  mstore\n  pop\n  dup2\n  mstore\n  0x20\n  add\n  mload(0x40)\n  dup1\n  0x60\n  add\n  0x40\n  mstore\n  dup1\n    /* \"contracts/MyArray.sol\":271:272  4 */\n  0x04\n    /* \"contracts/MyArray.sol\":228:280  uint256[][] public array2D = [[1, 2, 3], [ 4, 5, 6]] */\n  0xff\n  and\n  dup2\n  mstore\n  0x20\n  add\n    /* \"contracts/MyArray.sol\":274:275  5 */\n  0x05\n    /* \"contracts/MyArray.sol\":228:280  uint256[][] public array2D = [[1, 2, 3], [ 4, 5, 6]] */\n  0xff\n  and\n  dup2\n  mstore\n  0x20\n  add\n    /* \"contracts/MyArray.sol\":277:278  6 */\n  0x06\n    /* \"contracts/MyArray.sol\":228:280  uint256[][] public array2D = [[1, 2, 3], [ 4, 5, 6]] */\n  0xff\n  and\n  dup2\n  mstore\n  pop\n  dup2\n  mstore\n  pop\n  0x03\n  swap1\n  0x02\n  tag_5\n  swap3\n  swap2\n  swap1\n  tag_6\n  jump\t// in\ntag_5:\n  pop\n    /* \"contracts/MyArray.sol\":69:546  contract MyContract{\r... */\n  callvalue\n  dup1\n  iszero\n  tag_7\n  jumpi\n  0x00\n  dup1\n  revert\ntag_7:\n  pop\n  jump(tag_8)\ntag_2:\n  dup3\n  dup1\n  sload\n  dup3\n  dup3\n  sstore\n  swap1\n  0x00\n  mstore\n  keccak256(0x00, 0x20)\n  swap1\n  dup2\n  add\n  swap3\n  dup3\n  iszero\n  tag_9\n  jumpi\n  swap2\n  0x20\n  mul\n  dup3\n  add\ntag_10:\n  dup3\n  dup2\n  gt\n  iszero\n  tag_11\n  jumpi\n  dup3\n  mload\n  dup3\n  swap1\n  0xff\n  and\n  swap1\n  sstore\n  swap2\n  0x20\n  add\n  swap2\n  swap1\n  0x01\n  add\n  swap1\n  jump(tag_10)\ntag_11:\ntag_9:\n  pop\n  swap1\n  pop\n  tag_12\n  swap2\n  swap1\n  tag_13\n  jump\t// in\ntag_12:\n  pop\n  swap1\n  jump\t// out\ntag_4:\n  dup3\n  dup1\n  sload\n  dup3\n  dup3\n  sstore\n  swap1\n  0x00\n  mstore\n  keccak256(0x00, 0x20)\n  swap1\n  dup2\n  add\n  swap3\n  dup3\n  iszero\n  tag_14\n  jumpi\n  swap2\n  0x20\n  mul\n  dup3\n  add\ntag_15:\n  dup3\n  dup2\n  gt\n  iszero\n  tag_16\n  jumpi\n  dup3\n  mload\n  dup3\n  swap1\n  dup1\n  mload\n  swap1\n  0x20\n  add\n  swap1\n  tag_17\n  swap3\n  swap2\n  swap1\n  tag_18\n  jump\t// in\ntag_17:\n  pop\n  swap2\n  0x20\n  add\n  swap2\n  swap1\n  0x01\n  add\n  swap1\n  jump(tag_15)\ntag_16:\ntag_14:\n  pop\n  swap1\n  pop\n  tag_19\n  swap2\n  swap1\n  tag_20\n  jump\t// in\ntag_19:\n  pop\n  swap1\n  jump\t// out\ntag_6:\n  dup3\n  dup1\n  sload\n  dup3\n  dup3\n  sstore\n  swap1\n  0x00\n  mstore\n  keccak256(0x00, 0x20)\n  swap1\n  dup2\n  add\n  swap3\n  dup3\n  iszero\n  tag_21\n  jumpi\n  swap2\n  0x20\n  mul\n  dup3\n  add\ntag_22:\n  dup3\n  dup2\n  gt\n  iszero\n  tag_23\n  jumpi\n  dup3\n  mload\n  dup3\n  swap1\n  0x03\n  tag_24\n  swap3\n  swap2\n  swap1\n  tag_2\n  jump\t// in\ntag_24:\n  pop\n  swap2\n  0x20\n  add\n  swap2\n  swap1\n  0x01\n  add\n  swap1\n  jump(tag_22)\ntag_23:\ntag_21:\n  pop\n  swap1\n  pop\n  tag_25\n  swap2\n  swap1\n  tag_26\n  jump\t// in\ntag_25:\n  pop\n  swap1\n  jump\t// out\ntag_13:\ntag_27:\n  dup1\n  dup3\n  gt\n  iszero\n  tag_28\n  jumpi\n  0x00\n  dup2\n  0x00\n  swap1\n  sstore\n  pop\n  0x01\n  add\n  jump(tag_27)\ntag_28:\n  pop\n  swap1\n  jump\t// out\ntag_18:\n  dup3\n  dup1\n  sload\n  tag_29\n  swap1\n  tag_30\n  jump\t// in\ntag_29:\n  swap1\n  0x00\n  mstore\n  keccak256(0x00, 0x20)\n  swap1\n  0x1f\n  add\n  0x20\n  swap1\n  div\n  dup2\n  add\n  swap3\n  dup3\n  tag_32\n  jumpi\n  0x00\n  dup6\n  sstore\n  jump(tag_31)\ntag_32:\n  dup3\n  0x1f\n  lt\n  tag_33\n  jumpi\n  dup1\n  mload\n  not(0xff)\n  and\n  dup4\n  dup1\n  add\n  or\n  dup6\n  sstore\n  jump(tag_31)\ntag_33:\n  dup3\n  dup1\n  add\n  0x01\n  add\n  dup6\n  sstore\n  dup3\n  iszero\n  tag_31\n  jumpi\n  swap2\n  dup3\n  add\ntag_34:\n  dup3\n  dup2\n  gt\n  iszero\n  tag_35\n  jumpi\n  dup3\n  mload\n  dup3\n  sstore\n  swap2\n  0x20\n  add\n  swap2\n  swap1\n  0x01\n  add\n  swap1\n  jump(tag_34)\ntag_35:\ntag_31:\n  pop\n  swap1\n  pop\n  tag_36\n  swap2\n  swap1\n  tag_13\n  jump\t// in\ntag_36:\n  pop\n  swap1\n  jump\t// out\ntag_20:\ntag_37:\n  dup1\n  dup3\n  gt\n  iszero\n  tag_38\n  jumpi\n  0x00\n  dup2\n  dup2\n  tag_39\n  swap2\n  swap1\n  tag_40\n  jump\t// in\ntag_39:\n  pop\n  0x01\n  add\n  jump(tag_37)\ntag_38:\n  pop\n  swap1\n  jump\t// out\ntag_26:\ntag_41:\n  dup1\n  dup3\n  gt\n  iszero\n  tag_42\n  jumpi\n  0x00\n  dup2\n  dup2\n  tag_43\n  swap2\n  swap1\n  tag_44\n  jump\t// in\ntag_43:\n  pop\n  0x01\n  add\n  jump(tag_41)\ntag_42:\n  pop\n  swap1\n  jump\t// out\ntag_40:\n  pop\n  dup1\n  sload\n  tag_45\n  swap1\n  tag_30\n  jump\t// in\ntag_45:\n  0x00\n  dup3\n  sstore\n  dup1\n  0x1f\n  lt\n  tag_47\n  jumpi\n  pop\n  jump(tag_46)\ntag_47:\n  0x1f\n  add\n  0x20\n  swap1\n  div\n  swap1\n  0x00\n  mstore\n  keccak256(0x00, 0x20)\n  swap1\n  dup2\n  add\n  swap1\n  tag_48\n  swap2\n  swap1\n  tag_13\n  jump\t// in\ntag_48:\ntag_46:\n  pop\n  jump\t// out\ntag_44:\n  pop\n  dup1\n  sload\n  0x00\n  dup3\n  sstore\n  swap1\n  0x00\n  mstore\n  keccak256(0x00, 0x20)\n  swap1\n  dup2\n  add\n  swap1\n  tag_50\n  swap2\n  swap1\n  tag_13\n  jump\t// in\ntag_50:\n  pop\n  jump\t// out\n    /* \"#utility.yul\":7:327   */\ntag_30:\n  0x00\n    /* \"#utility.yul\":88:89   */\n  0x02\n    /* \"#utility.yul\":82:86   */\n  dup3\n    /* \"#utility.yul\":78:90   */\n  div\n    /* \"#utility.yul\":68:90   */\n  swap1\n  pop\n    /* \"#utility.yul\":135:136   */\n  0x01\n    /* \"#utility.yul\":129:133   */\n  dup3\n    /* \"#utility.yul\":125:137   */\n  and\n    /* \"#utility.yul\":156:174   */\n  dup1\n    /* \"#utility.yul\":146:148   */\n  tag_53\n  jumpi\n    /* \"#utility.yul\":212:216   */\n  0x7f\n    /* \"#utility.yul\":204:210   */\n  dup3\n    /* \"#utility.yul\":200:217   */\n  and\n    /* \"#utility.yul\":190:217   */\n  swap2\n  pop\n    /* \"#utility.yul\":146:148   */\ntag_53:\n    /* \"#utility.yul\":274:276   */\n  0x20\n    /* \"#utility.yul\":266:272   */\n  dup3\n    /* \"#utility.yul\":263:277   */\n  lt\n    /* \"#utility.yul\":243:261   */\n  dup2\n    /* \"#utility.yul\":240:278   */\n  eq\n    /* \"#utility.yul\":237:239   */\n  iszero\n  tag_54\n  jumpi\n    /* \"#utility.yul\":293:311   */\n  tag_55\n  tag_56\n  jump\t// in\ntag_55:\n    /* \"#utility.yul\":237:239   */\ntag_54:\n    /* \"#utility.yul\":58:327   */\n  pop\n  swap2\n  swap1\n  pop\n  jump\t// out\n    /* \"#utility.yul\":333:513   */\ntag_56:\n    /* \"#utility.yul\":381:458   */\n  0x4e487b7100000000000000000000000000000000000000000000000000000000\n    /* \"#utility.yul\":378:379   */\n  0x00\n    /* \"#utility.yul\":371:459   */\n  mstore\n    /* \"#utility.yul\":478:482   */\n  0x22\n    /* \"#utility.yul\":475:476   */\n  0x04\n    /* \"#utility.yul\":468:483   */\n  mstore\n    /* \"#utility.yul\":502:506   */\n  0x24\n    /* \"#utility.yul\":499:500   */\n  0x00\n    /* \"#utility.yul\":492:507   */\n  revert\n    /* \"contracts/MyArray.sol\":69:546  contract MyContract{\r... */\ntag_8:\n  dataSize(sub_0)\n  dup1\n  dataOffset(sub_0)\n  0x00\n  codecopy\n  0x00\n  return\nstop\n\nsub_0: assembly {\n        /* \"contracts/MyArray.sol\":69:546  contract MyContract{\r... */\n      mstore(0x40, 0x80)\n      callvalue\n      dup1\n      iszero\n      tag_1\n      jumpi\n      0x00\n      dup1\n      revert\n    tag_1:\n      pop\n      jumpi(tag_2, lt(calldatasize, 0x04))\n      shr(0xe0, calldataload(0x00))\n      dup1\n      0x26eb4dbb\n      eq\n      tag_3\n      jumpi\n      dup1\n      0x3a5fbaaa\n      eq\n      tag_4\n      jumpi\n      dup1\n      0x5e383d21\n      eq\n      tag_5\n      jumpi\n      dup1\n      0x6422c4c8\n      eq\n      tag_6\n      jumpi\n      dup1\n      0x9ae918c7\n      eq\n      tag_7\n      jumpi\n      dup1\n      0xd3268fc1\n      eq\n      tag_8\n      jumpi\n    tag_2:\n      0x00\n      dup1\n      revert\n        /* \"contracts/MyArray.sol\":422:543  function valueCount() public view returns(uint){\r... */\n    tag_3:\n      tag_9\n      tag_10\n      jump\t// in\n    tag_9:\n      mload(0x40)\n      tag_11\n      swap2\n      swap1\n      tag_12\n      jump\t// in\n    tag_11:\n      mload(0x40)\n      dup1\n      swap2\n      sub\n      swap1\n      return\n        /* \"contracts/MyArray.sol\":289:414  function addValue(string memory _value) public{\r... */\n    tag_4:\n      tag_13\n      0x04\n      dup1\n      calldatasize\n      sub\n      dup2\n      add\n      swap1\n      tag_14\n      swap2\n      swap1\n      tag_15\n      jump\t// in\n    tag_14:\n      tag_16\n      jump\t// in\n    tag_13:\n      stop\n        /* \"contracts/MyArray.sol\":199:221  string[] public values */\n    tag_5:\n      tag_17\n      0x04\n      dup1\n      calldatasize\n      sub\n      dup2\n      add\n      swap1\n      tag_18\n      swap2\n      swap1\n      tag_19\n      jump\t// in\n    tag_18:\n      tag_20\n      jump\t// in\n    tag_17:\n      mload(0x40)\n      tag_21\n      swap2\n      swap1\n      tag_22\n      jump\t// in\n    tag_21:\n      mload(0x40)\n      dup1\n      swap2\n      sub\n      swap1\n      return\n        /* \"contracts/MyArray.sol\":135:192  string[] public stringArray = [\"apple\",\"banana\",\"carrot\"] */\n    tag_6:\n      tag_23\n      0x04\n      dup1\n      calldatasize\n      sub\n      dup2\n      add\n      swap1\n      tag_24\n      swap2\n      swap1\n      tag_19\n      jump\t// in\n    tag_24:\n      tag_25\n      jump\t// in\n    tag_23:\n      mload(0x40)\n      tag_26\n      swap2\n      swap1\n      tag_22\n      jump\t// in\n    tag_26:\n      mload(0x40)\n      dup1\n      swap2\n      sub\n      swap1\n      return\n        /* \"contracts/MyArray.sol\":95:128  uint[] public uintArray = [1,2,3] */\n    tag_7:\n      tag_27\n      0x04\n      dup1\n      calldatasize\n      sub\n      dup2\n      add\n      swap1\n      tag_28\n      swap2\n      swap1\n      tag_19\n      jump\t// in\n    tag_28:\n      tag_29\n      jump\t// in\n    tag_27:\n      mload(0x40)\n      tag_30\n      swap2\n      swap1\n      tag_12\n      jump\t// in\n    tag_30:\n      mload(0x40)\n      dup1\n      swap2\n      sub\n      swap1\n      return\n        /* \"contracts/MyArray.sol\":228:280  uint256[][] public array2D = [[1, 2, 3], [ 4, 5, 6]] */\n    tag_8:\n      tag_31\n      0x04\n      dup1\n      calldatasize\n      sub\n      dup2\n      add\n      swap1\n      tag_32\n      swap2\n      swap1\n      tag_33\n      jump\t// in\n    tag_32:\n      tag_34\n      jump\t// in\n    tag_31:\n      mload(0x40)\n      tag_35\n      swap2\n      swap1\n      tag_12\n      jump\t// in\n    tag_35:\n      mload(0x40)\n      dup1\n      swap2\n      sub\n      swap1\n      return\n        /* \"contracts/MyArray.sol\":422:543  function valueCount() public view returns(uint){\r... */\n    tag_10:\n        /* \"contracts/MyArray.sol\":464:468  uint */\n      0x00\n        /* \"contracts/MyArray.sol\":487:493  values */\n      0x02\n        /* \"contracts/MyArray.sol\":487:500  values.length */\n      dup1\n      sload\n      swap1\n      pop\n        /* \"contracts/MyArray.sol\":480:500  return values.length */\n      swap1\n      pop\n        /* \"contracts/MyArray.sol\":422:543  function valueCount() public view returns(uint){\r... */\n      swap1\n      jump\t// out\n        /* \"contracts/MyArray.sol\":289:414  function addValue(string memory _value) public{\r... */\n    tag_16:\n        /* \"contracts/MyArray.sol\":346:352  values */\n      0x02\n        /* \"contracts/MyArray.sol\":358:364  _value */\n      dup2\n        /* \"contracts/MyArray.sol\":346:365  values.push(_value) */\n      swap1\n      dup1\n      0x01\n      dup2\n      sload\n      add\n      dup1\n      dup3\n      sstore\n      dup1\n      swap2\n      pop\n      pop\n      0x01\n      swap1\n      sub\n      swap1\n      0x00\n      mstore\n      keccak256(0x00, 0x20)\n      add\n      0x00\n      swap1\n      swap2\n      swap1\n      swap2\n      swap1\n      swap2\n      pop\n      swap1\n      dup1\n      mload\n      swap1\n      0x20\n      add\n      swap1\n      tag_39\n      swap3\n      swap2\n      swap1\n      tag_40\n      jump\t// in\n    tag_39:\n      pop\n        /* \"contracts/MyArray.sol\":289:414  function addValue(string memory _value) public{\r... */\n      pop\n      jump\t// out\n        /* \"contracts/MyArray.sol\":199:221  string[] public values */\n    tag_20:\n      0x02\n      dup2\n      dup2\n      sload\n      dup2\n      lt\n      tag_41\n      jumpi\n      0x00\n      dup1\n      revert\n    tag_41:\n      swap1\n      0x00\n      mstore\n      keccak256(0x00, 0x20)\n      add\n      0x00\n      swap2\n      pop\n      swap1\n      pop\n      dup1\n      sload\n      tag_43\n      swap1\n      tag_44\n      jump\t// in\n    tag_43:\n      dup1\n      0x1f\n      add\n      0x20\n      dup1\n      swap2\n      div\n      mul\n      0x20\n      add\n      mload(0x40)\n      swap1\n      dup2\n      add\n      0x40\n      mstore\n      dup1\n      swap3\n      swap2\n      swap1\n      dup2\n      dup2\n      mstore\n      0x20\n      add\n      dup3\n      dup1\n      sload\n      tag_45\n      swap1\n      tag_44\n      jump\t// in\n    tag_45:\n      dup1\n      iszero\n      tag_46\n      jumpi\n      dup1\n      0x1f\n      lt\n      tag_47\n      jumpi\n      0x0100\n      dup1\n      dup4\n      sload\n      div\n      mul\n      dup4\n      mstore\n      swap2\n      0x20\n      add\n      swap2\n      jump(tag_46)\n    tag_47:\n      dup3\n      add\n      swap2\n      swap1\n      0x00\n      mstore\n      keccak256(0x00, 0x20)\n      swap1\n    tag_48:\n      dup2\n      sload\n      dup2\n      mstore\n      swap1\n      0x01\n      add\n      swap1\n      0x20\n      add\n      dup1\n      dup4\n      gt\n      tag_48\n      jumpi\n      dup3\n      swap1\n      sub\n      0x1f\n      and\n      dup3\n      add\n      swap2\n    tag_46:\n      pop\n      pop\n      pop\n      pop\n      pop\n      dup2\n      jump\t// out\n        /* \"contracts/MyArray.sol\":135:192  string[] public stringArray = [\"apple\",\"banana\",\"carrot\"] */\n    tag_25:\n      0x01\n      dup2\n      dup2\n      sload\n      dup2\n      lt\n      tag_49\n      jumpi\n      0x00\n      dup1\n      revert\n    tag_49:\n      swap1\n      0x00\n      mstore\n      keccak256(0x00, 0x20)\n      add\n      0x00\n      swap2\n      pop\n      swap1\n      pop\n      dup1\n      sload\n      tag_51\n      swap1\n      tag_44\n      jump\t// in\n    tag_51:\n      dup1\n      0x1f\n      add\n      0x20\n      dup1\n      swap2\n      div\n      mul\n      0x20\n      add\n      mload(0x40)\n      swap1\n      dup2\n      add\n      0x40\n      mstore\n      dup1\n      swap3\n      swap2\n      swap1\n      dup2\n      dup2\n      mstore\n      0x20\n      add\n      dup3\n      dup1\n      sload\n      tag_52\n      swap1\n      tag_44\n      jump\t// in\n    tag_52:\n      dup1\n      iszero\n      tag_53\n      jumpi\n      dup1\n      0x1f\n      lt\n      tag_54\n      jumpi\n      0x0100\n      dup1\n      dup4\n      sload\n      div\n      mul\n      dup4\n      mstore\n      swap2\n      0x20\n      add\n      swap2\n      jump(tag_53)\n    tag_54:\n      dup3\n      add\n      swap2\n      swap1\n      0x00\n      mstore\n      keccak256(0x00, 0x20)\n      swap1\n    tag_55:\n      dup2\n      sload\n      dup2\n      mstore\n      swap1\n      0x01\n      add\n      swap1\n      0x20\n      add\n      dup1\n      dup4\n      gt\n      tag_55\n      jumpi\n      dup3\n      swap1\n      sub\n      0x1f\n      and\n      dup3\n      add\n      swap2\n    tag_53:\n      pop\n      pop\n      pop\n      pop\n      pop\n      dup2\n      jump\t// out\n        /* \"contracts/MyArray.sol\":95:128  uint[] public uintArray = [1,2,3] */\n    tag_29:\n      0x00\n      dup2\n      dup2\n      sload\n      dup2\n      lt\n      tag_56\n      jumpi\n      0x00\n      dup1\n      revert\n    tag_56:\n      swap1\n      0x00\n      mstore\n      keccak256(0x00, 0x20)\n      add\n      0x00\n      swap2\n      pop\n      swap1\n      pop\n      sload\n      dup2\n      jump\t// out\n        /* \"contracts/MyArray.sol\":228:280  uint256[][] public array2D = [[1, 2, 3], [ 4, 5, 6]] */\n    tag_34:\n      0x03\n      dup3\n      dup2\n      sload\n      dup2\n      lt\n      tag_58\n      jumpi\n      0x00\n      dup1\n      revert\n    tag_58:\n      swap1\n      0x00\n      mstore\n      keccak256(0x00, 0x20)\n      add\n      dup2\n      dup2\n      sload\n      dup2\n      lt\n      tag_60\n      jumpi\n      0x00\n      dup1\n      revert\n    tag_60:\n      swap1\n      0x00\n      mstore\n      keccak256(0x00, 0x20)\n      add\n      0x00\n      swap2\n      pop\n      swap2\n      pop\n      pop\n      sload\n      dup2\n      jump\t// out\n    tag_40:\n      dup3\n      dup1\n      sload\n      tag_62\n      swap1\n      tag_44\n      jump\t// in\n    tag_62:\n      swap1\n      0x00\n      mstore\n      keccak256(0x00, 0x20)\n      swap1\n      0x1f\n      add\n      0x20\n      swap1\n      div\n      dup2\n      add\n      swap3\n      dup3\n      tag_64\n      jumpi\n      0x00\n      dup6\n      sstore\n      jump(tag_63)\n    tag_64:\n      dup3\n      0x1f\n      lt\n      tag_65\n      jumpi\n      dup1\n      mload\n      not(0xff)\n      and\n      dup4\n      dup1\n      add\n      or\n      dup6\n      sstore\n      jump(tag_63)\n    tag_65:\n      dup3\n      dup1\n      add\n      0x01\n      add\n      dup6\n      sstore\n      dup3\n      iszero\n      tag_63\n      jumpi\n      swap2\n      dup3\n      add\n    tag_66:\n      dup3\n      dup2\n      gt\n      iszero\n      tag_67\n      jumpi\n      dup3\n      mload\n      dup3\n      sstore\n      swap2\n      0x20\n      add\n      swap2\n      swap1\n      0x01\n      add\n      swap1\n      jump(tag_66)\n    tag_67:\n    tag_63:\n      pop\n      swap1\n      pop\n      tag_68\n      swap2\n      swap1\n      tag_69\n      jump\t// in\n    tag_68:\n      pop\n      swap1\n      jump\t// out\n    tag_69:\n    tag_70:\n      dup1\n      dup3\n      gt\n      iszero\n      tag_71\n      jumpi\n      0x00\n      dup2\n      0x00\n      swap1\n      sstore\n      pop\n      0x01\n      add\n      jump(tag_70)\n    tag_71:\n      pop\n      swap1\n      jump\t// out\n        /* \"#utility.yul\":7:351   */\n    tag_73:\n      0x00\n        /* \"#utility.yul\":110:175   */\n      tag_75\n        /* \"#utility.yul\":125:174   */\n      tag_76\n        /* \"#utility.yul\":167:173   */\n      dup5\n        /* \"#utility.yul\":125:174   */\n      tag_77\n      jump\t// in\n    tag_76:\n        /* \"#utility.yul\":110:175   */\n      tag_78\n      jump\t// in\n    tag_75:\n        /* \"#utility.yul\":101:175   */\n      swap1\n      pop\n        /* \"#utility.yul\":198:204   */\n      dup3\n        /* \"#utility.yul\":191:196   */\n      dup2\n        /* \"#utility.yul\":184:205   */\n      mstore\n        /* \"#utility.yul\":236:240   */\n      0x20\n        /* \"#utility.yul\":229:234   */\n      dup2\n        /* \"#utility.yul\":225:241   */\n      add\n        /* \"#utility.yul\":274:277   */\n      dup5\n        /* \"#utility.yul\":265:271   */\n      dup5\n        /* \"#utility.yul\":260:263   */\n      dup5\n        /* \"#utility.yul\":256:272   */\n      add\n        /* \"#utility.yul\":253:278   */\n      gt\n        /* \"#utility.yul\":250:252   */\n      iszero\n      tag_79\n      jumpi\n        /* \"#utility.yul\":291:292   */\n      0x00\n        /* \"#utility.yul\":288:289   */\n      dup1\n        /* \"#utility.yul\":281:293   */\n      revert\n        /* \"#utility.yul\":250:252   */\n    tag_79:\n        /* \"#utility.yul\":304:345   */\n      tag_80\n        /* \"#utility.yul\":338:344   */\n      dup5\n        /* \"#utility.yul\":333:336   */\n      dup3\n        /* \"#utility.yul\":328:331   */\n      dup6\n        /* \"#utility.yul\":304:345   */\n      tag_81\n      jump\t// in\n    tag_80:\n        /* \"#utility.yul\":91:351   */\n      pop\n      swap4\n      swap3\n      pop\n      pop\n      pop\n      jump\t// out\n        /* \"#utility.yul\":371:644   */\n    tag_82:\n      0x00\n        /* \"#utility.yul\":476:479   */\n      dup3\n        /* \"#utility.yul\":469:473   */\n      0x1f\n        /* \"#utility.yul\":461:467   */\n      dup4\n        /* \"#utility.yul\":457:474   */\n      add\n        /* \"#utility.yul\":453:480   */\n      slt\n        /* \"#utility.yul\":443:445   */\n      tag_84\n      jumpi\n        /* \"#utility.yul\":494:495   */\n      0x00\n        /* \"#utility.yul\":491:492   */\n      dup1\n        /* \"#utility.yul\":484:496   */\n      revert\n        /* \"#utility.yul\":443:445   */\n    tag_84:\n        /* \"#utility.yul\":534:540   */\n      dup2\n        /* \"#utility.yul\":521:541   */\n      calldataload\n        /* \"#utility.yul\":559:638   */\n      tag_85\n        /* \"#utility.yul\":634:637   */\n      dup5\n        /* \"#utility.yul\":626:632   */\n      dup3\n        /* \"#utility.yul\":619:623   */\n      0x20\n        /* \"#utility.yul\":611:617   */\n      dup7\n        /* \"#utility.yul\":607:624   */\n      add\n        /* \"#utility.yul\":559:638   */\n      tag_73\n      jump\t// in\n    tag_85:\n        /* \"#utility.yul\":550:638   */\n      swap2\n      pop\n        /* \"#utility.yul\":433:644   */\n      pop\n      swap3\n      swap2\n      pop\n      pop\n      jump\t// out\n        /* \"#utility.yul\":650:789   */\n    tag_86:\n      0x00\n        /* \"#utility.yul\":734:740   */\n      dup2\n        /* \"#utility.yul\":721:741   */\n      calldataload\n        /* \"#utility.yul\":712:741   */\n      swap1\n      pop\n        /* \"#utility.yul\":750:783   */\n      tag_88\n        /* \"#utility.yul\":777:782   */\n      dup2\n        /* \"#utility.yul\":750:783   */\n      tag_89\n      jump\t// in\n    tag_88:\n        /* \"#utility.yul\":702:789   */\n      swap3\n      swap2\n      pop\n      pop\n      jump\t// out\n        /* \"#utility.yul\":795:1170   */\n    tag_15:\n      0x00\n        /* \"#utility.yul\":913:915   */\n      0x20\n        /* \"#utility.yul\":901:910   */\n      dup3\n        /* \"#utility.yul\":892:899   */\n      dup5\n        /* \"#utility.yul\":888:911   */\n      sub\n        /* \"#utility.yul\":884:916   */\n      slt\n        /* \"#utility.yul\":881:883   */\n      iszero\n      tag_91\n      jumpi\n        /* \"#utility.yul\":929:930   */\n      0x00\n        /* \"#utility.yul\":926:927   */\n      dup1\n        /* \"#utility.yul\":919:931   */\n      revert\n        /* \"#utility.yul\":881:883   */\n    tag_91:\n        /* \"#utility.yul\":1000:1001   */\n      0x00\n        /* \"#utility.yul\":989:998   */\n      dup3\n        /* \"#utility.yul\":985:1002   */\n      add\n        /* \"#utility.yul\":972:1003   */\n      calldataload\n        /* \"#utility.yul\":1030:1048   */\n      0xffffffffffffffff\n        /* \"#utility.yul\":1022:1028   */\n      dup2\n        /* \"#utility.yul\":1019:1049   */\n      gt\n        /* \"#utility.yul\":1016:1018   */\n      iszero\n      tag_92\n      jumpi\n        /* \"#utility.yul\":1062:1063   */\n      0x00\n        /* \"#utility.yul\":1059:1060   */\n      dup1\n        /* \"#utility.yul\":1052:1064   */\n      revert\n        /* \"#utility.yul\":1016:1018   */\n    tag_92:\n        /* \"#utility.yul\":1090:1153   */\n      tag_93\n        /* \"#utility.yul\":1145:1152   */\n      dup5\n        /* \"#utility.yul\":1136:1142   */\n      dup3\n        /* \"#utility.yul\":1125:1134   */\n      dup6\n        /* \"#utility.yul\":1121:1143   */\n      add\n        /* \"#utility.yul\":1090:1153   */\n      tag_82\n      jump\t// in\n    tag_93:\n        /* \"#utility.yul\":1080:1153   */\n      swap2\n      pop\n        /* \"#utility.yul\":943:1163   */\n      pop\n        /* \"#utility.yul\":871:1170   */\n      swap3\n      swap2\n      pop\n      pop\n      jump\t// out\n        /* \"#utility.yul\":1176:1438   */\n    tag_19:\n      0x00\n        /* \"#utility.yul\":1284:1286   */\n      0x20\n        /* \"#utility.yul\":1272:1281   */\n      dup3\n        /* \"#utility.yul\":1263:1270   */\n      dup5\n        /* \"#utility.yul\":1259:1282   */\n      sub\n        /* \"#utility.yul\":1255:1287   */\n      slt\n        /* \"#utility.yul\":1252:1254   */\n      iszero\n      tag_95\n      jumpi\n        /* \"#utility.yul\":1300:1301   */\n      0x00\n        /* \"#utility.yul\":1297:1298   */\n      dup1\n        /* \"#utility.yul\":1290:1302   */\n      revert\n        /* \"#utility.yul\":1252:1254   */\n    tag_95:\n        /* \"#utility.yul\":1343:1344   */\n      0x00\n        /* \"#utility.yul\":1368:1421   */\n      tag_96\n        /* \"#utility.yul\":1413:1420   */\n      dup5\n        /* \"#utility.yul\":1404:1410   */\n      dup3\n        /* \"#utility.yul\":1393:1402   */\n      dup6\n        /* \"#utility.yul\":1389:1411   */\n      add\n        /* \"#utility.yul\":1368:1421   */\n      tag_86\n      jump\t// in\n    tag_96:\n        /* \"#utility.yul\":1358:1421   */\n      swap2\n      pop\n        /* \"#utility.yul\":1314:1431   */\n      pop\n        /* \"#utility.yul\":1242:1438   */\n      swap3\n      swap2\n      pop\n      pop\n      jump\t// out\n        /* \"#utility.yul\":1444:1851   */\n    tag_33:\n      0x00\n      dup1\n        /* \"#utility.yul\":1569:1571   */\n      0x40\n        /* \"#utility.yul\":1557:1566   */\n      dup4\n        /* \"#utility.yul\":1548:1555   */\n      dup6\n        /* \"#utility.yul\":1544:1567   */\n      sub\n        /* \"#utility.yul\":1540:1572   */\n      slt\n        /* \"#utility.yul\":1537:1539   */\n      iszero\n      tag_98\n      jumpi\n        /* \"#utility.yul\":1585:1586   */\n      0x00\n        /* \"#utility.yul\":1582:1583   */\n      dup1\n        /* \"#utility.yul\":1575:1587   */\n      revert\n        /* \"#utility.yul\":1537:1539   */\n    tag_98:\n        /* \"#utility.yul\":1628:1629   */\n      0x00\n        /* \"#utility.yul\":1653:1706   */\n      tag_99\n        /* \"#utility.yul\":1698:1705   */\n      dup6\n        /* \"#utility.yul\":1689:1695   */\n      dup3\n        /* \"#utility.yul\":1678:1687   */\n      dup7\n        /* \"#utility.yul\":1674:1696   */\n      add\n        /* \"#utility.yul\":1653:1706   */\n      tag_86\n      jump\t// in\n    tag_99:\n        /* \"#utility.yul\":1643:1706   */\n      swap3\n      pop\n        /* \"#utility.yul\":1599:1716   */\n      pop\n        /* \"#utility.yul\":1755:1757   */\n      0x20\n        /* \"#utility.yul\":1781:1834   */\n      tag_100\n        /* \"#utility.yul\":1826:1833   */\n      dup6\n        /* \"#utility.yul\":1817:1823   */\n      dup3\n        /* \"#utility.yul\":1806:1815   */\n      dup7\n        /* \"#utility.yul\":1802:1824   */\n      add\n        /* \"#utility.yul\":1781:1834   */\n      tag_86\n      jump\t// in\n    tag_100:\n        /* \"#utility.yul\":1771:1834   */\n      swap2\n      pop\n        /* \"#utility.yul\":1726:1844   */\n      pop\n        /* \"#utility.yul\":1527:1851   */\n      swap3\n      pop\n      swap3\n      swap1\n      pop\n      jump\t// out\n        /* \"#utility.yul\":1857:2221   */\n    tag_101:\n      0x00\n        /* \"#utility.yul\":1973:2012   */\n      tag_103\n        /* \"#utility.yul\":2006:2011   */\n      dup3\n        /* \"#utility.yul\":1973:2012   */\n      tag_104\n      jump\t// in\n    tag_103:\n        /* \"#utility.yul\":2028:2099   */\n      tag_105\n        /* \"#utility.yul\":2092:2098   */\n      dup2\n        /* \"#utility.yul\":2087:2090   */\n      dup6\n        /* \"#utility.yul\":2028:2099   */\n      tag_106\n      jump\t// in\n    tag_105:\n        /* \"#utility.yul\":2021:2099   */\n      swap4\n      pop\n        /* \"#utility.yul\":2108:2160   */\n      tag_107\n        /* \"#utility.yul\":2153:2159   */\n      dup2\n        /* \"#utility.yul\":2148:2151   */\n      dup6\n        /* \"#utility.yul\":2141:2145   */\n      0x20\n        /* \"#utility.yul\":2134:2139   */\n      dup7\n        /* \"#utility.yul\":2130:2146   */\n      add\n        /* \"#utility.yul\":2108:2160   */\n      tag_108\n      jump\t// in\n    tag_107:\n        /* \"#utility.yul\":2185:2214   */\n      tag_109\n        /* \"#utility.yul\":2207:2213   */\n      dup2\n        /* \"#utility.yul\":2185:2214   */\n      tag_110\n      jump\t// in\n    tag_109:\n        /* \"#utility.yul\":2180:2183   */\n      dup5\n        /* \"#utility.yul\":2176:2215   */\n      add\n        /* \"#utility.yul\":2169:2215   */\n      swap2\n      pop\n        /* \"#utility.yul\":1949:2221   */\n      pop\n      swap3\n      swap2\n      pop\n      pop\n      jump\t// out\n        /* \"#utility.yul\":2227:2345   */\n    tag_111:\n        /* \"#utility.yul\":2314:2338   */\n      tag_113\n        /* \"#utility.yul\":2332:2337   */\n      dup2\n        /* \"#utility.yul\":2314:2338   */\n      tag_114\n      jump\t// in\n    tag_113:\n        /* \"#utility.yul\":2309:2312   */\n      dup3\n        /* \"#utility.yul\":2302:2339   */\n      mstore\n        /* \"#utility.yul\":2292:2345   */\n      pop\n      pop\n      jump\t// out\n        /* \"#utility.yul\":2351:2664   */\n    tag_22:\n      0x00\n        /* \"#utility.yul\":2502:2504   */\n      0x20\n        /* \"#utility.yul\":2491:2500   */\n      dup3\n        /* \"#utility.yul\":2487:2505   */\n      add\n        /* \"#utility.yul\":2479:2505   */\n      swap1\n      pop\n        /* \"#utility.yul\":2551:2560   */\n      dup2\n        /* \"#utility.yul\":2545:2549   */\n      dup2\n        /* \"#utility.yul\":2541:2561   */\n      sub\n        /* \"#utility.yul\":2537:2538   */\n      0x00\n        /* \"#utility.yul\":2526:2535   */\n      dup4\n        /* \"#utility.yul\":2522:2539   */\n      add\n        /* \"#utility.yul\":2515:2562   */\n      mstore\n        /* \"#utility.yul\":2579:2657   */\n      tag_116\n        /* \"#utility.yul\":2652:2656   */\n      dup2\n        /* \"#utility.yul\":2643:2649   */\n      dup5\n        /* \"#utility.yul\":2579:2657   */\n      tag_101\n      jump\t// in\n    tag_116:\n        /* \"#utility.yul\":2571:2657   */\n      swap1\n      pop\n        /* \"#utility.yul\":2469:2664   */\n      swap3\n      swap2\n      pop\n      pop\n      jump\t// out\n        /* \"#utility.yul\":2670:2892   */\n    tag_12:\n      0x00\n        /* \"#utility.yul\":2801:2803   */\n      0x20\n        /* \"#utility.yul\":2790:2799   */\n      dup3\n        /* \"#utility.yul\":2786:2804   */\n      add\n        /* \"#utility.yul\":2778:2804   */\n      swap1\n      pop\n        /* \"#utility.yul\":2814:2885   */\n      tag_118\n        /* \"#utility.yul\":2882:2883   */\n      0x00\n        /* \"#utility.yul\":2871:2880   */\n      dup4\n        /* \"#utility.yul\":2867:2884   */\n      add\n        /* \"#utility.yul\":2858:2864   */\n      dup5\n        /* \"#utility.yul\":2814:2885   */\n      tag_111\n      jump\t// in\n    tag_118:\n        /* \"#utility.yul\":2768:2892   */\n      swap3\n      swap2\n      pop\n      pop\n      jump\t// out\n        /* \"#utility.yul\":2898:3181   */\n    tag_78:\n      0x00\n        /* \"#utility.yul\":2964:2966   */\n      0x40\n        /* \"#utility.yul\":2958:2967   */\n      mload\n        /* \"#utility.yul\":2948:2967   */\n      swap1\n      pop\n        /* \"#utility.yul\":3006:3010   */\n      dup2\n        /* \"#utility.yul\":2998:3004   */\n      dup2\n        /* \"#utility.yul\":2994:3011   */\n      add\n        /* \"#utility.yul\":3113:3119   */\n      dup2\n        /* \"#utility.yul\":3101:3111   */\n      dup2\n        /* \"#utility.yul\":3098:3120   */\n      lt\n        /* \"#utility.yul\":3077:3095   */\n      0xffffffffffffffff\n        /* \"#utility.yul\":3065:3075   */\n      dup3\n        /* \"#utility.yul\":3062:3096   */\n      gt\n        /* \"#utility.yul\":3059:3121   */\n      or\n        /* \"#utility.yul\":3056:3058   */\n      iszero\n      tag_120\n      jumpi\n        /* \"#utility.yul\":3124:3142   */\n      tag_121\n      tag_122\n      jump\t// in\n    tag_121:\n        /* \"#utility.yul\":3056:3058   */\n    tag_120:\n        /* \"#utility.yul\":3164:3174   */\n      dup1\n        /* \"#utility.yul\":3160:3162   */\n      0x40\n        /* \"#utility.yul\":3153:3175   */\n      mstore\n        /* \"#utility.yul\":2938:3181   */\n      pop\n      swap2\n      swap1\n      pop\n      jump\t// out\n        /* \"#utility.yul\":3187:3519   */\n    tag_77:\n      0x00\n        /* \"#utility.yul\":3339:3357   */\n      0xffffffffffffffff\n        /* \"#utility.yul\":3331:3337   */\n      dup3\n        /* \"#utility.yul\":3328:3358   */\n      gt\n        /* \"#utility.yul\":3325:3327   */\n      iszero\n      tag_124\n      jumpi\n        /* \"#utility.yul\":3361:3379   */\n      tag_125\n      tag_122\n      jump\t// in\n    tag_125:\n        /* \"#utility.yul\":3325:3327   */\n    tag_124:\n        /* \"#utility.yul\":3446:3450   */\n      0x1f\n        /* \"#utility.yul\":3442:3451   */\n      not\n        /* \"#utility.yul\":3435:3439   */\n      0x1f\n        /* \"#utility.yul\":3427:3433   */\n      dup4\n        /* \"#utility.yul\":3423:3440   */\n      add\n        /* \"#utility.yul\":3419:3452   */\n      and\n        /* \"#utility.yul\":3411:3452   */\n      swap1\n      pop\n        /* \"#utility.yul\":3507:3511   */\n      0x20\n        /* \"#utility.yul\":3501:3505   */\n      dup2\n        /* \"#utility.yul\":3497:3512   */\n      add\n        /* \"#utility.yul\":3489:3512   */\n      swap1\n      pop\n        /* \"#utility.yul\":3254:3519   */\n      swap2\n      swap1\n      pop\n      jump\t// out\n        /* \"#utility.yul\":3525:3624   */\n    tag_104:\n      0x00\n        /* \"#utility.yul\":3611:3616   */\n      dup2\n        /* \"#utility.yul\":3605:3617   */\n      mload\n        /* \"#utility.yul\":3595:3617   */\n      swap1\n      pop\n        /* \"#utility.yul\":3584:3624   */\n      swap2\n      swap1\n      pop\n      jump\t// out\n        /* \"#utility.yul\":3630:3799   */\n    tag_106:\n      0x00\n        /* \"#utility.yul\":3748:3754   */\n      dup3\n        /* \"#utility.yul\":3743:3746   */\n      dup3\n        /* \"#utility.yul\":3736:3755   */\n      mstore\n        /* \"#utility.yul\":3788:3792   */\n      0x20\n        /* \"#utility.yul\":3783:3786   */\n      dup3\n        /* \"#utility.yul\":3779:3793   */\n      add\n        /* \"#utility.yul\":3764:3793   */\n      swap1\n      pop\n        /* \"#utility.yul\":3726:3799   */\n      swap3\n      swap2\n      pop\n      pop\n      jump\t// out\n        /* \"#utility.yul\":3805:3882   */\n    tag_114:\n      0x00\n        /* \"#utility.yul\":3871:3876   */\n      dup2\n        /* \"#utility.yul\":3860:3876   */\n      swap1\n      pop\n        /* \"#utility.yul\":3850:3882   */\n      swap2\n      swap1\n      pop\n      jump\t// out\n        /* \"#utility.yul\":3888:4042   */\n    tag_81:\n        /* \"#utility.yul\":3972:3978   */\n      dup3\n        /* \"#utility.yul\":3967:3970   */\n      dup2\n        /* \"#utility.yul\":3962:3965   */\n      dup4\n        /* \"#utility.yul\":3949:3979   */\n      calldatacopy\n        /* \"#utility.yul\":4034:4035   */\n      0x00\n        /* \"#utility.yul\":4025:4031   */\n      dup4\n        /* \"#utility.yul\":4020:4023   */\n      dup4\n        /* \"#utility.yul\":4016:4032   */\n      add\n        /* \"#utility.yul\":4009:4036   */\n      mstore\n        /* \"#utility.yul\":3939:4042   */\n      pop\n      pop\n      pop\n      jump\t// out\n        /* \"#utility.yul\":4048:4355   */\n    tag_108:\n        /* \"#utility.yul\":4116:4117   */\n      0x00\n        /* \"#utility.yul\":4126:4239   */\n    tag_131:\n        /* \"#utility.yul\":4140:4146   */\n      dup4\n        /* \"#utility.yul\":4137:4138   */\n      dup2\n        /* \"#utility.yul\":4134:4147   */\n      lt\n        /* \"#utility.yul\":4126:4239   */\n      iszero\n      tag_133\n      jumpi\n        /* \"#utility.yul\":4225:4226   */\n      dup1\n        /* \"#utility.yul\":4220:4223   */\n      dup3\n        /* \"#utility.yul\":4216:4227   */\n      add\n        /* \"#utility.yul\":4210:4228   */\n      mload\n        /* \"#utility.yul\":4206:4207   */\n      dup2\n        /* \"#utility.yul\":4201:4204   */\n      dup5\n        /* \"#utility.yul\":4197:4208   */\n      add\n        /* \"#utility.yul\":4190:4229   */\n      mstore\n        /* \"#utility.yul\":4162:4164   */\n      0x20\n        /* \"#utility.yul\":4159:4160   */\n      dup2\n        /* \"#utility.yul\":4155:4165   */\n      add\n        /* \"#utility.yul\":4150:4165   */\n      swap1\n      pop\n        /* \"#utility.yul\":4126:4239   */\n      jump(tag_131)\n    tag_133:\n        /* \"#utility.yul\":4257:4263   */\n      dup4\n        /* \"#utility.yul\":4254:4255   */\n      dup2\n        /* \"#utility.yul\":4251:4264   */\n      gt\n        /* \"#utility.yul\":4248:4250   */\n      iszero\n      tag_134\n      jumpi\n        /* \"#utility.yul\":4337:4338   */\n      0x00\n        /* \"#utility.yul\":4328:4334   */\n      dup5\n        /* \"#utility.yul\":4323:4326   */\n      dup5\n        /* \"#utility.yul\":4319:4335   */\n      add\n        /* \"#utility.yul\":4312:4339   */\n      mstore\n        /* \"#utility.yul\":4248:4250   */\n    tag_134:\n        /* \"#utility.yul\":4097:4355   */\n      pop\n      pop\n      pop\n      pop\n      jump\t// out\n        /* \"#utility.yul\":4361:4681   */\n    tag_44:\n      0x00\n        /* \"#utility.yul\":4442:4443   */\n      0x02\n        /* \"#utility.yul\":4436:4440   */\n      dup3\n        /* \"#utility.yul\":4432:4444   */\n      div\n        /* \"#utility.yul\":4422:4444   */\n      swap1\n      pop\n        /* \"#utility.yul\":4489:4490   */\n      0x01\n        /* \"#utility.yul\":4483:4487   */\n      dup3\n        /* \"#utility.yul\":4479:4491   */\n      and\n        /* \"#utility.yul\":4510:4528   */\n      dup1\n        /* \"#utility.yul\":4500:4502   */\n      tag_136\n      jumpi\n        /* \"#utility.yul\":4566:4570   */\n      0x7f\n        /* \"#utility.yul\":4558:4564   */\n      dup3\n        /* \"#utility.yul\":4554:4571   */\n      and\n        /* \"#utility.yul\":4544:4571   */\n      swap2\n      pop\n        /* \"#utility.yul\":4500:4502   */\n    tag_136:\n        /* \"#utility.yul\":4628:4630   */\n      0x20\n        /* \"#utility.yul\":4620:4626   */\n      dup3\n        /* \"#utility.yul\":4617:4631   */\n      lt\n        /* \"#utility.yul\":4597:4615   */\n      dup2\n        /* \"#utility.yul\":4594:4632   */\n      eq\n        /* \"#utility.yul\":4591:4593   */\n      iszero\n      tag_137\n      jumpi\n        /* \"#utility.yul\":4647:4665   */\n      tag_138\n      tag_139\n      jump\t// in\n    tag_138:\n        /* \"#utility.yul\":4591:4593   */\n    tag_137:\n        /* \"#utility.yul\":4412:4681   */\n      pop\n      swap2\n      swap1\n      pop\n      jump\t// out\n        /* \"#utility.yul\":4687:4867   */\n    tag_139:\n        /* \"#utility.yul\":4735:4812   */\n      0x4e487b7100000000000000000000000000000000000000000000000000000000\n        /* \"#utility.yul\":4732:4733   */\n      0x00\n        /* \"#utility.yul\":4725:4813   */\n      mstore\n        /* \"#utility.yul\":4832:4836   */\n      0x22\n        /* \"#utility.yul\":4829:4830   */\n      0x04\n        /* \"#utility.yul\":4822:4837   */\n      mstore\n        /* \"#utility.yul\":4856:4860   */\n      0x24\n        /* \"#utility.yul\":4853:4854   */\n      0x00\n        /* \"#utility.yul\":4846:4861   */\n      revert\n        /* \"#utility.yul\":4873:5053   */\n    tag_122:\n        /* \"#utility.yul\":4921:4998   */\n      0x4e487b7100000000000000000000000000000000000000000000000000000000\n        /* \"#utility.yul\":4918:4919   */\n      0x00\n        /* \"#utility.yul\":4911:4999   */\n      mstore\n        /* \"#utility.yul\":5018:5022   */\n      0x41\n        /* \"#utility.yul\":5015:5016   */\n      0x04\n        /* \"#utility.yul\":5008:5023   */\n      mstore\n        /* \"#utility.yul\":5042:5046   */\n      0x24\n        /* \"#utility.yul\":5039:5040   */\n      0x00\n        /* \"#utility.yul\":5032:5047   */\n      revert\n        /* \"#utility.yul\":5059:5161   */\n    tag_110:\n      0x00\n        /* \"#utility.yul\":5151:5153   */\n      0x1f\n        /* \"#utility.yul\":5147:5154   */\n      not\n        /* \"#utility.yul\":5142:5144   */\n      0x1f\n        /* \"#utility.yul\":5135:5140   */\n      dup4\n        /* \"#utility.yul\":5131:5145   */\n      add\n        /* \"#utility.yul\":5127:5155   */\n      and\n        /* \"#utility.yul\":5117:5155   */\n      swap1\n      pop\n        /* \"#utility.yul\":5107:5161   */\n      swap2\n      swap1\n      pop\n      jump\t// out\n        /* \"#utility.yul\":5167:5289   */\n    tag_89:\n        /* \"#utility.yul\":5240:5264   */\n      tag_144\n        /* \"#utility.yul\":5258:5263   */\n      dup2\n        /* \"#utility.yul\":5240:5264   */\n      tag_114\n      jump\t// in\n    tag_144:\n        /* \"#utility.yul\":5233:5238   */\n      dup2\n        /* \"#utility.yul\":5230:5265   */\n      eq\n        /* \"#utility.yul\":5220:5222   */\n      tag_145\n      jumpi\n        /* \"#utility.yul\":5279:5280   */\n      0x00\n        /* \"#utility.yul\":5276:5277   */\n      dup1\n        /* \"#utility.yul\":5269:5281   */\n      revert\n        /* \"#utility.yul\":5220:5222   */\n    tag_145:\n        /* \"#utility.yul\":5210:5289   */\n      pop\n      jump\t// out\n\n    auxdata: 0xa264697066735822122030646c1d1ea59171f2530f0f7d4c7aa7a1524738170d64715e5342850438fc6164736f6c63430008000033\n}\n",
				"bytecode": {
					"linkReferences": {},
					"object": "60806040526040518060600160405280600160ff168152602001600260ff168152602001600360ff1681525060009060036200003d92919062000193565b5060405180606001604052806040518060400160405280600581526020017f6170706c6500000000000000000000000000000000000000000000000000000081525081526020016040518060400160405280600681526020017f62616e616e61000000000000000000000000000000000000000000000000000081525081526020016040518060400160405280600681526020017f636172726f74000000000000000000000000000000000000000000000000000081525081525060019060036200010a929190620001ea565b5060405180604001604052806040518060600160405280600160ff168152602001600260ff168152602001600360ff1681525081526020016040518060600160405280600460ff168152602001600560ff168152602001600660ff1681525081525060039060026200017e92919062000251565b503480156200018c57600080fd5b5062000481565b828054828255906000526020600020908101928215620001d7579160200282015b82811115620001d6578251829060ff16905591602001919060010190620001b4565b5b509050620001e69190620002b3565b5090565b8280548282559060005260206000209081019282156200023e579160200282015b828111156200023d5782518290805190602001906200022c929190620002d2565b50916020019190600101906200020b565b5b5090506200024d919062000363565b5090565b828054828255906000526020600020908101928215620002a0579160200282015b828111156200029f578251829060036200028e92919062000193565b509160200191906001019062000272565b5b509050620002af91906200038b565b5090565b5b80821115620002ce576000816000905550600101620002b4565b5090565b828054620002e0906200041c565b90600052602060002090601f01602090048101928262000304576000855562000350565b82601f106200031f57805160ff191683800117855562000350565b8280016001018555821562000350579182015b828111156200034f57825182559160200191906001019062000332565b5b5090506200035f9190620002b3565b5090565b5b808211156200038757600081816200037d9190620003b3565b5060010162000364565b5090565b5b80821115620003af5760008181620003a59190620003f9565b506001016200038c565b5090565b508054620003c1906200041c565b6000825580601f10620003d55750620003f6565b601f016020900490600052602060002090810190620003f59190620002b3565b5b50565b5080546000825590600052602060002090810190620004199190620002b3565b50565b600060028204905060018216806200043557607f821691505b602082108114156200044c576200044b62000452565b5b50919050565b7f4e487b7100000000000000000000000000000000000000000000000000000000600052602260045260246000fd5b61076880620004916000396000f3fe608060405234801561001057600080fd5b50600436106100625760003560e01c806326eb4dbb146100675780633a5fbaaa146100855780635e383d21146100a15780636422c4c8146100d15780639ae918c714610101578063d3268fc114610131575b600080fd5b61006f610161565b60405161007c9190610596565b60405180910390f35b61009f600480360381019061009a9190610486565b61016e565b005b6100bb60048036038101906100b691906104c7565b6101ad565b6040516100c89190610574565b60405180910390f35b6100eb60048036038101906100e691906104c7565b610259565b6040516100f89190610574565b60405180910390f35b61011b600480360381019061011691906104c7565b610305565b6040516101289190610596565b60405180910390f35b61014b600480360381019061014691906104f0565b610329565b6040516101589190610596565b60405180910390f35b6000600280549050905090565b6002819080600181540180825580915050600190039060005260206000200160009091909190915090805190602001906101a9929190610366565b5050565b600281815481106101bd57600080fd5b9060005260206000200160009150905080546101d89061067a565b80601f01602080910402602001604051908101604052809291908181526020018280546102049061067a565b80156102515780601f1061022657610100808354040283529160200191610251565b820191906000526020600020905b81548152906001019060200180831161023457829003601f168201915b505050505081565b6001818154811061026957600080fd5b9060005260206000200160009150905080546102849061067a565b80601f01602080910402602001604051908101604052809291908181526020018280546102b09061067a565b80156102fd5780601f106102d2576101008083540402835291602001916102fd565b820191906000526020600020905b8154815290600101906020018083116102e057829003601f168201915b505050505081565b6000818154811061031557600080fd5b906000526020600020016000915090505481565b6003828154811061033957600080fd5b90600052602060002001818154811061035157600080fd5b90600052602060002001600091509150505481565b8280546103729061067a565b90600052602060002090601f01602090048101928261039457600085556103db565b82601f106103ad57805160ff19168380011785556103db565b828001600101855582156103db579182015b828111156103da5782518255916020019190600101906103bf565b5b5090506103e891906103ec565b5090565b5b808211156104055760008160009055506001016103ed565b5090565b600061041c610417846105e2565b6105b1565b90508281526020810184848401111561043457600080fd5b61043f848285610638565b509392505050565b600082601f83011261045857600080fd5b8135610468848260208601610409565b91505092915050565b6000813590506104808161071b565b92915050565b60006020828403121561049857600080fd5b600082013567ffffffffffffffff8111156104b257600080fd5b6104be84828501610447565b91505092915050565b6000602082840312156104d957600080fd5b60006104e784828501610471565b91505092915050565b6000806040838503121561050357600080fd5b600061051185828601610471565b925050602061052285828601610471565b9150509250929050565b600061053782610612565b610541818561061d565b9350610551818560208601610647565b61055a8161070a565b840191505092915050565b61056e8161062e565b82525050565b6000602082019050818103600083015261058e818461052c565b905092915050565b60006020820190506105ab6000830184610565565b92915050565b6000604051905081810181811067ffffffffffffffff821117156105d8576105d76106db565b5b8060405250919050565b600067ffffffffffffffff8211156105fd576105fc6106db565b5b601f19601f8301169050602081019050919050565b600081519050919050565b600082825260208201905092915050565b6000819050919050565b82818337600083830152505050565b60005b8381101561066557808201518184015260208101905061064a565b83811115610674576000848401525b50505050565b6000600282049050600182168061069257607f821691505b602082108114156106a6576106a56106ac565b5b50919050565b7f4e487b7100000000000000000000000000000000000000000000000000000000600052602260045260246000fd5b7f4e487b7100000000000000000000000000000000000000000000000000000000600052604160045260246000fd5b6000601f19601f8301169050919050565b6107248161062e565b811461072f57600080fd5b5056fea264697066735822122030646c1d1ea59171f2530f0f7d4c7aa7a1524738170d64715e5342850438fc6164736f6c63430008000033",
					"opcodes": "PUSH1 0x80 PUSH1 0x40 MSTORE PUSH1 0x40 MLOAD DUP1 PUSH1 0x60 ADD PUSH1 0x40 MSTORE DUP1 PUSH1 0x1 PUSH1 0xFF AND DUP2 MSTORE PUSH1 0x20 ADD PUSH1 0x2 PUSH1 0xFF AND DUP2 MSTORE PUSH1 0x20 ADD PUSH1 0x3 PUSH1 0xFF AND DUP2 MSTORE POP PUSH1 0x0 SWAP1 PUSH1 0x3 PUSH3 0x3D SWAP3 SWAP2 SWAP1 PUSH3 0x193 JUMP JUMPDEST POP PUSH1 0x40 MLOAD DUP1 PUSH1 0x60 ADD PUSH1 0x40 MSTORE DUP1 PUSH1 0x40 MLOAD DUP1 PUSH1 0x40 ADD PUSH1 0x40 MSTORE DUP1 PUSH1 0x5 DUP2 MSTORE PUSH1 0x20 ADD PUSH32 0x6170706C65000000000000000000000000000000000000000000000000000000 DUP2 MSTORE POP DUP2 MSTORE PUSH1 0x20 ADD PUSH1 0x40 MLOAD DUP1 PUSH1 0x40 ADD PUSH1 0x40 MSTORE DUP1 PUSH1 0x6 DUP2 MSTORE PUSH1 0x20 ADD PUSH32 0x62616E616E610000000000000000000000000000000000000000000000000000 DUP2 MSTORE POP DUP2 MSTORE PUSH1 0x20 ADD PUSH1 0x40 MLOAD DUP1 PUSH1 0x40 ADD PUSH1 0x40 MSTORE DUP1 PUSH1 0x6 DUP2 MSTORE PUSH1 0x20 ADD PUSH32 0x636172726F740000000000000000000000000000000000000000000000000000 DUP2 MSTORE POP DUP2 MSTORE POP PUSH1 0x1 SWAP1 PUSH1 0x3 PUSH3 0x10A SWAP3 SWAP2 SWAP1 PUSH3 0x1EA JUMP JUMPDEST POP PUSH1 0x40 MLOAD DUP1 PUSH1 0x40 ADD PUSH1 0x40 MSTORE DUP1 PUSH1 0x40 MLOAD DUP1 PUSH1 0x60 ADD PUSH1 0x40 MSTORE DUP1 PUSH1 0x1 PUSH1 0xFF AND DUP2 MSTORE PUSH1 0x20 ADD PUSH1 0x2 PUSH1 0xFF AND DUP2 MSTORE PUSH1 0x20 ADD PUSH1 0x3 PUSH1 0xFF AND DUP2 MSTORE POP DUP2 MSTORE PUSH1 0x20 ADD PUSH1 0x40 MLOAD DUP1 PUSH1 0x60 ADD PUSH1 0x40 MSTORE DUP1 PUSH1 0x4 PUSH1 0xFF AND DUP2 MSTORE PUSH1 0x20 ADD PUSH1 0x5 PUSH1 0xFF AND DUP2 MSTORE PUSH1 0x20 ADD PUSH1 0x6 PUSH1 0xFF AND DUP2 MSTORE POP DUP2 MSTORE POP PUSH1 0x3 SWAP1 PUSH1 0x2 PUSH3 0x17E SWAP3 SWAP2 SWAP1 PUSH3 0x251 JUMP JUMPDEST POP CALLVALUE DUP1 ISZERO PUSH3 0x18C JUMPI PUSH1 0x0 DUP1 REVERT JUMPDEST POP PUSH3 0x481 JUMP JUMPDEST DUP3 DUP1 SLOAD DUP3 DUP3 SSTORE SWAP1 PUSH1 0x0 MSTORE PUSH1 0x20 PUSH1 0x0 KECCAK256 SWAP1 DUP2 ADD SWAP3 DUP3 ISZERO PUSH3 0x1D7 JUMPI SWAP2 PUSH1 0x20 MUL DUP3 ADD JUMPDEST DUP3 DUP2 GT ISZERO PUSH3 0x1D6 JUMPI DUP3 MLOAD DUP3 SWAP1 PUSH1 0xFF AND SWAP1 SSTORE SWAP2 PUSH1 0x20 ADD SWAP2 SWAP1 PUSH1 0x1 ADD SWAP1 PUSH3 0x1B4 JUMP JUMPDEST JUMPDEST POP SWAP1 POP PUSH3 0x1E6 SWAP2 SWAP1 PUSH3 0x2B3 JUMP JUMPDEST POP SWAP1 JUMP JUMPDEST DUP3 DUP1 SLOAD DUP3 DUP3 SSTORE SWAP1 PUSH1 0x0 MSTORE PUSH1 0x20 PUSH1 0x0 KECCAK256 SWAP1 DUP2 ADD SWAP3 DUP3 ISZERO PUSH3 0x23E JUMPI SWAP2 PUSH1 0x20 MUL DUP3 ADD JUMPDEST DUP3 DUP2 GT ISZERO PUSH3 0x23D JUMPI DUP3 MLOAD DUP3 SWAP1 DUP1 MLOAD SWAP1 PUSH1 0x20 ADD SWAP1 PUSH3 0x22C SWAP3 SWAP2 SWAP1 PUSH3 0x2D2 JUMP JUMPDEST POP SWAP2 PUSH1 0x20 ADD SWAP2 SWAP1 PUSH1 0x1 ADD SWAP1 PUSH3 0x20B JUMP JUMPDEST JUMPDEST POP SWAP1 POP PUSH3 0x24D SWAP2 SWAP1 PUSH3 0x363 JUMP JUMPDEST POP SWAP1 JUMP JUMPDEST DUP3 DUP1 SLOAD DUP3 DUP3 SSTORE SWAP1 PUSH1 0x0 MSTORE PUSH1 0x20 PUSH1 0x0 KECCAK256 SWAP1 DUP2 ADD SWAP3 DUP3 ISZERO PUSH3 0x2A0 JUMPI SWAP2 PUSH1 0x20 MUL DUP3 ADD JUMPDEST DUP3 DUP2 GT ISZERO PUSH3 0x29F JUMPI DUP3 MLOAD DUP3 SWAP1 PUSH1 0x3 PUSH3 0x28E SWAP3 SWAP2 SWAP1 PUSH3 0x193 JUMP JUMPDEST POP SWAP2 PUSH1 0x20 ADD SWAP2 SWAP1 PUSH1 0x1 ADD SWAP1 PUSH3 0x272 JUMP JUMPDEST JUMPDEST POP SWAP1 POP PUSH3 0x2AF SWAP2 SWAP1 PUSH3 0x38B JUMP JUMPDEST POP SWAP1 JUMP JUMPDEST JUMPDEST DUP1 DUP3 GT ISZERO PUSH3 0x2CE JUMPI PUSH1 0x0 DUP2 PUSH1 0x0 SWAP1 SSTORE POP PUSH1 0x1 ADD PUSH3 0x2B4 JUMP JUMPDEST POP SWAP1 JUMP JUMPDEST DUP3 DUP1 SLOAD PUSH3 0x2E0 SWAP1 PUSH3 0x41C JUMP JUMPDEST SWAP1 PUSH1 0x0 MSTORE PUSH1 0x20 PUSH1 0x0 KECCAK256 SWAP1 PUSH1 0x1F ADD PUSH1 0x20 SWAP1 DIV DUP2 ADD SWAP3 DUP3 PUSH3 0x304 JUMPI PUSH1 0x0 DUP6 SSTORE PUSH3 0x350 JUMP JUMPDEST DUP3 PUSH1 0x1F LT PUSH3 0x31F JUMPI DUP1 MLOAD PUSH1 0xFF NOT AND DUP4 DUP1 ADD OR DUP6 SSTORE PUSH3 0x350 JUMP JUMPDEST DUP3 DUP1 ADD PUSH1 0x1 ADD DUP6 SSTORE DUP3 ISZERO PUSH3 0x350 JUMPI SWAP2 DUP3 ADD JUMPDEST DUP3 DUP2 GT ISZERO PUSH3 0x34F JUMPI DUP3 MLOAD DUP3 SSTORE SWAP2 PUSH1 0x20 ADD SWAP2 SWAP1 PUSH1 0x1 ADD SWAP1 PUSH3 0x332 JUMP JUMPDEST JUMPDEST POP SWAP1 POP PUSH3 0x35F SWAP2 SWAP1 PUSH3 0x2B3 JUMP JUMPDEST POP SWAP1 JUMP JUMPDEST JUMPDEST DUP1 DUP3 GT ISZERO PUSH3 0x387 JUMPI PUSH1 0x0 DUP2 DUP2 PUSH3 0x37D SWAP2 SWAP1 PUSH3 0x3B3 JUMP JUMPDEST POP PUSH1 0x1 ADD PUSH3 0x364 JUMP JUMPDEST POP SWAP1 JUMP JUMPDEST JUMPDEST DUP1 DUP3 GT ISZERO PUSH3 0x3AF JUMPI PUSH1 0x0 DUP2 DUP2 PUSH3 0x3A5 SWAP2 SWAP1 PUSH3 0x3F9 JUMP JUMPDEST POP PUSH1 0x1 ADD PUSH3 0x38C JUMP JUMPDEST POP SWAP1 JUMP JUMPDEST POP DUP1 SLOAD PUSH3 0x3C1 SWAP1 PUSH3 0x41C JUMP JUMPDEST PUSH1 0x0 DUP3 SSTORE DUP1 PUSH1 0x1F LT PUSH3 0x3D5 JUMPI POP PUSH3 0x3F6 JUMP JUMPDEST PUSH1 0x1F ADD PUSH1 0x20 SWAP1 DIV SWAP1 PUSH1 0x0 MSTORE PUSH1 0x20 PUSH1 0x0 KECCAK256 SWAP1 DUP2 ADD SWAP1 PUSH3 0x3F5 SWAP2 SWAP1 PUSH3 0x2B3 JUMP JUMPDEST JUMPDEST POP JUMP JUMPDEST POP DUP1 SLOAD PUSH1 0x0 DUP3 SSTORE SWAP1 PUSH1 0x0 MSTORE PUSH1 0x20 PUSH1 0x0 KECCAK256 SWAP1 DUP2 ADD SWAP1 PUSH3 0x419 SWAP2 SWAP1 PUSH3 0x2B3 JUMP JUMPDEST POP JUMP JUMPDEST PUSH1 0x0 PUSH1 0x2 DUP3 DIV SWAP1 POP PUSH1 0x1 DUP3 AND DUP1 PUSH3 0x435 JUMPI PUSH1 0x7F DUP3 AND SWAP2 POP JUMPDEST PUSH1 0x20 DUP3 LT DUP2 EQ ISZERO PUSH3 0x44C JUMPI PUSH3 0x44B PUSH3 0x452 JUMP JUMPDEST JUMPDEST POP SWAP2 SWAP1 POP JUMP JUMPDEST PUSH32 0x4E487B7100000000000000000000000000000000000000000000000000000000 PUSH1 0x0 MSTORE PUSH1 0x22 PUSH1 0x4 MSTORE PUSH1 0x24 PUSH1 0x0 REVERT JUMPDEST PUSH2 0x768 DUP1 PUSH3 0x491 PUSH1 0x0 CODECOPY PUSH1 0x0 RETURN INVALID PUSH1 0x80 PUSH1 0x40 MSTORE CALLVALUE DUP1 ISZERO PUSH2 0x10 JUMPI PUSH1 0x0 DUP1 REVERT JUMPDEST POP PUSH1 0x4 CALLDATASIZE LT PUSH2 0x62 JUMPI PUSH1 0x0 CALLDATALOAD PUSH1 0xE0 SHR DUP1 PUSH4 0x26EB4DBB EQ PUSH2 0x67 JUMPI DUP1 PUSH4 0x3A5FBAAA EQ PUSH2 0x85 JUMPI DUP1 PUSH4 0x5E383D21 EQ PUSH2 0xA1 JUMPI DUP1 PUSH4 0x6422C4C8 EQ PUSH2 0xD1 JUMPI DUP1 PUSH4 0x9AE918C7 EQ PUSH2 0x101 JUMPI DUP1 PUSH4 0xD3268FC1 EQ PUSH2 0x131 JUMPI JUMPDEST PUSH1 0x0 DUP1 REVERT JUMPDEST PUSH2 0x6F PUSH2 0x161 JUMP JUMPDEST PUSH1 0x40 MLOAD PUSH2 0x7C SWAP2 SWAP1 PUSH2 0x596 JUMP JUMPDEST PUSH1 0x40 MLOAD DUP1 SWAP2 SUB SWAP1 RETURN JUMPDEST PUSH2 0x9F PUSH1 0x4 DUP1 CALLDATASIZE SUB DUP2 ADD SWAP1 PUSH2 0x9A SWAP2 SWAP1 PUSH2 0x486 JUMP JUMPDEST PUSH2 0x16E JUMP JUMPDEST STOP JUMPDEST PUSH2 0xBB PUSH1 0x4 DUP1 CALLDATASIZE SUB DUP2 ADD SWAP1 PUSH2 0xB6 SWAP2 SWAP1 PUSH2 0x4C7 JUMP JUMPDEST PUSH2 0x1AD JUMP JUMPDEST PUSH1 0x40 MLOAD PUSH2 0xC8 SWAP2 SWAP1 PUSH2 0x574 JUMP JUMPDEST PUSH1 0x40 MLOAD DUP1 SWAP2 SUB SWAP1 RETURN JUMPDEST PUSH2 0xEB PUSH1 0x4 DUP1 CALLDATASIZE SUB DUP2 ADD SWAP1 PUSH2 0xE6 SWAP2 SWAP1 PUSH2 0x4C7 JUMP JUMPDEST PUSH2 0x259 JUMP JUMPDEST PUSH1 0x40 MLOAD PUSH2 0xF8 SWAP2 SWAP1 PUSH2 0x574 JUMP JUMPDEST PUSH1 0x40 MLOAD DUP1 SWAP2 SUB SWAP1 RETURN JUMPDEST PUSH2 0x11B PUSH1 0x4 DUP1 CALLDATASIZE SUB DUP2 ADD SWAP1 PUSH2 0x116 SWAP2 SWAP1 PUSH2 0x4C7 JUMP JUMPDEST PUSH2 0x305 JUMP JUMPDEST PUSH1 0x40 MLOAD PUSH2 0x128 SWAP2 SWAP1 PUSH2 0x596 JUMP JUMPDEST PUSH1 0x40 MLOAD DUP1 SWAP2 SUB SWAP1 RETURN JUMPDEST PUSH2 0x14B PUSH1 0x4 DUP1 CALLDATASIZE SUB DUP2 ADD SWAP1 PUSH2 0x146 SWAP2 SWAP1 PUSH2 0x4F0 JUMP JUMPDEST PUSH2 0x329 JUMP JUMPDEST PUSH1 0x40 MLOAD PUSH2 0x158 SWAP2 SWAP1 PUSH2 0x596 JUMP JUMPDEST PUSH1 0x40 MLOAD DUP1 SWAP2 SUB SWAP1 RETURN JUMPDEST PUSH1 0x0 PUSH1 0x2 DUP1 SLOAD SWAP1 POP SWAP1 POP SWAP1 JUMP JUMPDEST PUSH1 0x2 DUP2 SWAP1 DUP1 PUSH1 0x1 DUP2 SLOAD ADD DUP1 DUP3 SSTORE DUP1 SWAP2 POP POP PUSH1 0x1 SWAP1 SUB SWAP1 PUSH1 0x0 MSTORE PUSH1 0x20 PUSH1 0x0 KECCAK256 ADD PUSH1 0x0 SWAP1 SWAP2 SWAP1 SWAP2 SWAP1 SWAP2 POP SWAP1 DUP1 MLOAD SWAP1 PUSH1 0x20 ADD SWAP1 PUSH2 0x1A9 SWAP3 SWAP2 SWAP1 PUSH2 0x366 JUMP JUMPDEST POP POP JUMP JUMPDEST PUSH1 0x2 DUP2 DUP2 SLOAD DUP2 LT PUSH2 0x1BD JUMPI PUSH1 0x0 DUP1 REVERT JUMPDEST SWAP1 PUSH1 0x0 MSTORE PUSH1 0x20 PUSH1 0x0 KECCAK256 ADD PUSH1 0x0 SWAP2 POP SWAP1 POP DUP1 SLOAD PUSH2 0x1D8 SWAP1 PUSH2 0x67A JUMP JUMPDEST DUP1 PUSH1 0x1F ADD PUSH1 0x20 DUP1 SWAP2 DIV MUL PUSH1 0x20 ADD PUSH1 0x40 MLOAD SWAP1 DUP2 ADD PUSH1 0x40 MSTORE DUP1 SWAP3 SWAP2 SWAP1 DUP2 DUP2 MSTORE PUSH1 0x20 ADD DUP3 DUP1 SLOAD PUSH2 0x204 SWAP1 PUSH2 0x67A JUMP JUMPDEST DUP1 ISZERO PUSH2 0x251 JUMPI DUP1 PUSH1 0x1F LT PUSH2 0x226 JUMPI PUSH2 0x100 DUP1 DUP4 SLOAD DIV MUL DUP4 MSTORE SWAP2 PUSH1 0x20 ADD SWAP2 PUSH2 0x251 JUMP JUMPDEST DUP3 ADD SWAP2 SWAP1 PUSH1 0x0 MSTORE PUSH1 0x20 PUSH1 0x0 KECCAK256 SWAP1 JUMPDEST DUP2 SLOAD DUP2 MSTORE SWAP1 PUSH1 0x1 ADD SWAP1 PUSH1 0x20 ADD DUP1 DUP4 GT PUSH2 0x234 JUMPI DUP3 SWAP1 SUB PUSH1 0x1F AND DUP3 ADD SWAP2 JUMPDEST POP POP POP POP POP DUP2 JUMP JUMPDEST PUSH1 0x1 DUP2 DUP2 SLOAD DUP2 LT PUSH2 0x269 JUMPI PUSH1 0x0 DUP1 REVERT JUMPDEST SWAP1 PUSH1 0x0 MSTORE PUSH1 0x20 PUSH1 0x0 KECCAK256 ADD PUSH1 0x0 SWAP2 POP SWAP1 POP DUP1 SLOAD PUSH2 0x284 SWAP1 PUSH2 0x67A JUMP JUMPDEST DUP1 PUSH1 0x1F ADD PUSH1 0x20 DUP1 SWAP2 DIV MUL PUSH1 0x20 ADD PUSH1 0x40 MLOAD SWAP1 DUP2 ADD PUSH1 0x40 MSTORE DUP1 SWAP3 SWAP2 SWAP1 DUP2 DUP2 MSTORE PUSH1 0x20 ADD DUP3 DUP1 SLOAD PUSH2 0x2B0 SWAP1 PUSH2 0x67A JUMP JUMPDEST DUP1 ISZERO PUSH2 0x2FD JUMPI DUP1 PUSH1 0x1F LT PUSH2 0x2D2 JUMPI PUSH2 0x100 DUP1 DUP4 SLOAD DIV MUL DUP4 MSTORE SWAP2 PUSH1 0x20 ADD SWAP2 PUSH2 0x2FD JUMP JUMPDEST DUP3 ADD SWAP2 SWAP1 PUSH1 0x0 MSTORE PUSH1 0x20 PUSH1 0x0 KECCAK256 SWAP1 JUMPDEST DUP2 SLOAD DUP2 MSTORE SWAP1 PUSH1 0x1 ADD SWAP1 PUSH1 0x20 ADD DUP1 DUP4 GT PUSH2 0x2E0 JUMPI DUP3 SWAP1 SUB PUSH1 0x1F AND DUP3 ADD SWAP2 JUMPDEST POP POP POP POP POP DUP2 JUMP JUMPDEST PUSH1 0x0 DUP2 DUP2 SLOAD DUP2 LT PUSH2 0x315 JUMPI PUSH1 0x0 DUP1 REVERT JUMPDEST SWAP1 PUSH1 0x0 MSTORE PUSH1 0x20 PUSH1 0x0 KECCAK256 ADD PUSH1 0x0 SWAP2 POP SWAP1 POP SLOAD DUP2 JUMP JUMPDEST PUSH1 0x3 DUP3 DUP2 SLOAD DUP2 LT PUSH2 0x339 JUMPI PUSH1 0x0 DUP1 REVERT JUMPDEST SWAP1 PUSH1 0x0 MSTORE PUSH1 0x20 PUSH1 0x0 KECCAK256 ADD DUP2 DUP2 SLOAD DUP2 LT PUSH2 0x351 JUMPI PUSH1 0x0 DUP1 REVERT JUMPDEST SWAP1 PUSH1 0x0 MSTORE PUSH1 0x20 PUSH1 0x0 KECCAK256 ADD PUSH1 0x0 SWAP2 POP SWAP2 POP POP SLOAD DUP2 JUMP JUMPDEST DUP3 DUP1 SLOAD PUSH2 0x372 SWAP1 PUSH2 0x67A JUMP JUMPDEST SWAP1 PUSH1 0x0 MSTORE PUSH1 0x20 PUSH1 0x0 KECCAK256 SWAP1 PUSH1 0x1F ADD PUSH1 0x20 SWAP1 DIV DUP2 ADD SWAP3 DUP3 PUSH2 0x394 JUMPI PUSH1 0x0 DUP6 SSTORE PUSH2 0x3DB JUMP JUMPDEST DUP3 PUSH1 0x1F LT PUSH2 0x3AD JUMPI DUP1 MLOAD PUSH1 0xFF NOT AND DUP4 DUP1 ADD OR DUP6 SSTORE PUSH2 0x3DB JUMP JUMPDEST DUP3 DUP1 ADD PUSH1 0x1 ADD DUP6 SSTORE DUP3 ISZERO PUSH2 0x3DB JUMPI SWAP2 DUP3 ADD JUMPDEST DUP3 DUP2 GT ISZERO PUSH2 0x3DA JUMPI DUP3 MLOAD DUP3 SSTORE SWAP2 PUSH1 0x20 ADD SWAP2 SWAP1 PUSH1 0x1 ADD SWAP1 PUSH2 0x3BF JUMP JUMPDEST JUMPDEST POP SWAP1 POP PUSH2 0x3E8 SWAP2 SWAP1 PUSH2 0x3EC JUMP JUMPDEST POP SWAP1 JUMP JUMPDEST JUMPDEST DUP1 DUP3 GT ISZERO PUSH2 0x405 JUMPI PUSH1 0x0 DUP2 PUSH1 0x0 SWAP1 SSTORE POP PUSH1 0x1 ADD PUSH2 0x3ED JUMP JUMPDEST POP SWAP1 JUMP JUMPDEST PUSH1 0x0 PUSH2 0x41C PUSH2 0x417 DUP5 PUSH2 0x5E2 JUMP JUMPDEST PUSH2 0x5B1 JUMP JUMPDEST SWAP1 POP DUP3 DUP2 MSTORE PUSH1 0x20 DUP2 ADD DUP5 DUP5 DUP5 ADD GT ISZERO PUSH2 0x434 JUMPI PUSH1 0x0 DUP1 REVERT JUMPDEST PUSH2 0x43F DUP5 DUP3 DUP6 PUSH2 0x638 JUMP JUMPDEST POP SWAP4 SWAP3 POP POP POP JUMP JUMPDEST PUSH1 0x0 DUP3 PUSH1 0x1F DUP4 ADD SLT PUSH2 0x458 JUMPI PUSH1 0x0 DUP1 REVERT JUMPDEST DUP2 CALLDATALOAD PUSH2 0x468 DUP5 DUP3 PUSH1 0x20 DUP7 ADD PUSH2 0x409 JUMP JUMPDEST SWAP2 POP POP SWAP3 SWAP2 POP POP JUMP JUMPDEST PUSH1 0x0 DUP2 CALLDATALOAD SWAP1 POP PUSH2 0x480 DUP2 PUSH2 0x71B JUMP JUMPDEST SWAP3 SWAP2 POP POP JUMP JUMPDEST PUSH1 0x0 PUSH1 0x20 DUP3 DUP5 SUB SLT ISZERO PUSH2 0x498 JUMPI PUSH1 0x0 DUP1 REVERT JUMPDEST PUSH1 0x0 DUP3 ADD CALLDATALOAD PUSH8 0xFFFFFFFFFFFFFFFF DUP2 GT ISZERO PUSH2 0x4B2 JUMPI PUSH1 0x0 DUP1 REVERT JUMPDEST PUSH2 0x4BE DUP5 DUP3 DUP6 ADD PUSH2 0x447 JUMP JUMPDEST SWAP2 POP POP SWAP3 SWAP2 POP POP JUMP JUMPDEST PUSH1 0x0 PUSH1 0x20 DUP3 DUP5 SUB SLT ISZERO PUSH2 0x4D9 JUMPI PUSH1 0x0 DUP1 REVERT JUMPDEST PUSH1 0x0 PUSH2 0x4E7 DUP5 DUP3 DUP6 ADD PUSH2 0x471 JUMP JUMPDEST SWAP2 POP POP SWAP3 SWAP2 POP POP JUMP JUMPDEST PUSH1 0x0 DUP1 PUSH1 0x40 DUP4 DUP6 SUB SLT ISZERO PUSH2 0x503 JUMPI PUSH1 0x0 DUP1 REVERT JUMPDEST PUSH1 0x0 PUSH2 0x511 DUP6 DUP3 DUP7 ADD PUSH2 0x471 JUMP JUMPDEST SWAP3 POP POP PUSH1 0x20 PUSH2 0x522 DUP6 DUP3 DUP7 ADD PUSH2 0x471 JUMP JUMPDEST SWAP2 POP POP SWAP3 POP SWAP3 SWAP1 POP JUMP JUMPDEST PUSH1 0x0 PUSH2 0x537 DUP3 PUSH2 0x612 JUMP JUMPDEST PUSH2 0x541 DUP2 DUP6 PUSH2 0x61D JUMP JUMPDEST SWAP4 POP PUSH2 0x551 DUP2 DUP6 PUSH1 0x20 DUP7 ADD PUSH2 0x647 JUMP JUMPDEST PUSH2 0x55A DUP2 PUSH2 0x70A JUMP JUMPDEST DUP5 ADD SWAP2 POP POP SWAP3 SWAP2 POP POP JUMP JUMPDEST PUSH2 0x56E DUP2 PUSH2 0x62E JUMP JUMPDEST DUP3 MSTORE POP POP JUMP JUMPDEST PUSH1 0x0 PUSH1 0x20 DUP3 ADD SWAP1 POP DUP2 DUP2 SUB PUSH1 0x0 DUP4 ADD MSTORE PUSH2 0x58E DUP2 DUP5 PUSH2 0x52C JUMP JUMPDEST SWAP1 POP SWAP3 SWAP2 POP POP JUMP JUMPDEST PUSH1 0x0 PUSH1 0x20 DUP3 ADD SWAP1 POP PUSH2 0x5AB PUSH1 0x0 DUP4 ADD DUP5 PUSH2 0x565 JUMP JUMPDEST SWAP3 SWAP2 POP POP JUMP JUMPDEST PUSH1 0x0 PUSH1 0x40 MLOAD SWAP1 POP DUP2 DUP2 ADD DUP2 DUP2 LT PUSH8 0xFFFFFFFFFFFFFFFF DUP3 GT OR ISZERO PUSH2 0x5D8 JUMPI PUSH2 0x5D7 PUSH2 0x6DB JUMP JUMPDEST JUMPDEST DUP1 PUSH1 0x40 MSTORE POP SWAP2 SWAP1 POP JUMP JUMPDEST PUSH1 0x0 PUSH8 0xFFFFFFFFFFFFFFFF DUP3 GT ISZERO PUSH2 0x5FD JUMPI PUSH2 0x5FC PUSH2 0x6DB JUMP JUMPDEST JUMPDEST PUSH1 0x1F NOT PUSH1 0x1F DUP4 ADD AND SWAP1 POP PUSH1 0x20 DUP2 ADD SWAP1 POP SWAP2 SWAP1 POP JUMP JUMPDEST PUSH1 0x0 DUP2 MLOAD SWAP1 POP SWAP2 SWAP1 POP JUMP JUMPDEST PUSH1 0x0 DUP3 DUP3 MSTORE PUSH1 0x20 DUP3 ADD SWAP1 POP SWAP3 SWAP2 POP POP JUMP JUMPDEST PUSH1 0x0 DUP2 SWAP1 POP SWAP2 SWAP1 POP JUMP JUMPDEST DUP3 DUP2 DUP4 CALLDATACOPY PUSH1 0x0 DUP4 DUP4 ADD MSTORE POP POP POP JUMP JUMPDEST PUSH1 0x0 JUMPDEST DUP4 DUP2 LT ISZERO PUSH2 0x665 JUMPI DUP1 DUP3 ADD MLOAD DUP2 DUP5 ADD MSTORE PUSH1 0x20 DUP2 ADD SWAP1 POP PUSH2 0x64A JUMP JUMPDEST DUP4 DUP2 GT ISZERO PUSH2 0x674 JUMPI PUSH1 0x0 DUP5 DUP5 ADD MSTORE JUMPDEST POP POP POP POP JUMP JUMPDEST PUSH1 0x0 PUSH1 0x2 DUP3 DIV SWAP1 POP PUSH1 0x1 DUP3 AND DUP1 PUSH2 0x692 JUMPI PUSH1 0x7F DUP3 AND SWAP2 POP JUMPDEST PUSH1 0x20 DUP3 LT DUP2 EQ ISZERO PUSH2 0x6A6 JUMPI PUSH2 0x6A5 PUSH2 0x6AC JUMP JUMPDEST JUMPDEST POP SWAP2 SWAP1 POP JUMP JUMPDEST PUSH32 0x4E487B7100000000000000000000000000000000000000000000000000000000 PUSH1 0x0 MSTORE PUSH1 0x22 PUSH1 0x4 MSTORE PUSH1 0x24 PUSH1 0x0 REVERT JUMPDEST PUSH32 0x4E487B7100000000000000000000000000000000000000000000000000000000 PUSH1 0x0 MSTORE PUSH1 0x41 PUSH1 0x4 MSTORE PUSH1 0x24 PUSH1 0x0 REVERT JUMPDEST PUSH1 0x0 PUSH1 0x1F NOT PUSH1 0x1F DUP4 ADD AND SWAP1 POP SWAP2 SWAP1 POP JUMP JUMPDEST PUSH2 0x724 DUP2 PUSH2 0x62E JUMP JUMPDEST DUP2 EQ PUSH2 0x72F JUMPI PUSH1 0x0 DUP1 REVERT JUMPDEST POP JUMP INVALID LOG2 PUSH5 0x6970667358 0x22 SLT KECCAK256 ADDRESS PUSH5 0x6C1D1EA591 PUSH18 0xF2530F0F7D4C7AA7A1524738170D64715E53 TIMESTAMP DUP6 DIV CODESIZE 0xFC PUSH2 0x6473 PUSH16 0x6C634300080000330000000000000000 "
				},
				"gasEstimates": {
					"creation": {
						"codeDepositCost": "379200",
						"executionCost": "infinite",
						"totalCost": "infinite"
					},
					"external": {
						"addValue(string)": "infinite",
						"array2D(uint256,uint256)": "infinite",
						"stringArray(uint256)": "infinite",
						"uintArray(uint256)": "infinite",
						"valueCount()": "1123",
						"values(uint256)": "infinite"
					}
				},
				"methodIdentifiers": {
					"addValue(string)": "3a5fbaaa",
					"array2D(uint256,uint256)": "d3268fc1",
					"stringArray(uint256)": "6422c4c8",
					"uintArray(uint256)": "9ae918c7",
					"valueCount()": "26eb4dbb",
					"values(uint256)": "5e383d21"
				}
			},
			"storageLayout": {
				"storage": [
					{
						"astId": 8,
						"contract": "contracts/MyArray.sol:MyContract",
						"label": "uintArray",
						"offset": 0,
						"slot": "0",
						"type": "t_array(t_uint256)dyn_storage"
					},
					{
						"astId": 15,
						"contract": "contracts/MyArray.sol:MyContract",
						"label": "stringArray",
						"offset": 0,
						"slot": "1",
						"type": "t_array(t_string_storage)dyn_storage"
					},
					{
						"astId": 18,
						"contract": "contracts/MyArray.sol:MyContract",
						"label": "values",
						"offset": 0,
						"slot": "2",
						"type": "t_array(t_string_storage)dyn_storage"
					},
					{
						"astId": 31,
						"contract": "contracts/MyArray.sol:MyContract",
						"label": "array2D",
						"offset": 0,
						"slot": "3",
						"type": "t_array(t_array(t_uint256)dyn_storage)dyn_storage"
					}
				],
				"types": {
					"t_array(t_array(t_uint256)dyn_storage)dyn_storage": {
						"base": "t_array(t_uint256)dyn_storage",
						"encoding": "dynamic_array",
						"label": "uint256[][]",
						"numberOfBytes": "32"
					},
					"t_array(t_string_storage)dyn_storage": {
						"base": "t_string_storage",
						"encoding": "dynamic_array",
						"label": "string[]",
						"numberOfBytes": "32"
					},
					"t_array(t_uint256)dyn_storage": {
						"base": "t_uint256",
						"encoding": "dynamic_array",
						"label": "uint256[]",
						"numberOfBytes": "32"
					},
					"t_string_storage": {
						"encoding": "bytes",
						"label": "string",
						"numberOfBytes": "32"
					},
					"t_uint256": {
						"encoding": "inplace",
						"label": "uint256",
						"numberOfBytes": "32"
					}
				}
			},
			"userdoc": {
				"kind": "user",
				"methods": {},
				"version": 1
			}
		}
	}
}