{
	"contracts/Mapping.sol": {
		"MyContract": {
			"abi": [
				{
					"inputs": [],
					"stateMutability": "nonpayable",
					"type": "constructor"
				},
				{
					"inputs": [
						{
							"internalType": "uint256",
							"name": "",
							"type": "uint256"
						}
					],
					"name": "books",
					"outputs": [
						{
							"internalType": "string",
							"name": "title",
							"type": "string"
						},
						{
							"internalType": "string",
							"name": "author",
							"type": "string"
						}
					],
					"stateMutability": "view",
					"type": "function"
				}
			],
			"devdoc": {
				"kind": "dev",
				"methods": {},
				"version": 1
			},
			"evm": {
				"assembly": "    /* \"contracts/Mapping.sol\":63:496  contract MyContract{\r... */\n  mstore(0x40, 0x80)\n    /* \"contracts/Mapping.sol\":364:480  constructor() public {\r... */\n  callvalue\n  dup1\n  iszero\n  tag_1\n  jumpi\n  0x00\n  dup1\n  revert\ntag_1:\n  pop\n    /* \"contracts/Mapping.sol\":396:414  names[1]  = \"Adam\" */\n  mload(0x40)\n  dup1\n  0x40\n  add\n  0x40\n  mstore\n  dup1\n  0x04\n  dup2\n  mstore\n  0x20\n  add\n  0x4164616d00000000000000000000000000000000000000000000000000000000\n  dup2\n  mstore\n  pop\n    /* \"contracts/Mapping.sol\":396:401  names */\n  0x01\n    /* \"contracts/Mapping.sol\":396:404  names[1] */\n  0x00\n    /* \"contracts/Mapping.sol\":402:403  1 */\n  0x01\n    /* \"contracts/Mapping.sol\":396:404  names[1] */\n  dup2\n  mstore\n  0x20\n  add\n  swap1\n  dup2\n  mstore\n  0x20\n  add\n  0x00\n  keccak256\n    /* \"contracts/Mapping.sol\":396:414  names[1]  = \"Adam\" */\n  swap1\n  dup1\n  mload\n  swap1\n  0x20\n  add\n  swap1\n  tag_4\n  swap3\n  swap2\n  swap1\n  tag_5\n  jump\t// in\ntag_4:\n  pop\n    /* \"contracts/Mapping.sol\":425:443  names[2] = \"Bruce\" */\n  mload(0x40)\n  dup1\n  0x40\n  add\n  0x40\n  mstore\n  dup1\n  0x05\n  dup2\n  mstore\n  0x20\n  add\n  0x4272756365000000000000000000000000000000000000000000000000000000\n  dup2\n  mstore\n  pop\n    /* \"contracts/Mapping.sol\":425:430  names */\n  0x01\n    /* \"contracts/Mapping.sol\":425:433  names[2] */\n  0x00\n    /* \"contracts/Mapping.sol\":431:432  2 */\n  0x02\n    /* \"contracts/Mapping.sol\":425:433  names[2] */\n  dup2\n  mstore\n  0x20\n  add\n  swap1\n  dup2\n  mstore\n  0x20\n  add\n  0x00\n  keccak256\n    /* \"contracts/Mapping.sol\":425:443  names[2] = \"Bruce\" */\n  swap1\n  dup1\n  mload\n  swap1\n  0x20\n  add\n  swap1\n  tag_6\n  swap3\n  swap2\n  swap1\n  tag_5\n  jump\t// in\ntag_6:\n  pop\n    /* \"contracts/Mapping.sol\":454:472  names[3]  = \"Carl\" */\n  mload(0x40)\n  dup1\n  0x40\n  add\n  0x40\n  mstore\n  dup1\n  0x04\n  dup2\n  mstore\n  0x20\n  add\n  0x4361726c00000000000000000000000000000000000000000000000000000000\n  dup2\n  mstore\n  pop\n    /* \"contracts/Mapping.sol\":454:459  names */\n  0x01\n    /* \"contracts/Mapping.sol\":454:462  names[3] */\n  0x00\n    /* \"contracts/Mapping.sol\":460:461  3 */\n  0x03\n    /* \"contracts/Mapping.sol\":454:462  names[3] */\n  dup2\n  mstore\n  0x20\n  add\n  swap1\n  dup2\n  mstore\n  0x20\n  add\n  0x00\n  keccak256\n    /* \"contracts/Mapping.sol\":454:472  names[3]  = \"Carl\" */\n  swap1\n  dup1\n  mload\n  swap1\n  0x20\n  add\n  swap1\n  tag_7\n  swap3\n  swap2\n  swap1\n  tag_5\n  jump\t// in\ntag_7:\n  pop\n    /* \"contracts/Mapping.sol\":63:496  contract MyContract{\r... */\n  jump(tag_8)\ntag_5:\n  dup3\n  dup1\n  sload\n  tag_9\n  swap1\n  tag_10\n  jump\t// in\ntag_9:\n  swap1\n  0x00\n  mstore\n  keccak256(0x00, 0x20)\n  swap1\n  0x1f\n  add\n  0x20\n  swap1\n  div\n  dup2\n  add\n  swap3\n  dup3\n  tag_12\n  jumpi\n  0x00\n  dup6\n  sstore\n  jump(tag_11)\ntag_12:\n  dup3\n  0x1f\n  lt\n  tag_13\n  jumpi\n  dup1\n  mload\n  not(0xff)\n  and\n  dup4\n  dup1\n  add\n  or\n  dup6\n  sstore\n  jump(tag_11)\ntag_13:\n  dup3\n  dup1\n  add\n  0x01\n  add\n  dup6\n  sstore\n  dup3\n  iszero\n  tag_11\n  jumpi\n  swap2\n  dup3\n  add\ntag_14:\n  dup3\n  dup2\n  gt\n  iszero\n  tag_15\n  jumpi\n  dup3\n  mload\n  dup3\n  sstore\n  swap2\n  0x20\n  add\n  swap2\n  swap1\n  0x01\n  add\n  swap1\n  jump(tag_14)\ntag_15:\ntag_11:\n  pop\n  swap1\n  pop\n  tag_16\n  swap2\n  swap1\n  tag_17\n  jump\t// in\ntag_16:\n  pop\n  swap1\n  jump\t// out\ntag_17:\ntag_18:\n  dup1\n  dup3\n  gt\n  iszero\n  tag_19\n  jumpi\n  0x00\n  dup2\n  0x00\n  swap1\n  sstore\n  pop\n  0x01\n  add\n  jump(tag_18)\ntag_19:\n  pop\n  swap1\n  jump\t// out\n    /* \"#utility.yul\":7:327   */\ntag_10:\n  0x00\n    /* \"#utility.yul\":88:89   */\n  0x02\n    /* \"#utility.yul\":82:86   */\n  dup3\n    /* \"#utility.yul\":78:90   */\n  div\n    /* \"#utility.yul\":68:90   */\n  swap1\n  pop\n    /* \"#utility.yul\":135:136   */\n  0x01\n    /* \"#utility.yul\":129:133   */\n  dup3\n    /* \"#utility.yul\":125:137   */\n  and\n    /* \"#utility.yul\":156:174   */\n  dup1\n    /* \"#utility.yul\":146:148   */\n  tag_22\n  jumpi\n    /* \"#utility.yul\":212:216   */\n  0x7f\n    /* \"#utility.yul\":204:210   */\n  dup3\n    /* \"#utility.yul\":200:217   */\n  and\n    /* \"#utility.yul\":190:217   */\n  swap2\n  pop\n    /* \"#utility.yul\":146:148   */\ntag_22:\n    /* \"#utility.yul\":274:276   */\n  0x20\n    /* \"#utility.yul\":266:272   */\n  dup3\n    /* \"#utility.yul\":263:277   */\n  lt\n    /* \"#utility.yul\":243:261   */\n  dup2\n    /* \"#utility.yul\":240:278   */\n  eq\n    /* \"#utility.yul\":237:239   */\n  iszero\n  tag_23\n  jumpi\n    /* \"#utility.yul\":293:311   */\n  tag_24\n  tag_25\n  jump\t// in\ntag_24:\n    /* \"#utility.yul\":237:239   */\ntag_23:\n    /* \"#utility.yul\":58:327   */\n  pop\n  swap2\n  swap1\n  pop\n  jump\t// out\n    /* \"#utility.yul\":333:513   */\ntag_25:\n    /* \"#utility.yul\":381:458   */\n  0x4e487b7100000000000000000000000000000000000000000000000000000000\n    /* \"#utility.yul\":378:379   */\n  0x00\n    /* \"#utility.yul\":371:459   */\n  mstore\n    /* \"#utility.yul\":478:482   */\n  0x22\n    /* \"#utility.yul\":475:476   */\n  0x04\n    /* \"#utility.yul\":468:483   */\n  mstore\n    /* \"#utility.yul\":502:506   */\n  0x24\n    /* \"#utility.yul\":499:500   */\n  0x00\n    /* \"#utility.yul\":492:507   */\n  revert\n    /* \"contracts/Mapping.sol\":63:496  contract MyContract{\r... */\ntag_8:\n  dataSize(sub_0)\n  dup1\n  dataOffset(sub_0)\n  0x00\n  codecopy\n  0x00\n  return\nstop\n\nsub_0: assembly {\n        /* \"contracts/Mapping.sol\":63:496  contract MyContract{\r... */\n      mstore(0x40, 0x80)\n      callvalue\n      dup1\n      iszero\n      tag_1\n      jumpi\n      0x00\n      dup1\n      revert\n    tag_1:\n      pop\n      jumpi(tag_2, lt(calldatasize, 0x04))\n      shr(0xe0, calldataload(0x00))\n      dup1\n      0x68744046\n      eq\n      tag_3\n      jumpi\n    tag_2:\n      0x00\n      dup1\n      revert\n        /* \"contracts/Mapping.sol\":203:237  mapping(uint => Book) public books */\n    tag_3:\n      tag_4\n      0x04\n      dup1\n      calldatasize\n      sub\n      dup2\n      add\n      swap1\n      tag_5\n      swap2\n      swap1\n      tag_6\n      jump\t// in\n    tag_5:\n      tag_7\n      jump\t// in\n    tag_4:\n      mload(0x40)\n      tag_8\n      swap3\n      swap2\n      swap1\n      tag_9\n      jump\t// in\n    tag_8:\n      mload(0x40)\n      dup1\n      swap2\n      sub\n      swap1\n      return\n    tag_7:\n      mstore(0x20, 0x00)\n      dup1\n      0x00\n      mstore\n      keccak256(0x00, 0x40)\n      0x00\n      swap2\n      pop\n      swap1\n      pop\n      dup1\n      0x00\n      add\n      dup1\n      sload\n      tag_10\n      swap1\n      tag_11\n      jump\t// in\n    tag_10:\n      dup1\n      0x1f\n      add\n      0x20\n      dup1\n      swap2\n      div\n      mul\n      0x20\n      add\n      mload(0x40)\n      swap1\n      dup2\n      add\n      0x40\n      mstore\n      dup1\n      swap3\n      swap2\n      swap1\n      dup2\n      dup2\n      mstore\n      0x20\n      add\n      dup3\n      dup1\n      sload\n      tag_12\n      swap1\n      tag_11\n      jump\t// in\n    tag_12:\n      dup1\n      iszero\n      tag_13\n      jumpi\n      dup1\n      0x1f\n      lt\n      tag_14\n      jumpi\n      0x0100\n      dup1\n      dup4\n      sload\n      div\n      mul\n      dup4\n      mstore\n      swap2\n      0x20\n      add\n      swap2\n      jump(tag_13)\n    tag_14:\n      dup3\n      add\n      swap2\n      swap1\n      0x00\n      mstore\n      keccak256(0x00, 0x20)\n      swap1\n    tag_15:\n      dup2\n      sload\n      dup2\n      mstore\n      swap1\n      0x01\n      add\n      swap1\n      0x20\n      add\n      dup1\n      dup4\n      gt\n      tag_15\n      jumpi\n      dup3\n      swap1\n      sub\n      0x1f\n      and\n      dup3\n      add\n      swap2\n    tag_13:\n      pop\n      pop\n      pop\n      pop\n      pop\n      swap1\n      dup1\n      0x01\n      add\n      dup1\n      sload\n      tag_16\n      swap1\n      tag_11\n      jump\t// in\n    tag_16:\n      dup1\n      0x1f\n      add\n      0x20\n      dup1\n      swap2\n      div\n      mul\n      0x20\n      add\n      mload(0x40)\n      swap1\n      dup2\n      add\n      0x40\n      mstore\n      dup1\n      swap3\n      swap2\n      swap1\n      dup2\n      dup2\n      mstore\n      0x20\n      add\n      dup3\n      dup1\n      sload\n      tag_17\n      swap1\n      tag_11\n      jump\t// in\n    tag_17:\n      dup1\n      iszero\n      tag_18\n      jumpi\n      dup1\n      0x1f\n      lt\n      tag_19\n      jumpi\n      0x0100\n      dup1\n      dup4\n      sload\n      div\n      mul\n      dup4\n      mstore\n      swap2\n      0x20\n      add\n      swap2\n      jump(tag_18)\n    tag_19:\n      dup3\n      add\n      swap2\n      swap1\n      0x00\n      mstore\n      keccak256(0x00, 0x20)\n      swap1\n    tag_20:\n      dup2\n      sload\n      dup2\n      mstore\n      swap1\n      0x01\n      add\n      swap1\n      0x20\n      add\n      dup1\n      dup4\n      gt\n      tag_20\n      jumpi\n      dup3\n      swap1\n      sub\n      0x1f\n      and\n      dup3\n      add\n      swap2\n    tag_18:\n      pop\n      pop\n      pop\n      pop\n      pop\n      swap1\n      pop\n      dup3\n      jump\t// out\n        /* \"#utility.yul\":7:146   */\n    tag_22:\n      0x00\n        /* \"#utility.yul\":91:97   */\n      dup2\n        /* \"#utility.yul\":78:98   */\n      calldataload\n        /* \"#utility.yul\":69:98   */\n      swap1\n      pop\n        /* \"#utility.yul\":107:140   */\n      tag_24\n        /* \"#utility.yul\":134:139   */\n      dup2\n        /* \"#utility.yul\":107:140   */\n      tag_25\n      jump\t// in\n    tag_24:\n        /* \"#utility.yul\":59:146   */\n      swap3\n      swap2\n      pop\n      pop\n      jump\t// out\n        /* \"#utility.yul\":152:414   */\n    tag_6:\n      0x00\n        /* \"#utility.yul\":260:262   */\n      0x20\n        /* \"#utility.yul\":248:257   */\n      dup3\n        /* \"#utility.yul\":239:246   */\n      dup5\n        /* \"#utility.yul\":235:258   */\n      sub\n        /* \"#utility.yul\":231:263   */\n      slt\n        /* \"#utility.yul\":228:230   */\n      iszero\n      tag_27\n      jumpi\n        /* \"#utility.yul\":276:277   */\n      0x00\n        /* \"#utility.yul\":273:274   */\n      dup1\n        /* \"#utility.yul\":266:278   */\n      revert\n        /* \"#utility.yul\":228:230   */\n    tag_27:\n        /* \"#utility.yul\":319:320   */\n      0x00\n        /* \"#utility.yul\":344:397   */\n      tag_28\n        /* \"#utility.yul\":389:396   */\n      dup5\n        /* \"#utility.yul\":380:386   */\n      dup3\n        /* \"#utility.yul\":369:378   */\n      dup6\n        /* \"#utility.yul\":365:387   */\n      add\n        /* \"#utility.yul\":344:397   */\n      tag_22\n      jump\t// in\n    tag_28:\n        /* \"#utility.yul\":334:397   */\n      swap2\n      pop\n        /* \"#utility.yul\":290:407   */\n      pop\n        /* \"#utility.yul\":218:414   */\n      swap3\n      swap2\n      pop\n      pop\n      jump\t// out\n        /* \"#utility.yul\":420:784   */\n    tag_29:\n      0x00\n        /* \"#utility.yul\":536:575   */\n      tag_31\n        /* \"#utility.yul\":569:574   */\n      dup3\n        /* \"#utility.yul\":536:575   */\n      tag_32\n      jump\t// in\n    tag_31:\n        /* \"#utility.yul\":591:662   */\n      tag_33\n        /* \"#utility.yul\":655:661   */\n      dup2\n        /* \"#utility.yul\":650:653   */\n      dup6\n        /* \"#utility.yul\":591:662   */\n      tag_34\n      jump\t// in\n    tag_33:\n        /* \"#utility.yul\":584:662   */\n      swap4\n      pop\n        /* \"#utility.yul\":671:723   */\n      tag_35\n        /* \"#utility.yul\":716:722   */\n      dup2\n        /* \"#utility.yul\":711:714   */\n      dup6\n        /* \"#utility.yul\":704:708   */\n      0x20\n        /* \"#utility.yul\":697:702   */\n      dup7\n        /* \"#utility.yul\":693:709   */\n      add\n        /* \"#utility.yul\":671:723   */\n      tag_36\n      jump\t// in\n    tag_35:\n        /* \"#utility.yul\":748:777   */\n      tag_37\n        /* \"#utility.yul\":770:776   */\n      dup2\n        /* \"#utility.yul\":748:777   */\n      tag_38\n      jump\t// in\n    tag_37:\n        /* \"#utility.yul\":743:746   */\n      dup5\n        /* \"#utility.yul\":739:778   */\n      add\n        /* \"#utility.yul\":732:778   */\n      swap2\n      pop\n        /* \"#utility.yul\":512:784   */\n      pop\n      swap3\n      swap2\n      pop\n      pop\n      jump\t// out\n        /* \"#utility.yul\":790:1304   */\n    tag_9:\n      0x00\n        /* \"#utility.yul\":989:991   */\n      0x40\n        /* \"#utility.yul\":978:987   */\n      dup3\n        /* \"#utility.yul\":974:992   */\n      add\n        /* \"#utility.yul\":966:992   */\n      swap1\n      pop\n        /* \"#utility.yul\":1038:1047   */\n      dup2\n        /* \"#utility.yul\":1032:1036   */\n      dup2\n        /* \"#utility.yul\":1028:1048   */\n      sub\n        /* \"#utility.yul\":1024:1025   */\n      0x00\n        /* \"#utility.yul\":1013:1022   */\n      dup4\n        /* \"#utility.yul\":1009:1026   */\n      add\n        /* \"#utility.yul\":1002:1049   */\n      mstore\n        /* \"#utility.yul\":1066:1144   */\n      tag_40\n        /* \"#utility.yul\":1139:1143   */\n      dup2\n        /* \"#utility.yul\":1130:1136   */\n      dup6\n        /* \"#utility.yul\":1066:1144   */\n      tag_29\n      jump\t// in\n    tag_40:\n        /* \"#utility.yul\":1058:1144   */\n      swap1\n      pop\n        /* \"#utility.yul\":1191:1200   */\n      dup2\n        /* \"#utility.yul\":1185:1189   */\n      dup2\n        /* \"#utility.yul\":1181:1201   */\n      sub\n        /* \"#utility.yul\":1176:1178   */\n      0x20\n        /* \"#utility.yul\":1165:1174   */\n      dup4\n        /* \"#utility.yul\":1161:1179   */\n      add\n        /* \"#utility.yul\":1154:1202   */\n      mstore\n        /* \"#utility.yul\":1219:1297   */\n      tag_41\n        /* \"#utility.yul\":1292:1296   */\n      dup2\n        /* \"#utility.yul\":1283:1289   */\n      dup5\n        /* \"#utility.yul\":1219:1297   */\n      tag_29\n      jump\t// in\n    tag_41:\n        /* \"#utility.yul\":1211:1297   */\n      swap1\n      pop\n        /* \"#utility.yul\":956:1304   */\n      swap4\n      swap3\n      pop\n      pop\n      pop\n      jump\t// out\n        /* \"#utility.yul\":1310:1409   */\n    tag_32:\n      0x00\n        /* \"#utility.yul\":1396:1401   */\n      dup2\n        /* \"#utility.yul\":1390:1402   */\n      mload\n        /* \"#utility.yul\":1380:1402   */\n      swap1\n      pop\n        /* \"#utility.yul\":1369:1409   */\n      swap2\n      swap1\n      pop\n      jump\t// out\n        /* \"#utility.yul\":1415:1584   */\n    tag_34:\n      0x00\n        /* \"#utility.yul\":1533:1539   */\n      dup3\n        /* \"#utility.yul\":1528:1531   */\n      dup3\n        /* \"#utility.yul\":1521:1540   */\n      mstore\n        /* \"#utility.yul\":1573:1577   */\n      0x20\n        /* \"#utility.yul\":1568:1571   */\n      dup3\n        /* \"#utility.yul\":1564:1578   */\n      add\n        /* \"#utility.yul\":1549:1578   */\n      swap1\n      pop\n        /* \"#utility.yul\":1511:1584   */\n      swap3\n      swap2\n      pop\n      pop\n      jump\t// out\n        /* \"#utility.yul\":1590:1667   */\n    tag_44:\n      0x00\n        /* \"#utility.yul\":1656:1661   */\n      dup2\n        /* \"#utility.yul\":1645:1661   */\n      swap1\n      pop\n        /* \"#utility.yul\":1635:1667   */\n      swap2\n      swap1\n      pop\n      jump\t// out\n        /* \"#utility.yul\":1673:1980   */\n    tag_36:\n        /* \"#utility.yul\":1741:1742   */\n      0x00\n        /* \"#utility.yul\":1751:1864   */\n    tag_47:\n        /* \"#utility.yul\":1765:1771   */\n      dup4\n        /* \"#utility.yul\":1762:1763   */\n      dup2\n        /* \"#utility.yul\":1759:1772   */\n      lt\n        /* \"#utility.yul\":1751:1864   */\n      iszero\n      tag_49\n      jumpi\n        /* \"#utility.yul\":1850:1851   */\n      dup1\n        /* \"#utility.yul\":1845:1848   */\n      dup3\n        /* \"#utility.yul\":1841:1852   */\n      add\n        /* \"#utility.yul\":1835:1853   */\n      mload\n        /* \"#utility.yul\":1831:1832   */\n      dup2\n        /* \"#utility.yul\":1826:1829   */\n      dup5\n        /* \"#utility.yul\":1822:1833   */\n      add\n        /* \"#utility.yul\":1815:1854   */\n      mstore\n        /* \"#utility.yul\":1787:1789   */\n      0x20\n        /* \"#utility.yul\":1784:1785   */\n      dup2\n        /* \"#utility.yul\":1780:1790   */\n      add\n        /* \"#utility.yul\":1775:1790   */\n      swap1\n      pop\n        /* \"#utility.yul\":1751:1864   */\n      jump(tag_47)\n    tag_49:\n        /* \"#utility.yul\":1882:1888   */\n      dup4\n        /* \"#utility.yul\":1879:1880   */\n      dup2\n        /* \"#utility.yul\":1876:1889   */\n      gt\n        /* \"#utility.yul\":1873:1875   */\n      iszero\n      tag_50\n      jumpi\n        /* \"#utility.yul\":1962:1963   */\n      0x00\n        /* \"#utility.yul\":1953:1959   */\n      dup5\n        /* \"#utility.yul\":1948:1951   */\n      dup5\n        /* \"#utility.yul\":1944:1960   */\n      add\n        /* \"#utility.yul\":1937:1964   */\n      mstore\n        /* \"#utility.yul\":1873:1875   */\n    tag_50:\n        /* \"#utility.yul\":1722:1980   */\n      pop\n      pop\n      pop\n      pop\n      jump\t// out\n        /* \"#utility.yul\":1986:2306   */\n    tag_11:\n      0x00\n        /* \"#utility.yul\":2067:2068   */\n      0x02\n        /* \"#utility.yul\":2061:2065   */\n      dup3\n        /* \"#utility.yul\":2057:2069   */\n      div\n        /* \"#utility.yul\":2047:2069   */\n      swap1\n      pop\n        /* \"#utility.yul\":2114:2115   */\n      0x01\n        /* \"#utility.yul\":2108:2112   */\n      dup3\n        /* \"#utility.yul\":2104:2116   */\n      and\n        /* \"#utility.yul\":2135:2153   */\n      dup1\n        /* \"#utility.yul\":2125:2127   */\n      tag_52\n      jumpi\n        /* \"#utility.yul\":2191:2195   */\n      0x7f\n        /* \"#utility.yul\":2183:2189   */\n      dup3\n        /* \"#utility.yul\":2179:2196   */\n      and\n        /* \"#utility.yul\":2169:2196   */\n      swap2\n      pop\n        /* \"#utility.yul\":2125:2127   */\n    tag_52:\n        /* \"#utility.yul\":2253:2255   */\n      0x20\n        /* \"#utility.yul\":2245:2251   */\n      dup3\n        /* \"#utility.yul\":2242:2256   */\n      lt\n        /* \"#utility.yul\":2222:2240   */\n      dup2\n        /* \"#utility.yul\":2219:2257   */\n      eq\n        /* \"#utility.yul\":2216:2218   */\n      iszero\n      tag_53\n      jumpi\n        /* \"#utility.yul\":2272:2290   */\n      tag_54\n      tag_55\n      jump\t// in\n    tag_54:\n        /* \"#utility.yul\":2216:2218   */\n    tag_53:\n        /* \"#utility.yul\":2037:2306   */\n      pop\n      swap2\n      swap1\n      pop\n      jump\t// out\n        /* \"#utility.yul\":2312:2492   */\n    tag_55:\n        /* \"#utility.yul\":2360:2437   */\n      0x4e487b7100000000000000000000000000000000000000000000000000000000\n        /* \"#utility.yul\":2357:2358   */\n      0x00\n        /* \"#utility.yul\":2350:2438   */\n      mstore\n        /* \"#utility.yul\":2457:2461   */\n      0x22\n        /* \"#utility.yul\":2454:2455   */\n      0x04\n        /* \"#utility.yul\":2447:2462   */\n      mstore\n        /* \"#utility.yul\":2481:2485   */\n      0x24\n        /* \"#utility.yul\":2478:2479   */\n      0x00\n        /* \"#utility.yul\":2471:2486   */\n      revert\n        /* \"#utility.yul\":2498:2600   */\n    tag_38:\n      0x00\n        /* \"#utility.yul\":2590:2592   */\n      0x1f\n        /* \"#utility.yul\":2586:2593   */\n      not\n        /* \"#utility.yul\":2581:2583   */\n      0x1f\n        /* \"#utility.yul\":2574:2579   */\n      dup4\n        /* \"#utility.yul\":2570:2584   */\n      add\n        /* \"#utility.yul\":2566:2594   */\n      and\n        /* \"#utility.yul\":2556:2594   */\n      swap1\n      pop\n        /* \"#utility.yul\":2546:2600   */\n      swap2\n      swap1\n      pop\n      jump\t// out\n        /* \"#utility.yul\":2606:2728   */\n    tag_25:\n        /* \"#utility.yul\":2679:2703   */\n      tag_59\n        /* \"#utility.yul\":2697:2702   */\n      dup2\n        /* \"#utility.yul\":2679:2703   */\n      tag_44\n      jump\t// in\n    tag_59:\n        /* \"#utility.yul\":2672:2677   */\n      dup2\n        /* \"#utility.yul\":2669:2704   */\n      eq\n        /* \"#utility.yul\":2659:2661   */\n      tag_60\n      jumpi\n        /* \"#utility.yul\":2718:2719   */\n      0x00\n        /* \"#utility.yul\":2715:2716   */\n      dup1\n        /* \"#utility.yul\":2708:2720   */\n      revert\n        /* \"#utility.yul\":2659:2661   */\n    tag_60:\n        /* \"#utility.yul\":2649:2728   */\n      pop\n      jump\t// out\n\n    auxdata: 0xa2646970667358221220cfb0fbb92228ef58c81cf727f1bd315fe59380d3da1b5e27c79b867b0716408764736f6c63430008000033\n}\n",
				"bytecode": {
					"linkReferences": {},
					"object": "608060405234801561001057600080fd5b506040518060400160405280600481526020017f4164616d000000000000000000000000000000000000000000000000000000008152506001600060018152602001908152602001600020908051906020019061006e929190610130565b506040518060400160405280600581526020017f4272756365000000000000000000000000000000000000000000000000000000815250600160006002815260200190815260200160002090805190602001906100cc929190610130565b506040518060400160405280600481526020017f4361726c000000000000000000000000000000000000000000000000000000008152506001600060038152602001908152602001600020908051906020019061012a929190610130565b50610234565b82805461013c906101d3565b90600052602060002090601f01602090048101928261015e57600085556101a5565b82601f1061017757805160ff19168380011785556101a5565b828001600101855582156101a5579182015b828111156101a4578251825591602001919060010190610189565b5b5090506101b291906101b6565b5090565b5b808211156101cf5760008160009055506001016101b7565b5090565b600060028204905060018216806101eb57607f821691505b602082108114156101ff576101fe610205565b5b50919050565b7f4e487b7100000000000000000000000000000000000000000000000000000000600052602260045260246000fd5b61035b806102436000396000f3fe608060405234801561001057600080fd5b506004361061002b5760003560e01c80636874404614610030575b600080fd5b61004a600480360381019061004591906101aa565b610061565b60405161005892919061020c565b60405180910390f35b60006020528060005260406000206000915090508060000180546100849061029c565b80601f01602080910402602001604051908101604052809291908181526020018280546100b09061029c565b80156100fd5780601f106100d2576101008083540402835291602001916100fd565b820191906000526020600020905b8154815290600101906020018083116100e057829003601f168201915b5050505050908060010180546101129061029c565b80601f016020809104026020016040519081016040528092919081815260200182805461013e9061029c565b801561018b5780601f106101605761010080835404028352916020019161018b565b820191906000526020600020905b81548152906001019060200180831161016e57829003601f168201915b5050505050905082565b6000813590506101a48161030e565b92915050565b6000602082840312156101bc57600080fd5b60006101ca84828501610195565b91505092915050565b60006101de82610243565b6101e8818561024e565b93506101f8818560208601610269565b610201816102fd565b840191505092915050565b6000604082019050818103600083015261022681856101d3565b9050818103602083015261023a81846101d3565b90509392505050565b600081519050919050565b600082825260208201905092915050565b6000819050919050565b60005b8381101561028757808201518184015260208101905061026c565b83811115610296576000848401525b50505050565b600060028204905060018216806102b457607f821691505b602082108114156102c8576102c76102ce565b5b50919050565b7f4e487b7100000000000000000000000000000000000000000000000000000000600052602260045260246000fd5b6000601f19601f8301169050919050565b6103178161025f565b811461032257600080fd5b5056fea2646970667358221220cfb0fbb92228ef58c81cf727f1bd315fe59380d3da1b5e27c79b867b0716408764736f6c63430008000033",
					"opcodes": "PUSH1 0x80 PUSH1 0x40 MSTORE CALLVALUE DUP1 ISZERO PUSH2 0x10 JUMPI PUSH1 0x0 DUP1 REVERT JUMPDEST POP PUSH1 0x40 MLOAD DUP1 PUSH1 0x40 ADD PUSH1 0x40 MSTORE DUP1 PUSH1 0x4 DUP2 MSTORE PUSH1 0x20 ADD PUSH32 0x4164616D00000000000000000000000000000000000000000000000000000000 DUP2 MSTORE POP PUSH1 0x1 PUSH1 0x0 PUSH1 0x1 DUP2 MSTORE PUSH1 0x20 ADD SWAP1 DUP2 MSTORE PUSH1 0x20 ADD PUSH1 0x0 KECCAK256 SWAP1 DUP1 MLOAD SWAP1 PUSH1 0x20 ADD SWAP1 PUSH2 0x6E SWAP3 SWAP2 SWAP1 PUSH2 0x130 JUMP JUMPDEST POP PUSH1 0x40 MLOAD DUP1 PUSH1 0x40 ADD PUSH1 0x40 MSTORE DUP1 PUSH1 0x5 DUP2 MSTORE PUSH1 0x20 ADD PUSH32 0x4272756365000000000000000000000000000000000000000000000000000000 DUP2 MSTORE POP PUSH1 0x1 PUSH1 0x0 PUSH1 0x2 DUP2 MSTORE PUSH1 0x20 ADD SWAP1 DUP2 MSTORE PUSH1 0x20 ADD PUSH1 0x0 KECCAK256 SWAP1 DUP1 MLOAD SWAP1 PUSH1 0x20 ADD SWAP1 PUSH2 0xCC SWAP3 SWAP2 SWAP1 PUSH2 0x130 JUMP JUMPDEST POP PUSH1 0x40 MLOAD DUP1 PUSH1 0x40 ADD PUSH1 0x40 MSTORE DUP1 PUSH1 0x4 DUP2 MSTORE PUSH1 0x20 ADD PUSH32 0x4361726C00000000000000000000000000000000000000000000000000000000 DUP2 MSTORE POP PUSH1 0x1 PUSH1 0x0 PUSH1 0x3 DUP2 MSTORE PUSH1 0x20 ADD SWAP1 DUP2 MSTORE PUSH1 0x20 ADD PUSH1 0x0 KECCAK256 SWAP1 DUP1 MLOAD SWAP1 PUSH1 0x20 ADD SWAP1 PUSH2 0x12A SWAP3 SWAP2 SWAP1 PUSH2 0x130 JUMP JUMPDEST POP PUSH2 0x234 JUMP JUMPDEST DUP3 DUP1 SLOAD PUSH2 0x13C SWAP1 PUSH2 0x1D3 JUMP JUMPDEST SWAP1 PUSH1 0x0 MSTORE PUSH1 0x20 PUSH1 0x0 KECCAK256 SWAP1 PUSH1 0x1F ADD PUSH1 0x20 SWAP1 DIV DUP2 ADD SWAP3 DUP3 PUSH2 0x15E JUMPI PUSH1 0x0 DUP6 SSTORE PUSH2 0x1A5 JUMP JUMPDEST DUP3 PUSH1 0x1F LT PUSH2 0x177 JUMPI DUP1 MLOAD PUSH1 0xFF NOT AND DUP4 DUP1 ADD OR DUP6 SSTORE PUSH2 0x1A5 JUMP JUMPDEST DUP3 DUP1 ADD PUSH1 0x1 ADD DUP6 SSTORE DUP3 ISZERO PUSH2 0x1A5 JUMPI SWAP2 DUP3 ADD JUMPDEST DUP3 DUP2 GT ISZERO PUSH2 0x1A4 JUMPI DUP3 MLOAD DUP3 SSTORE SWAP2 PUSH1 0x20 ADD SWAP2 SWAP1 PUSH1 0x1 ADD SWAP1 PUSH2 0x189 JUMP JUMPDEST JUMPDEST POP SWAP1 POP PUSH2 0x1B2 SWAP2 SWAP1 PUSH2 0x1B6 JUMP JUMPDEST POP SWAP1 JUMP JUMPDEST JUMPDEST DUP1 DUP3 GT ISZERO PUSH2 0x1CF JUMPI PUSH1 0x0 DUP2 PUSH1 0x0 SWAP1 SSTORE POP PUSH1 0x1 ADD PUSH2 0x1B7 JUMP JUMPDEST POP SWAP1 JUMP JUMPDEST PUSH1 0x0 PUSH1 0x2 DUP3 DIV SWAP1 POP PUSH1 0x1 DUP3 AND DUP1 PUSH2 0x1EB JUMPI PUSH1 0x7F DUP3 AND SWAP2 POP JUMPDEST PUSH1 0x20 DUP3 LT DUP2 EQ ISZERO PUSH2 0x1FF JUMPI PUSH2 0x1FE PUSH2 0x205 JUMP JUMPDEST JUMPDEST POP SWAP2 SWAP1 POP JUMP JUMPDEST PUSH32 0x4E487B7100000000000000000000000000000000000000000000000000000000 PUSH1 0x0 MSTORE PUSH1 0x22 PUSH1 0x4 MSTORE PUSH1 0x24 PUSH1 0x0 REVERT JUMPDEST PUSH2 0x35B DUP1 PUSH2 0x243 PUSH1 0x0 CODECOPY PUSH1 0x0 RETURN INVALID PUSH1 0x80 PUSH1 0x40 MSTORE CALLVALUE DUP1 ISZERO PUSH2 0x10 JUMPI PUSH1 0x0 DUP1 REVERT JUMPDEST POP PUSH1 0x4 CALLDATASIZE LT PUSH2 0x2B JUMPI PUSH1 0x0 CALLDATALOAD PUSH1 0xE0 SHR DUP1 PUSH4 0x68744046 EQ PUSH2 0x30 JUMPI JUMPDEST PUSH1 0x0 DUP1 REVERT JUMPDEST PUSH2 0x4A PUSH1 0x4 DUP1 CALLDATASIZE SUB DUP2 ADD SWAP1 PUSH2 0x45 SWAP2 SWAP1 PUSH2 0x1AA JUMP JUMPDEST PUSH2 0x61 JUMP JUMPDEST PUSH1 0x40 MLOAD PUSH2 0x58 SWAP3 SWAP2 SWAP1 PUSH2 0x20C JUMP JUMPDEST PUSH1 0x40 MLOAD DUP1 SWAP2 SUB SWAP1 RETURN JUMPDEST PUSH1 0x0 PUSH1 0x20 MSTORE DUP1 PUSH1 0x0 MSTORE PUSH1 0x40 PUSH1 0x0 KECCAK256 PUSH1 0x0 SWAP2 POP SWAP1 POP DUP1 PUSH1 0x0 ADD DUP1 SLOAD PUSH2 0x84 SWAP1 PUSH2 0x29C JUMP JUMPDEST DUP1 PUSH1 0x1F ADD PUSH1 0x20 DUP1 SWAP2 DIV MUL PUSH1 0x20 ADD PUSH1 0x40 MLOAD SWAP1 DUP2 ADD PUSH1 0x40 MSTORE DUP1 SWAP3 SWAP2 SWAP1 DUP2 DUP2 MSTORE PUSH1 0x20 ADD DUP3 DUP1 SLOAD PUSH2 0xB0 SWAP1 PUSH2 0x29C JUMP JUMPDEST DUP1 ISZERO PUSH2 0xFD JUMPI DUP1 PUSH1 0x1F LT PUSH2 0xD2 JUMPI PUSH2 0x100 DUP1 DUP4 SLOAD DIV MUL DUP4 MSTORE SWAP2 PUSH1 0x20 ADD SWAP2 PUSH2 0xFD JUMP JUMPDEST DUP3 ADD SWAP2 SWAP1 PUSH1 0x0 MSTORE PUSH1 0x20 PUSH1 0x0 KECCAK256 SWAP1 JUMPDEST DUP2 SLOAD DUP2 MSTORE SWAP1 PUSH1 0x1 ADD SWAP1 PUSH1 0x20 ADD DUP1 DUP4 GT PUSH2 0xE0 JUMPI DUP3 SWAP1 SUB PUSH1 0x1F AND DUP3 ADD SWAP2 JUMPDEST POP POP POP POP POP SWAP1 DUP1 PUSH1 0x1 ADD DUP1 SLOAD PUSH2 0x112 SWAP1 PUSH2 0x29C JUMP JUMPDEST DUP1 PUSH1 0x1F ADD PUSH1 0x20 DUP1 SWAP2 DIV MUL PUSH1 0x20 ADD PUSH1 0x40 MLOAD SWAP1 DUP2 ADD PUSH1 0x40 MSTORE DUP1 SWAP3 SWAP2 SWAP1 DUP2 DUP2 MSTORE PUSH1 0x20 ADD DUP3 DUP1 SLOAD PUSH2 0x13E SWAP1 PUSH2 0x29C JUMP JUMPDEST DUP1 ISZERO PUSH2 0x18B JUMPI DUP1 PUSH1 0x1F LT PUSH2 0x160 JUMPI PUSH2 0x100 DUP1 DUP4 SLOAD DIV MUL DUP4 MSTORE SWAP2 PUSH1 0x20 ADD SWAP2 PUSH2 0x18B JUMP JUMPDEST DUP3 ADD SWAP2 SWAP1 PUSH1 0x0 MSTORE PUSH1 0x20 PUSH1 0x0 KECCAK256 SWAP1 JUMPDEST DUP2 SLOAD DUP2 MSTORE SWAP1 PUSH1 0x1 ADD SWAP1 PUSH1 0x20 ADD DUP1 DUP4 GT PUSH2 0x16E JUMPI DUP3 SWAP1 SUB PUSH1 0x1F AND DUP3 ADD SWAP2 JUMPDEST POP POP POP POP POP SWAP1 POP DUP3 JUMP JUMPDEST PUSH1 0x0 DUP2 CALLDATALOAD SWAP1 POP PUSH2 0x1A4 DUP2 PUSH2 0x30E JUMP JUMPDEST SWAP3 SWAP2 POP POP JUMP JUMPDEST PUSH1 0x0 PUSH1 0x20 DUP3 DUP5 SUB SLT ISZERO PUSH2 0x1BC JUMPI PUSH1 0x0 DUP1 REVERT JUMPDEST PUSH1 0x0 PUSH2 0x1CA DUP5 DUP3 DUP6 ADD PUSH2 0x195 JUMP JUMPDEST SWAP2 POP POP SWAP3 SWAP2 POP POP JUMP JUMPDEST PUSH1 0x0 PUSH2 0x1DE DUP3 PUSH2 0x243 JUMP JUMPDEST PUSH2 0x1E8 DUP2 DUP6 PUSH2 0x24E JUMP JUMPDEST SWAP4 POP PUSH2 0x1F8 DUP2 DUP6 PUSH1 0x20 DUP7 ADD PUSH2 0x269 JUMP JUMPDEST PUSH2 0x201 DUP2 PUSH2 0x2FD JUMP JUMPDEST DUP5 ADD SWAP2 POP POP SWAP3 SWAP2 POP POP JUMP JUMPDEST PUSH1 0x0 PUSH1 0x40 DUP3 ADD SWAP1 POP DUP2 DUP2 SUB PUSH1 0x0 DUP4 ADD MSTORE PUSH2 0x226 DUP2 DUP6 PUSH2 0x1D3 JUMP JUMPDEST SWAP1 POP DUP2 DUP2 SUB PUSH1 0x20 DUP4 ADD MSTORE PUSH2 0x23A DUP2 DUP5 PUSH2 0x1D3 JUMP JUMPDEST SWAP1 POP SWAP4 SWAP3 POP POP POP JUMP JUMPDEST PUSH1 0x0 DUP2 MLOAD SWAP1 POP SWAP2 SWAP1 POP JUMP JUMPDEST PUSH1 0x0 DUP3 DUP3 MSTORE PUSH1 0x20 DUP3 ADD SWAP1 POP SWAP3 SWAP2 POP POP JUMP JUMPDEST PUSH1 0x0 DUP2 SWAP1 POP SWAP2 SWAP1 POP JUMP JUMPDEST PUSH1 0x0 JUMPDEST DUP4 DUP2 LT ISZERO PUSH2 0x287 JUMPI DUP1 DUP3 ADD MLOAD DUP2 DUP5 ADD MSTORE PUSH1 0x20 DUP2 ADD SWAP1 POP PUSH2 0x26C JUMP JUMPDEST DUP4 DUP2 GT ISZERO PUSH2 0x296 JUMPI PUSH1 0x0 DUP5 DUP5 ADD MSTORE JUMPDEST POP POP POP POP JUMP JUMPDEST PUSH1 0x0 PUSH1 0x2 DUP3 DIV SWAP1 POP PUSH1 0x1 DUP3 AND DUP1 PUSH2 0x2B4 JUMPI PUSH1 0x7F DUP3 AND SWAP2 POP JUMPDEST PUSH1 0x20 DUP3 LT DUP2 EQ ISZERO PUSH2 0x2C8 JUMPI PUSH2 0x2C7 PUSH2 0x2CE JUMP JUMPDEST JUMPDEST POP SWAP2 SWAP1 POP JUMP JUMPDEST PUSH32 0x4E487B7100000000000000000000000000000000000000000000000000000000 PUSH1 0x0 MSTORE PUSH1 0x22 PUSH1 0x4 MSTORE PUSH1 0x24 PUSH1 0x0 REVERT JUMPDEST PUSH1 0x0 PUSH1 0x1F NOT PUSH1 0x1F DUP4 ADD AND SWAP1 POP SWAP2 SWAP1 POP JUMP JUMPDEST PUSH2 0x317 DUP2 PUSH2 0x25F JUMP JUMPDEST DUP2 EQ PUSH2 0x322 JUMPI PUSH1 0x0 DUP1 REVERT JUMPDEST POP JUMP INVALID LOG2 PUSH5 0x6970667358 0x22 SLT KECCAK256 0xCF 0xB0 0xFB 0xB9 0x22 0x28 0xEF PC 0xC8 SHR 0xF7 0x27 CALL 0xBD BALANCE 0x5F 0xE5 SWAP4 DUP1 0xD3 0xDA SHL 0x5E 0x27 0xC7 SWAP12 DUP7 PUSH28 0x716408764736F6C6343000800003300000000000000000000000000 "
				},
				"gasEstimates": {
					"creation": {
						"codeDepositCost": "171800",
						"executionCost": "infinite",
						"totalCost": "infinite"
					},
					"external": {
						"books(uint256)": "infinite"
					}
				},
				"methodIdentifiers": {
					"books(uint256)": "68744046"
				}
			},
			"storageLayout": {
				"storage": [
					{
						"astId": 6,
						"contract": "contracts/Mapping.sol:MyContract",
						"label": "books",
						"offset": 0,
						"slot": "0",
						"type": "t_mapping(t_uint256,t_struct(Book)15_storage)"
					},
					{
						"astId": 10,
						"contract": "contracts/Mapping.sol:MyContract",
						"label": "names",
						"offset": 0,
						"slot": "1",
						"type": "t_mapping(t_uint256,t_string_storage)"
					}
				],
				"types": {
					"t_mapping(t_uint256,t_string_storage)": {
						"encoding": "mapping",
						"key": "t_uint256",
						"label": "mapping(uint256 => string)",
						"numberOfBytes": "32",
						"value": "t_string_storage"
					},
					"t_mapping(t_uint256,t_struct(Book)15_storage)": {
						"encoding": "mapping",
						"key": "t_uint256",
						"label": "mapping(uint256 => struct MyContract.Book)",
						"numberOfBytes": "32",
						"value": "t_struct(Book)15_storage"
					},
					"t_string_storage": {
						"encoding": "bytes",
						"label": "string",
						"numberOfBytes": "32"
					},
					"t_struct(Book)15_storage": {
						"encoding": "inplace",
						"label": "struct MyContract.Book",
						"members": [
							{
								"astId": 12,
								"contract": "contracts/Mapping.sol:MyContract",
								"label": "title",
								"offset": 0,
								"slot": "0",
								"type": "t_string_storage"
							},
							{
								"astId": 14,
								"contract": "contracts/Mapping.sol:MyContract",
								"label": "author",
								"offset": 0,
								"slot": "1",
								"type": "t_string_storage"
							}
						],
						"numberOfBytes": "64"
					},
					"t_uint256": {
						"encoding": "inplace",
						"label": "uint256",
						"numberOfBytes": "32"
					}
				}
			},
			"userdoc": {
				"kind": "user",
				"methods": {},
				"version": 1
			}
		}
	}
}