{
	"contracts/Loops.sol": {
		"MyContract": {
			"abi": [
				{
					"inputs": [
						{
							"internalType": "uint256",
							"name": "_number",
							"type": "uint256"
						}
					],
					"name": "isEvenNumber",
					"outputs": [
						{
							"internalType": "bool",
							"name": "",
							"type": "bool"
						}
					],
					"stateMutability": "view",
					"type": "function"
				},
				{
					"inputs": [
						{
							"internalType": "uint256",
							"name": "",
							"type": "uint256"
						}
					],
					"name": "numbers",
					"outputs": [
						{
							"internalType": "uint256",
							"name": "",
							"type": "uint256"
						}
					],
					"stateMutability": "view",
					"type": "function"
				}
			],
			"devdoc": {
				"kind": "dev",
				"methods": {},
				"version": 1
			},
			"evm": {
				"assembly": "    /* \"contracts/Loops.sol\":66:366  contract MyContract {\r... */\n  mstore(0x40, 0x80)\n    /* \"contracts/Loops.sol\":110:164  uint[] public numbers =[1, 2, 3, 4, 5, 6, 7, 8, 9, 10] */\n  mload(0x40)\n  dup1\n  0x0140\n  add\n  0x40\n  mstore\n  dup1\n    /* \"contracts/Loops.sol\":134:135  1 */\n  0x01\n    /* \"contracts/Loops.sol\":110:164  uint[] public numbers =[1, 2, 3, 4, 5, 6, 7, 8, 9, 10] */\n  0xff\n  and\n  dup2\n  mstore\n  0x20\n  add\n    /* \"contracts/Loops.sol\":137:138  2 */\n  0x02\n    /* \"contracts/Loops.sol\":110:164  uint[] public numbers =[1, 2, 3, 4, 5, 6, 7, 8, 9, 10] */\n  0xff\n  and\n  dup2\n  mstore\n  0x20\n  add\n    /* \"contracts/Loops.sol\":140:141  3 */\n  0x03\n    /* \"contracts/Loops.sol\":110:164  uint[] public numbers =[1, 2, 3, 4, 5, 6, 7, 8, 9, 10] */\n  0xff\n  and\n  dup2\n  mstore\n  0x20\n  add\n    /* \"contracts/Loops.sol\":143:144  4 */\n  0x04\n    /* \"contracts/Loops.sol\":110:164  uint[] public numbers =[1, 2, 3, 4, 5, 6, 7, 8, 9, 10] */\n  0xff\n  and\n  dup2\n  mstore\n  0x20\n  add\n    /* \"contracts/Loops.sol\":146:147  5 */\n  0x05\n    /* \"contracts/Loops.sol\":110:164  uint[] public numbers =[1, 2, 3, 4, 5, 6, 7, 8, 9, 10] */\n  0xff\n  and\n  dup2\n  mstore\n  0x20\n  add\n    /* \"contracts/Loops.sol\":149:150  6 */\n  0x06\n    /* \"contracts/Loops.sol\":110:164  uint[] public numbers =[1, 2, 3, 4, 5, 6, 7, 8, 9, 10] */\n  0xff\n  and\n  dup2\n  mstore\n  0x20\n  add\n    /* \"contracts/Loops.sol\":152:153  7 */\n  0x07\n    /* \"contracts/Loops.sol\":110:164  uint[] public numbers =[1, 2, 3, 4, 5, 6, 7, 8, 9, 10] */\n  0xff\n  and\n  dup2\n  mstore\n  0x20\n  add\n    /* \"contracts/Loops.sol\":155:156  8 */\n  0x08\n    /* \"contracts/Loops.sol\":110:164  uint[] public numbers =[1, 2, 3, 4, 5, 6, 7, 8, 9, 10] */\n  0xff\n  and\n  dup2\n  mstore\n  0x20\n  add\n    /* \"contracts/Loops.sol\":158:159  9 */\n  0x09\n    /* \"contracts/Loops.sol\":110:164  uint[] public numbers =[1, 2, 3, 4, 5, 6, 7, 8, 9, 10] */\n  0xff\n  and\n  dup2\n  mstore\n  0x20\n  add\n    /* \"contracts/Loops.sol\":161:163  10 */\n  0x0a\n    /* \"contracts/Loops.sol\":110:164  uint[] public numbers =[1, 2, 3, 4, 5, 6, 7, 8, 9, 10] */\n  0xff\n  and\n  dup2\n  mstore\n  pop\n  0x00\n  swap1\n  0x0a\n  tag_1\n  swap3\n  swap2\n  swap1\n  tag_2\n  jump\t// in\ntag_1:\n  pop\n    /* \"contracts/Loops.sol\":66:366  contract MyContract {\r... */\n  callvalue\n  dup1\n  iszero\n  tag_3\n  jumpi\n  0x00\n  dup1\n  revert\ntag_3:\n  pop\n  jump(tag_4)\ntag_2:\n  dup3\n  dup1\n  sload\n  dup3\n  dup3\n  sstore\n  swap1\n  0x00\n  mstore\n  keccak256(0x00, 0x20)\n  swap1\n  dup2\n  add\n  swap3\n  dup3\n  iszero\n  tag_5\n  jumpi\n  swap2\n  0x20\n  mul\n  dup3\n  add\ntag_6:\n  dup3\n  dup2\n  gt\n  iszero\n  tag_7\n  jumpi\n  dup3\n  mload\n  dup3\n  swap1\n  0xff\n  and\n  swap1\n  sstore\n  swap2\n  0x20\n  add\n  swap2\n  swap1\n  0x01\n  add\n  swap1\n  jump(tag_6)\ntag_7:\ntag_5:\n  pop\n  swap1\n  pop\n  tag_8\n  swap2\n  swap1\n  tag_9\n  jump\t// in\ntag_8:\n  pop\n  swap1\n  jump\t// out\ntag_9:\ntag_10:\n  dup1\n  dup3\n  gt\n  iszero\n  tag_11\n  jumpi\n  0x00\n  dup2\n  0x00\n  swap1\n  sstore\n  pop\n  0x01\n  add\n  jump(tag_10)\ntag_11:\n  pop\n  swap1\n  jump\t// out\ntag_4:\n  dataSize(sub_0)\n  dup1\n  dataOffset(sub_0)\n  0x00\n  codecopy\n  0x00\n  return\nstop\n\nsub_0: assembly {\n        /* \"contracts/Loops.sol\":66:366  contract MyContract {\r... */\n      mstore(0x40, 0x80)\n      callvalue\n      dup1\n      iszero\n      tag_1\n      jumpi\n      0x00\n      dup1\n      revert\n    tag_1:\n      pop\n      jumpi(tag_2, lt(calldatasize, 0x04))\n      shr(0xe0, calldataload(0x00))\n      dup1\n      0xd39fa233\n      eq\n      tag_3\n      jumpi\n      dup1\n      0xe5054c69\n      eq\n      tag_4\n      jumpi\n    tag_2:\n      0x00\n      dup1\n      revert\n        /* \"contracts/Loops.sol\":110:164  uint[] public numbers =[1, 2, 3, 4, 5, 6, 7, 8, 9, 10] */\n    tag_3:\n      tag_5\n      0x04\n      dup1\n      calldatasize\n      sub\n      dup2\n      add\n      swap1\n      tag_6\n      swap2\n      swap1\n      tag_7\n      jump\t// in\n    tag_6:\n      tag_8\n      jump\t// in\n    tag_5:\n      mload(0x40)\n      tag_9\n      swap2\n      swap1\n      tag_10\n      jump\t// in\n    tag_9:\n      mload(0x40)\n      dup1\n      swap2\n      sub\n      swap1\n      return\n        /* \"contracts/Loops.sol\":175:353  function isEvenNumber(uint _number) public view returns(bool){\r... */\n    tag_4:\n      tag_11\n      0x04\n      dup1\n      calldatasize\n      sub\n      dup2\n      add\n      swap1\n      tag_12\n      swap2\n      swap1\n      tag_7\n      jump\t// in\n    tag_12:\n      tag_13\n      jump\t// in\n    tag_11:\n      mload(0x40)\n      tag_14\n      swap2\n      swap1\n      tag_15\n      jump\t// in\n    tag_14:\n      mload(0x40)\n      dup1\n      swap2\n      sub\n      swap1\n      return\n        /* \"contracts/Loops.sol\":110:164  uint[] public numbers =[1, 2, 3, 4, 5, 6, 7, 8, 9, 10] */\n    tag_8:\n      0x00\n      dup2\n      dup2\n      sload\n      dup2\n      lt\n      tag_16\n      jumpi\n      0x00\n      dup1\n      revert\n    tag_16:\n      swap1\n      0x00\n      mstore\n      keccak256(0x00, 0x20)\n      add\n      0x00\n      swap2\n      pop\n      swap1\n      pop\n      sload\n      dup2\n      jump\t// out\n        /* \"contracts/Loops.sol\":175:353  function isEvenNumber(uint _number) public view returns(bool){\r... */\n    tag_13:\n        /* \"contracts/Loops.sol\":231:235  bool */\n      0x00\n        /* \"contracts/Loops.sol\":264:265  0 */\n      dup1\n        /* \"contracts/Loops.sol\":259:260  2 */\n      0x02\n        /* \"contracts/Loops.sol\":249:256  _number */\n      dup4\n        /* \"contracts/Loops.sol\":249:260  _number % 2 */\n      tag_19\n      swap2\n      swap1\n      tag_20\n      jump\t// in\n    tag_19:\n        /* \"contracts/Loops.sol\":249:265  _number % 2 == 0 */\n      eq\n        /* \"contracts/Loops.sol\":246:347  if(_number % 2 == 0){\r... */\n      iszero\n      tag_21\n      jumpi\n        /* \"contracts/Loops.sol\":287:291  true */\n      0x01\n        /* \"contracts/Loops.sol\":280:291  return true */\n      swap1\n      pop\n      jump(tag_18)\n        /* \"contracts/Loops.sol\":246:347  if(_number % 2 == 0){\r... */\n    tag_21:\n        /* \"contracts/Loops.sol\":331:336  false */\n      0x00\n        /* \"contracts/Loops.sol\":324:336  return false */\n      swap1\n      pop\n        /* \"contracts/Loops.sol\":175:353  function isEvenNumber(uint _number) public view returns(bool){\r... */\n    tag_18:\n      swap2\n      swap1\n      pop\n      jump\t// out\n        /* \"#utility.yul\":7:146   */\n    tag_24:\n      0x00\n        /* \"#utility.yul\":91:97   */\n      dup2\n        /* \"#utility.yul\":78:98   */\n      calldataload\n        /* \"#utility.yul\":69:98   */\n      swap1\n      pop\n        /* \"#utility.yul\":107:140   */\n      tag_26\n        /* \"#utility.yul\":134:139   */\n      dup2\n        /* \"#utility.yul\":107:140   */\n      tag_27\n      jump\t// in\n    tag_26:\n        /* \"#utility.yul\":59:146   */\n      swap3\n      swap2\n      pop\n      pop\n      jump\t// out\n        /* \"#utility.yul\":152:414   */\n    tag_7:\n      0x00\n        /* \"#utility.yul\":260:262   */\n      0x20\n        /* \"#utility.yul\":248:257   */\n      dup3\n        /* \"#utility.yul\":239:246   */\n      dup5\n        /* \"#utility.yul\":235:258   */\n      sub\n        /* \"#utility.yul\":231:263   */\n      slt\n        /* \"#utility.yul\":228:230   */\n      iszero\n      tag_29\n      jumpi\n        /* \"#utility.yul\":276:277   */\n      0x00\n        /* \"#utility.yul\":273:274   */\n      dup1\n        /* \"#utility.yul\":266:278   */\n      revert\n        /* \"#utility.yul\":228:230   */\n    tag_29:\n        /* \"#utility.yul\":319:320   */\n      0x00\n        /* \"#utility.yul\":344:397   */\n      tag_30\n        /* \"#utility.yul\":389:396   */\n      dup5\n        /* \"#utility.yul\":380:386   */\n      dup3\n        /* \"#utility.yul\":369:378   */\n      dup6\n        /* \"#utility.yul\":365:387   */\n      add\n        /* \"#utility.yul\":344:397   */\n      tag_24\n      jump\t// in\n    tag_30:\n        /* \"#utility.yul\":334:397   */\n      swap2\n      pop\n        /* \"#utility.yul\":290:407   */\n      pop\n        /* \"#utility.yul\":218:414   */\n      swap3\n      swap2\n      pop\n      pop\n      jump\t// out\n        /* \"#utility.yul\":420:529   */\n    tag_31:\n        /* \"#utility.yul\":501:522   */\n      tag_33\n        /* \"#utility.yul\":516:521   */\n      dup2\n        /* \"#utility.yul\":501:522   */\n      tag_34\n      jump\t// in\n    tag_33:\n        /* \"#utility.yul\":496:499   */\n      dup3\n        /* \"#utility.yul\":489:523   */\n      mstore\n        /* \"#utility.yul\":479:529   */\n      pop\n      pop\n      jump\t// out\n        /* \"#utility.yul\":535:653   */\n    tag_35:\n        /* \"#utility.yul\":622:646   */\n      tag_37\n        /* \"#utility.yul\":640:645   */\n      dup2\n        /* \"#utility.yul\":622:646   */\n      tag_38\n      jump\t// in\n    tag_37:\n        /* \"#utility.yul\":617:620   */\n      dup3\n        /* \"#utility.yul\":610:647   */\n      mstore\n        /* \"#utility.yul\":600:653   */\n      pop\n      pop\n      jump\t// out\n        /* \"#utility.yul\":659:869   */\n    tag_15:\n      0x00\n        /* \"#utility.yul\":784:786   */\n      0x20\n        /* \"#utility.yul\":773:782   */\n      dup3\n        /* \"#utility.yul\":769:787   */\n      add\n        /* \"#utility.yul\":761:787   */\n      swap1\n      pop\n        /* \"#utility.yul\":797:862   */\n      tag_40\n        /* \"#utility.yul\":859:860   */\n      0x00\n        /* \"#utility.yul\":848:857   */\n      dup4\n        /* \"#utility.yul\":844:861   */\n      add\n        /* \"#utility.yul\":835:841   */\n      dup5\n        /* \"#utility.yul\":797:862   */\n      tag_31\n      jump\t// in\n    tag_40:\n        /* \"#utility.yul\":751:869   */\n      swap3\n      swap2\n      pop\n      pop\n      jump\t// out\n        /* \"#utility.yul\":875:1097   */\n    tag_10:\n      0x00\n        /* \"#utility.yul\":1006:1008   */\n      0x20\n        /* \"#utility.yul\":995:1004   */\n      dup3\n        /* \"#utility.yul\":991:1009   */\n      add\n        /* \"#utility.yul\":983:1009   */\n      swap1\n      pop\n        /* \"#utility.yul\":1019:1090   */\n      tag_42\n        /* \"#utility.yul\":1087:1088   */\n      0x00\n        /* \"#utility.yul\":1076:1085   */\n      dup4\n        /* \"#utility.yul\":1072:1089   */\n      add\n        /* \"#utility.yul\":1063:1069   */\n      dup5\n        /* \"#utility.yul\":1019:1090   */\n      tag_35\n      jump\t// in\n    tag_42:\n        /* \"#utility.yul\":973:1097   */\n      swap3\n      swap2\n      pop\n      pop\n      jump\t// out\n        /* \"#utility.yul\":1103:1193   */\n    tag_34:\n      0x00\n        /* \"#utility.yul\":1180:1185   */\n      dup2\n        /* \"#utility.yul\":1173:1186   */\n      iszero\n        /* \"#utility.yul\":1166:1187   */\n      iszero\n        /* \"#utility.yul\":1155:1187   */\n      swap1\n      pop\n        /* \"#utility.yul\":1145:1193   */\n      swap2\n      swap1\n      pop\n      jump\t// out\n        /* \"#utility.yul\":1199:1276   */\n    tag_38:\n      0x00\n        /* \"#utility.yul\":1265:1270   */\n      dup2\n        /* \"#utility.yul\":1254:1270   */\n      swap1\n      pop\n        /* \"#utility.yul\":1244:1276   */\n      swap2\n      swap1\n      pop\n      jump\t// out\n        /* \"#utility.yul\":1282:1458   */\n    tag_20:\n      0x00\n        /* \"#utility.yul\":1331:1351   */\n      tag_46\n        /* \"#utility.yul\":1349:1350   */\n      dup3\n        /* \"#utility.yul\":1331:1351   */\n      tag_38\n      jump\t// in\n    tag_46:\n        /* \"#utility.yul\":1326:1351   */\n      swap2\n      pop\n        /* \"#utility.yul\":1365:1385   */\n      tag_47\n        /* \"#utility.yul\":1383:1384   */\n      dup4\n        /* \"#utility.yul\":1365:1385   */\n      tag_38\n      jump\t// in\n    tag_47:\n        /* \"#utility.yul\":1360:1385   */\n      swap3\n      pop\n        /* \"#utility.yul\":1404:1405   */\n      dup3\n        /* \"#utility.yul\":1394:1396   */\n      tag_48\n      jumpi\n        /* \"#utility.yul\":1409:1427   */\n      tag_49\n      tag_50\n      jump\t// in\n    tag_49:\n        /* \"#utility.yul\":1394:1396   */\n    tag_48:\n        /* \"#utility.yul\":1450:1451   */\n      dup3\n        /* \"#utility.yul\":1447:1448   */\n      dup3\n        /* \"#utility.yul\":1443:1452   */\n      mod\n        /* \"#utility.yul\":1438:1452   */\n      swap1\n      pop\n        /* \"#utility.yul\":1316:1458   */\n      swap3\n      swap2\n      pop\n      pop\n      jump\t// out\n        /* \"#utility.yul\":1464:1644   */\n    tag_50:\n        /* \"#utility.yul\":1512:1589   */\n      0x4e487b7100000000000000000000000000000000000000000000000000000000\n        /* \"#utility.yul\":1509:1510   */\n      0x00\n        /* \"#utility.yul\":1502:1590   */\n      mstore\n        /* \"#utility.yul\":1609:1613   */\n      0x12\n        /* \"#utility.yul\":1606:1607   */\n      0x04\n        /* \"#utility.yul\":1599:1614   */\n      mstore\n        /* \"#utility.yul\":1633:1637   */\n      0x24\n        /* \"#utility.yul\":1630:1631   */\n      0x00\n        /* \"#utility.yul\":1623:1638   */\n      revert\n        /* \"#utility.yul\":1650:1772   */\n    tag_27:\n        /* \"#utility.yul\":1723:1747   */\n      tag_53\n        /* \"#utility.yul\":1741:1746   */\n      dup2\n        /* \"#utility.yul\":1723:1747   */\n      tag_38\n      jump\t// in\n    tag_53:\n        /* \"#utility.yul\":1716:1721   */\n      dup2\n        /* \"#utility.yul\":1713:1748   */\n      eq\n        /* \"#utility.yul\":1703:1705   */\n      tag_54\n      jumpi\n        /* \"#utility.yul\":1762:1763   */\n      0x00\n        /* \"#utility.yul\":1759:1760   */\n      dup1\n        /* \"#utility.yul\":1752:1764   */\n      revert\n        /* \"#utility.yul\":1703:1705   */\n    tag_54:\n        /* \"#utility.yul\":1693:1772   */\n      pop\n      jump\t// out\n\n    auxdata: 0xa26469706673582212208795206afbcfd0f7fe29fe711cc9c7b7e59d470ad991a6715c7f550d97ac3d9a64736f6c63430008000033\n}\n",
				"bytecode": {
					"linkReferences": {},
					"object": "6080604052604051806101400160405280600160ff168152602001600260ff168152602001600360ff168152602001600460ff168152602001600560ff168152602001600660ff168152602001600760ff168152602001600860ff168152602001600960ff168152602001600a60ff16815250600090600a610082929190610095565b5034801561008f57600080fd5b50610104565b8280548282559060005260206000209081019282156100d6579160200282015b828111156100d5578251829060ff169055916020019190600101906100b5565b5b5090506100e391906100e7565b5090565b5b808211156101005760008160009055506001016100e8565b5090565b61023d806101136000396000f3fe608060405234801561001057600080fd5b50600436106100365760003560e01c8063d39fa2331461003b578063e5054c691461006b575b600080fd5b610055600480360381019061005091906100fd565b61009b565b604051610062919061015f565b60405180910390f35b610085600480360381019061008091906100fd565b6100bf565b6040516100929190610144565b60405180910390f35b600081815481106100ab57600080fd5b906000526020600020016000915090505481565b6000806002836100cf9190610190565b14156100de57600190506100e3565b600090505b919050565b6000813590506100f7816101f0565b92915050565b60006020828403121561010f57600080fd5b600061011d848285016100e8565b91505092915050565b61012f8161017a565b82525050565b61013e81610186565b82525050565b60006020820190506101596000830184610126565b92915050565b60006020820190506101746000830184610135565b92915050565b60008115159050919050565b6000819050919050565b600061019b82610186565b91506101a683610186565b9250826101b6576101b56101c1565b5b828206905092915050565b7f4e487b7100000000000000000000000000000000000000000000000000000000600052601260045260246000fd5b6101f981610186565b811461020457600080fd5b5056fea26469706673582212208795206afbcfd0f7fe29fe711cc9c7b7e59d470ad991a6715c7f550d97ac3d9a64736f6c63430008000033",
					"opcodes": "PUSH1 0x80 PUSH1 0x40 MSTORE PUSH1 0x40 MLOAD DUP1 PUSH2 0x140 ADD PUSH1 0x40 MSTORE DUP1 PUSH1 0x1 PUSH1 0xFF AND DUP2 MSTORE PUSH1 0x20 ADD PUSH1 0x2 PUSH1 0xFF AND DUP2 MSTORE PUSH1 0x20 ADD PUSH1 0x3 PUSH1 0xFF AND DUP2 MSTORE PUSH1 0x20 ADD PUSH1 0x4 PUSH1 0xFF AND DUP2 MSTORE PUSH1 0x20 ADD PUSH1 0x5 PUSH1 0xFF AND DUP2 MSTORE PUSH1 0x20 ADD PUSH1 0x6 PUSH1 0xFF AND DUP2 MSTORE PUSH1 0x20 ADD PUSH1 0x7 PUSH1 0xFF AND DUP2 MSTORE PUSH1 0x20 ADD PUSH1 0x8 PUSH1 0xFF AND DUP2 MSTORE PUSH1 0x20 ADD PUSH1 0x9 PUSH1 0xFF AND DUP2 MSTORE PUSH1 0x20 ADD PUSH1 0xA PUSH1 0xFF AND DUP2 MSTORE POP PUSH1 0x0 SWAP1 PUSH1 0xA PUSH2 0x82 SWAP3 SWAP2 SWAP1 PUSH2 0x95 JUMP JUMPDEST POP CALLVALUE DUP1 ISZERO PUSH2 0x8F JUMPI PUSH1 0x0 DUP1 REVERT JUMPDEST POP PUSH2 0x104 JUMP JUMPDEST DUP3 DUP1 SLOAD DUP3 DUP3 SSTORE SWAP1 PUSH1 0x0 MSTORE PUSH1 0x20 PUSH1 0x0 KECCAK256 SWAP1 DUP2 ADD SWAP3 DUP3 ISZERO PUSH2 0xD6 JUMPI SWAP2 PUSH1 0x20 MUL DUP3 ADD JUMPDEST DUP3 DUP2 GT ISZERO PUSH2 0xD5 JUMPI DUP3 MLOAD DUP3 SWAP1 PUSH1 0xFF AND SWAP1 SSTORE SWAP2 PUSH1 0x20 ADD SWAP2 SWAP1 PUSH1 0x1 ADD SWAP1 PUSH2 0xB5 JUMP JUMPDEST JUMPDEST POP SWAP1 POP PUSH2 0xE3 SWAP2 SWAP1 PUSH2 0xE7 JUMP JUMPDEST POP SWAP1 JUMP JUMPDEST JUMPDEST DUP1 DUP3 GT ISZERO PUSH2 0x100 JUMPI PUSH1 0x0 DUP2 PUSH1 0x0 SWAP1 SSTORE POP PUSH1 0x1 ADD PUSH2 0xE8 JUMP JUMPDEST POP SWAP1 JUMP JUMPDEST PUSH2 0x23D DUP1 PUSH2 0x113 PUSH1 0x0 CODECOPY PUSH1 0x0 RETURN INVALID PUSH1 0x80 PUSH1 0x40 MSTORE CALLVALUE DUP1 ISZERO PUSH2 0x10 JUMPI PUSH1 0x0 DUP1 REVERT JUMPDEST POP PUSH1 0x4 CALLDATASIZE LT PUSH2 0x36 JUMPI PUSH1 0x0 CALLDATALOAD PUSH1 0xE0 SHR DUP1 PUSH4 0xD39FA233 EQ PUSH2 0x3B JUMPI DUP1 PUSH4 0xE5054C69 EQ PUSH2 0x6B JUMPI JUMPDEST PUSH1 0x0 DUP1 REVERT JUMPDEST PUSH2 0x55 PUSH1 0x4 DUP1 CALLDATASIZE SUB DUP2 ADD SWAP1 PUSH2 0x50 SWAP2 SWAP1 PUSH2 0xFD JUMP JUMPDEST PUSH2 0x9B JUMP JUMPDEST PUSH1 0x40 MLOAD PUSH2 0x62 SWAP2 SWAP1 PUSH2 0x15F JUMP JUMPDEST PUSH1 0x40 MLOAD DUP1 SWAP2 SUB SWAP1 RETURN JUMPDEST PUSH2 0x85 PUSH1 0x4 DUP1 CALLDATASIZE SUB DUP2 ADD SWAP1 PUSH2 0x80 SWAP2 SWAP1 PUSH2 0xFD JUMP JUMPDEST PUSH2 0xBF JUMP JUMPDEST PUSH1 0x40 MLOAD PUSH2 0x92 SWAP2 SWAP1 PUSH2 0x144 JUMP JUMPDEST PUSH1 0x40 MLOAD DUP1 SWAP2 SUB SWAP1 RETURN JUMPDEST PUSH1 0x0 DUP2 DUP2 SLOAD DUP2 LT PUSH2 0xAB JUMPI PUSH1 0x0 DUP1 REVERT JUMPDEST SWAP1 PUSH1 0x0 MSTORE PUSH1 0x20 PUSH1 0x0 KECCAK256 ADD PUSH1 0x0 SWAP2 POP SWAP1 POP SLOAD DUP2 JUMP JUMPDEST PUSH1 0x0 DUP1 PUSH1 0x2 DUP4 PUSH2 0xCF SWAP2 SWAP1 PUSH2 0x190 JUMP JUMPDEST EQ ISZERO PUSH2 0xDE JUMPI PUSH1 0x1 SWAP1 POP PUSH2 0xE3 JUMP JUMPDEST PUSH1 0x0 SWAP1 POP JUMPDEST SWAP2 SWAP1 POP JUMP JUMPDEST PUSH1 0x0 DUP2 CALLDATALOAD SWAP1 POP PUSH2 0xF7 DUP2 PUSH2 0x1F0 JUMP JUMPDEST SWAP3 SWAP2 POP POP JUMP JUMPDEST PUSH1 0x0 PUSH1 0x20 DUP3 DUP5 SUB SLT ISZERO PUSH2 0x10F JUMPI PUSH1 0x0 DUP1 REVERT JUMPDEST PUSH1 0x0 PUSH2 0x11D DUP5 DUP3 DUP6 ADD PUSH2 0xE8 JUMP JUMPDEST SWAP2 POP POP SWAP3 SWAP2 POP POP JUMP JUMPDEST PUSH2 0x12F DUP2 PUSH2 0x17A JUMP JUMPDEST DUP3 MSTORE POP POP JUMP JUMPDEST PUSH2 0x13E DUP2 PUSH2 0x186 JUMP JUMPDEST DUP3 MSTORE POP POP JUMP JUMPDEST PUSH1 0x0 PUSH1 0x20 DUP3 ADD SWAP1 POP PUSH2 0x159 PUSH1 0x0 DUP4 ADD DUP5 PUSH2 0x126 JUMP JUMPDEST SWAP3 SWAP2 POP POP JUMP JUMPDEST PUSH1 0x0 PUSH1 0x20 DUP3 ADD SWAP1 POP PUSH2 0x174 PUSH1 0x0 DUP4 ADD DUP5 PUSH2 0x135 JUMP JUMPDEST SWAP3 SWAP2 POP POP JUMP JUMPDEST PUSH1 0x0 DUP2 ISZERO ISZERO SWAP1 POP SWAP2 SWAP1 POP JUMP JUMPDEST PUSH1 0x0 DUP2 SWAP1 POP SWAP2 SWAP1 POP JUMP JUMPDEST PUSH1 0x0 PUSH2 0x19B DUP3 PUSH2 0x186 JUMP JUMPDEST SWAP2 POP PUSH2 0x1A6 DUP4 PUSH2 0x186 JUMP JUMPDEST SWAP3 POP DUP3 PUSH2 0x1B6 JUMPI PUSH2 0x1B5 PUSH2 0x1C1 JUMP JUMPDEST JUMPDEST DUP3 DUP3 MOD SWAP1 POP SWAP3 SWAP2 POP POP JUMP JUMPDEST PUSH32 0x4E487B7100000000000000000000000000000000000000000000000000000000 PUSH1 0x0 MSTORE PUSH1 0x12 PUSH1 0x4 MSTORE PUSH1 0x24 PUSH1 0x0 REVERT JUMPDEST PUSH2 0x1F9 DUP2 PUSH2 0x186 JUMP JUMPDEST DUP2 EQ PUSH2 0x204 JUMPI PUSH1 0x0 DUP1 REVERT JUMPDEST POP JUMP INVALID LOG2 PUSH5 0x6970667358 0x22 SLT KECCAK256 DUP8 SWAP6 KECCAK256 PUSH11 0xFBCFD0F7FE29FE711CC9C7 0xB7 0xE5 SWAP14 SELFBALANCE EXP 0xD9 SWAP2 0xA6 PUSH18 0x5C7F550D97AC3D9A64736F6C634300080000 CALLER "
				},
				"gasEstimates": {
					"creation": {
						"codeDepositCost": "114600",
						"executionCost": "infinite",
						"totalCost": "infinite"
					},
					"external": {
						"isEvenNumber(uint256)": "infinite",
						"numbers(uint256)": "infinite"
					}
				},
				"methodIdentifiers": {
					"isEvenNumber(uint256)": "e5054c69",
					"numbers(uint256)": "d39fa233"
				}
			},
			"storageLayout": {
				"storage": [
					{
						"astId": 15,
						"contract": "contracts/Loops.sol:MyContract",
						"label": "numbers",
						"offset": 0,
						"slot": "0",
						"type": "t_array(t_uint256)dyn_storage"
					}
				],
				"types": {
					"t_array(t_uint256)dyn_storage": {
						"base": "t_uint256",
						"encoding": "dynamic_array",
						"label": "uint256[]",
						"numberOfBytes": "32"
					},
					"t_uint256": {
						"encoding": "inplace",
						"label": "uint256",
						"numberOfBytes": "32"
					}
				}
			},
			"userdoc": {
				"kind": "user",
				"methods": {},
				"version": 1
			}
		}
	}
}