{
	"contracts/HotelRoom.sol": {
		"HotelRoom": {
			"abi": [
				{
					"inputs": [],
					"stateMutability": "nonpayable",
					"type": "constructor"
				},
				{
					"anonymous": false,
					"inputs": [
						{
							"indexed": false,
							"internalType": "address",
							"name": "_occupant",
							"type": "address"
						},
						{
							"indexed": false,
							"internalType": "uint256",
							"name": "_value",
							"type": "uint256"
						}
					],
					"name": "Occupy",
					"type": "event"
				},
				{
					"inputs": [],
					"name": "book",
					"outputs": [],
					"stateMutability": "payable",
					"type": "function"
				},
				{
					"inputs": [],
					"name": "currentStatus",
					"outputs": [
						{
							"internalType": "enum HotelRoom.Statuses",
							"name": "",
							"type": "uint8"
						}
					],
					"stateMutability": "view",
					"type": "function"
				},
				{
					"inputs": [],
					"name": "owner",
					"outputs": [
						{
							"internalType": "address payable",
							"name": "",
							"type": "address"
						}
					],
					"stateMutability": "view",
					"type": "function"
				}
			],
			"devdoc": {
				"kind": "dev",
				"methods": {},
				"version": 1
			},
			"evm": {
				"assembly": "    /* \"contracts/HotelRoom.sol\":256:1423  contract HotelRoom{\r... */\n  mstore(0x40, 0x80)\n    /* \"contracts/HotelRoom.sol\":521:621  constructor(){\r... */\n  callvalue\n  dup1\n  iszero\n  tag_1\n  jumpi\n  0x00\n  dup1\n  revert\ntag_1:\n  pop\n    /* \"contracts/HotelRoom.sol\":561:571  msg.sender */\n  caller\n    /* \"contracts/HotelRoom.sol\":544:549  owner */\n  0x00\n  0x01\n    /* \"contracts/HotelRoom.sol\":544:572  owner = payable (msg.sender) */\n  0x0100\n  exp\n  dup2\n  sload\n  dup2\n  0xffffffffffffffffffffffffffffffffffffffff\n  mul\n  not\n  and\n  swap1\n  dup4\n  0xffffffffffffffffffffffffffffffffffffffff\n  and\n  mul\n  or\n  swap1\n  sstore\n  pop\n    /* \"contracts/HotelRoom.sol\":598:613  Statuses.Vacant */\n  0x00\n    /* \"contracts/HotelRoom.sol\":582:595  currentStatus */\n  dup1\n  0x00\n    /* \"contracts/HotelRoom.sol\":582:613  currentStatus = Statuses.Vacant */\n  0x0100\n  exp\n  dup2\n  sload\n  dup2\n  0xff\n  mul\n  not\n  and\n  swap1\n  dup4\n  0x01\n  dup2\n  gt\n  iszero\n  tag_4\n  jumpi\n  mstore(0x00, 0x4e487b7100000000000000000000000000000000000000000000000000000000)\n  mstore(0x04, 0x21)\n  revert(0x00, 0x24)\ntag_4:\n  mul\n  or\n  swap1\n  sstore\n  pop\n    /* \"contracts/HotelRoom.sol\":256:1423  contract HotelRoom{\r... */\n  dataSize(sub_0)\n  dup1\n  dataOffset(sub_0)\n  0x00\n  codecopy\n  0x00\n  return\nstop\n\nsub_0: assembly {\n        /* \"contracts/HotelRoom.sol\":256:1423  contract HotelRoom{\r... */\n      mstore(0x40, 0x80)\n      jumpi(tag_1, lt(calldatasize, 0x04))\n      shr(0xe0, calldataload(0x00))\n      dup1\n      0x05a8da72\n      eq\n      tag_2\n      jumpi\n      dup1\n      0x8da5cb5b\n      eq\n      tag_3\n      jumpi\n      dup1\n      0xef8a9235\n      eq\n      tag_4\n      jumpi\n    tag_1:\n      0x00\n      dup1\n      revert\n        /* \"contracts/HotelRoom.sol\":919:1420  function book() public payable onlyWhileVacant costs(2 ether){\r... */\n    tag_2:\n      tag_5\n      tag_6\n      jump\t// in\n    tag_5:\n      stop\n        /* \"contracts/HotelRoom.sol\":482:510  address payable public owner */\n    tag_3:\n      callvalue\n      dup1\n      iszero\n      tag_7\n      jumpi\n      0x00\n      dup1\n      revert\n    tag_7:\n      pop\n      tag_8\n      tag_9\n      jump\t// in\n    tag_8:\n      mload(0x40)\n      tag_10\n      swap2\n      swap1\n      tag_11\n      jump\t// in\n    tag_10:\n      mload(0x40)\n      dup1\n      swap2\n      sub\n      swap1\n      return\n        /* \"contracts/HotelRoom.sol\":386:415  Statuses public currentStatus */\n    tag_4:\n      callvalue\n      dup1\n      iszero\n      tag_12\n      jumpi\n      0x00\n      dup1\n      revert\n    tag_12:\n      pop\n      tag_13\n      tag_14\n      jump\t// in\n    tag_13:\n      mload(0x40)\n      tag_15\n      swap2\n      swap1\n      tag_16\n      jump\t// in\n    tag_15:\n      mload(0x40)\n      dup1\n      swap2\n      sub\n      swap1\n      return\n        /* \"contracts/HotelRoom.sol\":919:1420  function book() public payable onlyWhileVacant costs(2 ether){\r... */\n    tag_6:\n        /* \"contracts/HotelRoom.sol\":709:724  Statuses.Vacant */\n      0x00\n        /* \"contracts/HotelRoom.sol\":692:724  currentStatus == Statuses.Vacant */\n      0x01\n      dup2\n      gt\n      iszero\n      tag_18\n      jumpi\n      mstore(0x00, 0x4e487b7100000000000000000000000000000000000000000000000000000000)\n      mstore(0x04, 0x21)\n      revert(0x00, 0x24)\n    tag_18:\n        /* \"contracts/HotelRoom.sol\":692:705  currentStatus */\n      0x00\n      dup1\n      sload\n      swap1\n      0x0100\n      exp\n      swap1\n      div\n      0xff\n      and\n        /* \"contracts/HotelRoom.sol\":692:724  currentStatus == Statuses.Vacant */\n      0x01\n      dup2\n      gt\n      iszero\n      tag_19\n      jumpi\n      mstore(0x00, 0x4e487b7100000000000000000000000000000000000000000000000000000000)\n      mstore(0x04, 0x21)\n      revert(0x00, 0x24)\n    tag_19:\n      eq\n        /* \"contracts/HotelRoom.sol\":684:748  require(currentStatus == Statuses.Vacant, \"Currently occupied.\") */\n      tag_20\n      jumpi\n      mload(0x40)\n      0x08c379a000000000000000000000000000000000000000000000000000000000\n      dup2\n      mstore\n      0x04\n      add\n      tag_21\n      swap1\n      tag_22\n      jump\t// in\n    tag_21:\n      mload(0x40)\n      dup1\n      swap2\n      sub\n      swap1\n      revert\n    tag_20:\n        /* \"contracts/HotelRoom.sol\":972:979  2 ether */\n      0x1bc16d674ec80000\n        /* \"contracts/HotelRoom.sol\":855:862  _amount */\n      dup1\n        /* \"contracts/HotelRoom.sol\":842:851  msg.value */\n      callvalue\n        /* \"contracts/HotelRoom.sol\":842:862  msg.value >= _amount */\n      lt\n      iszero\n        /* \"contracts/HotelRoom.sol\":834:891  require(msg.value >= _amount,\"Not enough ether provided\") */\n      tag_24\n      jumpi\n      mload(0x40)\n      0x08c379a000000000000000000000000000000000000000000000000000000000\n      dup2\n      mstore\n      0x04\n      add\n      tag_25\n      swap1\n      tag_26\n      jump\t// in\n    tag_25:\n      mload(0x40)\n      dup1\n      swap2\n      sub\n      swap1\n      revert\n    tag_24:\n        /* \"contracts/HotelRoom.sol\":1108:1125  Statuses.Occupied */\n      0x01\n        /* \"contracts/HotelRoom.sol\":1092:1105  currentStatus */\n      0x00\n      dup1\n        /* \"contracts/HotelRoom.sol\":1092:1125  currentStatus = Statuses.Occupied */\n      0x0100\n      exp\n      dup2\n      sload\n      dup2\n      0xff\n      mul\n      not\n      and\n      swap1\n      dup4\n      0x01\n      dup2\n      gt\n      iszero\n      tag_28\n      jumpi\n      mstore(0x00, 0x4e487b7100000000000000000000000000000000000000000000000000000000)\n      mstore(0x04, 0x21)\n      revert(0x00, 0x24)\n    tag_28:\n      mul\n      or\n      swap1\n      sstore\n      pop\n        /* \"contracts/HotelRoom.sol\":1275:1284  bool sent */\n      0x00\n        /* \"contracts/HotelRoom.sol\":1286:1303  bytes memory data */\n      dup1\n        /* \"contracts/HotelRoom.sol\":1307:1312  owner */\n      0x00\n      0x01\n      swap1\n      sload\n      swap1\n      0x0100\n      exp\n      swap1\n      div\n      0xffffffffffffffffffffffffffffffffffffffff\n      and\n        /* \"contracts/HotelRoom.sol\":1307:1317  owner.call */\n      0xffffffffffffffffffffffffffffffffffffffff\n      and\n        /* \"contracts/HotelRoom.sol\":1325:1334  msg.value */\n      callvalue\n        /* \"contracts/HotelRoom.sol\":1307:1339  owner.call{value: msg.value}(\"\") */\n      mload(0x40)\n      tag_29\n      swap1\n      tag_30\n      jump\t// in\n    tag_29:\n      0x00\n      mload(0x40)\n      dup1\n      dup4\n      sub\n      dup2\n      dup6\n      dup8\n      gas\n      call\n      swap3\n      pop\n      pop\n      pop\n      returndatasize\n      dup1\n      0x00\n      dup2\n      eq\n      tag_33\n      jumpi\n      mload(0x40)\n      swap2\n      pop\n      and(add(returndatasize, 0x3f), not(0x1f))\n      dup3\n      add\n      0x40\n      mstore\n      returndatasize\n      dup3\n      mstore\n      returndatasize\n      0x00\n      0x20\n      dup5\n      add\n      returndatacopy\n      jump(tag_32)\n    tag_33:\n      0x60\n      swap2\n      pop\n    tag_32:\n      pop\n        /* \"contracts/HotelRoom.sol\":1274:1339  (bool sent, bytes memory data) = owner.call{value: msg.value}(\"\") */\n      swap2\n      pop\n      swap2\n      pop\n        /* \"contracts/HotelRoom.sol\":1359:1363  true */\n      0x01\n        /* \"contracts/HotelRoom.sol\":1351:1364  require(true) */\n      tag_34\n      jumpi\n      0x00\n      dup1\n      revert\n    tag_34:\n        /* \"contracts/HotelRoom.sol\":1383:1412  Occupy(msg.sender, msg.value) */\n      0xba951166d42eb077151bdecb7cf6027562f04f0143b0c141b1bb0a33eef5d693\n        /* \"contracts/HotelRoom.sol\":1390:1400  msg.sender */\n      caller\n        /* \"contracts/HotelRoom.sol\":1402:1411  msg.value */\n      callvalue\n        /* \"contracts/HotelRoom.sol\":1383:1412  Occupy(msg.sender, msg.value) */\n      mload(0x40)\n      tag_35\n      swap3\n      swap2\n      swap1\n      tag_36\n      jump\t// in\n    tag_35:\n      mload(0x40)\n      dup1\n      swap2\n      sub\n      swap1\n      log1\n        /* \"contracts/HotelRoom.sol\":902:903  _ */\n      pop\n      pop\n        /* \"contracts/HotelRoom.sol\":758:759  _ */\n      pop\n        /* \"contracts/HotelRoom.sol\":919:1420  function book() public payable onlyWhileVacant costs(2 ether){\r... */\n      jump\t// out\n        /* \"contracts/HotelRoom.sol\":482:510  address payable public owner */\n    tag_9:\n      0x00\n      0x01\n      swap1\n      sload\n      swap1\n      0x0100\n      exp\n      swap1\n      div\n      0xffffffffffffffffffffffffffffffffffffffff\n      and\n      dup2\n      jump\t// out\n        /* \"contracts/HotelRoom.sol\":386:415  Statuses public currentStatus */\n    tag_14:\n      0x00\n      dup1\n      sload\n      swap1\n      0x0100\n      exp\n      swap1\n      div\n      0xff\n      and\n      dup2\n      jump\t// out\n        /* \"#utility.yul\":7:149   */\n    tag_38:\n        /* \"#utility.yul\":110:142   */\n      tag_40\n        /* \"#utility.yul\":136:141   */\n      dup2\n        /* \"#utility.yul\":110:142   */\n      tag_41\n      jump\t// in\n    tag_40:\n        /* \"#utility.yul\":105:108   */\n      dup3\n        /* \"#utility.yul\":98:143   */\n      mstore\n        /* \"#utility.yul\":88:149   */\n      pop\n      pop\n      jump\t// out\n        /* \"#utility.yul\":155:273   */\n    tag_42:\n        /* \"#utility.yul\":242:266   */\n      tag_44\n        /* \"#utility.yul\":260:265   */\n      dup2\n        /* \"#utility.yul\":242:266   */\n      tag_45\n      jump\t// in\n    tag_44:\n        /* \"#utility.yul\":237:240   */\n      dup3\n        /* \"#utility.yul\":230:267   */\n      mstore\n        /* \"#utility.yul\":220:273   */\n      pop\n      pop\n      jump\t// out\n        /* \"#utility.yul\":279:426   */\n    tag_46:\n        /* \"#utility.yul\":374:419   */\n      tag_48\n        /* \"#utility.yul\":413:418   */\n      dup2\n        /* \"#utility.yul\":374:419   */\n      tag_49\n      jump\t// in\n    tag_48:\n        /* \"#utility.yul\":369:372   */\n      dup3\n        /* \"#utility.yul\":362:420   */\n      mstore\n        /* \"#utility.yul\":352:426   */\n      pop\n      pop\n      jump\t// out\n        /* \"#utility.yul\":432:749   */\n    tag_50:\n      0x00\n        /* \"#utility.yul\":595:662   */\n      tag_52\n        /* \"#utility.yul\":659:661   */\n      0x13\n        /* \"#utility.yul\":654:657   */\n      dup4\n        /* \"#utility.yul\":595:662   */\n      tag_53\n      jump\t// in\n    tag_52:\n        /* \"#utility.yul\":588:662   */\n      swap2\n      pop\n        /* \"#utility.yul\":692:713   */\n      0x43757272656e746c79206f636375706965642e00000000000000000000000000\n        /* \"#utility.yul\":688:689   */\n      0x00\n        /* \"#utility.yul\":683:686   */\n      dup4\n        /* \"#utility.yul\":679:690   */\n      add\n        /* \"#utility.yul\":672:714   */\n      mstore\n        /* \"#utility.yul\":740:742   */\n      0x20\n        /* \"#utility.yul\":735:738   */\n      dup3\n        /* \"#utility.yul\":731:743   */\n      add\n        /* \"#utility.yul\":724:743   */\n      swap1\n      pop\n        /* \"#utility.yul\":578:749   */\n      swap2\n      swap1\n      pop\n      jump\t// out\n        /* \"#utility.yul\":755:1052   */\n    tag_54:\n      0x00\n        /* \"#utility.yul\":935:1018   */\n      tag_56\n        /* \"#utility.yul\":1016:1017   */\n      0x00\n        /* \"#utility.yul\":1011:1014   */\n      dup4\n        /* \"#utility.yul\":935:1018   */\n      tag_57\n      jump\t// in\n    tag_56:\n        /* \"#utility.yul\":928:1018   */\n      swap2\n      pop\n        /* \"#utility.yul\":1044:1045   */\n      0x00\n        /* \"#utility.yul\":1039:1042   */\n      dup3\n        /* \"#utility.yul\":1035:1046   */\n      add\n        /* \"#utility.yul\":1028:1046   */\n      swap1\n      pop\n        /* \"#utility.yul\":918:1052   */\n      swap2\n      swap1\n      pop\n      jump\t// out\n        /* \"#utility.yul\":1058:1381   */\n    tag_58:\n      0x00\n        /* \"#utility.yul\":1221:1288   */\n      tag_60\n        /* \"#utility.yul\":1285:1287   */\n      0x19\n        /* \"#utility.yul\":1280:1283   */\n      dup4\n        /* \"#utility.yul\":1221:1288   */\n      tag_53\n      jump\t// in\n    tag_60:\n        /* \"#utility.yul\":1214:1288   */\n      swap2\n      pop\n        /* \"#utility.yul\":1318:1345   */\n      0x4e6f7420656e6f7567682065746865722070726f766964656400000000000000\n        /* \"#utility.yul\":1314:1315   */\n      0x00\n        /* \"#utility.yul\":1309:1312   */\n      dup4\n        /* \"#utility.yul\":1305:1316   */\n      add\n        /* \"#utility.yul\":1298:1346   */\n      mstore\n        /* \"#utility.yul\":1372:1374   */\n      0x20\n        /* \"#utility.yul\":1367:1370   */\n      dup3\n        /* \"#utility.yul\":1363:1375   */\n      add\n        /* \"#utility.yul\":1356:1375   */\n      swap1\n      pop\n        /* \"#utility.yul\":1204:1381   */\n      swap2\n      swap1\n      pop\n      jump\t// out\n        /* \"#utility.yul\":1387:1505   */\n    tag_61:\n        /* \"#utility.yul\":1474:1498   */\n      tag_63\n        /* \"#utility.yul\":1492:1497   */\n      dup2\n        /* \"#utility.yul\":1474:1498   */\n      tag_64\n      jump\t// in\n    tag_63:\n        /* \"#utility.yul\":1469:1472   */\n      dup3\n        /* \"#utility.yul\":1462:1499   */\n      mstore\n        /* \"#utility.yul\":1452:1505   */\n      pop\n      pop\n      jump\t// out\n        /* \"#utility.yul\":1511:1890   */\n    tag_30:\n      0x00\n        /* \"#utility.yul\":1717:1864   */\n      tag_66\n        /* \"#utility.yul\":1860:1863   */\n      dup3\n        /* \"#utility.yul\":1717:1864   */\n      tag_54\n      jump\t// in\n    tag_66:\n        /* \"#utility.yul\":1710:1864   */\n      swap2\n      pop\n        /* \"#utility.yul\":1881:1884   */\n      dup2\n        /* \"#utility.yul\":1874:1884   */\n      swap1\n      pop\n        /* \"#utility.yul\":1699:1890   */\n      swap2\n      swap1\n      pop\n      jump\t// out\n        /* \"#utility.yul\":1896:2150   */\n    tag_11:\n      0x00\n        /* \"#utility.yul\":2043:2045   */\n      0x20\n        /* \"#utility.yul\":2032:2041   */\n      dup3\n        /* \"#utility.yul\":2028:2046   */\n      add\n        /* \"#utility.yul\":2020:2046   */\n      swap1\n      pop\n        /* \"#utility.yul\":2056:2143   */\n      tag_68\n        /* \"#utility.yul\":2140:2141   */\n      0x00\n        /* \"#utility.yul\":2129:2138   */\n      dup4\n        /* \"#utility.yul\":2125:2142   */\n      add\n        /* \"#utility.yul\":2116:2122   */\n      dup5\n        /* \"#utility.yul\":2056:2143   */\n      tag_38\n      jump\t// in\n    tag_68:\n        /* \"#utility.yul\":2010:2150   */\n      swap3\n      swap2\n      pop\n      pop\n      jump\t// out\n        /* \"#utility.yul\":2156:2488   */\n    tag_36:\n      0x00\n        /* \"#utility.yul\":2315:2317   */\n      0x40\n        /* \"#utility.yul\":2304:2313   */\n      dup3\n        /* \"#utility.yul\":2300:2318   */\n      add\n        /* \"#utility.yul\":2292:2318   */\n      swap1\n      pop\n        /* \"#utility.yul\":2328:2399   */\n      tag_70\n        /* \"#utility.yul\":2396:2397   */\n      0x00\n        /* \"#utility.yul\":2385:2394   */\n      dup4\n        /* \"#utility.yul\":2381:2398   */\n      add\n        /* \"#utility.yul\":2372:2378   */\n      dup6\n        /* \"#utility.yul\":2328:2399   */\n      tag_42\n      jump\t// in\n    tag_70:\n        /* \"#utility.yul\":2409:2481   */\n      tag_71\n        /* \"#utility.yul\":2477:2479   */\n      0x20\n        /* \"#utility.yul\":2466:2475   */\n      dup4\n        /* \"#utility.yul\":2462:2480   */\n      add\n        /* \"#utility.yul\":2453:2459   */\n      dup5\n        /* \"#utility.yul\":2409:2481   */\n      tag_61\n      jump\t// in\n    tag_71:\n        /* \"#utility.yul\":2282:2488   */\n      swap4\n      swap3\n      pop\n      pop\n      pop\n      jump\t// out\n        /* \"#utility.yul\":2494:2732   */\n    tag_16:\n      0x00\n        /* \"#utility.yul\":2633:2635   */\n      0x20\n        /* \"#utility.yul\":2622:2631   */\n      dup3\n        /* \"#utility.yul\":2618:2636   */\n      add\n        /* \"#utility.yul\":2610:2636   */\n      swap1\n      pop\n        /* \"#utility.yul\":2646:2725   */\n      tag_73\n        /* \"#utility.yul\":2722:2723   */\n      0x00\n        /* \"#utility.yul\":2711:2720   */\n      dup4\n        /* \"#utility.yul\":2707:2724   */\n      add\n        /* \"#utility.yul\":2698:2704   */\n      dup5\n        /* \"#utility.yul\":2646:2725   */\n      tag_46\n      jump\t// in\n    tag_73:\n        /* \"#utility.yul\":2600:2732   */\n      swap3\n      swap2\n      pop\n      pop\n      jump\t// out\n        /* \"#utility.yul\":2738:3157   */\n    tag_22:\n      0x00\n        /* \"#utility.yul\":2942:2944   */\n      0x20\n        /* \"#utility.yul\":2931:2940   */\n      dup3\n        /* \"#utility.yul\":2927:2945   */\n      add\n        /* \"#utility.yul\":2919:2945   */\n      swap1\n      pop\n        /* \"#utility.yul\":2991:3000   */\n      dup2\n        /* \"#utility.yul\":2985:2989   */\n      dup2\n        /* \"#utility.yul\":2981:3001   */\n      sub\n        /* \"#utility.yul\":2977:2978   */\n      0x00\n        /* \"#utility.yul\":2966:2975   */\n      dup4\n        /* \"#utility.yul\":2962:2979   */\n      add\n        /* \"#utility.yul\":2955:3002   */\n      mstore\n        /* \"#utility.yul\":3019:3150   */\n      tag_75\n        /* \"#utility.yul\":3145:3149   */\n      dup2\n        /* \"#utility.yul\":3019:3150   */\n      tag_50\n      jump\t// in\n    tag_75:\n        /* \"#utility.yul\":3011:3150   */\n      swap1\n      pop\n        /* \"#utility.yul\":2909:3157   */\n      swap2\n      swap1\n      pop\n      jump\t// out\n        /* \"#utility.yul\":3163:3582   */\n    tag_26:\n      0x00\n        /* \"#utility.yul\":3367:3369   */\n      0x20\n        /* \"#utility.yul\":3356:3365   */\n      dup3\n        /* \"#utility.yul\":3352:3370   */\n      add\n        /* \"#utility.yul\":3344:3370   */\n      swap1\n      pop\n        /* \"#utility.yul\":3416:3425   */\n      dup2\n        /* \"#utility.yul\":3410:3414   */\n      dup2\n        /* \"#utility.yul\":3406:3426   */\n      sub\n        /* \"#utility.yul\":3402:3403   */\n      0x00\n        /* \"#utility.yul\":3391:3400   */\n      dup4\n        /* \"#utility.yul\":3387:3404   */\n      add\n        /* \"#utility.yul\":3380:3427   */\n      mstore\n        /* \"#utility.yul\":3444:3575   */\n      tag_77\n        /* \"#utility.yul\":3570:3574   */\n      dup2\n        /* \"#utility.yul\":3444:3575   */\n      tag_58\n      jump\t// in\n    tag_77:\n        /* \"#utility.yul\":3436:3575   */\n      swap1\n      pop\n        /* \"#utility.yul\":3334:3582   */\n      swap2\n      swap1\n      pop\n      jump\t// out\n        /* \"#utility.yul\":3588:3735   */\n    tag_57:\n      0x00\n        /* \"#utility.yul\":3726:3729   */\n      dup2\n        /* \"#utility.yul\":3711:3729   */\n      swap1\n      pop\n        /* \"#utility.yul\":3701:3735   */\n      swap3\n      swap2\n      pop\n      pop\n      jump\t// out\n        /* \"#utility.yul\":3741:3910   */\n    tag_53:\n      0x00\n        /* \"#utility.yul\":3859:3865   */\n      dup3\n        /* \"#utility.yul\":3854:3857   */\n      dup3\n        /* \"#utility.yul\":3847:3866   */\n      mstore\n        /* \"#utility.yul\":3899:3903   */\n      0x20\n        /* \"#utility.yul\":3894:3897   */\n      dup3\n        /* \"#utility.yul\":3890:3904   */\n      add\n        /* \"#utility.yul\":3875:3904   */\n      swap1\n      pop\n        /* \"#utility.yul\":3837:3910   */\n      swap3\n      swap2\n      pop\n      pop\n      jump\t// out\n        /* \"#utility.yul\":3916:4012   */\n    tag_45:\n      0x00\n        /* \"#utility.yul\":3982:4006   */\n      tag_81\n        /* \"#utility.yul\":4000:4005   */\n      dup3\n        /* \"#utility.yul\":3982:4006   */\n      tag_82\n      jump\t// in\n    tag_81:\n        /* \"#utility.yul\":3971:4006   */\n      swap1\n      pop\n        /* \"#utility.yul\":3961:4012   */\n      swap2\n      swap1\n      pop\n      jump\t// out\n        /* \"#utility.yul\":4018:4122   */\n    tag_41:\n      0x00\n        /* \"#utility.yul\":4092:4116   */\n      tag_84\n        /* \"#utility.yul\":4110:4115   */\n      dup3\n        /* \"#utility.yul\":4092:4116   */\n      tag_82\n      jump\t// in\n    tag_84:\n        /* \"#utility.yul\":4081:4116   */\n      swap1\n      pop\n        /* \"#utility.yul\":4071:4122   */\n      swap2\n      swap1\n      pop\n      jump\t// out\n        /* \"#utility.yul\":4128:4259   */\n    tag_85:\n      0x00\n        /* \"#utility.yul\":4204:4209   */\n      dup2\n        /* \"#utility.yul\":4193:4209   */\n      swap1\n      pop\n        /* \"#utility.yul\":4210:4253   */\n      tag_87\n        /* \"#utility.yul\":4247:4252   */\n      dup3\n        /* \"#utility.yul\":4210:4253   */\n      tag_88\n      jump\t// in\n    tag_87:\n        /* \"#utility.yul\":4183:4259   */\n      swap2\n      swap1\n      pop\n      jump\t// out\n        /* \"#utility.yul\":4265:4391   */\n    tag_82:\n      0x00\n        /* \"#utility.yul\":4342:4384   */\n      0xffffffffffffffffffffffffffffffffffffffff\n        /* \"#utility.yul\":4335:4340   */\n      dup3\n        /* \"#utility.yul\":4331:4385   */\n      and\n        /* \"#utility.yul\":4320:4385   */\n      swap1\n      pop\n        /* \"#utility.yul\":4310:4391   */\n      swap2\n      swap1\n      pop\n      jump\t// out\n        /* \"#utility.yul\":4397:4474   */\n    tag_64:\n      0x00\n        /* \"#utility.yul\":4463:4468   */\n      dup2\n        /* \"#utility.yul\":4452:4468   */\n      swap1\n      pop\n        /* \"#utility.yul\":4442:4474   */\n      swap2\n      swap1\n      pop\n      jump\t// out\n        /* \"#utility.yul\":4480:4611   */\n    tag_49:\n      0x00\n        /* \"#utility.yul\":4571:4605   */\n      tag_92\n        /* \"#utility.yul\":4599:4604   */\n      dup3\n        /* \"#utility.yul\":4571:4605   */\n      tag_85\n      jump\t// in\n    tag_92:\n        /* \"#utility.yul\":4558:4605   */\n      swap1\n      pop\n        /* \"#utility.yul\":4548:4611   */\n      swap2\n      swap1\n      pop\n      jump\t// out\n        /* \"#utility.yul\":4617:4797   */\n    tag_93:\n        /* \"#utility.yul\":4665:4742   */\n      0x4e487b7100000000000000000000000000000000000000000000000000000000\n        /* \"#utility.yul\":4662:4663   */\n      0x00\n        /* \"#utility.yul\":4655:4743   */\n      mstore\n        /* \"#utility.yul\":4762:4766   */\n      0x21\n        /* \"#utility.yul\":4759:4760   */\n      0x04\n        /* \"#utility.yul\":4752:4767   */\n      mstore\n        /* \"#utility.yul\":4786:4790   */\n      0x24\n        /* \"#utility.yul\":4783:4784   */\n      0x00\n        /* \"#utility.yul\":4776:4791   */\n      revert\n        /* \"#utility.yul\":4803:4918   */\n    tag_88:\n        /* \"#utility.yul\":4886:4887   */\n      0x02\n        /* \"#utility.yul\":4879:4884   */\n      dup2\n        /* \"#utility.yul\":4876:4888   */\n      lt\n        /* \"#utility.yul\":4866:4868   */\n      tag_96\n      jumpi\n        /* \"#utility.yul\":4892:4910   */\n      tag_97\n      tag_93\n      jump\t// in\n    tag_97:\n        /* \"#utility.yul\":4866:4868   */\n    tag_96:\n        /* \"#utility.yul\":4856:4918   */\n      pop\n      jump\t// out\n\n    auxdata: 0xa2646970667358221220c5a40e304f68896f4eaf6dba1d7c6179d1c67104320edde5992d61311f0313f764736f6c63430008000033\n}\n",
				"bytecode": {
					"linkReferences": {},
					"object": "608060405234801561001057600080fd5b5033600060016101000a81548173ffffffffffffffffffffffffffffffffffffffff021916908373ffffffffffffffffffffffffffffffffffffffff16021790555060008060006101000a81548160ff0219169083600181111561009d577f4e487b7100000000000000000000000000000000000000000000000000000000600052602160045260246000fd5b0217905550610597806100b16000396000f3fe6080604052600436106100345760003560e01c806305a8da72146100395780638da5cb5b14610043578063ef8a92351461006e575b600080fd5b610041610099565b005b34801561004f57600080fd5b506100586102ce565b60405161006591906103f0565b60405180910390f35b34801561007a57600080fd5b506100836102f4565b6040516100909190610434565b60405180910390f35b600060018111156100d3577f4e487b7100000000000000000000000000000000000000000000000000000000600052602160045260246000fd5b60008054906101000a900460ff166001811115610119577f4e487b7100000000000000000000000000000000000000000000000000000000600052602160045260246000fd5b14610159576040517f08c379a00000000000000000000000000000000000000000000000000000000081526004016101509061044f565b60405180910390fd5b671bc16d674ec80000803410156101a5576040517f08c379a000000000000000000000000000000000000000000000000000000000815260040161019c9061046f565b60405180910390fd5b60016000806101000a81548160ff021916908360018111156101f0577f4e487b7100000000000000000000000000000000000000000000000000000000600052602160045260246000fd5b0217905550600080600060019054906101000a900473ffffffffffffffffffffffffffffffffffffffff1673ffffffffffffffffffffffffffffffffffffffff163460405161023e906103db565b60006040518083038185875af1925050503d806000811461027b576040519150601f19603f3d011682016040523d82523d6000602084013e610280565b606091505b5091509150600161029057600080fd5b7fba951166d42eb077151bdecb7cf6027562f04f0143b0c141b1bb0a33eef5d69333346040516102c192919061040b565b60405180910390a1505050565b600060019054906101000a900473ffffffffffffffffffffffffffffffffffffffff1681565b60008054906101000a900460ff1681565b61030e816104bd565b82525050565b61031d816104ab565b82525050565b61032c8161050c565b82525050565b600061033f60138361049a565b91507f43757272656e746c79206f636375706965642e000000000000000000000000006000830152602082019050919050565b600061037f60008361048f565b9150600082019050919050565b600061039960198361049a565b91507f4e6f7420656e6f7567682065746865722070726f7669646564000000000000006000830152602082019050919050565b6103d581610502565b82525050565b60006103e682610372565b9150819050919050565b60006020820190506104056000830184610305565b92915050565b60006040820190506104206000830185610314565b61042d60208301846103cc565b9392505050565b60006020820190506104496000830184610323565b92915050565b6000602082019050818103600083015261046881610332565b9050919050565b600060208201905081810360008301526104888161038c565b9050919050565b600081905092915050565b600082825260208201905092915050565b60006104b6826104e2565b9050919050565b60006104c8826104e2565b9050919050565b60008190506104dd8261054d565b919050565b600073ffffffffffffffffffffffffffffffffffffffff82169050919050565b6000819050919050565b6000610517826104cf565b9050919050565b7f4e487b7100000000000000000000000000000000000000000000000000000000600052602160045260246000fd5b6002811061055e5761055d61051e565b5b5056fea2646970667358221220c5a40e304f68896f4eaf6dba1d7c6179d1c67104320edde5992d61311f0313f764736f6c63430008000033",
					"opcodes": "PUSH1 0x80 PUSH1 0x40 MSTORE CALLVALUE DUP1 ISZERO PUSH2 0x10 JUMPI PUSH1 0x0 DUP1 REVERT JUMPDEST POP CALLER PUSH1 0x0 PUSH1 0x1 PUSH2 0x100 EXP DUP2 SLOAD DUP2 PUSH20 0xFFFFFFFFFFFFFFFFFFFFFFFFFFFFFFFFFFFFFFFF MUL NOT AND SWAP1 DUP4 PUSH20 0xFFFFFFFFFFFFFFFFFFFFFFFFFFFFFFFFFFFFFFFF AND MUL OR SWAP1 SSTORE POP PUSH1 0x0 DUP1 PUSH1 0x0 PUSH2 0x100 EXP DUP2 SLOAD DUP2 PUSH1 0xFF MUL NOT AND SWAP1 DUP4 PUSH1 0x1 DUP2 GT ISZERO PUSH2 0x9D JUMPI PUSH32 0x4E487B7100000000000000000000000000000000000000000000000000000000 PUSH1 0x0 MSTORE PUSH1 0x21 PUSH1 0x4 MSTORE PUSH1 0x24 PUSH1 0x0 REVERT JUMPDEST MUL OR SWAP1 SSTORE POP PUSH2 0x597 DUP1 PUSH2 0xB1 PUSH1 0x0 CODECOPY PUSH1 0x0 RETURN INVALID PUSH1 0x80 PUSH1 0x40 MSTORE PUSH1 0x4 CALLDATASIZE LT PUSH2 0x34 JUMPI PUSH1 0x0 CALLDATALOAD PUSH1 0xE0 SHR DUP1 PUSH4 0x5A8DA72 EQ PUSH2 0x39 JUMPI DUP1 PUSH4 0x8DA5CB5B EQ PUSH2 0x43 JUMPI DUP1 PUSH4 0xEF8A9235 EQ PUSH2 0x6E JUMPI JUMPDEST PUSH1 0x0 DUP1 REVERT JUMPDEST PUSH2 0x41 PUSH2 0x99 JUMP JUMPDEST STOP JUMPDEST CALLVALUE DUP1 ISZERO PUSH2 0x4F JUMPI PUSH1 0x0 DUP1 REVERT JUMPDEST POP PUSH2 0x58 PUSH2 0x2CE JUMP JUMPDEST PUSH1 0x40 MLOAD PUSH2 0x65 SWAP2 SWAP1 PUSH2 0x3F0 JUMP JUMPDEST PUSH1 0x40 MLOAD DUP1 SWAP2 SUB SWAP1 RETURN JUMPDEST CALLVALUE DUP1 ISZERO PUSH2 0x7A JUMPI PUSH1 0x0 DUP1 REVERT JUMPDEST POP PUSH2 0x83 PUSH2 0x2F4 JUMP JUMPDEST PUSH1 0x40 MLOAD PUSH2 0x90 SWAP2 SWAP1 PUSH2 0x434 JUMP JUMPDEST PUSH1 0x40 MLOAD DUP1 SWAP2 SUB SWAP1 RETURN JUMPDEST PUSH1 0x0 PUSH1 0x1 DUP2 GT ISZERO PUSH2 0xD3 JUMPI PUSH32 0x4E487B7100000000000000000000000000000000000000000000000000000000 PUSH1 0x0 MSTORE PUSH1 0x21 PUSH1 0x4 MSTORE PUSH1 0x24 PUSH1 0x0 REVERT JUMPDEST PUSH1 0x0 DUP1 SLOAD SWAP1 PUSH2 0x100 EXP SWAP1 DIV PUSH1 0xFF AND PUSH1 0x1 DUP2 GT ISZERO PUSH2 0x119 JUMPI PUSH32 0x4E487B7100000000000000000000000000000000000000000000000000000000 PUSH1 0x0 MSTORE PUSH1 0x21 PUSH1 0x4 MSTORE PUSH1 0x24 PUSH1 0x0 REVERT JUMPDEST EQ PUSH2 0x159 JUMPI PUSH1 0x40 MLOAD PUSH32 0x8C379A000000000000000000000000000000000000000000000000000000000 DUP2 MSTORE PUSH1 0x4 ADD PUSH2 0x150 SWAP1 PUSH2 0x44F JUMP JUMPDEST PUSH1 0x40 MLOAD DUP1 SWAP2 SUB SWAP1 REVERT JUMPDEST PUSH8 0x1BC16D674EC80000 DUP1 CALLVALUE LT ISZERO PUSH2 0x1A5 JUMPI PUSH1 0x40 MLOAD PUSH32 0x8C379A000000000000000000000000000000000000000000000000000000000 DUP2 MSTORE PUSH1 0x4 ADD PUSH2 0x19C SWAP1 PUSH2 0x46F JUMP JUMPDEST PUSH1 0x40 MLOAD DUP1 SWAP2 SUB SWAP1 REVERT JUMPDEST PUSH1 0x1 PUSH1 0x0 DUP1 PUSH2 0x100 EXP DUP2 SLOAD DUP2 PUSH1 0xFF MUL NOT AND SWAP1 DUP4 PUSH1 0x1 DUP2 GT ISZERO PUSH2 0x1F0 JUMPI PUSH32 0x4E487B7100000000000000000000000000000000000000000000000000000000 PUSH1 0x0 MSTORE PUSH1 0x21 PUSH1 0x4 MSTORE PUSH1 0x24 PUSH1 0x0 REVERT JUMPDEST MUL OR SWAP1 SSTORE POP PUSH1 0x0 DUP1 PUSH1 0x0 PUSH1 0x1 SWAP1 SLOAD SWAP1 PUSH2 0x100 EXP SWAP1 DIV PUSH20 0xFFFFFFFFFFFFFFFFFFFFFFFFFFFFFFFFFFFFFFFF AND PUSH20 0xFFFFFFFFFFFFFFFFFFFFFFFFFFFFFFFFFFFFFFFF AND CALLVALUE PUSH1 0x40 MLOAD PUSH2 0x23E SWAP1 PUSH2 0x3DB JUMP JUMPDEST PUSH1 0x0 PUSH1 0x40 MLOAD DUP1 DUP4 SUB DUP2 DUP6 DUP8 GAS CALL SWAP3 POP POP POP RETURNDATASIZE DUP1 PUSH1 0x0 DUP2 EQ PUSH2 0x27B JUMPI PUSH1 0x40 MLOAD SWAP2 POP PUSH1 0x1F NOT PUSH1 0x3F RETURNDATASIZE ADD AND DUP3 ADD PUSH1 0x40 MSTORE RETURNDATASIZE DUP3 MSTORE RETURNDATASIZE PUSH1 0x0 PUSH1 0x20 DUP5 ADD RETURNDATACOPY PUSH2 0x280 JUMP JUMPDEST PUSH1 0x60 SWAP2 POP JUMPDEST POP SWAP2 POP SWAP2 POP PUSH1 0x1 PUSH2 0x290 JUMPI PUSH1 0x0 DUP1 REVERT JUMPDEST PUSH32 0xBA951166D42EB077151BDECB7CF6027562F04F0143B0C141B1BB0A33EEF5D693 CALLER CALLVALUE PUSH1 0x40 MLOAD PUSH2 0x2C1 SWAP3 SWAP2 SWAP1 PUSH2 0x40B JUMP JUMPDEST PUSH1 0x40 MLOAD DUP1 SWAP2 SUB SWAP1 LOG1 POP POP POP JUMP JUMPDEST PUSH1 0x0 PUSH1 0x1 SWAP1 SLOAD SWAP1 PUSH2 0x100 EXP SWAP1 DIV PUSH20 0xFFFFFFFFFFFFFFFFFFFFFFFFFFFFFFFFFFFFFFFF AND DUP2 JUMP JUMPDEST PUSH1 0x0 DUP1 SLOAD SWAP1 PUSH2 0x100 EXP SWAP1 DIV PUSH1 0xFF AND DUP2 JUMP JUMPDEST PUSH2 0x30E DUP2 PUSH2 0x4BD JUMP JUMPDEST DUP3 MSTORE POP POP JUMP JUMPDEST PUSH2 0x31D DUP2 PUSH2 0x4AB JUMP JUMPDEST DUP3 MSTORE POP POP JUMP JUMPDEST PUSH2 0x32C DUP2 PUSH2 0x50C JUMP JUMPDEST DUP3 MSTORE POP POP JUMP JUMPDEST PUSH1 0x0 PUSH2 0x33F PUSH1 0x13 DUP4 PUSH2 0x49A JUMP JUMPDEST SWAP2 POP PUSH32 0x43757272656E746C79206F636375706965642E00000000000000000000000000 PUSH1 0x0 DUP4 ADD MSTORE PUSH1 0x20 DUP3 ADD SWAP1 POP SWAP2 SWAP1 POP JUMP JUMPDEST PUSH1 0x0 PUSH2 0x37F PUSH1 0x0 DUP4 PUSH2 0x48F JUMP JUMPDEST SWAP2 POP PUSH1 0x0 DUP3 ADD SWAP1 POP SWAP2 SWAP1 POP JUMP JUMPDEST PUSH1 0x0 PUSH2 0x399 PUSH1 0x19 DUP4 PUSH2 0x49A JUMP JUMPDEST SWAP2 POP PUSH32 0x4E6F7420656E6F7567682065746865722070726F766964656400000000000000 PUSH1 0x0 DUP4 ADD MSTORE PUSH1 0x20 DUP3 ADD SWAP1 POP SWAP2 SWAP1 POP JUMP JUMPDEST PUSH2 0x3D5 DUP2 PUSH2 0x502 JUMP JUMPDEST DUP3 MSTORE POP POP JUMP JUMPDEST PUSH1 0x0 PUSH2 0x3E6 DUP3 PUSH2 0x372 JUMP JUMPDEST SWAP2 POP DUP2 SWAP1 POP SWAP2 SWAP1 POP JUMP JUMPDEST PUSH1 0x0 PUSH1 0x20 DUP3 ADD SWAP1 POP PUSH2 0x405 PUSH1 0x0 DUP4 ADD DUP5 PUSH2 0x305 JUMP JUMPDEST SWAP3 SWAP2 POP POP JUMP JUMPDEST PUSH1 0x0 PUSH1 0x40 DUP3 ADD SWAP1 POP PUSH2 0x420 PUSH1 0x0 DUP4 ADD DUP6 PUSH2 0x314 JUMP JUMPDEST PUSH2 0x42D PUSH1 0x20 DUP4 ADD DUP5 PUSH2 0x3CC JUMP JUMPDEST SWAP4 SWAP3 POP POP POP JUMP JUMPDEST PUSH1 0x0 PUSH1 0x20 DUP3 ADD SWAP1 POP PUSH2 0x449 PUSH1 0x0 DUP4 ADD DUP5 PUSH2 0x323 JUMP JUMPDEST SWAP3 SWAP2 POP POP JUMP JUMPDEST PUSH1 0x0 PUSH1 0x20 DUP3 ADD SWAP1 POP DUP2 DUP2 SUB PUSH1 0x0 DUP4 ADD MSTORE PUSH2 0x468 DUP2 PUSH2 0x332 JUMP JUMPDEST SWAP1 POP SWAP2 SWAP1 POP JUMP JUMPDEST PUSH1 0x0 PUSH1 0x20 DUP3 ADD SWAP1 POP DUP2 DUP2 SUB PUSH1 0x0 DUP4 ADD MSTORE PUSH2 0x488 DUP2 PUSH2 0x38C JUMP JUMPDEST SWAP1 POP SWAP2 SWAP1 POP JUMP JUMPDEST PUSH1 0x0 DUP2 SWAP1 POP SWAP3 SWAP2 POP POP JUMP JUMPDEST PUSH1 0x0 DUP3 DUP3 MSTORE PUSH1 0x20 DUP3 ADD SWAP1 POP SWAP3 SWAP2 POP POP JUMP JUMPDEST PUSH1 0x0 PUSH2 0x4B6 DUP3 PUSH2 0x4E2 JUMP JUMPDEST SWAP1 POP SWAP2 SWAP1 POP JUMP JUMPDEST PUSH1 0x0 PUSH2 0x4C8 DUP3 PUSH2 0x4E2 JUMP JUMPDEST SWAP1 POP SWAP2 SWAP1 POP JUMP JUMPDEST PUSH1 0x0 DUP2 SWAP1 POP PUSH2 0x4DD DUP3 PUSH2 0x54D JUMP JUMPDEST SWAP2 SWAP1 POP JUMP JUMPDEST PUSH1 0x0 PUSH20 0xFFFFFFFFFFFFFFFFFFFFFFFFFFFFFFFFFFFFFFFF DUP3 AND SWAP1 POP SWAP2 SWAP1 POP JUMP JUMPDEST PUSH1 0x0 DUP2 SWAP1 POP SWAP2 SWAP1 POP JUMP JUMPDEST PUSH1 0x0 PUSH2 0x517 DUP3 PUSH2 0x4CF JUMP JUMPDEST SWAP1 POP SWAP2 SWAP1 POP JUMP JUMPDEST PUSH32 0x4E487B7100000000000000000000000000000000000000000000000000000000 PUSH1 0x0 MSTORE PUSH1 0x21 PUSH1 0x4 MSTORE PUSH1 0x24 PUSH1 0x0 REVERT JUMPDEST PUSH1 0x2 DUP2 LT PUSH2 0x55E JUMPI PUSH2 0x55D PUSH2 0x51E JUMP JUMPDEST JUMPDEST POP JUMP INVALID LOG2 PUSH5 0x6970667358 0x22 SLT KECCAK256 0xC5 LOG4 0xE ADDRESS 0x4F PUSH9 0x896F4EAF6DBA1D7C61 PUSH26 0xD1C67104320EDDE5992D61311F0313F764736F6C634300080000 CALLER "
				},
				"gasEstimates": {
					"creation": {
						"codeDepositCost": "286200",
						"executionCost": "42127",
						"totalCost": "328327"
					},
					"external": {
						"book()": "infinite",
						"currentStatus()": "1279",
						"owner()": "1264"
					}
				},
				"methodIdentifiers": {
					"book()": "05a8da72",
					"currentStatus()": "ef8a9235",
					"owner()": "8da5cb5b"
				}
			},
			"storageLayout": {
				"storage": [
					{
						"astId": 7,
						"contract": "contracts/HotelRoom.sol:HotelRoom",
						"label": "currentStatus",
						"offset": 0,
						"slot": "0",
						"type": "t_enum(Statuses)4"
					},
					{
						"astId": 15,
						"contract": "contracts/HotelRoom.sol:HotelRoom",
						"label": "owner",
						"offset": 1,
						"slot": "0",
						"type": "t_address_payable"
					}
				],
				"types": {
					"t_address_payable": {
						"encoding": "inplace",
						"label": "address payable",
						"numberOfBytes": "20"
					},
					"t_enum(Statuses)4": {
						"encoding": "inplace",
						"label": "enum HotelRoom.Statuses",
						"numberOfBytes": "1"
					}
				}
			},
			"userdoc": {
				"kind": "user",
				"methods": {},
				"version": 1
			}
		}
	}
}