{
	"contracts/Counter.sol": {
		"Counter": {
			"abi": [
				{
					"inputs": [],
					"stateMutability": "nonpayable",
					"type": "constructor"
				},
				{
					"inputs": [],
					"name": "count",
					"outputs": [
						{
							"internalType": "uint256",
							"name": "",
							"type": "uint256"
						}
					],
					"stateMutability": "view",
					"type": "function"
				},
				{
					"inputs": [],
					"name": "getCount",
					"outputs": [
						{
							"internalType": "uint256",
							"name": "",
							"type": "uint256"
						}
					],
					"stateMutability": "view",
					"type": "function"
				},
				{
					"inputs": [],
					"name": "increCount",
					"outputs": [],
					"stateMutability": "nonpayable",
					"type": "function"
				}
			],
			"devdoc": {
				"kind": "dev",
				"methods": {},
				"version": 1
			},
			"evm": {
				"assembly": "    /* \"contracts/Counter.sol\":61:393  contract Counter { \r... */\n  mstore(0x40, 0x80)\n    /* \"contracts/Counter.sol\":164:213  constructor() public {\r... */\n  callvalue\n  dup1\n  iszero\n  tag_1\n  jumpi\n  0x00\n  dup1\n  revert\ntag_1:\n  pop\n    /* \"contracts/Counter.sol\":204:205  0 */\n  0x00\n    /* \"contracts/Counter.sol\":196:201  count */\n  dup1\n    /* \"contracts/Counter.sol\":196:205  count = 0 */\n  dup2\n  swap1\n  sstore\n  pop\n    /* \"contracts/Counter.sol\":61:393  contract Counter { \r... */\n  dataSize(sub_0)\n  dup1\n  dataOffset(sub_0)\n  0x00\n  codecopy\n  0x00\n  return\nstop\n\nsub_0: assembly {\n        /* \"contracts/Counter.sol\":61:393  contract Counter { \r... */\n      mstore(0x40, 0x80)\n      callvalue\n      dup1\n      iszero\n      tag_1\n      jumpi\n      0x00\n      dup1\n      revert\n    tag_1:\n      pop\n      jumpi(tag_2, lt(calldatasize, 0x04))\n      shr(0xe0, calldataload(0x00))\n      dup1\n      0x06661abd\n      eq\n      tag_3\n      jumpi\n      dup1\n      0xa87d942c\n      eq\n      tag_4\n      jumpi\n      dup1\n      0xee1587f8\n      eq\n      tag_5\n      jumpi\n    tag_2:\n      0x00\n      dup1\n      revert\n        /* \"contracts/Counter.sol\":112:129  uint public count */\n    tag_3:\n      tag_6\n      tag_7\n      jump\t// in\n    tag_6:\n      mload(0x40)\n      tag_8\n      swap2\n      swap1\n      tag_9\n      jump\t// in\n    tag_8:\n      mload(0x40)\n      dup1\n      swap2\n      sub\n      swap1\n      return\n        /* \"contracts/Counter.sol\":221:296  function getCount() public view returns(uint) {\r... */\n    tag_4:\n      tag_10\n      tag_11\n      jump\t// in\n    tag_10:\n      mload(0x40)\n      tag_12\n      swap2\n      swap1\n      tag_9\n      jump\t// in\n    tag_12:\n      mload(0x40)\n      dup1\n      swap2\n      sub\n      swap1\n      return\n        /* \"contracts/Counter.sol\":304:390  function increCount() public {\r... */\n    tag_5:\n      tag_13\n      tag_14\n      jump\t// in\n    tag_13:\n      stop\n        /* \"contracts/Counter.sol\":112:129  uint public count */\n    tag_7:\n      sload(0x00)\n      dup2\n      jump\t// out\n        /* \"contracts/Counter.sol\":221:296  function getCount() public view returns(uint) {\r... */\n    tag_11:\n        /* \"contracts/Counter.sol\":261:265  uint */\n      0x00\n        /* \"contracts/Counter.sol\":283:288  count */\n      dup1\n      sload\n        /* \"contracts/Counter.sol\":276:288  return count */\n      swap1\n      pop\n        /* \"contracts/Counter.sol\":221:296  function getCount() public view returns(uint) {\r... */\n      swap1\n      jump\t// out\n        /* \"contracts/Counter.sol\":304:390  function increCount() public {\r... */\n    tag_14:\n        /* \"contracts/Counter.sol\":344:349  count */\n      0x00\n      dup1\n        /* \"contracts/Counter.sol\":344:351  count++ */\n      dup2\n      sload\n      dup1\n      swap3\n      swap2\n      swap1\n      tag_17\n      swap1\n      tag_18\n      jump\t// in\n    tag_17:\n      swap2\n      swap1\n      pop\n      sstore\n      pop\n        /* \"contracts/Counter.sol\":304:390  function increCount() public {\r... */\n      jump\t// out\n        /* \"#utility.yul\":7:125   */\n    tag_20:\n        /* \"#utility.yul\":94:118   */\n      tag_22\n        /* \"#utility.yul\":112:117   */\n      dup2\n        /* \"#utility.yul\":94:118   */\n      tag_23\n      jump\t// in\n    tag_22:\n        /* \"#utility.yul\":89:92   */\n      dup3\n        /* \"#utility.yul\":82:119   */\n      mstore\n        /* \"#utility.yul\":72:125   */\n      pop\n      pop\n      jump\t// out\n        /* \"#utility.yul\":131:353   */\n    tag_9:\n      0x00\n        /* \"#utility.yul\":262:264   */\n      0x20\n        /* \"#utility.yul\":251:260   */\n      dup3\n        /* \"#utility.yul\":247:265   */\n      add\n        /* \"#utility.yul\":239:265   */\n      swap1\n      pop\n        /* \"#utility.yul\":275:346   */\n      tag_25\n        /* \"#utility.yul\":343:344   */\n      0x00\n        /* \"#utility.yul\":332:341   */\n      dup4\n        /* \"#utility.yul\":328:345   */\n      add\n        /* \"#utility.yul\":319:325   */\n      dup5\n        /* \"#utility.yul\":275:346   */\n      tag_20\n      jump\t// in\n    tag_25:\n        /* \"#utility.yul\":229:353   */\n      swap3\n      swap2\n      pop\n      pop\n      jump\t// out\n        /* \"#utility.yul\":359:436   */\n    tag_23:\n      0x00\n        /* \"#utility.yul\":425:430   */\n      dup2\n        /* \"#utility.yul\":414:430   */\n      swap1\n      pop\n        /* \"#utility.yul\":404:436   */\n      swap2\n      swap1\n      pop\n      jump\t// out\n        /* \"#utility.yul\":442:675   */\n    tag_18:\n      0x00\n        /* \"#utility.yul\":504:528   */\n      tag_28\n        /* \"#utility.yul\":522:527   */\n      dup3\n        /* \"#utility.yul\":504:528   */\n      tag_23\n      jump\t// in\n    tag_28:\n        /* \"#utility.yul\":495:528   */\n      swap2\n      pop\n        /* \"#utility.yul\":550:616   */\n      0xffffffffffffffffffffffffffffffffffffffffffffffffffffffffffffffff\n        /* \"#utility.yul\":543:548   */\n      dup3\n        /* \"#utility.yul\":540:617   */\n      eq\n        /* \"#utility.yul\":537:539   */\n      iszero\n      tag_29\n      jumpi\n        /* \"#utility.yul\":620:638   */\n      tag_30\n      tag_31\n      jump\t// in\n    tag_30:\n        /* \"#utility.yul\":537:539   */\n    tag_29:\n        /* \"#utility.yul\":667:668   */\n      0x01\n        /* \"#utility.yul\":660:665   */\n      dup3\n        /* \"#utility.yul\":656:669   */\n      add\n        /* \"#utility.yul\":649:669   */\n      swap1\n      pop\n        /* \"#utility.yul\":485:675   */\n      swap2\n      swap1\n      pop\n      jump\t// out\n        /* \"#utility.yul\":681:861   */\n    tag_31:\n        /* \"#utility.yul\":729:806   */\n      0x4e487b7100000000000000000000000000000000000000000000000000000000\n        /* \"#utility.yul\":726:727   */\n      0x00\n        /* \"#utility.yul\":719:807   */\n      mstore\n        /* \"#utility.yul\":826:830   */\n      0x11\n        /* \"#utility.yul\":823:824   */\n      0x04\n        /* \"#utility.yul\":816:831   */\n      mstore\n        /* \"#utility.yul\":850:854   */\n      0x24\n        /* \"#utility.yul\":847:848   */\n      0x00\n        /* \"#utility.yul\":840:855   */\n      revert\n\n    auxdata: 0xa26469706673582212209f9c22643f4fccc2096146dd268f8cc36c790aa18aaa7da4a6ee4e203343a0bf64736f6c63430008000033\n}\n",
				"bytecode": {
					"linkReferences": {},
					"object": "608060405234801561001057600080fd5b5060008081905550610196806100276000396000f3fe608060405234801561001057600080fd5b50600436106100415760003560e01c806306661abd14610046578063a87d942c14610064578063ee1587f814610082575b600080fd5b61004e61008c565b60405161005b91906100c3565b60405180910390f35b61006c610092565b60405161007991906100c3565b60405180910390f35b61008a61009b565b005b60005481565b60008054905090565b6000808154809291906100ad906100e8565b9190505550565b6100bd816100de565b82525050565b60006020820190506100d860008301846100b4565b92915050565b6000819050919050565b60006100f3826100de565b91507fffffffffffffffffffffffffffffffffffffffffffffffffffffffffffffffff82141561012657610125610131565b5b600182019050919050565b7f4e487b7100000000000000000000000000000000000000000000000000000000600052601160045260246000fdfea26469706673582212209f9c22643f4fccc2096146dd268f8cc36c790aa18aaa7da4a6ee4e203343a0bf64736f6c63430008000033",
					"opcodes": "PUSH1 0x80 PUSH1 0x40 MSTORE CALLVALUE DUP1 ISZERO PUSH2 0x10 JUMPI PUSH1 0x0 DUP1 REVERT JUMPDEST POP PUSH1 0x0 DUP1 DUP2 SWAP1 SSTORE POP PUSH2 0x196 DUP1 PUSH2 0x27 PUSH1 0x0 CODECOPY PUSH1 0x0 RETURN INVALID PUSH1 0x80 PUSH1 0x40 MSTORE CALLVALUE DUP1 ISZERO PUSH2 0x10 JUMPI PUSH1 0x0 DUP1 REVERT JUMPDEST POP PUSH1 0x4 CALLDATASIZE LT PUSH2 0x41 JUMPI PUSH1 0x0 CALLDATALOAD PUSH1 0xE0 SHR DUP1 PUSH4 0x6661ABD EQ PUSH2 0x46 JUMPI DUP1 PUSH4 0xA87D942C EQ PUSH2 0x64 JUMPI DUP1 PUSH4 0xEE1587F8 EQ PUSH2 0x82 JUMPI JUMPDEST PUSH1 0x0 DUP1 REVERT JUMPDEST PUSH2 0x4E PUSH2 0x8C JUMP JUMPDEST PUSH1 0x40 MLOAD PUSH2 0x5B SWAP2 SWAP1 PUSH2 0xC3 JUMP JUMPDEST PUSH1 0x40 MLOAD DUP1 SWAP2 SUB SWAP1 RETURN JUMPDEST PUSH2 0x6C PUSH2 0x92 JUMP JUMPDEST PUSH1 0x40 MLOAD PUSH2 0x79 SWAP2 SWAP1 PUSH2 0xC3 JUMP JUMPDEST PUSH1 0x40 MLOAD DUP1 SWAP2 SUB SWAP1 RETURN JUMPDEST PUSH2 0x8A PUSH2 0x9B JUMP JUMPDEST STOP JUMPDEST PUSH1 0x0 SLOAD DUP2 JUMP JUMPDEST PUSH1 0x0 DUP1 SLOAD SWAP1 POP SWAP1 JUMP JUMPDEST PUSH1 0x0 DUP1 DUP2 SLOAD DUP1 SWAP3 SWAP2 SWAP1 PUSH2 0xAD SWAP1 PUSH2 0xE8 JUMP JUMPDEST SWAP2 SWAP1 POP SSTORE POP JUMP JUMPDEST PUSH2 0xBD DUP2 PUSH2 0xDE JUMP JUMPDEST DUP3 MSTORE POP POP JUMP JUMPDEST PUSH1 0x0 PUSH1 0x20 DUP3 ADD SWAP1 POP PUSH2 0xD8 PUSH1 0x0 DUP4 ADD DUP5 PUSH2 0xB4 JUMP JUMPDEST SWAP3 SWAP2 POP POP JUMP JUMPDEST PUSH1 0x0 DUP2 SWAP1 POP SWAP2 SWAP1 POP JUMP JUMPDEST PUSH1 0x0 PUSH2 0xF3 DUP3 PUSH2 0xDE JUMP JUMPDEST SWAP2 POP PUSH32 0xFFFFFFFFFFFFFFFFFFFFFFFFFFFFFFFFFFFFFFFFFFFFFFFFFFFFFFFFFFFFFFFF DUP3 EQ ISZERO PUSH2 0x126 JUMPI PUSH2 0x125 PUSH2 0x131 JUMP JUMPDEST JUMPDEST PUSH1 0x1 DUP3 ADD SWAP1 POP SWAP2 SWAP1 POP JUMP JUMPDEST PUSH32 0x4E487B7100000000000000000000000000000000000000000000000000000000 PUSH1 0x0 MSTORE PUSH1 0x11 PUSH1 0x4 MSTORE PUSH1 0x24 PUSH1 0x0 REVERT INVALID LOG2 PUSH5 0x6970667358 0x22 SLT KECCAK256 SWAP16 SWAP13 0x22 PUSH5 0x3F4FCCC209 PUSH2 0x46DD 0x26 DUP16 DUP13 0xC3 PUSH13 0x790AA18AAA7DA4A6EE4E203343 LOG0 0xBF PUSH5 0x736F6C6343 STOP ADDMOD STOP STOP CALLER "
				},
				"gasEstimates": {
					"creation": {
						"codeDepositCost": "81200",
						"executionCost": "5143",
						"totalCost": "86343"
					},
					"external": {
						"count()": "1107",
						"getCount()": "1137",
						"increCount()": "21126"
					}
				},
				"methodIdentifiers": {
					"count()": "06661abd",
					"getCount()": "a87d942c",
					"increCount()": "ee1587f8"
				}
			},
			"storageLayout": {
				"storage": [
					{
						"astId": 3,
						"contract": "contracts/Counter.sol:Counter",
						"label": "count",
						"offset": 0,
						"slot": "0",
						"type": "t_uint256"
					}
				],
				"types": {
					"t_uint256": {
						"encoding": "inplace",
						"label": "uint256",
						"numberOfBytes": "32"
					}
				}
			},
			"userdoc": {
				"kind": "user",
				"methods": {},
				"version": 1
			}
		}
	}
}