{
	"contracts/Mycontract.sol": {
		"MyContract": {
			"abi": [
				{
					"inputs": [],
					"name": "getValue",
					"outputs": [
						{
							"internalType": "uint256",
							"name": "",
							"type": "uint256"
						}
					],
					"stateMutability": "pure",
					"type": "function"
				},
				{
					"inputs": [],
					"name": "myBytes32",
					"outputs": [
						{
							"internalType": "bytes32",
							"name": "",
							"type": "bytes32"
						}
					],
					"stateMutability": "view",
					"type": "function"
				},
				{
					"inputs": [],
					"name": "myInt",
					"outputs": [
						{
							"internalType": "int256",
							"name": "",
							"type": "int256"
						}
					],
					"stateMutability": "view",
					"type": "function"
				},
				{
					"inputs": [],
					"name": "myString",
					"outputs": [
						{
							"internalType": "string",
							"name": "",
							"type": "string"
						}
					],
					"stateMutability": "view",
					"type": "function"
				},
				{
					"inputs": [],
					"name": "myUnit",
					"outputs": [
						{
							"internalType": "uint256",
							"name": "",
							"type": "uint256"
						}
					],
					"stateMutability": "view",
					"type": "function"
				},
				{
					"inputs": [],
					"name": "myUnit256",
					"outputs": [
						{
							"internalType": "uint256",
							"name": "",
							"type": "uint256"
						}
					],
					"stateMutability": "view",
					"type": "function"
				},
				{
					"inputs": [],
					"name": "myUnit8",
					"outputs": [
						{
							"internalType": "uint8",
							"name": "",
							"type": "uint8"
						}
					],
					"stateMutability": "view",
					"type": "function"
				}
			],
			"devdoc": {
				"kind": "dev",
				"methods": {},
				"version": 1
			},
			"evm": {
				"assembly": "    /* \"contracts/Mycontract.sol\":56:631  contract MyContract{\r... */\n  mstore(0x40, 0x80)\n    /* \"contracts/Mycontract.sol\":209:210  1 */\n  0x01\n    /* \"contracts/Mycontract.sol\":188:210  uint public myUnit = 1 */\n  0x00\n  sstore\n    /* \"contracts/Mycontract.sol\":243:244  1 */\n  0x01\n    /* \"contracts/Mycontract.sol\":215:244  uint256 public myUnit256  = 1 */\n  dup1\n  sstore\n    /* \"contracts/Mycontract.sol\":273:274  1 */\n  0x01\n    /* \"contracts/Mycontract.sol\":250:274  uint8 public myUnit8 = 1 */\n  0x02\n  exp(0x0100, 0x00)\n  dup2\n  sload\n  dup2\n  0xff\n  mul\n  not\n  and\n  swap1\n  dup4\n  0xff\n  and\n  mul\n  or\n  swap1\n  sstore\n  pop\n    /* \"contracts/Mycontract.sol\":301:302  1 */\n  0x01\n    /* \"contracts/Mycontract.sol\":279:302  int256 public myInt = 1 */\n  0x03\n  sstore\n    /* \"contracts/Mycontract.sol\":348:388  string public myString =\"Hello , World!\" */\n  mload(0x40)\n  dup1\n  0x40\n  add\n  0x40\n  mstore\n  dup1\n  0x0e\n  dup2\n  mstore\n  0x20\n  add\n  0x48656c6c6f202c20576f726c6421000000000000000000000000000000000000\n  dup2\n  mstore\n  pop\n  0x04\n  swap1\n  dup1\n  mload\n  swap1\n  0x20\n  add\n  swap1\n  tag_1\n  swap3\n  swap2\n  swap1\n  tag_2\n  jump\t// in\ntag_1:\n  pop\n    /* \"contracts/Mycontract.sol\":394:436  bytes32 public myBytes32 = \"Hello, World!\" */\n  sstore(0x05, 0x48656c6c6f2c20576f726c642100000000000000000000000000000000000000)\n    /* \"contracts/Mycontract.sol\":56:631  contract MyContract{\r... */\n  callvalue\n  dup1\n  iszero\n  tag_3\n  jumpi\n  0x00\n  dup1\n  revert\ntag_3:\n  pop\n  jump(tag_4)\ntag_2:\n  dup3\n  dup1\n  sload\n  tag_5\n  swap1\n  tag_6\n  jump\t// in\ntag_5:\n  swap1\n  0x00\n  mstore\n  keccak256(0x00, 0x20)\n  swap1\n  0x1f\n  add\n  0x20\n  swap1\n  div\n  dup2\n  add\n  swap3\n  dup3\n  tag_8\n  jumpi\n  0x00\n  dup6\n  sstore\n  jump(tag_7)\ntag_8:\n  dup3\n  0x1f\n  lt\n  tag_9\n  jumpi\n  dup1\n  mload\n  not(0xff)\n  and\n  dup4\n  dup1\n  add\n  or\n  dup6\n  sstore\n  jump(tag_7)\ntag_9:\n  dup3\n  dup1\n  add\n  0x01\n  add\n  dup6\n  sstore\n  dup3\n  iszero\n  tag_7\n  jumpi\n  swap2\n  dup3\n  add\ntag_10:\n  dup3\n  dup2\n  gt\n  iszero\n  tag_11\n  jumpi\n  dup3\n  mload\n  dup3\n  sstore\n  swap2\n  0x20\n  add\n  swap2\n  swap1\n  0x01\n  add\n  swap1\n  jump(tag_10)\ntag_11:\ntag_7:\n  pop\n  swap1\n  pop\n  tag_12\n  swap2\n  swap1\n  tag_13\n  jump\t// in\ntag_12:\n  pop\n  swap1\n  jump\t// out\ntag_13:\ntag_14:\n  dup1\n  dup3\n  gt\n  iszero\n  tag_15\n  jumpi\n  0x00\n  dup2\n  0x00\n  swap1\n  sstore\n  pop\n  0x01\n  add\n  jump(tag_14)\ntag_15:\n  pop\n  swap1\n  jump\t// out\n    /* \"#utility.yul\":7:327   */\ntag_6:\n  0x00\n    /* \"#utility.yul\":88:89   */\n  0x02\n    /* \"#utility.yul\":82:86   */\n  dup3\n    /* \"#utility.yul\":78:90   */\n  div\n    /* \"#utility.yul\":68:90   */\n  swap1\n  pop\n    /* \"#utility.yul\":135:136   */\n  0x01\n    /* \"#utility.yul\":129:133   */\n  dup3\n    /* \"#utility.yul\":125:137   */\n  and\n    /* \"#utility.yul\":156:174   */\n  dup1\n    /* \"#utility.yul\":146:148   */\n  tag_18\n  jumpi\n    /* \"#utility.yul\":212:216   */\n  0x7f\n    /* \"#utility.yul\":204:210   */\n  dup3\n    /* \"#utility.yul\":200:217   */\n  and\n    /* \"#utility.yul\":190:217   */\n  swap2\n  pop\n    /* \"#utility.yul\":146:148   */\ntag_18:\n    /* \"#utility.yul\":274:276   */\n  0x20\n    /* \"#utility.yul\":266:272   */\n  dup3\n    /* \"#utility.yul\":263:277   */\n  lt\n    /* \"#utility.yul\":243:261   */\n  dup2\n    /* \"#utility.yul\":240:278   */\n  eq\n    /* \"#utility.yul\":237:239   */\n  iszero\n  tag_19\n  jumpi\n    /* \"#utility.yul\":293:311   */\n  tag_20\n  tag_21\n  jump\t// in\ntag_20:\n    /* \"#utility.yul\":237:239   */\ntag_19:\n    /* \"#utility.yul\":58:327   */\n  pop\n  swap2\n  swap1\n  pop\n  jump\t// out\n    /* \"#utility.yul\":333:513   */\ntag_21:\n    /* \"#utility.yul\":381:458   */\n  0x4e487b7100000000000000000000000000000000000000000000000000000000\n    /* \"#utility.yul\":378:379   */\n  0x00\n    /* \"#utility.yul\":371:459   */\n  mstore\n    /* \"#utility.yul\":478:482   */\n  0x22\n    /* \"#utility.yul\":475:476   */\n  0x04\n    /* \"#utility.yul\":468:483   */\n  mstore\n    /* \"#utility.yul\":502:506   */\n  0x24\n    /* \"#utility.yul\":499:500   */\n  0x00\n    /* \"#utility.yul\":492:507   */\n  revert\n    /* \"contracts/Mycontract.sol\":56:631  contract MyContract{\r... */\ntag_4:\n  dataSize(sub_0)\n  dup1\n  dataOffset(sub_0)\n  0x00\n  codecopy\n  0x00\n  return\nstop\n\nsub_0: assembly {\n        /* \"contracts/Mycontract.sol\":56:631  contract MyContract{\r... */\n      mstore(0x40, 0x80)\n      callvalue\n      dup1\n      iszero\n      tag_1\n      jumpi\n      0x00\n      dup1\n      revert\n    tag_1:\n      pop\n      jumpi(tag_2, lt(calldatasize, 0x04))\n      shr(0xe0, calldataload(0x00))\n      dup1\n      0x492bfa18\n      gt\n      tag_10\n      jumpi\n      dup1\n      0x492bfa18\n      eq\n      tag_6\n      jumpi\n      dup1\n      0x4b3e7e0c\n      eq\n      tag_7\n      jumpi\n      dup1\n      0x6a345bb4\n      eq\n      tag_8\n      jumpi\n      dup1\n      0xa9810991\n      eq\n      tag_9\n      jumpi\n      jump(tag_2)\n    tag_10:\n      dup1\n      0x03bdf919\n      eq\n      tag_3\n      jumpi\n      dup1\n      0x20965255\n      eq\n      tag_4\n      jumpi\n      dup1\n      0x2cb777a6\n      eq\n      tag_5\n      jumpi\n    tag_2:\n      0x00\n      dup1\n      revert\n        /* \"contracts/Mycontract.sol\":215:244  uint256 public myUnit256  = 1 */\n    tag_3:\n      tag_11\n      tag_12\n      jump\t// in\n    tag_11:\n      mload(0x40)\n      tag_13\n      swap2\n      swap1\n      tag_14\n      jump\t// in\n    tag_13:\n      mload(0x40)\n      dup1\n      swap2\n      sub\n      swap1\n      return\n        /* \"contracts/Mycontract.sol\":472:623  function getValue() public pure returns(uint){ // pure >> doesnt modify blockchain or mutate just returns\r... */\n    tag_4:\n      tag_15\n      tag_16\n      jump\t// in\n    tag_15:\n      mload(0x40)\n      tag_17\n      swap2\n      swap1\n      tag_14\n      jump\t// in\n    tag_17:\n      mload(0x40)\n      dup1\n      swap2\n      sub\n      swap1\n      return\n        /* \"contracts/Mycontract.sol\":279:302  int256 public myInt = 1 */\n    tag_5:\n      tag_18\n      tag_19\n      jump\t// in\n    tag_18:\n      mload(0x40)\n      tag_20\n      swap2\n      swap1\n      tag_21\n      jump\t// in\n    tag_20:\n      mload(0x40)\n      dup1\n      swap2\n      sub\n      swap1\n      return\n        /* \"contracts/Mycontract.sol\":348:388  string public myString =\"Hello , World!\" */\n    tag_6:\n      tag_22\n      tag_23\n      jump\t// in\n    tag_22:\n      mload(0x40)\n      tag_24\n      swap2\n      swap1\n      tag_25\n      jump\t// in\n    tag_24:\n      mload(0x40)\n      dup1\n      swap2\n      sub\n      swap1\n      return\n        /* \"contracts/Mycontract.sol\":394:436  bytes32 public myBytes32 = \"Hello, World!\" */\n    tag_7:\n      tag_26\n      tag_27\n      jump\t// in\n    tag_26:\n      mload(0x40)\n      tag_28\n      swap2\n      swap1\n      tag_29\n      jump\t// in\n    tag_28:\n      mload(0x40)\n      dup1\n      swap2\n      sub\n      swap1\n      return\n        /* \"contracts/Mycontract.sol\":188:210  uint public myUnit = 1 */\n    tag_8:\n      tag_30\n      tag_31\n      jump\t// in\n    tag_30:\n      mload(0x40)\n      tag_32\n      swap2\n      swap1\n      tag_14\n      jump\t// in\n    tag_32:\n      mload(0x40)\n      dup1\n      swap2\n      sub\n      swap1\n      return\n        /* \"contracts/Mycontract.sol\":250:274  uint8 public myUnit8 = 1 */\n    tag_9:\n      tag_33\n      tag_34\n      jump\t// in\n    tag_33:\n      mload(0x40)\n      tag_35\n      swap2\n      swap1\n      tag_36\n      jump\t// in\n    tag_35:\n      mload(0x40)\n      dup1\n      swap2\n      sub\n      swap1\n      return\n        /* \"contracts/Mycontract.sol\":215:244  uint256 public myUnit256  = 1 */\n    tag_12:\n      sload(0x01)\n      dup2\n      jump\t// out\n        /* \"contracts/Mycontract.sol\":472:623  function getValue() public pure returns(uint){ // pure >> doesnt modify blockchain or mutate just returns\r... */\n    tag_16:\n        /* \"contracts/Mycontract.sol\":512:516  uint */\n      0x00\n        /* \"contracts/Mycontract.sol\":584:594  uint value */\n      dup1\n        /* \"contracts/Mycontract.sol\":597:598  1 */\n      0x01\n        /* \"contracts/Mycontract.sol\":584:598  uint value = 1 */\n      swap1\n      pop\n        /* \"contracts/Mycontract.sol\":613:618  value */\n      dup1\n        /* \"contracts/Mycontract.sol\":606:618  return value */\n      swap2\n      pop\n      pop\n        /* \"contracts/Mycontract.sol\":472:623  function getValue() public pure returns(uint){ // pure >> doesnt modify blockchain or mutate just returns\r... */\n      swap1\n      jump\t// out\n        /* \"contracts/Mycontract.sol\":279:302  int256 public myInt = 1 */\n    tag_19:\n      sload(0x03)\n      dup2\n      jump\t// out\n        /* \"contracts/Mycontract.sol\":348:388  string public myString =\"Hello , World!\" */\n    tag_23:\n      0x04\n      dup1\n      sload\n      tag_38\n      swap1\n      tag_39\n      jump\t// in\n    tag_38:\n      dup1\n      0x1f\n      add\n      0x20\n      dup1\n      swap2\n      div\n      mul\n      0x20\n      add\n      mload(0x40)\n      swap1\n      dup2\n      add\n      0x40\n      mstore\n      dup1\n      swap3\n      swap2\n      swap1\n      dup2\n      dup2\n      mstore\n      0x20\n      add\n      dup3\n      dup1\n      sload\n      tag_40\n      swap1\n      tag_39\n      jump\t// in\n    tag_40:\n      dup1\n      iszero\n      tag_41\n      jumpi\n      dup1\n      0x1f\n      lt\n      tag_42\n      jumpi\n      0x0100\n      dup1\n      dup4\n      sload\n      div\n      mul\n      dup4\n      mstore\n      swap2\n      0x20\n      add\n      swap2\n      jump(tag_41)\n    tag_42:\n      dup3\n      add\n      swap2\n      swap1\n      0x00\n      mstore\n      keccak256(0x00, 0x20)\n      swap1\n    tag_43:\n      dup2\n      sload\n      dup2\n      mstore\n      swap1\n      0x01\n      add\n      swap1\n      0x20\n      add\n      dup1\n      dup4\n      gt\n      tag_43\n      jumpi\n      dup3\n      swap1\n      sub\n      0x1f\n      and\n      dup3\n      add\n      swap2\n    tag_41:\n      pop\n      pop\n      pop\n      pop\n      pop\n      dup2\n      jump\t// out\n        /* \"contracts/Mycontract.sol\":394:436  bytes32 public myBytes32 = \"Hello, World!\" */\n    tag_27:\n      sload(0x05)\n      dup2\n      jump\t// out\n        /* \"contracts/Mycontract.sol\":188:210  uint public myUnit = 1 */\n    tag_31:\n      sload(0x00)\n      dup2\n      jump\t// out\n        /* \"contracts/Mycontract.sol\":250:274  uint8 public myUnit8 = 1 */\n    tag_34:\n      0x02\n      0x00\n      swap1\n      sload\n      swap1\n      0x0100\n      exp\n      swap1\n      div\n      0xff\n      and\n      dup2\n      jump\t// out\n        /* \"#utility.yul\":7:125   */\n    tag_45:\n        /* \"#utility.yul\":94:118   */\n      tag_47\n        /* \"#utility.yul\":112:117   */\n      dup2\n        /* \"#utility.yul\":94:118   */\n      tag_48\n      jump\t// in\n    tag_47:\n        /* \"#utility.yul\":89:92   */\n      dup3\n        /* \"#utility.yul\":82:119   */\n      mstore\n        /* \"#utility.yul\":72:125   */\n      pop\n      pop\n      jump\t// out\n        /* \"#utility.yul\":131:246   */\n    tag_49:\n        /* \"#utility.yul\":216:239   */\n      tag_51\n        /* \"#utility.yul\":233:238   */\n      dup2\n        /* \"#utility.yul\":216:239   */\n      tag_52\n      jump\t// in\n    tag_51:\n        /* \"#utility.yul\":211:214   */\n      dup3\n        /* \"#utility.yul\":204:240   */\n      mstore\n        /* \"#utility.yul\":194:246   */\n      pop\n      pop\n      jump\t// out\n        /* \"#utility.yul\":252:616   */\n    tag_53:\n      0x00\n        /* \"#utility.yul\":368:407   */\n      tag_55\n        /* \"#utility.yul\":401:406   */\n      dup3\n        /* \"#utility.yul\":368:407   */\n      tag_56\n      jump\t// in\n    tag_55:\n        /* \"#utility.yul\":423:494   */\n      tag_57\n        /* \"#utility.yul\":487:493   */\n      dup2\n        /* \"#utility.yul\":482:485   */\n      dup6\n        /* \"#utility.yul\":423:494   */\n      tag_58\n      jump\t// in\n    tag_57:\n        /* \"#utility.yul\":416:494   */\n      swap4\n      pop\n        /* \"#utility.yul\":503:555   */\n      tag_59\n        /* \"#utility.yul\":548:554   */\n      dup2\n        /* \"#utility.yul\":543:546   */\n      dup6\n        /* \"#utility.yul\":536:540   */\n      0x20\n        /* \"#utility.yul\":529:534   */\n      dup7\n        /* \"#utility.yul\":525:541   */\n      add\n        /* \"#utility.yul\":503:555   */\n      tag_60\n      jump\t// in\n    tag_59:\n        /* \"#utility.yul\":580:609   */\n      tag_61\n        /* \"#utility.yul\":602:608   */\n      dup2\n        /* \"#utility.yul\":580:609   */\n      tag_62\n      jump\t// in\n    tag_61:\n        /* \"#utility.yul\":575:578   */\n      dup5\n        /* \"#utility.yul\":571:610   */\n      add\n        /* \"#utility.yul\":564:610   */\n      swap2\n      pop\n        /* \"#utility.yul\":344:616   */\n      pop\n      swap3\n      swap2\n      pop\n      pop\n      jump\t// out\n        /* \"#utility.yul\":622:740   */\n    tag_63:\n        /* \"#utility.yul\":709:733   */\n      tag_65\n        /* \"#utility.yul\":727:732   */\n      dup2\n        /* \"#utility.yul\":709:733   */\n      tag_66\n      jump\t// in\n    tag_65:\n        /* \"#utility.yul\":704:707   */\n      dup3\n        /* \"#utility.yul\":697:734   */\n      mstore\n        /* \"#utility.yul\":687:740   */\n      pop\n      pop\n      jump\t// out\n        /* \"#utility.yul\":746:858   */\n    tag_67:\n        /* \"#utility.yul\":829:851   */\n      tag_69\n        /* \"#utility.yul\":845:850   */\n      dup2\n        /* \"#utility.yul\":829:851   */\n      tag_70\n      jump\t// in\n    tag_69:\n        /* \"#utility.yul\":824:827   */\n      dup3\n        /* \"#utility.yul\":817:852   */\n      mstore\n        /* \"#utility.yul\":807:858   */\n      pop\n      pop\n      jump\t// out\n        /* \"#utility.yul\":864:1086   */\n    tag_29:\n      0x00\n        /* \"#utility.yul\":995:997   */\n      0x20\n        /* \"#utility.yul\":984:993   */\n      dup3\n        /* \"#utility.yul\":980:998   */\n      add\n        /* \"#utility.yul\":972:998   */\n      swap1\n      pop\n        /* \"#utility.yul\":1008:1079   */\n      tag_72\n        /* \"#utility.yul\":1076:1077   */\n      0x00\n        /* \"#utility.yul\":1065:1074   */\n      dup4\n        /* \"#utility.yul\":1061:1078   */\n      add\n        /* \"#utility.yul\":1052:1058   */\n      dup5\n        /* \"#utility.yul\":1008:1079   */\n      tag_45\n      jump\t// in\n    tag_72:\n        /* \"#utility.yul\":962:1086   */\n      swap3\n      swap2\n      pop\n      pop\n      jump\t// out\n        /* \"#utility.yul\":1092:1310   */\n    tag_21:\n      0x00\n        /* \"#utility.yul\":1221:1223   */\n      0x20\n        /* \"#utility.yul\":1210:1219   */\n      dup3\n        /* \"#utility.yul\":1206:1224   */\n      add\n        /* \"#utility.yul\":1198:1224   */\n      swap1\n      pop\n        /* \"#utility.yul\":1234:1303   */\n      tag_74\n        /* \"#utility.yul\":1300:1301   */\n      0x00\n        /* \"#utility.yul\":1289:1298   */\n      dup4\n        /* \"#utility.yul\":1285:1302   */\n      add\n        /* \"#utility.yul\":1276:1282   */\n      dup5\n        /* \"#utility.yul\":1234:1303   */\n      tag_49\n      jump\t// in\n    tag_74:\n        /* \"#utility.yul\":1188:1310   */\n      swap3\n      swap2\n      pop\n      pop\n      jump\t// out\n        /* \"#utility.yul\":1316:1629   */\n    tag_25:\n      0x00\n        /* \"#utility.yul\":1467:1469   */\n      0x20\n        /* \"#utility.yul\":1456:1465   */\n      dup3\n        /* \"#utility.yul\":1452:1470   */\n      add\n        /* \"#utility.yul\":1444:1470   */\n      swap1\n      pop\n        /* \"#utility.yul\":1516:1525   */\n      dup2\n        /* \"#utility.yul\":1510:1514   */\n      dup2\n        /* \"#utility.yul\":1506:1526   */\n      sub\n        /* \"#utility.yul\":1502:1503   */\n      0x00\n        /* \"#utility.yul\":1491:1500   */\n      dup4\n        /* \"#utility.yul\":1487:1504   */\n      add\n        /* \"#utility.yul\":1480:1527   */\n      mstore\n        /* \"#utility.yul\":1544:1622   */\n      tag_76\n        /* \"#utility.yul\":1617:1621   */\n      dup2\n        /* \"#utility.yul\":1608:1614   */\n      dup5\n        /* \"#utility.yul\":1544:1622   */\n      tag_53\n      jump\t// in\n    tag_76:\n        /* \"#utility.yul\":1536:1622   */\n      swap1\n      pop\n        /* \"#utility.yul\":1434:1629   */\n      swap3\n      swap2\n      pop\n      pop\n      jump\t// out\n        /* \"#utility.yul\":1635:1857   */\n    tag_14:\n      0x00\n        /* \"#utility.yul\":1766:1768   */\n      0x20\n        /* \"#utility.yul\":1755:1764   */\n      dup3\n        /* \"#utility.yul\":1751:1769   */\n      add\n        /* \"#utility.yul\":1743:1769   */\n      swap1\n      pop\n        /* \"#utility.yul\":1779:1850   */\n      tag_78\n        /* \"#utility.yul\":1847:1848   */\n      0x00\n        /* \"#utility.yul\":1836:1845   */\n      dup4\n        /* \"#utility.yul\":1832:1849   */\n      add\n        /* \"#utility.yul\":1823:1829   */\n      dup5\n        /* \"#utility.yul\":1779:1850   */\n      tag_63\n      jump\t// in\n    tag_78:\n        /* \"#utility.yul\":1733:1857   */\n      swap3\n      swap2\n      pop\n      pop\n      jump\t// out\n        /* \"#utility.yul\":1863:2077   */\n    tag_36:\n      0x00\n        /* \"#utility.yul\":1990:1992   */\n      0x20\n        /* \"#utility.yul\":1979:1988   */\n      dup3\n        /* \"#utility.yul\":1975:1993   */\n      add\n        /* \"#utility.yul\":1967:1993   */\n      swap1\n      pop\n        /* \"#utility.yul\":2003:2070   */\n      tag_80\n        /* \"#utility.yul\":2067:2068   */\n      0x00\n        /* \"#utility.yul\":2056:2065   */\n      dup4\n        /* \"#utility.yul\":2052:2069   */\n      add\n        /* \"#utility.yul\":2043:2049   */\n      dup5\n        /* \"#utility.yul\":2003:2070   */\n      tag_67\n      jump\t// in\n    tag_80:\n        /* \"#utility.yul\":1957:2077   */\n      swap3\n      swap2\n      pop\n      pop\n      jump\t// out\n        /* \"#utility.yul\":2083:2182   */\n    tag_56:\n      0x00\n        /* \"#utility.yul\":2169:2174   */\n      dup2\n        /* \"#utility.yul\":2163:2175   */\n      mload\n        /* \"#utility.yul\":2153:2175   */\n      swap1\n      pop\n        /* \"#utility.yul\":2142:2182   */\n      swap2\n      swap1\n      pop\n      jump\t// out\n        /* \"#utility.yul\":2188:2357   */\n    tag_58:\n      0x00\n        /* \"#utility.yul\":2306:2312   */\n      dup3\n        /* \"#utility.yul\":2301:2304   */\n      dup3\n        /* \"#utility.yul\":2294:2313   */\n      mstore\n        /* \"#utility.yul\":2346:2350   */\n      0x20\n        /* \"#utility.yul\":2341:2344   */\n      dup3\n        /* \"#utility.yul\":2337:2351   */\n      add\n        /* \"#utility.yul\":2322:2351   */\n      swap1\n      pop\n        /* \"#utility.yul\":2284:2357   */\n      swap3\n      swap2\n      pop\n      pop\n      jump\t// out\n        /* \"#utility.yul\":2363:2440   */\n    tag_48:\n      0x00\n        /* \"#utility.yul\":2429:2434   */\n      dup2\n        /* \"#utility.yul\":2418:2434   */\n      swap1\n      pop\n        /* \"#utility.yul\":2408:2440   */\n      swap2\n      swap1\n      pop\n      jump\t// out\n        /* \"#utility.yul\":2446:2522   */\n    tag_52:\n      0x00\n        /* \"#utility.yul\":2511:2516   */\n      dup2\n        /* \"#utility.yul\":2500:2516   */\n      swap1\n      pop\n        /* \"#utility.yul\":2490:2522   */\n      swap2\n      swap1\n      pop\n      jump\t// out\n        /* \"#utility.yul\":2528:2605   */\n    tag_66:\n      0x00\n        /* \"#utility.yul\":2594:2599   */\n      dup2\n        /* \"#utility.yul\":2583:2599   */\n      swap1\n      pop\n        /* \"#utility.yul\":2573:2605   */\n      swap2\n      swap1\n      pop\n      jump\t// out\n        /* \"#utility.yul\":2611:2697   */\n    tag_70:\n      0x00\n        /* \"#utility.yul\":2686:2690   */\n      0xff\n        /* \"#utility.yul\":2679:2684   */\n      dup3\n        /* \"#utility.yul\":2675:2691   */\n      and\n        /* \"#utility.yul\":2664:2691   */\n      swap1\n      pop\n        /* \"#utility.yul\":2654:2697   */\n      swap2\n      swap1\n      pop\n      jump\t// out\n        /* \"#utility.yul\":2703:3010   */\n    tag_60:\n        /* \"#utility.yul\":2771:2772   */\n      0x00\n        /* \"#utility.yul\":2781:2894   */\n    tag_88:\n        /* \"#utility.yul\":2795:2801   */\n      dup4\n        /* \"#utility.yul\":2792:2793   */\n      dup2\n        /* \"#utility.yul\":2789:2802   */\n      lt\n        /* \"#utility.yul\":2781:2894   */\n      iszero\n      tag_90\n      jumpi\n        /* \"#utility.yul\":2880:2881   */\n      dup1\n        /* \"#utility.yul\":2875:2878   */\n      dup3\n        /* \"#utility.yul\":2871:2882   */\n      add\n        /* \"#utility.yul\":2865:2883   */\n      mload\n        /* \"#utility.yul\":2861:2862   */\n      dup2\n        /* \"#utility.yul\":2856:2859   */\n      dup5\n        /* \"#utility.yul\":2852:2863   */\n      add\n        /* \"#utility.yul\":2845:2884   */\n      mstore\n        /* \"#utility.yul\":2817:2819   */\n      0x20\n        /* \"#utility.yul\":2814:2815   */\n      dup2\n        /* \"#utility.yul\":2810:2820   */\n      add\n        /* \"#utility.yul\":2805:2820   */\n      swap1\n      pop\n        /* \"#utility.yul\":2781:2894   */\n      jump(tag_88)\n    tag_90:\n        /* \"#utility.yul\":2912:2918   */\n      dup4\n        /* \"#utility.yul\":2909:2910   */\n      dup2\n        /* \"#utility.yul\":2906:2919   */\n      gt\n        /* \"#utility.yul\":2903:2905   */\n      iszero\n      tag_91\n      jumpi\n        /* \"#utility.yul\":2992:2993   */\n      0x00\n        /* \"#utility.yul\":2983:2989   */\n      dup5\n        /* \"#utility.yul\":2978:2981   */\n      dup5\n        /* \"#utility.yul\":2974:2990   */\n      add\n        /* \"#utility.yul\":2967:2994   */\n      mstore\n        /* \"#utility.yul\":2903:2905   */\n    tag_91:\n        /* \"#utility.yul\":2752:3010   */\n      pop\n      pop\n      pop\n      pop\n      jump\t// out\n        /* \"#utility.yul\":3016:3336   */\n    tag_39:\n      0x00\n        /* \"#utility.yul\":3097:3098   */\n      0x02\n        /* \"#utility.yul\":3091:3095   */\n      dup3\n        /* \"#utility.yul\":3087:3099   */\n      div\n        /* \"#utility.yul\":3077:3099   */\n      swap1\n      pop\n        /* \"#utility.yul\":3144:3145   */\n      0x01\n        /* \"#utility.yul\":3138:3142   */\n      dup3\n        /* \"#utility.yul\":3134:3146   */\n      and\n        /* \"#utility.yul\":3165:3183   */\n      dup1\n        /* \"#utility.yul\":3155:3157   */\n      tag_93\n      jumpi\n        /* \"#utility.yul\":3221:3225   */\n      0x7f\n        /* \"#utility.yul\":3213:3219   */\n      dup3\n        /* \"#utility.yul\":3209:3226   */\n      and\n        /* \"#utility.yul\":3199:3226   */\n      swap2\n      pop\n        /* \"#utility.yul\":3155:3157   */\n    tag_93:\n        /* \"#utility.yul\":3283:3285   */\n      0x20\n        /* \"#utility.yul\":3275:3281   */\n      dup3\n        /* \"#utility.yul\":3272:3286   */\n      lt\n        /* \"#utility.yul\":3252:3270   */\n      dup2\n        /* \"#utility.yul\":3249:3287   */\n      eq\n        /* \"#utility.yul\":3246:3248   */\n      iszero\n      tag_94\n      jumpi\n        /* \"#utility.yul\":3302:3320   */\n      tag_95\n      tag_96\n      jump\t// in\n    tag_95:\n        /* \"#utility.yul\":3246:3248   */\n    tag_94:\n        /* \"#utility.yul\":3067:3336   */\n      pop\n      swap2\n      swap1\n      pop\n      jump\t// out\n        /* \"#utility.yul\":3342:3522   */\n    tag_96:\n        /* \"#utility.yul\":3390:3467   */\n      0x4e487b7100000000000000000000000000000000000000000000000000000000\n        /* \"#utility.yul\":3387:3388   */\n      0x00\n        /* \"#utility.yul\":3380:3468   */\n      mstore\n        /* \"#utility.yul\":3487:3491   */\n      0x22\n        /* \"#utility.yul\":3484:3485   */\n      0x04\n        /* \"#utility.yul\":3477:3492   */\n      mstore\n        /* \"#utility.yul\":3511:3515   */\n      0x24\n        /* \"#utility.yul\":3508:3509   */\n      0x00\n        /* \"#utility.yul\":3501:3516   */\n      revert\n        /* \"#utility.yul\":3528:3630   */\n    tag_62:\n      0x00\n        /* \"#utility.yul\":3620:3622   */\n      0x1f\n        /* \"#utility.yul\":3616:3623   */\n      not\n        /* \"#utility.yul\":3611:3613   */\n      0x1f\n        /* \"#utility.yul\":3604:3609   */\n      dup4\n        /* \"#utility.yul\":3600:3614   */\n      add\n        /* \"#utility.yul\":3596:3624   */\n      and\n        /* \"#utility.yul\":3586:3624   */\n      swap1\n      pop\n        /* \"#utility.yul\":3576:3630   */\n      swap2\n      swap1\n      pop\n      jump\t// out\n\n    auxdata: 0xa2646970667358221220e7c0c9a62ebdcda9d1c676bf59cdfb0b809200e561fffd45c674c67f5f1199c464736f6c63430008000033\n}\n",
				"bytecode": {
					"linkReferences": {},
					"object": "60806040526001600055600180556001600260006101000a81548160ff021916908360ff16021790555060016003556040518060400160405280600e81526020017f48656c6c6f202c20576f726c6421000000000000000000000000000000000000815250600490805190602001906100799291906100b0565b507f48656c6c6f2c20576f726c6421000000000000000000000000000000000000006005553480156100aa57600080fd5b506101b4565b8280546100bc90610153565b90600052602060002090601f0160209004810192826100de5760008555610125565b82601f106100f757805160ff1916838001178555610125565b82800160010185558215610125579182015b82811115610124578251825591602001919060010190610109565b5b5090506101329190610136565b5090565b5b8082111561014f576000816000905550600101610137565b5090565b6000600282049050600182168061016b57607f821691505b6020821081141561017f5761017e610185565b5b50919050565b7f4e487b7100000000000000000000000000000000000000000000000000000000600052602260045260246000fd5b610440806101c36000396000f3fe608060405234801561001057600080fd5b506004361061007d5760003560e01c8063492bfa181161005b578063492bfa18146100dc5780634b3e7e0c146100fa5780636a345bb414610118578063a9810991146101365761007d565b806303bdf9191461008257806320965255146100a05780632cb777a6146100be575b600080fd5b61008a610154565b60405161009791906102e8565b60405180910390f35b6100a861015a565b6040516100b591906102e8565b60405180910390f35b6100c6610168565b6040516100d391906102ab565b60405180910390f35b6100e461016e565b6040516100f191906102c6565b60405180910390f35b6101026101fc565b60405161010f9190610290565b60405180910390f35b610120610202565b60405161012d91906102e8565b60405180910390f35b61013e610208565b60405161014b9190610303565b60405180910390f35b60015481565b600080600190508091505090565b60035481565b6004805461017b90610398565b80601f01602080910402602001604051908101604052809291908181526020018280546101a790610398565b80156101f45780601f106101c9576101008083540402835291602001916101f4565b820191906000526020600020905b8154815290600101906020018083116101d757829003601f168201915b505050505081565b60055481565b60005481565b600260009054906101000a900460ff1681565b6102248161033a565b82525050565b61023381610344565b82525050565b60006102448261031e565b61024e8185610329565b935061025e818560208601610365565b610267816103f9565b840191505092915050565b61027b8161034e565b82525050565b61028a81610358565b82525050565b60006020820190506102a5600083018461021b565b92915050565b60006020820190506102c0600083018461022a565b92915050565b600060208201905081810360008301526102e08184610239565b905092915050565b60006020820190506102fd6000830184610272565b92915050565b60006020820190506103186000830184610281565b92915050565b600081519050919050565b600082825260208201905092915050565b6000819050919050565b6000819050919050565b6000819050919050565b600060ff82169050919050565b60005b83811015610383578082015181840152602081019050610368565b83811115610392576000848401525b50505050565b600060028204905060018216806103b057607f821691505b602082108114156103c4576103c36103ca565b5b50919050565b7f4e487b7100000000000000000000000000000000000000000000000000000000600052602260045260246000fd5b6000601f19601f830116905091905056fea2646970667358221220e7c0c9a62ebdcda9d1c676bf59cdfb0b809200e561fffd45c674c67f5f1199c464736f6c63430008000033",
					"opcodes": "PUSH1 0x80 PUSH1 0x40 MSTORE PUSH1 0x1 PUSH1 0x0 SSTORE PUSH1 0x1 DUP1 SSTORE PUSH1 0x1 PUSH1 0x2 PUSH1 0x0 PUSH2 0x100 EXP DUP2 SLOAD DUP2 PUSH1 0xFF MUL NOT AND SWAP1 DUP4 PUSH1 0xFF AND MUL OR SWAP1 SSTORE POP PUSH1 0x1 PUSH1 0x3 SSTORE PUSH1 0x40 MLOAD DUP1 PUSH1 0x40 ADD PUSH1 0x40 MSTORE DUP1 PUSH1 0xE DUP2 MSTORE PUSH1 0x20 ADD PUSH32 0x48656C6C6F202C20576F726C6421000000000000000000000000000000000000 DUP2 MSTORE POP PUSH1 0x4 SWAP1 DUP1 MLOAD SWAP1 PUSH1 0x20 ADD SWAP1 PUSH2 0x79 SWAP3 SWAP2 SWAP1 PUSH2 0xB0 JUMP JUMPDEST POP PUSH32 0x48656C6C6F2C20576F726C642100000000000000000000000000000000000000 PUSH1 0x5 SSTORE CALLVALUE DUP1 ISZERO PUSH2 0xAA JUMPI PUSH1 0x0 DUP1 REVERT JUMPDEST POP PUSH2 0x1B4 JUMP JUMPDEST DUP3 DUP1 SLOAD PUSH2 0xBC SWAP1 PUSH2 0x153 JUMP JUMPDEST SWAP1 PUSH1 0x0 MSTORE PUSH1 0x20 PUSH1 0x0 KECCAK256 SWAP1 PUSH1 0x1F ADD PUSH1 0x20 SWAP1 DIV DUP2 ADD SWAP3 DUP3 PUSH2 0xDE JUMPI PUSH1 0x0 DUP6 SSTORE PUSH2 0x125 JUMP JUMPDEST DUP3 PUSH1 0x1F LT PUSH2 0xF7 JUMPI DUP1 MLOAD PUSH1 0xFF NOT AND DUP4 DUP1 ADD OR DUP6 SSTORE PUSH2 0x125 JUMP JUMPDEST DUP3 DUP1 ADD PUSH1 0x1 ADD DUP6 SSTORE DUP3 ISZERO PUSH2 0x125 JUMPI SWAP2 DUP3 ADD JUMPDEST DUP3 DUP2 GT ISZERO PUSH2 0x124 JUMPI DUP3 MLOAD DUP3 SSTORE SWAP2 PUSH1 0x20 ADD SWAP2 SWAP1 PUSH1 0x1 ADD SWAP1 PUSH2 0x109 JUMP JUMPDEST JUMPDEST POP SWAP1 POP PUSH2 0x132 SWAP2 SWAP1 PUSH2 0x136 JUMP JUMPDEST POP SWAP1 JUMP JUMPDEST JUMPDEST DUP1 DUP3 GT ISZERO PUSH2 0x14F JUMPI PUSH1 0x0 DUP2 PUSH1 0x0 SWAP1 SSTORE POP PUSH1 0x1 ADD PUSH2 0x137 JUMP JUMPDEST POP SWAP1 JUMP JUMPDEST PUSH1 0x0 PUSH1 0x2 DUP3 DIV SWAP1 POP PUSH1 0x1 DUP3 AND DUP1 PUSH2 0x16B JUMPI PUSH1 0x7F DUP3 AND SWAP2 POP JUMPDEST PUSH1 0x20 DUP3 LT DUP2 EQ ISZERO PUSH2 0x17F JUMPI PUSH2 0x17E PUSH2 0x185 JUMP JUMPDEST JUMPDEST POP SWAP2 SWAP1 POP JUMP JUMPDEST PUSH32 0x4E487B7100000000000000000000000000000000000000000000000000000000 PUSH1 0x0 MSTORE PUSH1 0x22 PUSH1 0x4 MSTORE PUSH1 0x24 PUSH1 0x0 REVERT JUMPDEST PUSH2 0x440 DUP1 PUSH2 0x1C3 PUSH1 0x0 CODECOPY PUSH1 0x0 RETURN INVALID PUSH1 0x80 PUSH1 0x40 MSTORE CALLVALUE DUP1 ISZERO PUSH2 0x10 JUMPI PUSH1 0x0 DUP1 REVERT JUMPDEST POP PUSH1 0x4 CALLDATASIZE LT PUSH2 0x7D JUMPI PUSH1 0x0 CALLDATALOAD PUSH1 0xE0 SHR DUP1 PUSH4 0x492BFA18 GT PUSH2 0x5B JUMPI DUP1 PUSH4 0x492BFA18 EQ PUSH2 0xDC JUMPI DUP1 PUSH4 0x4B3E7E0C EQ PUSH2 0xFA JUMPI DUP1 PUSH4 0x6A345BB4 EQ PUSH2 0x118 JUMPI DUP1 PUSH4 0xA9810991 EQ PUSH2 0x136 JUMPI PUSH2 0x7D JUMP JUMPDEST DUP1 PUSH4 0x3BDF919 EQ PUSH2 0x82 JUMPI DUP1 PUSH4 0x20965255 EQ PUSH2 0xA0 JUMPI DUP1 PUSH4 0x2CB777A6 EQ PUSH2 0xBE JUMPI JUMPDEST PUSH1 0x0 DUP1 REVERT JUMPDEST PUSH2 0x8A PUSH2 0x154 JUMP JUMPDEST PUSH1 0x40 MLOAD PUSH2 0x97 SWAP2 SWAP1 PUSH2 0x2E8 JUMP JUMPDEST PUSH1 0x40 MLOAD DUP1 SWAP2 SUB SWAP1 RETURN JUMPDEST PUSH2 0xA8 PUSH2 0x15A JUMP JUMPDEST PUSH1 0x40 MLOAD PUSH2 0xB5 SWAP2 SWAP1 PUSH2 0x2E8 JUMP JUMPDEST PUSH1 0x40 MLOAD DUP1 SWAP2 SUB SWAP1 RETURN JUMPDEST PUSH2 0xC6 PUSH2 0x168 JUMP JUMPDEST PUSH1 0x40 MLOAD PUSH2 0xD3 SWAP2 SWAP1 PUSH2 0x2AB JUMP JUMPDEST PUSH1 0x40 MLOAD DUP1 SWAP2 SUB SWAP1 RETURN JUMPDEST PUSH2 0xE4 PUSH2 0x16E JUMP JUMPDEST PUSH1 0x40 MLOAD PUSH2 0xF1 SWAP2 SWAP1 PUSH2 0x2C6 JUMP JUMPDEST PUSH1 0x40 MLOAD DUP1 SWAP2 SUB SWAP1 RETURN JUMPDEST PUSH2 0x102 PUSH2 0x1FC JUMP JUMPDEST PUSH1 0x40 MLOAD PUSH2 0x10F SWAP2 SWAP1 PUSH2 0x290 JUMP JUMPDEST PUSH1 0x40 MLOAD DUP1 SWAP2 SUB SWAP1 RETURN JUMPDEST PUSH2 0x120 PUSH2 0x202 JUMP JUMPDEST PUSH1 0x40 MLOAD PUSH2 0x12D SWAP2 SWAP1 PUSH2 0x2E8 JUMP JUMPDEST PUSH1 0x40 MLOAD DUP1 SWAP2 SUB SWAP1 RETURN JUMPDEST PUSH2 0x13E PUSH2 0x208 JUMP JUMPDEST PUSH1 0x40 MLOAD PUSH2 0x14B SWAP2 SWAP1 PUSH2 0x303 JUMP JUMPDEST PUSH1 0x40 MLOAD DUP1 SWAP2 SUB SWAP1 RETURN JUMPDEST PUSH1 0x1 SLOAD DUP2 JUMP JUMPDEST PUSH1 0x0 DUP1 PUSH1 0x1 SWAP1 POP DUP1 SWAP2 POP POP SWAP1 JUMP JUMPDEST PUSH1 0x3 SLOAD DUP2 JUMP JUMPDEST PUSH1 0x4 DUP1 SLOAD PUSH2 0x17B SWAP1 PUSH2 0x398 JUMP JUMPDEST DUP1 PUSH1 0x1F ADD PUSH1 0x20 DUP1 SWAP2 DIV MUL PUSH1 0x20 ADD PUSH1 0x40 MLOAD SWAP1 DUP2 ADD PUSH1 0x40 MSTORE DUP1 SWAP3 SWAP2 SWAP1 DUP2 DUP2 MSTORE PUSH1 0x20 ADD DUP3 DUP1 SLOAD PUSH2 0x1A7 SWAP1 PUSH2 0x398 JUMP JUMPDEST DUP1 ISZERO PUSH2 0x1F4 JUMPI DUP1 PUSH1 0x1F LT PUSH2 0x1C9 JUMPI PUSH2 0x100 DUP1 DUP4 SLOAD DIV MUL DUP4 MSTORE SWAP2 PUSH1 0x20 ADD SWAP2 PUSH2 0x1F4 JUMP JUMPDEST DUP3 ADD SWAP2 SWAP1 PUSH1 0x0 MSTORE PUSH1 0x20 PUSH1 0x0 KECCAK256 SWAP1 JUMPDEST DUP2 SLOAD DUP2 MSTORE SWAP1 PUSH1 0x1 ADD SWAP1 PUSH1 0x20 ADD DUP1 DUP4 GT PUSH2 0x1D7 JUMPI DUP3 SWAP1 SUB PUSH1 0x1F AND DUP3 ADD SWAP2 JUMPDEST POP POP POP POP POP DUP2 JUMP JUMPDEST PUSH1 0x5 SLOAD DUP2 JUMP JUMPDEST PUSH1 0x0 SLOAD DUP2 JUMP JUMPDEST PUSH1 0x2 PUSH1 0x0 SWAP1 SLOAD SWAP1 PUSH2 0x100 EXP SWAP1 DIV PUSH1 0xFF AND DUP2 JUMP JUMPDEST PUSH2 0x224 DUP2 PUSH2 0x33A JUMP JUMPDEST DUP3 MSTORE POP POP JUMP JUMPDEST PUSH2 0x233 DUP2 PUSH2 0x344 JUMP JUMPDEST DUP3 MSTORE POP POP JUMP JUMPDEST PUSH1 0x0 PUSH2 0x244 DUP3 PUSH2 0x31E JUMP JUMPDEST PUSH2 0x24E DUP2 DUP6 PUSH2 0x329 JUMP JUMPDEST SWAP4 POP PUSH2 0x25E DUP2 DUP6 PUSH1 0x20 DUP7 ADD PUSH2 0x365 JUMP JUMPDEST PUSH2 0x267 DUP2 PUSH2 0x3F9 JUMP JUMPDEST DUP5 ADD SWAP2 POP POP SWAP3 SWAP2 POP POP JUMP JUMPDEST PUSH2 0x27B DUP2 PUSH2 0x34E JUMP JUMPDEST DUP3 MSTORE POP POP JUMP JUMPDEST PUSH2 0x28A DUP2 PUSH2 0x358 JUMP JUMPDEST DUP3 MSTORE POP POP JUMP JUMPDEST PUSH1 0x0 PUSH1 0x20 DUP3 ADD SWAP1 POP PUSH2 0x2A5 PUSH1 0x0 DUP4 ADD DUP5 PUSH2 0x21B JUMP JUMPDEST SWAP3 SWAP2 POP POP JUMP JUMPDEST PUSH1 0x0 PUSH1 0x20 DUP3 ADD SWAP1 POP PUSH2 0x2C0 PUSH1 0x0 DUP4 ADD DUP5 PUSH2 0x22A JUMP JUMPDEST SWAP3 SWAP2 POP POP JUMP JUMPDEST PUSH1 0x0 PUSH1 0x20 DUP3 ADD SWAP1 POP DUP2 DUP2 SUB PUSH1 0x0 DUP4 ADD MSTORE PUSH2 0x2E0 DUP2 DUP5 PUSH2 0x239 JUMP JUMPDEST SWAP1 POP SWAP3 SWAP2 POP POP JUMP JUMPDEST PUSH1 0x0 PUSH1 0x20 DUP3 ADD SWAP1 POP PUSH2 0x2FD PUSH1 0x0 DUP4 ADD DUP5 PUSH2 0x272 JUMP JUMPDEST SWAP3 SWAP2 POP POP JUMP JUMPDEST PUSH1 0x0 PUSH1 0x20 DUP3 ADD SWAP1 POP PUSH2 0x318 PUSH1 0x0 DUP4 ADD DUP5 PUSH2 0x281 JUMP JUMPDEST SWAP3 SWAP2 POP POP JUMP JUMPDEST PUSH1 0x0 DUP2 MLOAD SWAP1 POP SWAP2 SWAP1 POP JUMP JUMPDEST PUSH1 0x0 DUP3 DUP3 MSTORE PUSH1 0x20 DUP3 ADD SWAP1 POP SWAP3 SWAP2 POP POP JUMP JUMPDEST PUSH1 0x0 DUP2 SWAP1 POP SWAP2 SWAP1 POP JUMP JUMPDEST PUSH1 0x0 DUP2 SWAP1 POP SWAP2 SWAP1 POP JUMP JUMPDEST PUSH1 0x0 DUP2 SWAP1 POP SWAP2 SWAP1 POP JUMP JUMPDEST PUSH1 0x0 PUSH1 0xFF DUP3 AND SWAP1 POP SWAP2 SWAP1 POP JUMP JUMPDEST PUSH1 0x0 JUMPDEST DUP4 DUP2 LT ISZERO PUSH2 0x383 JUMPI DUP1 DUP3 ADD MLOAD DUP2 DUP5 ADD MSTORE PUSH1 0x20 DUP2 ADD SWAP1 POP PUSH2 0x368 JUMP JUMPDEST DUP4 DUP2 GT ISZERO PUSH2 0x392 JUMPI PUSH1 0x0 DUP5 DUP5 ADD MSTORE JUMPDEST POP POP POP POP JUMP JUMPDEST PUSH1 0x0 PUSH1 0x2 DUP3 DIV SWAP1 POP PUSH1 0x1 DUP3 AND DUP1 PUSH2 0x3B0 JUMPI PUSH1 0x7F DUP3 AND SWAP2 POP JUMPDEST PUSH1 0x20 DUP3 LT DUP2 EQ ISZERO PUSH2 0x3C4 JUMPI PUSH2 0x3C3 PUSH2 0x3CA JUMP JUMPDEST JUMPDEST POP SWAP2 SWAP1 POP JUMP JUMPDEST PUSH32 0x4E487B7100000000000000000000000000000000000000000000000000000000 PUSH1 0x0 MSTORE PUSH1 0x22 PUSH1 0x4 MSTORE PUSH1 0x24 PUSH1 0x0 REVERT JUMPDEST PUSH1 0x0 PUSH1 0x1F NOT PUSH1 0x1F DUP4 ADD AND SWAP1 POP SWAP2 SWAP1 POP JUMP INVALID LOG2 PUSH5 0x6970667358 0x22 SLT KECCAK256 0xE7 0xC0 0xC9 0xA6 0x2E 0xBD 0xCD 0xA9 0xD1 0xC6 PUSH23 0xBF59CDFB0B809200E561FFFD45C674C67F5F1199C46473 PUSH16 0x6C634300080000330000000000000000 "
				},
				"gasEstimates": {
					"creation": {
						"codeDepositCost": "217600",
						"executionCost": "infinite",
						"totalCost": "infinite"
					},
					"external": {
						"getValue()": "373",
						"myBytes32()": "1151",
						"myInt()": "1174",
						"myString()": "infinite",
						"myUnit()": "1173",
						"myUnit256()": "1130",
						"myUnit8()": "1237"
					}
				},
				"methodIdentifiers": {
					"getValue()": "20965255",
					"myBytes32()": "4b3e7e0c",
					"myInt()": "2cb777a6",
					"myString()": "492bfa18",
					"myUnit()": "6a345bb4",
					"myUnit256()": "03bdf919",
					"myUnit8()": "a9810991"
				}
			},
			"storageLayout": {
				"storage": [
					{
						"astId": 4,
						"contract": "contracts/Mycontract.sol:MyContract",
						"label": "myUnit",
						"offset": 0,
						"slot": "0",
						"type": "t_uint256"
					},
					{
						"astId": 7,
						"contract": "contracts/Mycontract.sol:MyContract",
						"label": "myUnit256",
						"offset": 0,
						"slot": "1",
						"type": "t_uint256"
					},
					{
						"astId": 10,
						"contract": "contracts/Mycontract.sol:MyContract",
						"label": "myUnit8",
						"offset": 0,
						"slot": "2",
						"type": "t_uint8"
					},
					{
						"astId": 13,
						"contract": "contracts/Mycontract.sol:MyContract",
						"label": "myInt",
						"offset": 0,
						"slot": "3",
						"type": "t_int256"
					},
					{
						"astId": 16,
						"contract": "contracts/Mycontract.sol:MyContract",
						"label": "myString",
						"offset": 0,
						"slot": "4",
						"type": "t_string_storage"
					},
					{
						"astId": 19,
						"contract": "contracts/Mycontract.sol:MyContract",
						"label": "myBytes32",
						"offset": 0,
						"slot": "5",
						"type": "t_bytes32"
					}
				],
				"types": {
					"t_bytes32": {
						"encoding": "inplace",
						"label": "bytes32",
						"numberOfBytes": "32"
					},
					"t_int256": {
						"encoding": "inplace",
						"label": "int256",
						"numberOfBytes": "32"
					},
					"t_string_storage": {
						"encoding": "bytes",
						"label": "string",
						"numberOfBytes": "32"
					},
					"t_uint256": {
						"encoding": "inplace",
						"label": "uint256",
						"numberOfBytes": "32"
					},
					"t_uint8": {
						"encoding": "inplace",
						"label": "uint8",
						"numberOfBytes": "1"
					}
				}
			},
			"userdoc": {
				"kind": "user",
				"methods": {},
				"version": 1
			}
		}
	}
}