{
	"contracts/Loops.sol": {
		"MyContract": {
			"abi": [
				{
					"inputs": [],
					"name": "countEvenNumber",
					"outputs": [
						{
							"internalType": "uint256",
							"name": "",
							"type": "uint256"
						}
					],
					"stateMutability": "view",
					"type": "function"
				},
				{
					"inputs": [
						{
							"internalType": "uint256",
							"name": "_number",
							"type": "uint256"
						}
					],
					"name": "isEvenNumber",
					"outputs": [
						{
							"internalType": "bool",
							"name": "",
							"type": "bool"
						}
					],
					"stateMutability": "view",
					"type": "function"
				},
				{
					"inputs": [
						{
							"internalType": "uint256",
							"name": "",
							"type": "uint256"
						}
					],
					"name": "numbers",
					"outputs": [
						{
							"internalType": "uint256",
							"name": "",
							"type": "uint256"
						}
					],
					"stateMutability": "view",
					"type": "function"
				}
			],
			"devdoc": {
				"kind": "dev",
				"methods": {},
				"version": 1
			},
			"evm": {
				"assembly": "    /* \"contracts/Loops.sol\":66:558  contract MyContract {\r... */\n  mstore(0x40, 0x80)\n    /* \"contracts/Loops.sol\":120:174  uint[] public numbers =[1, 2, 3, 4, 5, 6, 7, 8, 9, 10] */\n  mload(0x40)\n  dup1\n  0x0140\n  add\n  0x40\n  mstore\n  dup1\n    /* \"contracts/Loops.sol\":144:145  1 */\n  0x01\n    /* \"contracts/Loops.sol\":120:174  uint[] public numbers =[1, 2, 3, 4, 5, 6, 7, 8, 9, 10] */\n  0xff\n  and\n  dup2\n  mstore\n  0x20\n  add\n    /* \"contracts/Loops.sol\":147:148  2 */\n  0x02\n    /* \"contracts/Loops.sol\":120:174  uint[] public numbers =[1, 2, 3, 4, 5, 6, 7, 8, 9, 10] */\n  0xff\n  and\n  dup2\n  mstore\n  0x20\n  add\n    /* \"contracts/Loops.sol\":150:151  3 */\n  0x03\n    /* \"contracts/Loops.sol\":120:174  uint[] public numbers =[1, 2, 3, 4, 5, 6, 7, 8, 9, 10] */\n  0xff\n  and\n  dup2\n  mstore\n  0x20\n  add\n    /* \"contracts/Loops.sol\":153:154  4 */\n  0x04\n    /* \"contracts/Loops.sol\":120:174  uint[] public numbers =[1, 2, 3, 4, 5, 6, 7, 8, 9, 10] */\n  0xff\n  and\n  dup2\n  mstore\n  0x20\n  add\n    /* \"contracts/Loops.sol\":156:157  5 */\n  0x05\n    /* \"contracts/Loops.sol\":120:174  uint[] public numbers =[1, 2, 3, 4, 5, 6, 7, 8, 9, 10] */\n  0xff\n  and\n  dup2\n  mstore\n  0x20\n  add\n    /* \"contracts/Loops.sol\":159:160  6 */\n  0x06\n    /* \"contracts/Loops.sol\":120:174  uint[] public numbers =[1, 2, 3, 4, 5, 6, 7, 8, 9, 10] */\n  0xff\n  and\n  dup2\n  mstore\n  0x20\n  add\n    /* \"contracts/Loops.sol\":162:163  7 */\n  0x07\n    /* \"contracts/Loops.sol\":120:174  uint[] public numbers =[1, 2, 3, 4, 5, 6, 7, 8, 9, 10] */\n  0xff\n  and\n  dup2\n  mstore\n  0x20\n  add\n    /* \"contracts/Loops.sol\":165:166  8 */\n  0x08\n    /* \"contracts/Loops.sol\":120:174  uint[] public numbers =[1, 2, 3, 4, 5, 6, 7, 8, 9, 10] */\n  0xff\n  and\n  dup2\n  mstore\n  0x20\n  add\n    /* \"contracts/Loops.sol\":168:169  9 */\n  0x09\n    /* \"contracts/Loops.sol\":120:174  uint[] public numbers =[1, 2, 3, 4, 5, 6, 7, 8, 9, 10] */\n  0xff\n  and\n  dup2\n  mstore\n  0x20\n  add\n    /* \"contracts/Loops.sol\":171:173  10 */\n  0x0a\n    /* \"contracts/Loops.sol\":120:174  uint[] public numbers =[1, 2, 3, 4, 5, 6, 7, 8, 9, 10] */\n  0xff\n  and\n  dup2\n  mstore\n  pop\n  0x00\n  swap1\n  0x0a\n  tag_1\n  swap3\n  swap2\n  swap1\n  tag_2\n  jump\t// in\ntag_1:\n  pop\n    /* \"contracts/Loops.sol\":66:558  contract MyContract {\r... */\n  callvalue\n  dup1\n  iszero\n  tag_3\n  jumpi\n  0x00\n  dup1\n  revert\ntag_3:\n  pop\n  jump(tag_4)\ntag_2:\n  dup3\n  dup1\n  sload\n  dup3\n  dup3\n  sstore\n  swap1\n  0x00\n  mstore\n  keccak256(0x00, 0x20)\n  swap1\n  dup2\n  add\n  swap3\n  dup3\n  iszero\n  tag_5\n  jumpi\n  swap2\n  0x20\n  mul\n  dup3\n  add\ntag_6:\n  dup3\n  dup2\n  gt\n  iszero\n  tag_7\n  jumpi\n  dup3\n  mload\n  dup3\n  swap1\n  0xff\n  and\n  swap1\n  sstore\n  swap2\n  0x20\n  add\n  swap2\n  swap1\n  0x01\n  add\n  swap1\n  jump(tag_6)\ntag_7:\ntag_5:\n  pop\n  swap1\n  pop\n  tag_8\n  swap2\n  swap1\n  tag_9\n  jump\t// in\ntag_8:\n  pop\n  swap1\n  jump\t// out\ntag_9:\ntag_10:\n  dup1\n  dup3\n  gt\n  iszero\n  tag_11\n  jumpi\n  0x00\n  dup2\n  0x00\n  swap1\n  sstore\n  pop\n  0x01\n  add\n  jump(tag_10)\ntag_11:\n  pop\n  swap1\n  jump\t// out\ntag_4:\n  dataSize(sub_0)\n  dup1\n  dataOffset(sub_0)\n  0x00\n  codecopy\n  0x00\n  return\nstop\n\nsub_0: assembly {\n        /* \"contracts/Loops.sol\":66:558  contract MyContract {\r... */\n      mstore(0x40, 0x80)\n      callvalue\n      dup1\n      iszero\n      tag_1\n      jumpi\n      0x00\n      dup1\n      revert\n    tag_1:\n      pop\n      jumpi(tag_2, lt(calldatasize, 0x04))\n      shr(0xe0, calldataload(0x00))\n      dup1\n      0x9dcccf04\n      eq\n      tag_3\n      jumpi\n      dup1\n      0xd39fa233\n      eq\n      tag_4\n      jumpi\n      dup1\n      0xe5054c69\n      eq\n      tag_5\n      jumpi\n    tag_2:\n      0x00\n      dup1\n      revert\n        /* \"contracts/Loops.sol\":184:360  function countEvenNumber() public view returns(uint){\r... */\n    tag_3:\n      tag_6\n      tag_7\n      jump\t// in\n    tag_6:\n      mload(0x40)\n      tag_8\n      swap2\n      swap1\n      tag_9\n      jump\t// in\n    tag_8:\n      mload(0x40)\n      dup1\n      swap2\n      sub\n      swap1\n      return\n        /* \"contracts/Loops.sol\":120:174  uint[] public numbers =[1, 2, 3, 4, 5, 6, 7, 8, 9, 10] */\n    tag_4:\n      tag_10\n      0x04\n      dup1\n      calldatasize\n      sub\n      dup2\n      add\n      swap1\n      tag_11\n      swap2\n      swap1\n      tag_12\n      jump\t// in\n    tag_11:\n      tag_13\n      jump\t// in\n    tag_10:\n      mload(0x40)\n      tag_14\n      swap2\n      swap1\n      tag_9\n      jump\t// in\n    tag_14:\n      mload(0x40)\n      dup1\n      swap2\n      sub\n      swap1\n      return\n        /* \"contracts/Loops.sol\":367:545  function isEvenNumber(uint _number) public view returns(bool){\r... */\n    tag_5:\n      tag_15\n      0x04\n      dup1\n      calldatasize\n      sub\n      dup2\n      add\n      swap1\n      tag_16\n      swap2\n      swap1\n      tag_12\n      jump\t// in\n    tag_16:\n      tag_17\n      jump\t// in\n    tag_15:\n      mload(0x40)\n      tag_18\n      swap2\n      swap1\n      tag_19\n      jump\t// in\n    tag_18:\n      mload(0x40)\n      dup1\n      swap2\n      sub\n      swap1\n      return\n        /* \"contracts/Loops.sol\":184:360  function countEvenNumber() public view returns(uint){\r... */\n    tag_7:\n        /* \"contracts/Loops.sol\":231:235  uint */\n      0x00\n        /* \"contracts/Loops.sol\":245:255  uint count */\n      dup1\n        /* \"contracts/Loops.sol\":258:259  0 */\n      0x00\n        /* \"contracts/Loops.sol\":245:259  uint count = 0 */\n      swap1\n      pop\n        /* \"contracts/Loops.sol\":274:280  uint i */\n      0x00\n        /* \"contracts/Loops.sol\":270:355  for(uint i = 0; i < numbers.length; i++){\r... */\n    tag_21:\n        /* \"contracts/Loops.sol\":290:297  numbers */\n      0x00\n        /* \"contracts/Loops.sol\":290:304  numbers.length */\n      dup1\n      sload\n      swap1\n      pop\n        /* \"contracts/Loops.sol\":286:287  i */\n      dup2\n        /* \"contracts/Loops.sol\":286:304  i < numbers.length */\n      lt\n        /* \"contracts/Loops.sol\":270:355  for(uint i = 0; i < numbers.length; i++){\r... */\n      iszero\n      tag_22\n      jumpi\n        /* \"contracts/Loops.sol\":335:336  1 */\n      0x01\n        /* \"contracts/Loops.sol\":329:334  count */\n      dup3\n        /* \"contracts/Loops.sol\":329:336  count+1 */\n      tag_24\n      swap2\n      swap1\n      tag_25\n      jump\t// in\n    tag_24:\n        /* \"contracts/Loops.sol\":323:336  count=count+1 */\n      swap2\n      pop\n        /* \"contracts/Loops.sol\":306:309  i++ */\n      dup1\n      dup1\n      tag_26\n      swap1\n      tag_27\n      jump\t// in\n    tag_26:\n      swap2\n      pop\n      pop\n        /* \"contracts/Loops.sol\":270:355  for(uint i = 0; i < numbers.length; i++){\r... */\n      jump(tag_21)\n    tag_22:\n      pop\n        /* \"contracts/Loops.sol\":184:360  function countEvenNumber() public view returns(uint){\r... */\n      pop\n      swap1\n      jump\t// out\n        /* \"contracts/Loops.sol\":120:174  uint[] public numbers =[1, 2, 3, 4, 5, 6, 7, 8, 9, 10] */\n    tag_13:\n      0x00\n      dup2\n      dup2\n      sload\n      dup2\n      lt\n      tag_28\n      jumpi\n      0x00\n      dup1\n      revert\n    tag_28:\n      swap1\n      0x00\n      mstore\n      keccak256(0x00, 0x20)\n      add\n      0x00\n      swap2\n      pop\n      swap1\n      pop\n      sload\n      dup2\n      jump\t// out\n        /* \"contracts/Loops.sol\":367:545  function isEvenNumber(uint _number) public view returns(bool){\r... */\n    tag_17:\n        /* \"contracts/Loops.sol\":423:427  bool */\n      0x00\n        /* \"contracts/Loops.sol\":456:457  0 */\n      dup1\n        /* \"contracts/Loops.sol\":451:452  2 */\n      0x02\n        /* \"contracts/Loops.sol\":441:448  _number */\n      dup4\n        /* \"contracts/Loops.sol\":441:452  _number % 2 */\n      tag_31\n      swap2\n      swap1\n      tag_32\n      jump\t// in\n    tag_31:\n        /* \"contracts/Loops.sol\":441:457  _number % 2 == 0 */\n      eq\n        /* \"contracts/Loops.sol\":438:539  if(_number % 2 == 0){\r... */\n      iszero\n      tag_33\n      jumpi\n        /* \"contracts/Loops.sol\":479:483  true */\n      0x01\n        /* \"contracts/Loops.sol\":472:483  return true */\n      swap1\n      pop\n      jump(tag_30)\n        /* \"contracts/Loops.sol\":438:539  if(_number % 2 == 0){\r... */\n    tag_33:\n        /* \"contracts/Loops.sol\":523:528  false */\n      0x00\n        /* \"contracts/Loops.sol\":516:528  return false */\n      swap1\n      pop\n        /* \"contracts/Loops.sol\":367:545  function isEvenNumber(uint _number) public view returns(bool){\r... */\n    tag_30:\n      swap2\n      swap1\n      pop\n      jump\t// out\n        /* \"#utility.yul\":7:146   */\n    tag_36:\n      0x00\n        /* \"#utility.yul\":91:97   */\n      dup2\n        /* \"#utility.yul\":78:98   */\n      calldataload\n        /* \"#utility.yul\":69:98   */\n      swap1\n      pop\n        /* \"#utility.yul\":107:140   */\n      tag_38\n        /* \"#utility.yul\":134:139   */\n      dup2\n        /* \"#utility.yul\":107:140   */\n      tag_39\n      jump\t// in\n    tag_38:\n        /* \"#utility.yul\":59:146   */\n      swap3\n      swap2\n      pop\n      pop\n      jump\t// out\n        /* \"#utility.yul\":152:414   */\n    tag_12:\n      0x00\n        /* \"#utility.yul\":260:262   */\n      0x20\n        /* \"#utility.yul\":248:257   */\n      dup3\n        /* \"#utility.yul\":239:246   */\n      dup5\n        /* \"#utility.yul\":235:258   */\n      sub\n        /* \"#utility.yul\":231:263   */\n      slt\n        /* \"#utility.yul\":228:230   */\n      iszero\n      tag_41\n      jumpi\n        /* \"#utility.yul\":276:277   */\n      0x00\n        /* \"#utility.yul\":273:274   */\n      dup1\n        /* \"#utility.yul\":266:278   */\n      revert\n        /* \"#utility.yul\":228:230   */\n    tag_41:\n        /* \"#utility.yul\":319:320   */\n      0x00\n        /* \"#utility.yul\":344:397   */\n      tag_42\n        /* \"#utility.yul\":389:396   */\n      dup5\n        /* \"#utility.yul\":380:386   */\n      dup3\n        /* \"#utility.yul\":369:378   */\n      dup6\n        /* \"#utility.yul\":365:387   */\n      add\n        /* \"#utility.yul\":344:397   */\n      tag_36\n      jump\t// in\n    tag_42:\n        /* \"#utility.yul\":334:397   */\n      swap2\n      pop\n        /* \"#utility.yul\":290:407   */\n      pop\n        /* \"#utility.yul\":218:414   */\n      swap3\n      swap2\n      pop\n      pop\n      jump\t// out\n        /* \"#utility.yul\":420:529   */\n    tag_43:\n        /* \"#utility.yul\":501:522   */\n      tag_45\n        /* \"#utility.yul\":516:521   */\n      dup2\n        /* \"#utility.yul\":501:522   */\n      tag_46\n      jump\t// in\n    tag_45:\n        /* \"#utility.yul\":496:499   */\n      dup3\n        /* \"#utility.yul\":489:523   */\n      mstore\n        /* \"#utility.yul\":479:529   */\n      pop\n      pop\n      jump\t// out\n        /* \"#utility.yul\":535:653   */\n    tag_47:\n        /* \"#utility.yul\":622:646   */\n      tag_49\n        /* \"#utility.yul\":640:645   */\n      dup2\n        /* \"#utility.yul\":622:646   */\n      tag_50\n      jump\t// in\n    tag_49:\n        /* \"#utility.yul\":617:620   */\n      dup3\n        /* \"#utility.yul\":610:647   */\n      mstore\n        /* \"#utility.yul\":600:653   */\n      pop\n      pop\n      jump\t// out\n        /* \"#utility.yul\":659:869   */\n    tag_19:\n      0x00\n        /* \"#utility.yul\":784:786   */\n      0x20\n        /* \"#utility.yul\":773:782   */\n      dup3\n        /* \"#utility.yul\":769:787   */\n      add\n        /* \"#utility.yul\":761:787   */\n      swap1\n      pop\n        /* \"#utility.yul\":797:862   */\n      tag_52\n        /* \"#utility.yul\":859:860   */\n      0x00\n        /* \"#utility.yul\":848:857   */\n      dup4\n        /* \"#utility.yul\":844:861   */\n      add\n        /* \"#utility.yul\":835:841   */\n      dup5\n        /* \"#utility.yul\":797:862   */\n      tag_43\n      jump\t// in\n    tag_52:\n        /* \"#utility.yul\":751:869   */\n      swap3\n      swap2\n      pop\n      pop\n      jump\t// out\n        /* \"#utility.yul\":875:1097   */\n    tag_9:\n      0x00\n        /* \"#utility.yul\":1006:1008   */\n      0x20\n        /* \"#utility.yul\":995:1004   */\n      dup3\n        /* \"#utility.yul\":991:1009   */\n      add\n        /* \"#utility.yul\":983:1009   */\n      swap1\n      pop\n        /* \"#utility.yul\":1019:1090   */\n      tag_54\n        /* \"#utility.yul\":1087:1088   */\n      0x00\n        /* \"#utility.yul\":1076:1085   */\n      dup4\n        /* \"#utility.yul\":1072:1089   */\n      add\n        /* \"#utility.yul\":1063:1069   */\n      dup5\n        /* \"#utility.yul\":1019:1090   */\n      tag_47\n      jump\t// in\n    tag_54:\n        /* \"#utility.yul\":973:1097   */\n      swap3\n      swap2\n      pop\n      pop\n      jump\t// out\n        /* \"#utility.yul\":1103:1408   */\n    tag_25:\n      0x00\n        /* \"#utility.yul\":1162:1182   */\n      tag_56\n        /* \"#utility.yul\":1180:1181   */\n      dup3\n        /* \"#utility.yul\":1162:1182   */\n      tag_50\n      jump\t// in\n    tag_56:\n        /* \"#utility.yul\":1157:1182   */\n      swap2\n      pop\n        /* \"#utility.yul\":1196:1216   */\n      tag_57\n        /* \"#utility.yul\":1214:1215   */\n      dup4\n        /* \"#utility.yul\":1196:1216   */\n      tag_50\n      jump\t// in\n    tag_57:\n        /* \"#utility.yul\":1191:1216   */\n      swap3\n      pop\n        /* \"#utility.yul\":1350:1351   */\n      dup3\n        /* \"#utility.yul\":1282:1348   */\n      0xffffffffffffffffffffffffffffffffffffffffffffffffffffffffffffffff\n        /* \"#utility.yul\":1278:1352   */\n      sub\n        /* \"#utility.yul\":1275:1276   */\n      dup3\n        /* \"#utility.yul\":1272:1353   */\n      gt\n        /* \"#utility.yul\":1269:1271   */\n      iszero\n      tag_58\n      jumpi\n        /* \"#utility.yul\":1356:1374   */\n      tag_59\n      tag_60\n      jump\t// in\n    tag_59:\n        /* \"#utility.yul\":1269:1271   */\n    tag_58:\n        /* \"#utility.yul\":1400:1401   */\n      dup3\n        /* \"#utility.yul\":1397:1398   */\n      dup3\n        /* \"#utility.yul\":1393:1402   */\n      add\n        /* \"#utility.yul\":1386:1402   */\n      swap1\n      pop\n        /* \"#utility.yul\":1147:1408   */\n      swap3\n      swap2\n      pop\n      pop\n      jump\t// out\n        /* \"#utility.yul\":1414:1504   */\n    tag_46:\n      0x00\n        /* \"#utility.yul\":1491:1496   */\n      dup2\n        /* \"#utility.yul\":1484:1497   */\n      iszero\n        /* \"#utility.yul\":1477:1498   */\n      iszero\n        /* \"#utility.yul\":1466:1498   */\n      swap1\n      pop\n        /* \"#utility.yul\":1456:1504   */\n      swap2\n      swap1\n      pop\n      jump\t// out\n        /* \"#utility.yul\":1510:1587   */\n    tag_50:\n      0x00\n        /* \"#utility.yul\":1576:1581   */\n      dup2\n        /* \"#utility.yul\":1565:1581   */\n      swap1\n      pop\n        /* \"#utility.yul\":1555:1587   */\n      swap2\n      swap1\n      pop\n      jump\t// out\n        /* \"#utility.yul\":1593:1826   */\n    tag_27:\n      0x00\n        /* \"#utility.yul\":1655:1679   */\n      tag_64\n        /* \"#utility.yul\":1673:1678   */\n      dup3\n        /* \"#utility.yul\":1655:1679   */\n      tag_50\n      jump\t// in\n    tag_64:\n        /* \"#utility.yul\":1646:1679   */\n      swap2\n      pop\n        /* \"#utility.yul\":1701:1767   */\n      0xffffffffffffffffffffffffffffffffffffffffffffffffffffffffffffffff\n        /* \"#utility.yul\":1694:1699   */\n      dup3\n        /* \"#utility.yul\":1691:1768   */\n      eq\n        /* \"#utility.yul\":1688:1690   */\n      iszero\n      tag_65\n      jumpi\n        /* \"#utility.yul\":1771:1789   */\n      tag_66\n      tag_60\n      jump\t// in\n    tag_66:\n        /* \"#utility.yul\":1688:1690   */\n    tag_65:\n        /* \"#utility.yul\":1818:1819   */\n      0x01\n        /* \"#utility.yul\":1811:1816   */\n      dup3\n        /* \"#utility.yul\":1807:1820   */\n      add\n        /* \"#utility.yul\":1800:1820   */\n      swap1\n      pop\n        /* \"#utility.yul\":1636:1826   */\n      swap2\n      swap1\n      pop\n      jump\t// out\n        /* \"#utility.yul\":1832:2008   */\n    tag_32:\n      0x00\n        /* \"#utility.yul\":1881:1901   */\n      tag_68\n        /* \"#utility.yul\":1899:1900   */\n      dup3\n        /* \"#utility.yul\":1881:1901   */\n      tag_50\n      jump\t// in\n    tag_68:\n        /* \"#utility.yul\":1876:1901   */\n      swap2\n      pop\n        /* \"#utility.yul\":1915:1935   */\n      tag_69\n        /* \"#utility.yul\":1933:1934   */\n      dup4\n        /* \"#utility.yul\":1915:1935   */\n      tag_50\n      jump\t// in\n    tag_69:\n        /* \"#utility.yul\":1910:1935   */\n      swap3\n      pop\n        /* \"#utility.yul\":1954:1955   */\n      dup3\n        /* \"#utility.yul\":1944:1946   */\n      tag_70\n      jumpi\n        /* \"#utility.yul\":1959:1977   */\n      tag_71\n      tag_72\n      jump\t// in\n    tag_71:\n        /* \"#utility.yul\":1944:1946   */\n    tag_70:\n        /* \"#utility.yul\":2000:2001   */\n      dup3\n        /* \"#utility.yul\":1997:1998   */\n      dup3\n        /* \"#utility.yul\":1993:2002   */\n      mod\n        /* \"#utility.yul\":1988:2002   */\n      swap1\n      pop\n        /* \"#utility.yul\":1866:2008   */\n      swap3\n      swap2\n      pop\n      pop\n      jump\t// out\n        /* \"#utility.yul\":2014:2194   */\n    tag_60:\n        /* \"#utility.yul\":2062:2139   */\n      0x4e487b7100000000000000000000000000000000000000000000000000000000\n        /* \"#utility.yul\":2059:2060   */\n      0x00\n        /* \"#utility.yul\":2052:2140   */\n      mstore\n        /* \"#utility.yul\":2159:2163   */\n      0x11\n        /* \"#utility.yul\":2156:2157   */\n      0x04\n        /* \"#utility.yul\":2149:2164   */\n      mstore\n        /* \"#utility.yul\":2183:2187   */\n      0x24\n        /* \"#utility.yul\":2180:2181   */\n      0x00\n        /* \"#utility.yul\":2173:2188   */\n      revert\n        /* \"#utility.yul\":2200:2380   */\n    tag_72:\n        /* \"#utility.yul\":2248:2325   */\n      0x4e487b7100000000000000000000000000000000000000000000000000000000\n        /* \"#utility.yul\":2245:2246   */\n      0x00\n        /* \"#utility.yul\":2238:2326   */\n      mstore\n        /* \"#utility.yul\":2345:2349   */\n      0x12\n        /* \"#utility.yul\":2342:2343   */\n      0x04\n        /* \"#utility.yul\":2335:2350   */\n      mstore\n        /* \"#utility.yul\":2369:2373   */\n      0x24\n        /* \"#utility.yul\":2366:2367   */\n      0x00\n        /* \"#utility.yul\":2359:2374   */\n      revert\n        /* \"#utility.yul\":2386:2508   */\n    tag_39:\n        /* \"#utility.yul\":2459:2483   */\n      tag_76\n        /* \"#utility.yul\":2477:2482   */\n      dup2\n        /* \"#utility.yul\":2459:2483   */\n      tag_50\n      jump\t// in\n    tag_76:\n        /* \"#utility.yul\":2452:2457   */\n      dup2\n        /* \"#utility.yul\":2449:2484   */\n      eq\n        /* \"#utility.yul\":2439:2441   */\n      tag_77\n      jumpi\n        /* \"#utility.yul\":2498:2499   */\n      0x00\n        /* \"#utility.yul\":2495:2496   */\n      dup1\n        /* \"#utility.yul\":2488:2500   */\n      revert\n        /* \"#utility.yul\":2439:2441   */\n    tag_77:\n        /* \"#utility.yul\":2429:2508   */\n      pop\n      jump\t// out\n\n    auxdata: 0xa264697066735822122000cfd25cb1e4630515055707c1e8da976dbd45d152a47c32785ef0efdec3724464736f6c63430008000033\n}\n",
				"bytecode": {
					"linkReferences": {},
					"object": "6080604052604051806101400160405280600160ff168152602001600260ff168152602001600360ff168152602001600460ff168152602001600560ff168152602001600660ff168152602001600760ff168152602001600860ff168152602001600960ff168152602001600a60ff16815250600090600a610082929190610095565b5034801561008f57600080fd5b50610104565b8280548282559060005260206000209081019282156100d6579160200282015b828111156100d5578251829060ff169055916020019190600101906100b5565b5b5090506100e391906100e7565b5090565b5b808211156101005760008160009055506001016100e8565b5090565b610372806101136000396000f3fe608060405234801561001057600080fd5b50600436106100415760003560e01c80639dcccf0414610046578063d39fa23314610064578063e5054c6914610094575b600080fd5b61004e6100c4565b60405161005b91906101c6565b60405180910390f35b61007e60048036038101906100799190610164565b610102565b60405161008b91906101c6565b60405180910390f35b6100ae60048036038101906100a99190610164565b610126565b6040516100bb91906101ab565b60405180910390f35b6000806000905060005b6000805490508110156100fd576001826100e891906101e1565b915080806100f59061024d565b9150506100ce565b505090565b6000818154811061011257600080fd5b906000526020600020016000915090505481565b6000806002836101369190610296565b1415610145576001905061014a565b600090505b919050565b60008135905061015e81610325565b92915050565b60006020828403121561017657600080fd5b60006101848482850161014f565b91505092915050565b61019681610237565b82525050565b6101a581610243565b82525050565b60006020820190506101c0600083018461018d565b92915050565b60006020820190506101db600083018461019c565b92915050565b60006101ec82610243565b91506101f783610243565b9250827fffffffffffffffffffffffffffffffffffffffffffffffffffffffffffffffff0382111561022c5761022b6102c7565b5b828201905092915050565b60008115159050919050565b6000819050919050565b600061025882610243565b91507fffffffffffffffffffffffffffffffffffffffffffffffffffffffffffffffff82141561028b5761028a6102c7565b5b600182019050919050565b60006102a182610243565b91506102ac83610243565b9250826102bc576102bb6102f6565b5b828206905092915050565b7f4e487b7100000000000000000000000000000000000000000000000000000000600052601160045260246000fd5b7f4e487b7100000000000000000000000000000000000000000000000000000000600052601260045260246000fd5b61032e81610243565b811461033957600080fd5b5056fea264697066735822122000cfd25cb1e4630515055707c1e8da976dbd45d152a47c32785ef0efdec3724464736f6c63430008000033",
					"opcodes": "PUSH1 0x80 PUSH1 0x40 MSTORE PUSH1 0x40 MLOAD DUP1 PUSH2 0x140 ADD PUSH1 0x40 MSTORE DUP1 PUSH1 0x1 PUSH1 0xFF AND DUP2 MSTORE PUSH1 0x20 ADD PUSH1 0x2 PUSH1 0xFF AND DUP2 MSTORE PUSH1 0x20 ADD PUSH1 0x3 PUSH1 0xFF AND DUP2 MSTORE PUSH1 0x20 ADD PUSH1 0x4 PUSH1 0xFF AND DUP2 MSTORE PUSH1 0x20 ADD PUSH1 0x5 PUSH1 0xFF AND DUP2 MSTORE PUSH1 0x20 ADD PUSH1 0x6 PUSH1 0xFF AND DUP2 MSTORE PUSH1 0x20 ADD PUSH1 0x7 PUSH1 0xFF AND DUP2 MSTORE PUSH1 0x20 ADD PUSH1 0x8 PUSH1 0xFF AND DUP2 MSTORE PUSH1 0x20 ADD PUSH1 0x9 PUSH1 0xFF AND DUP2 MSTORE PUSH1 0x20 ADD PUSH1 0xA PUSH1 0xFF AND DUP2 MSTORE POP PUSH1 0x0 SWAP1 PUSH1 0xA PUSH2 0x82 SWAP3 SWAP2 SWAP1 PUSH2 0x95 JUMP JUMPDEST POP CALLVALUE DUP1 ISZERO PUSH2 0x8F JUMPI PUSH1 0x0 DUP1 REVERT JUMPDEST POP PUSH2 0x104 JUMP JUMPDEST DUP3 DUP1 SLOAD DUP3 DUP3 SSTORE SWAP1 PUSH1 0x0 MSTORE PUSH1 0x20 PUSH1 0x0 KECCAK256 SWAP1 DUP2 ADD SWAP3 DUP3 ISZERO PUSH2 0xD6 JUMPI SWAP2 PUSH1 0x20 MUL DUP3 ADD JUMPDEST DUP3 DUP2 GT ISZERO PUSH2 0xD5 JUMPI DUP3 MLOAD DUP3 SWAP1 PUSH1 0xFF AND SWAP1 SSTORE SWAP2 PUSH1 0x20 ADD SWAP2 SWAP1 PUSH1 0x1 ADD SWAP1 PUSH2 0xB5 JUMP JUMPDEST JUMPDEST POP SWAP1 POP PUSH2 0xE3 SWAP2 SWAP1 PUSH2 0xE7 JUMP JUMPDEST POP SWAP1 JUMP JUMPDEST JUMPDEST DUP1 DUP3 GT ISZERO PUSH2 0x100 JUMPI PUSH1 0x0 DUP2 PUSH1 0x0 SWAP1 SSTORE POP PUSH1 0x1 ADD PUSH2 0xE8 JUMP JUMPDEST POP SWAP1 JUMP JUMPDEST PUSH2 0x372 DUP1 PUSH2 0x113 PUSH1 0x0 CODECOPY PUSH1 0x0 RETURN INVALID PUSH1 0x80 PUSH1 0x40 MSTORE CALLVALUE DUP1 ISZERO PUSH2 0x10 JUMPI PUSH1 0x0 DUP1 REVERT JUMPDEST POP PUSH1 0x4 CALLDATASIZE LT PUSH2 0x41 JUMPI PUSH1 0x0 CALLDATALOAD PUSH1 0xE0 SHR DUP1 PUSH4 0x9DCCCF04 EQ PUSH2 0x46 JUMPI DUP1 PUSH4 0xD39FA233 EQ PUSH2 0x64 JUMPI DUP1 PUSH4 0xE5054C69 EQ PUSH2 0x94 JUMPI JUMPDEST PUSH1 0x0 DUP1 REVERT JUMPDEST PUSH2 0x4E PUSH2 0xC4 JUMP JUMPDEST PUSH1 0x40 MLOAD PUSH2 0x5B SWAP2 SWAP1 PUSH2 0x1C6 JUMP JUMPDEST PUSH1 0x40 MLOAD DUP1 SWAP2 SUB SWAP1 RETURN JUMPDEST PUSH2 0x7E PUSH1 0x4 DUP1 CALLDATASIZE SUB DUP2 ADD SWAP1 PUSH2 0x79 SWAP2 SWAP1 PUSH2 0x164 JUMP JUMPDEST PUSH2 0x102 JUMP JUMPDEST PUSH1 0x40 MLOAD PUSH2 0x8B SWAP2 SWAP1 PUSH2 0x1C6 JUMP JUMPDEST PUSH1 0x40 MLOAD DUP1 SWAP2 SUB SWAP1 RETURN JUMPDEST PUSH2 0xAE PUSH1 0x4 DUP1 CALLDATASIZE SUB DUP2 ADD SWAP1 PUSH2 0xA9 SWAP2 SWAP1 PUSH2 0x164 JUMP JUMPDEST PUSH2 0x126 JUMP JUMPDEST PUSH1 0x40 MLOAD PUSH2 0xBB SWAP2 SWAP1 PUSH2 0x1AB JUMP JUMPDEST PUSH1 0x40 MLOAD DUP1 SWAP2 SUB SWAP1 RETURN JUMPDEST PUSH1 0x0 DUP1 PUSH1 0x0 SWAP1 POP PUSH1 0x0 JUMPDEST PUSH1 0x0 DUP1 SLOAD SWAP1 POP DUP2 LT ISZERO PUSH2 0xFD JUMPI PUSH1 0x1 DUP3 PUSH2 0xE8 SWAP2 SWAP1 PUSH2 0x1E1 JUMP JUMPDEST SWAP2 POP DUP1 DUP1 PUSH2 0xF5 SWAP1 PUSH2 0x24D JUMP JUMPDEST SWAP2 POP POP PUSH2 0xCE JUMP JUMPDEST POP POP SWAP1 JUMP JUMPDEST PUSH1 0x0 DUP2 DUP2 SLOAD DUP2 LT PUSH2 0x112 JUMPI PUSH1 0x0 DUP1 REVERT JUMPDEST SWAP1 PUSH1 0x0 MSTORE PUSH1 0x20 PUSH1 0x0 KECCAK256 ADD PUSH1 0x0 SWAP2 POP SWAP1 POP SLOAD DUP2 JUMP JUMPDEST PUSH1 0x0 DUP1 PUSH1 0x2 DUP4 PUSH2 0x136 SWAP2 SWAP1 PUSH2 0x296 JUMP JUMPDEST EQ ISZERO PUSH2 0x145 JUMPI PUSH1 0x1 SWAP1 POP PUSH2 0x14A JUMP JUMPDEST PUSH1 0x0 SWAP1 POP JUMPDEST SWAP2 SWAP1 POP JUMP JUMPDEST PUSH1 0x0 DUP2 CALLDATALOAD SWAP1 POP PUSH2 0x15E DUP2 PUSH2 0x325 JUMP JUMPDEST SWAP3 SWAP2 POP POP JUMP JUMPDEST PUSH1 0x0 PUSH1 0x20 DUP3 DUP5 SUB SLT ISZERO PUSH2 0x176 JUMPI PUSH1 0x0 DUP1 REVERT JUMPDEST PUSH1 0x0 PUSH2 0x184 DUP5 DUP3 DUP6 ADD PUSH2 0x14F JUMP JUMPDEST SWAP2 POP POP SWAP3 SWAP2 POP POP JUMP JUMPDEST PUSH2 0x196 DUP2 PUSH2 0x237 JUMP JUMPDEST DUP3 MSTORE POP POP JUMP JUMPDEST PUSH2 0x1A5 DUP2 PUSH2 0x243 JUMP JUMPDEST DUP3 MSTORE POP POP JUMP JUMPDEST PUSH1 0x0 PUSH1 0x20 DUP3 ADD SWAP1 POP PUSH2 0x1C0 PUSH1 0x0 DUP4 ADD DUP5 PUSH2 0x18D JUMP JUMPDEST SWAP3 SWAP2 POP POP JUMP JUMPDEST PUSH1 0x0 PUSH1 0x20 DUP3 ADD SWAP1 POP PUSH2 0x1DB PUSH1 0x0 DUP4 ADD DUP5 PUSH2 0x19C JUMP JUMPDEST SWAP3 SWAP2 POP POP JUMP JUMPDEST PUSH1 0x0 PUSH2 0x1EC DUP3 PUSH2 0x243 JUMP JUMPDEST SWAP2 POP PUSH2 0x1F7 DUP4 PUSH2 0x243 JUMP JUMPDEST SWAP3 POP DUP3 PUSH32 0xFFFFFFFFFFFFFFFFFFFFFFFFFFFFFFFFFFFFFFFFFFFFFFFFFFFFFFFFFFFFFFFF SUB DUP3 GT ISZERO PUSH2 0x22C JUMPI PUSH2 0x22B PUSH2 0x2C7 JUMP JUMPDEST JUMPDEST DUP3 DUP3 ADD SWAP1 POP SWAP3 SWAP2 POP POP JUMP JUMPDEST PUSH1 0x0 DUP2 ISZERO ISZERO SWAP1 POP SWAP2 SWAP1 POP JUMP JUMPDEST PUSH1 0x0 DUP2 SWAP1 POP SWAP2 SWAP1 POP JUMP JUMPDEST PUSH1 0x0 PUSH2 0x258 DUP3 PUSH2 0x243 JUMP JUMPDEST SWAP2 POP PUSH32 0xFFFFFFFFFFFFFFFFFFFFFFFFFFFFFFFFFFFFFFFFFFFFFFFFFFFFFFFFFFFFFFFF DUP3 EQ ISZERO PUSH2 0x28B JUMPI PUSH2 0x28A PUSH2 0x2C7 JUMP JUMPDEST JUMPDEST PUSH1 0x1 DUP3 ADD SWAP1 POP SWAP2 SWAP1 POP JUMP JUMPDEST PUSH1 0x0 PUSH2 0x2A1 DUP3 PUSH2 0x243 JUMP JUMPDEST SWAP2 POP PUSH2 0x2AC DUP4 PUSH2 0x243 JUMP JUMPDEST SWAP3 POP DUP3 PUSH2 0x2BC JUMPI PUSH2 0x2BB PUSH2 0x2F6 JUMP JUMPDEST JUMPDEST DUP3 DUP3 MOD SWAP1 POP SWAP3 SWAP2 POP POP JUMP JUMPDEST PUSH32 0x4E487B7100000000000000000000000000000000000000000000000000000000 PUSH1 0x0 MSTORE PUSH1 0x11 PUSH1 0x4 MSTORE PUSH1 0x24 PUSH1 0x0 REVERT JUMPDEST PUSH32 0x4E487B7100000000000000000000000000000000000000000000000000000000 PUSH1 0x0 MSTORE PUSH1 0x12 PUSH1 0x4 MSTORE PUSH1 0x24 PUSH1 0x0 REVERT JUMPDEST PUSH2 0x32E DUP2 PUSH2 0x243 JUMP JUMPDEST DUP2 EQ PUSH2 0x339 JUMPI PUSH1 0x0 DUP1 REVERT JUMPDEST POP JUMP INVALID LOG2 PUSH5 0x6970667358 0x22 SLT KECCAK256 STOP 0xCF 0xD2 0x5C 0xB1 0xE4 PUSH4 0x5150557 SMOD 0xC1 0xE8 0xDA SWAP8 PUSH14 0xBD45D152A47C32785EF0EFDEC372 DIFFICULTY PUSH5 0x736F6C6343 STOP ADDMOD STOP STOP CALLER "
				},
				"gasEstimates": {
					"creation": {
						"codeDepositCost": "176400",
						"executionCost": "infinite",
						"totalCost": "infinite"
					},
					"external": {
						"countEvenNumber()": "infinite",
						"isEvenNumber(uint256)": "infinite",
						"numbers(uint256)": "infinite"
					}
				},
				"methodIdentifiers": {
					"countEvenNumber()": "9dcccf04",
					"isEvenNumber(uint256)": "e5054c69",
					"numbers(uint256)": "d39fa233"
				}
			},
			"storageLayout": {
				"storage": [
					{
						"astId": 15,
						"contract": "contracts/Loops.sol:MyContract",
						"label": "numbers",
						"offset": 0,
						"slot": "0",
						"type": "t_array(t_uint256)dyn_storage"
					}
				],
				"types": {
					"t_array(t_uint256)dyn_storage": {
						"base": "t_uint256",
						"encoding": "dynamic_array",
						"label": "uint256[]",
						"numberOfBytes": "32"
					},
					"t_uint256": {
						"encoding": "inplace",
						"label": "uint256",
						"numberOfBytes": "32"
					}
				}
			},
			"userdoc": {
				"kind": "user",
				"methods": {},
				"version": 1
			}
		}
	}
}