{
	"contracts/Loops.sol": {
		"MyContract": {
			"abi": [
				{
					"inputs": [],
					"stateMutability": "nonpayable",
					"type": "constructor"
				},
				{
					"inputs": [],
					"name": "countEvenNumber",
					"outputs": [
						{
							"internalType": "uint256",
							"name": "",
							"type": "uint256"
						}
					],
					"stateMutability": "view",
					"type": "function"
				},
				{
					"inputs": [
						{
							"internalType": "uint256",
							"name": "_number",
							"type": "uint256"
						}
					],
					"name": "isEvenNumber",
					"outputs": [
						{
							"internalType": "bool",
							"name": "",
							"type": "bool"
						}
					],
					"stateMutability": "view",
					"type": "function"
				},
				{
					"inputs": [
						{
							"internalType": "uint256",
							"name": "",
							"type": "uint256"
						}
					],
					"name": "numbers",
					"outputs": [
						{
							"internalType": "uint256",
							"name": "",
							"type": "uint256"
						}
					],
					"stateMutability": "view",
					"type": "function"
				},
				{
					"inputs": [],
					"name": "owner",
					"outputs": [
						{
							"internalType": "address",
							"name": "",
							"type": "address"
						}
					],
					"stateMutability": "view",
					"type": "function"
				}
			],
			"devdoc": {
				"kind": "dev",
				"methods": {},
				"version": 1
			},
			"evm": {
				"assembly": "    /* \"contracts/Loops.sol\":66:707  contract MyContract {\r... */\n  mstore(0x40, 0x80)\n    /* \"contracts/Loops.sol\":120:174  uint[] public numbers =[1, 2, 3, 4, 5, 6, 7, 8, 9, 10] */\n  mload(0x40)\n  dup1\n  0x0140\n  add\n  0x40\n  mstore\n  dup1\n    /* \"contracts/Loops.sol\":144:145  1 */\n  0x01\n    /* \"contracts/Loops.sol\":120:174  uint[] public numbers =[1, 2, 3, 4, 5, 6, 7, 8, 9, 10] */\n  0xff\n  and\n  dup2\n  mstore\n  0x20\n  add\n    /* \"contracts/Loops.sol\":147:148  2 */\n  0x02\n    /* \"contracts/Loops.sol\":120:174  uint[] public numbers =[1, 2, 3, 4, 5, 6, 7, 8, 9, 10] */\n  0xff\n  and\n  dup2\n  mstore\n  0x20\n  add\n    /* \"contracts/Loops.sol\":150:151  3 */\n  0x03\n    /* \"contracts/Loops.sol\":120:174  uint[] public numbers =[1, 2, 3, 4, 5, 6, 7, 8, 9, 10] */\n  0xff\n  and\n  dup2\n  mstore\n  0x20\n  add\n    /* \"contracts/Loops.sol\":153:154  4 */\n  0x04\n    /* \"contracts/Loops.sol\":120:174  uint[] public numbers =[1, 2, 3, 4, 5, 6, 7, 8, 9, 10] */\n  0xff\n  and\n  dup2\n  mstore\n  0x20\n  add\n    /* \"contracts/Loops.sol\":156:157  5 */\n  0x05\n    /* \"contracts/Loops.sol\":120:174  uint[] public numbers =[1, 2, 3, 4, 5, 6, 7, 8, 9, 10] */\n  0xff\n  and\n  dup2\n  mstore\n  0x20\n  add\n    /* \"contracts/Loops.sol\":159:160  6 */\n  0x06\n    /* \"contracts/Loops.sol\":120:174  uint[] public numbers =[1, 2, 3, 4, 5, 6, 7, 8, 9, 10] */\n  0xff\n  and\n  dup2\n  mstore\n  0x20\n  add\n    /* \"contracts/Loops.sol\":162:163  7 */\n  0x07\n    /* \"contracts/Loops.sol\":120:174  uint[] public numbers =[1, 2, 3, 4, 5, 6, 7, 8, 9, 10] */\n  0xff\n  and\n  dup2\n  mstore\n  0x20\n  add\n    /* \"contracts/Loops.sol\":165:166  8 */\n  0x08\n    /* \"contracts/Loops.sol\":120:174  uint[] public numbers =[1, 2, 3, 4, 5, 6, 7, 8, 9, 10] */\n  0xff\n  and\n  dup2\n  mstore\n  0x20\n  add\n    /* \"contracts/Loops.sol\":168:169  9 */\n  0x09\n    /* \"contracts/Loops.sol\":120:174  uint[] public numbers =[1, 2, 3, 4, 5, 6, 7, 8, 9, 10] */\n  0xff\n  and\n  dup2\n  mstore\n  0x20\n  add\n    /* \"contracts/Loops.sol\":171:173  10 */\n  0x0a\n    /* \"contracts/Loops.sol\":120:174  uint[] public numbers =[1, 2, 3, 4, 5, 6, 7, 8, 9, 10] */\n  0xff\n  and\n  dup2\n  mstore\n  pop\n  0x00\n  swap1\n  0x0a\n  tag_1\n  swap3\n  swap2\n  swap1\n  tag_2\n  jump\t// in\ntag_1:\n  pop\n    /* \"contracts/Loops.sol\":206:251  constructor(){\r... */\n  callvalue\n  dup1\n  iszero\n  tag_3\n  jumpi\n  0x00\n  dup1\n  revert\ntag_3:\n  pop\n    /* \"contracts/Loops.sol\":234:244  msg.sender */\n  caller\n    /* \"contracts/Loops.sol\":226:231  owner */\n  0x01\n  0x00\n    /* \"contracts/Loops.sol\":226:244  owner = msg.sender */\n  0x0100\n  exp\n  dup2\n  sload\n  dup2\n  0xffffffffffffffffffffffffffffffffffffffff\n  mul\n  not\n  and\n  swap1\n  dup4\n  0xffffffffffffffffffffffffffffffffffffffff\n  and\n  mul\n  or\n  swap1\n  sstore\n  pop\n    /* \"contracts/Loops.sol\":66:707  contract MyContract {\r... */\n  jump(tag_6)\ntag_2:\n  dup3\n  dup1\n  sload\n  dup3\n  dup3\n  sstore\n  swap1\n  0x00\n  mstore\n  keccak256(0x00, 0x20)\n  swap1\n  dup2\n  add\n  swap3\n  dup3\n  iszero\n  tag_7\n  jumpi\n  swap2\n  0x20\n  mul\n  dup3\n  add\ntag_8:\n  dup3\n  dup2\n  gt\n  iszero\n  tag_9\n  jumpi\n  dup3\n  mload\n  dup3\n  swap1\n  0xff\n  and\n  swap1\n  sstore\n  swap2\n  0x20\n  add\n  swap2\n  swap1\n  0x01\n  add\n  swap1\n  jump(tag_8)\ntag_9:\ntag_7:\n  pop\n  swap1\n  pop\n  tag_10\n  swap2\n  swap1\n  tag_11\n  jump\t// in\ntag_10:\n  pop\n  swap1\n  jump\t// out\ntag_11:\ntag_12:\n  dup1\n  dup3\n  gt\n  iszero\n  tag_13\n  jumpi\n  0x00\n  dup2\n  0x00\n  swap1\n  sstore\n  pop\n  0x01\n  add\n  jump(tag_12)\ntag_13:\n  pop\n  swap1\n  jump\t// out\ntag_6:\n  dataSize(sub_0)\n  dup1\n  dataOffset(sub_0)\n  0x00\n  codecopy\n  0x00\n  return\nstop\n\nsub_0: assembly {\n        /* \"contracts/Loops.sol\":66:707  contract MyContract {\r... */\n      mstore(0x40, 0x80)\n      callvalue\n      dup1\n      iszero\n      tag_1\n      jumpi\n      0x00\n      dup1\n      revert\n    tag_1:\n      pop\n      jumpi(tag_2, lt(calldatasize, 0x04))\n      shr(0xe0, calldataload(0x00))\n      dup1\n      0x8da5cb5b\n      eq\n      tag_3\n      jumpi\n      dup1\n      0x9dcccf04\n      eq\n      tag_4\n      jumpi\n      dup1\n      0xd39fa233\n      eq\n      tag_5\n      jumpi\n      dup1\n      0xe5054c69\n      eq\n      tag_6\n      jumpi\n    tag_2:\n      0x00\n      dup1\n      revert\n        /* \"contracts/Loops.sol\":179:199  address public owner */\n    tag_3:\n      tag_7\n      tag_8\n      jump\t// in\n    tag_7:\n      mload(0x40)\n      tag_9\n      swap2\n      swap1\n      tag_10\n      jump\t// in\n    tag_9:\n      mload(0x40)\n      dup1\n      swap2\n      sub\n      swap1\n      return\n        /* \"contracts/Loops.sol\":259:509  function countEvenNumber() public view returns(uint){\r... */\n    tag_4:\n      tag_11\n      tag_12\n      jump\t// in\n    tag_11:\n      mload(0x40)\n      tag_13\n      swap2\n      swap1\n      tag_14\n      jump\t// in\n    tag_13:\n      mload(0x40)\n      dup1\n      swap2\n      sub\n      swap1\n      return\n        /* \"contracts/Loops.sol\":120:174  uint[] public numbers =[1, 2, 3, 4, 5, 6, 7, 8, 9, 10] */\n    tag_5:\n      tag_15\n      0x04\n      dup1\n      calldatasize\n      sub\n      dup2\n      add\n      swap1\n      tag_16\n      swap2\n      swap1\n      tag_17\n      jump\t// in\n    tag_16:\n      tag_18\n      jump\t// in\n    tag_15:\n      mload(0x40)\n      tag_19\n      swap2\n      swap1\n      tag_14\n      jump\t// in\n    tag_19:\n      mload(0x40)\n      dup1\n      swap2\n      sub\n      swap1\n      return\n        /* \"contracts/Loops.sol\":516:694  function isEvenNumber(uint _number) public view returns(bool){\r... */\n    tag_6:\n      tag_20\n      0x04\n      dup1\n      calldatasize\n      sub\n      dup2\n      add\n      swap1\n      tag_21\n      swap2\n      swap1\n      tag_17\n      jump\t// in\n    tag_21:\n      tag_22\n      jump\t// in\n    tag_20:\n      mload(0x40)\n      tag_23\n      swap2\n      swap1\n      tag_24\n      jump\t// in\n    tag_23:\n      mload(0x40)\n      dup1\n      swap2\n      sub\n      swap1\n      return\n        /* \"contracts/Loops.sol\":179:199  address public owner */\n    tag_8:\n      0x01\n      0x00\n      swap1\n      sload\n      swap1\n      0x0100\n      exp\n      swap1\n      div\n      0xffffffffffffffffffffffffffffffffffffffff\n      and\n      dup2\n      jump\t// out\n        /* \"contracts/Loops.sol\":259:509  function countEvenNumber() public view returns(uint){\r... */\n    tag_12:\n        /* \"contracts/Loops.sol\":306:310  uint */\n      0x00\n        /* \"contracts/Loops.sol\":320:330  uint count */\n      dup1\n        /* \"contracts/Loops.sol\":333:334  0 */\n      0x00\n        /* \"contracts/Loops.sol\":320:334  uint count = 0 */\n      swap1\n      pop\n        /* \"contracts/Loops.sol\":349:355  uint i */\n      0x00\n        /* \"contracts/Loops.sol\":345:482  for(uint i = 0; i < numbers.length; i++){\r... */\n    tag_26:\n        /* \"contracts/Loops.sol\":365:372  numbers */\n      0x00\n        /* \"contracts/Loops.sol\":365:379  numbers.length */\n      dup1\n      sload\n      swap1\n      pop\n        /* \"contracts/Loops.sol\":361:362  i */\n      dup2\n        /* \"contracts/Loops.sol\":361:379  i < numbers.length */\n      lt\n        /* \"contracts/Loops.sol\":345:482  for(uint i = 0; i < numbers.length; i++){\r... */\n      iszero\n      tag_27\n      jumpi\n        /* \"contracts/Loops.sol\":401:425  isEvenNumber(numbers[i]) */\n      tag_29\n        /* \"contracts/Loops.sol\":414:421  numbers */\n      0x00\n        /* \"contracts/Loops.sol\":422:423  i */\n      dup3\n        /* \"contracts/Loops.sol\":414:424  numbers[i] */\n      dup2\n      sload\n      dup2\n      lt\n      tag_30\n      jumpi\n      mstore(0x00, 0x4e487b7100000000000000000000000000000000000000000000000000000000)\n      mstore(0x04, 0x32)\n      revert(0x00, 0x24)\n    tag_30:\n      swap1\n      0x00\n      mstore\n      keccak256(0x00, 0x20)\n      add\n      sload\n        /* \"contracts/Loops.sol\":401:413  isEvenNumber */\n      tag_22\n        /* \"contracts/Loops.sol\":401:425  isEvenNumber(numbers[i]) */\n      jump\t// in\n    tag_29:\n        /* \"contracts/Loops.sol\":398:464  if(isEvenNumber(numbers[i])){\r... */\n      iszero\n      tag_32\n      jumpi\n        /* \"contracts/Loops.sol\":443:450  count++ */\n      dup2\n      dup1\n      tag_33\n      swap1\n      tag_34\n      jump\t// in\n    tag_33:\n      swap3\n      pop\n      pop\n        /* \"contracts/Loops.sol\":398:464  if(isEvenNumber(numbers[i])){\r... */\n    tag_32:\n        /* \"contracts/Loops.sol\":381:384  i++ */\n      dup1\n      dup1\n      tag_35\n      swap1\n      tag_34\n      jump\t// in\n    tag_35:\n      swap2\n      pop\n      pop\n        /* \"contracts/Loops.sol\":345:482  for(uint i = 0; i < numbers.length; i++){\r... */\n      jump(tag_26)\n    tag_27:\n      pop\n        /* \"contracts/Loops.sol\":498:503  count */\n      dup1\n        /* \"contracts/Loops.sol\":491:503  return count */\n      swap2\n      pop\n      pop\n        /* \"contracts/Loops.sol\":259:509  function countEvenNumber() public view returns(uint){\r... */\n      swap1\n      jump\t// out\n        /* \"contracts/Loops.sol\":120:174  uint[] public numbers =[1, 2, 3, 4, 5, 6, 7, 8, 9, 10] */\n    tag_18:\n      0x00\n      dup2\n      dup2\n      sload\n      dup2\n      lt\n      tag_36\n      jumpi\n      0x00\n      dup1\n      revert\n    tag_36:\n      swap1\n      0x00\n      mstore\n      keccak256(0x00, 0x20)\n      add\n      0x00\n      swap2\n      pop\n      swap1\n      pop\n      sload\n      dup2\n      jump\t// out\n        /* \"contracts/Loops.sol\":516:694  function isEvenNumber(uint _number) public view returns(bool){\r... */\n    tag_22:\n        /* \"contracts/Loops.sol\":572:576  bool */\n      0x00\n        /* \"contracts/Loops.sol\":605:606  0 */\n      dup1\n        /* \"contracts/Loops.sol\":600:601  2 */\n      0x02\n        /* \"contracts/Loops.sol\":590:597  _number */\n      dup4\n        /* \"contracts/Loops.sol\":590:601  _number % 2 */\n      tag_39\n      swap2\n      swap1\n      tag_40\n      jump\t// in\n    tag_39:\n        /* \"contracts/Loops.sol\":590:606  _number % 2 == 0 */\n      eq\n        /* \"contracts/Loops.sol\":587:688  if(_number % 2 == 0){\r... */\n      iszero\n      tag_41\n      jumpi\n        /* \"contracts/Loops.sol\":628:632  true */\n      0x01\n        /* \"contracts/Loops.sol\":621:632  return true */\n      swap1\n      pop\n      jump(tag_38)\n        /* \"contracts/Loops.sol\":587:688  if(_number % 2 == 0){\r... */\n    tag_41:\n        /* \"contracts/Loops.sol\":672:677  false */\n      0x00\n        /* \"contracts/Loops.sol\":665:677  return false */\n      swap1\n      pop\n        /* \"contracts/Loops.sol\":516:694  function isEvenNumber(uint _number) public view returns(bool){\r... */\n    tag_38:\n      swap2\n      swap1\n      pop\n      jump\t// out\n        /* \"#utility.yul\":7:146   */\n    tag_44:\n      0x00\n        /* \"#utility.yul\":91:97   */\n      dup2\n        /* \"#utility.yul\":78:98   */\n      calldataload\n        /* \"#utility.yul\":69:98   */\n      swap1\n      pop\n        /* \"#utility.yul\":107:140   */\n      tag_46\n        /* \"#utility.yul\":134:139   */\n      dup2\n        /* \"#utility.yul\":107:140   */\n      tag_47\n      jump\t// in\n    tag_46:\n        /* \"#utility.yul\":59:146   */\n      swap3\n      swap2\n      pop\n      pop\n      jump\t// out\n        /* \"#utility.yul\":152:414   */\n    tag_17:\n      0x00\n        /* \"#utility.yul\":260:262   */\n      0x20\n        /* \"#utility.yul\":248:257   */\n      dup3\n        /* \"#utility.yul\":239:246   */\n      dup5\n        /* \"#utility.yul\":235:258   */\n      sub\n        /* \"#utility.yul\":231:263   */\n      slt\n        /* \"#utility.yul\":228:230   */\n      iszero\n      tag_49\n      jumpi\n        /* \"#utility.yul\":276:277   */\n      0x00\n        /* \"#utility.yul\":273:274   */\n      dup1\n        /* \"#utility.yul\":266:278   */\n      revert\n        /* \"#utility.yul\":228:230   */\n    tag_49:\n        /* \"#utility.yul\":319:320   */\n      0x00\n        /* \"#utility.yul\":344:397   */\n      tag_50\n        /* \"#utility.yul\":389:396   */\n      dup5\n        /* \"#utility.yul\":380:386   */\n      dup3\n        /* \"#utility.yul\":369:378   */\n      dup6\n        /* \"#utility.yul\":365:387   */\n      add\n        /* \"#utility.yul\":344:397   */\n      tag_44\n      jump\t// in\n    tag_50:\n        /* \"#utility.yul\":334:397   */\n      swap2\n      pop\n        /* \"#utility.yul\":290:407   */\n      pop\n        /* \"#utility.yul\":218:414   */\n      swap3\n      swap2\n      pop\n      pop\n      jump\t// out\n        /* \"#utility.yul\":420:538   */\n    tag_51:\n        /* \"#utility.yul\":507:531   */\n      tag_53\n        /* \"#utility.yul\":525:530   */\n      dup2\n        /* \"#utility.yul\":507:531   */\n      tag_54\n      jump\t// in\n    tag_53:\n        /* \"#utility.yul\":502:505   */\n      dup3\n        /* \"#utility.yul\":495:532   */\n      mstore\n        /* \"#utility.yul\":485:538   */\n      pop\n      pop\n      jump\t// out\n        /* \"#utility.yul\":544:653   */\n    tag_55:\n        /* \"#utility.yul\":625:646   */\n      tag_57\n        /* \"#utility.yul\":640:645   */\n      dup2\n        /* \"#utility.yul\":625:646   */\n      tag_58\n      jump\t// in\n    tag_57:\n        /* \"#utility.yul\":620:623   */\n      dup3\n        /* \"#utility.yul\":613:647   */\n      mstore\n        /* \"#utility.yul\":603:653   */\n      pop\n      pop\n      jump\t// out\n        /* \"#utility.yul\":659:777   */\n    tag_59:\n        /* \"#utility.yul\":746:770   */\n      tag_61\n        /* \"#utility.yul\":764:769   */\n      dup2\n        /* \"#utility.yul\":746:770   */\n      tag_62\n      jump\t// in\n    tag_61:\n        /* \"#utility.yul\":741:744   */\n      dup3\n        /* \"#utility.yul\":734:771   */\n      mstore\n        /* \"#utility.yul\":724:777   */\n      pop\n      pop\n      jump\t// out\n        /* \"#utility.yul\":783:1005   */\n    tag_10:\n      0x00\n        /* \"#utility.yul\":914:916   */\n      0x20\n        /* \"#utility.yul\":903:912   */\n      dup3\n        /* \"#utility.yul\":899:917   */\n      add\n        /* \"#utility.yul\":891:917   */\n      swap1\n      pop\n        /* \"#utility.yul\":927:998   */\n      tag_64\n        /* \"#utility.yul\":995:996   */\n      0x00\n        /* \"#utility.yul\":984:993   */\n      dup4\n        /* \"#utility.yul\":980:997   */\n      add\n        /* \"#utility.yul\":971:977   */\n      dup5\n        /* \"#utility.yul\":927:998   */\n      tag_51\n      jump\t// in\n    tag_64:\n        /* \"#utility.yul\":881:1005   */\n      swap3\n      swap2\n      pop\n      pop\n      jump\t// out\n        /* \"#utility.yul\":1011:1221   */\n    tag_24:\n      0x00\n        /* \"#utility.yul\":1136:1138   */\n      0x20\n        /* \"#utility.yul\":1125:1134   */\n      dup3\n        /* \"#utility.yul\":1121:1139   */\n      add\n        /* \"#utility.yul\":1113:1139   */\n      swap1\n      pop\n        /* \"#utility.yul\":1149:1214   */\n      tag_66\n        /* \"#utility.yul\":1211:1212   */\n      0x00\n        /* \"#utility.yul\":1200:1209   */\n      dup4\n        /* \"#utility.yul\":1196:1213   */\n      add\n        /* \"#utility.yul\":1187:1193   */\n      dup5\n        /* \"#utility.yul\":1149:1214   */\n      tag_55\n      jump\t// in\n    tag_66:\n        /* \"#utility.yul\":1103:1221   */\n      swap3\n      swap2\n      pop\n      pop\n      jump\t// out\n        /* \"#utility.yul\":1227:1449   */\n    tag_14:\n      0x00\n        /* \"#utility.yul\":1358:1360   */\n      0x20\n        /* \"#utility.yul\":1347:1356   */\n      dup3\n        /* \"#utility.yul\":1343:1361   */\n      add\n        /* \"#utility.yul\":1335:1361   */\n      swap1\n      pop\n        /* \"#utility.yul\":1371:1442   */\n      tag_68\n        /* \"#utility.yul\":1439:1440   */\n      0x00\n        /* \"#utility.yul\":1428:1437   */\n      dup4\n        /* \"#utility.yul\":1424:1441   */\n      add\n        /* \"#utility.yul\":1415:1421   */\n      dup5\n        /* \"#utility.yul\":1371:1442   */\n      tag_59\n      jump\t// in\n    tag_68:\n        /* \"#utility.yul\":1325:1449   */\n      swap3\n      swap2\n      pop\n      pop\n      jump\t// out\n        /* \"#utility.yul\":1455:1551   */\n    tag_54:\n      0x00\n        /* \"#utility.yul\":1521:1545   */\n      tag_70\n        /* \"#utility.yul\":1539:1544   */\n      dup3\n        /* \"#utility.yul\":1521:1545   */\n      tag_71\n      jump\t// in\n    tag_70:\n        /* \"#utility.yul\":1510:1545   */\n      swap1\n      pop\n        /* \"#utility.yul\":1500:1551   */\n      swap2\n      swap1\n      pop\n      jump\t// out\n        /* \"#utility.yul\":1557:1647   */\n    tag_58:\n      0x00\n        /* \"#utility.yul\":1634:1639   */\n      dup2\n        /* \"#utility.yul\":1627:1640   */\n      iszero\n        /* \"#utility.yul\":1620:1641   */\n      iszero\n        /* \"#utility.yul\":1609:1641   */\n      swap1\n      pop\n        /* \"#utility.yul\":1599:1647   */\n      swap2\n      swap1\n      pop\n      jump\t// out\n        /* \"#utility.yul\":1653:1779   */\n    tag_71:\n      0x00\n        /* \"#utility.yul\":1730:1772   */\n      0xffffffffffffffffffffffffffffffffffffffff\n        /* \"#utility.yul\":1723:1728   */\n      dup3\n        /* \"#utility.yul\":1719:1773   */\n      and\n        /* \"#utility.yul\":1708:1773   */\n      swap1\n      pop\n        /* \"#utility.yul\":1698:1779   */\n      swap2\n      swap1\n      pop\n      jump\t// out\n        /* \"#utility.yul\":1785:1862   */\n    tag_62:\n      0x00\n        /* \"#utility.yul\":1851:1856   */\n      dup2\n        /* \"#utility.yul\":1840:1856   */\n      swap1\n      pop\n        /* \"#utility.yul\":1830:1862   */\n      swap2\n      swap1\n      pop\n      jump\t// out\n        /* \"#utility.yul\":1868:2101   */\n    tag_34:\n      0x00\n        /* \"#utility.yul\":1930:1954   */\n      tag_76\n        /* \"#utility.yul\":1948:1953   */\n      dup3\n        /* \"#utility.yul\":1930:1954   */\n      tag_62\n      jump\t// in\n    tag_76:\n        /* \"#utility.yul\":1921:1954   */\n      swap2\n      pop\n        /* \"#utility.yul\":1976:2042   */\n      0xffffffffffffffffffffffffffffffffffffffffffffffffffffffffffffffff\n        /* \"#utility.yul\":1969:1974   */\n      dup3\n        /* \"#utility.yul\":1966:2043   */\n      eq\n        /* \"#utility.yul\":1963:1965   */\n      iszero\n      tag_77\n      jumpi\n        /* \"#utility.yul\":2046:2064   */\n      tag_78\n      tag_79\n      jump\t// in\n    tag_78:\n        /* \"#utility.yul\":1963:1965   */\n    tag_77:\n        /* \"#utility.yul\":2093:2094   */\n      0x01\n        /* \"#utility.yul\":2086:2091   */\n      dup3\n        /* \"#utility.yul\":2082:2095   */\n      add\n        /* \"#utility.yul\":2075:2095   */\n      swap1\n      pop\n        /* \"#utility.yul\":1911:2101   */\n      swap2\n      swap1\n      pop\n      jump\t// out\n        /* \"#utility.yul\":2107:2283   */\n    tag_40:\n      0x00\n        /* \"#utility.yul\":2156:2176   */\n      tag_81\n        /* \"#utility.yul\":2174:2175   */\n      dup3\n        /* \"#utility.yul\":2156:2176   */\n      tag_62\n      jump\t// in\n    tag_81:\n        /* \"#utility.yul\":2151:2176   */\n      swap2\n      pop\n        /* \"#utility.yul\":2190:2210   */\n      tag_82\n        /* \"#utility.yul\":2208:2209   */\n      dup4\n        /* \"#utility.yul\":2190:2210   */\n      tag_62\n      jump\t// in\n    tag_82:\n        /* \"#utility.yul\":2185:2210   */\n      swap3\n      pop\n        /* \"#utility.yul\":2229:2230   */\n      dup3\n        /* \"#utility.yul\":2219:2221   */\n      tag_83\n      jumpi\n        /* \"#utility.yul\":2234:2252   */\n      tag_84\n      tag_85\n      jump\t// in\n    tag_84:\n        /* \"#utility.yul\":2219:2221   */\n    tag_83:\n        /* \"#utility.yul\":2275:2276   */\n      dup3\n        /* \"#utility.yul\":2272:2273   */\n      dup3\n        /* \"#utility.yul\":2268:2277   */\n      mod\n        /* \"#utility.yul\":2263:2277   */\n      swap1\n      pop\n        /* \"#utility.yul\":2141:2283   */\n      swap3\n      swap2\n      pop\n      pop\n      jump\t// out\n        /* \"#utility.yul\":2289:2469   */\n    tag_79:\n        /* \"#utility.yul\":2337:2414   */\n      0x4e487b7100000000000000000000000000000000000000000000000000000000\n        /* \"#utility.yul\":2334:2335   */\n      0x00\n        /* \"#utility.yul\":2327:2415   */\n      mstore\n        /* \"#utility.yul\":2434:2438   */\n      0x11\n        /* \"#utility.yul\":2431:2432   */\n      0x04\n        /* \"#utility.yul\":2424:2439   */\n      mstore\n        /* \"#utility.yul\":2458:2462   */\n      0x24\n        /* \"#utility.yul\":2455:2456   */\n      0x00\n        /* \"#utility.yul\":2448:2463   */\n      revert\n        /* \"#utility.yul\":2475:2655   */\n    tag_85:\n        /* \"#utility.yul\":2523:2600   */\n      0x4e487b7100000000000000000000000000000000000000000000000000000000\n        /* \"#utility.yul\":2520:2521   */\n      0x00\n        /* \"#utility.yul\":2513:2601   */\n      mstore\n        /* \"#utility.yul\":2620:2624   */\n      0x12\n        /* \"#utility.yul\":2617:2618   */\n      0x04\n        /* \"#utility.yul\":2610:2625   */\n      mstore\n        /* \"#utility.yul\":2644:2648   */\n      0x24\n        /* \"#utility.yul\":2641:2642   */\n      0x00\n        /* \"#utility.yul\":2634:2649   */\n      revert\n        /* \"#utility.yul\":2661:2783   */\n    tag_47:\n        /* \"#utility.yul\":2734:2758   */\n      tag_89\n        /* \"#utility.yul\":2752:2757   */\n      dup2\n        /* \"#utility.yul\":2734:2758   */\n      tag_62\n      jump\t// in\n    tag_89:\n        /* \"#utility.yul\":2727:2732   */\n      dup2\n        /* \"#utility.yul\":2724:2759   */\n      eq\n        /* \"#utility.yul\":2714:2716   */\n      tag_90\n      jumpi\n        /* \"#utility.yul\":2773:2774   */\n      0x00\n        /* \"#utility.yul\":2770:2771   */\n      dup1\n        /* \"#utility.yul\":2763:2775   */\n      revert\n        /* \"#utility.yul\":2714:2716   */\n    tag_90:\n        /* \"#utility.yul\":2704:2783   */\n      pop\n      jump\t// out\n\n    auxdata: 0xa2646970667358221220c75e36318097504ebdaa21bbf124fac0fb04786e612d9af54beaac1a2569aa4e64736f6c63430008000033\n}\n",
				"bytecode": {
					"linkReferences": {},
					"object": "6080604052604051806101400160405280600160ff168152602001600260ff168152602001600360ff168152602001600460ff168152602001600560ff168152602001600660ff168152602001600760ff168152602001600860ff168152602001600960ff168152602001600a60ff16815250600090600a6100829291906100d6565b5034801561008f57600080fd5b5033600160006101000a81548173ffffffffffffffffffffffffffffffffffffffff021916908373ffffffffffffffffffffffffffffffffffffffff160217905550610145565b828054828255906000526020600020908101928215610117579160200282015b82811115610116578251829060ff169055916020019190600101906100f6565b5b5090506101249190610128565b5090565b5b80821115610141576000816000905550600101610129565b5090565b61041c806101546000396000f3fe608060405234801561001057600080fd5b506004361061004c5760003560e01c80638da5cb5b146100515780639dcccf041461006f578063d39fa2331461008d578063e5054c69146100bd575b600080fd5b6100596100ed565b604051610066919061025e565b60405180910390f35b610077610113565b6040516100849190610294565b60405180910390f35b6100a760048036038101906100a29190610208565b6101a6565b6040516100b49190610294565b60405180910390f35b6100d760048036038101906100d29190610208565b6101ca565b6040516100e49190610279565b60405180910390f35b600160009054906101000a900473ffffffffffffffffffffffffffffffffffffffff1681565b6000806000905060005b60008054905081101561019e5761017760008281548110610167577f4e487b7100000000000000000000000000000000000000000000000000000000600052603260045260246000fd5b90600052602060002001546101ca565b1561018b578180610187906102f7565b9250505b8080610196906102f7565b91505061011d565b508091505090565b600081815481106101b657600080fd5b906000526020600020016000915090505481565b6000806002836101da9190610340565b14156101e957600190506101ee565b600090505b919050565b600081359050610202816103cf565b92915050565b60006020828403121561021a57600080fd5b6000610228848285016101f3565b91505092915050565b61023a816102af565b82525050565b610249816102c1565b82525050565b610258816102ed565b82525050565b60006020820190506102736000830184610231565b92915050565b600060208201905061028e6000830184610240565b92915050565b60006020820190506102a9600083018461024f565b92915050565b60006102ba826102cd565b9050919050565b60008115159050919050565b600073ffffffffffffffffffffffffffffffffffffffff82169050919050565b6000819050919050565b6000610302826102ed565b91507fffffffffffffffffffffffffffffffffffffffffffffffffffffffffffffffff82141561033557610334610371565b5b600182019050919050565b600061034b826102ed565b9150610356836102ed565b925082610366576103656103a0565b5b828206905092915050565b7f4e487b7100000000000000000000000000000000000000000000000000000000600052601160045260246000fd5b7f4e487b7100000000000000000000000000000000000000000000000000000000600052601260045260246000fd5b6103d8816102ed565b81146103e357600080fd5b5056fea2646970667358221220c75e36318097504ebdaa21bbf124fac0fb04786e612d9af54beaac1a2569aa4e64736f6c63430008000033",
					"opcodes": "PUSH1 0x80 PUSH1 0x40 MSTORE PUSH1 0x40 MLOAD DUP1 PUSH2 0x140 ADD PUSH1 0x40 MSTORE DUP1 PUSH1 0x1 PUSH1 0xFF AND DUP2 MSTORE PUSH1 0x20 ADD PUSH1 0x2 PUSH1 0xFF AND DUP2 MSTORE PUSH1 0x20 ADD PUSH1 0x3 PUSH1 0xFF AND DUP2 MSTORE PUSH1 0x20 ADD PUSH1 0x4 PUSH1 0xFF AND DUP2 MSTORE PUSH1 0x20 ADD PUSH1 0x5 PUSH1 0xFF AND DUP2 MSTORE PUSH1 0x20 ADD PUSH1 0x6 PUSH1 0xFF AND DUP2 MSTORE PUSH1 0x20 ADD PUSH1 0x7 PUSH1 0xFF AND DUP2 MSTORE PUSH1 0x20 ADD PUSH1 0x8 PUSH1 0xFF AND DUP2 MSTORE PUSH1 0x20 ADD PUSH1 0x9 PUSH1 0xFF AND DUP2 MSTORE PUSH1 0x20 ADD PUSH1 0xA PUSH1 0xFF AND DUP2 MSTORE POP PUSH1 0x0 SWAP1 PUSH1 0xA PUSH2 0x82 SWAP3 SWAP2 SWAP1 PUSH2 0xD6 JUMP JUMPDEST POP CALLVALUE DUP1 ISZERO PUSH2 0x8F JUMPI PUSH1 0x0 DUP1 REVERT JUMPDEST POP CALLER PUSH1 0x1 PUSH1 0x0 PUSH2 0x100 EXP DUP2 SLOAD DUP2 PUSH20 0xFFFFFFFFFFFFFFFFFFFFFFFFFFFFFFFFFFFFFFFF MUL NOT AND SWAP1 DUP4 PUSH20 0xFFFFFFFFFFFFFFFFFFFFFFFFFFFFFFFFFFFFFFFF AND MUL OR SWAP1 SSTORE POP PUSH2 0x145 JUMP JUMPDEST DUP3 DUP1 SLOAD DUP3 DUP3 SSTORE SWAP1 PUSH1 0x0 MSTORE PUSH1 0x20 PUSH1 0x0 KECCAK256 SWAP1 DUP2 ADD SWAP3 DUP3 ISZERO PUSH2 0x117 JUMPI SWAP2 PUSH1 0x20 MUL DUP3 ADD JUMPDEST DUP3 DUP2 GT ISZERO PUSH2 0x116 JUMPI DUP3 MLOAD DUP3 SWAP1 PUSH1 0xFF AND SWAP1 SSTORE SWAP2 PUSH1 0x20 ADD SWAP2 SWAP1 PUSH1 0x1 ADD SWAP1 PUSH2 0xF6 JUMP JUMPDEST JUMPDEST POP SWAP1 POP PUSH2 0x124 SWAP2 SWAP1 PUSH2 0x128 JUMP JUMPDEST POP SWAP1 JUMP JUMPDEST JUMPDEST DUP1 DUP3 GT ISZERO PUSH2 0x141 JUMPI PUSH1 0x0 DUP2 PUSH1 0x0 SWAP1 SSTORE POP PUSH1 0x1 ADD PUSH2 0x129 JUMP JUMPDEST POP SWAP1 JUMP JUMPDEST PUSH2 0x41C DUP1 PUSH2 0x154 PUSH1 0x0 CODECOPY PUSH1 0x0 RETURN INVALID PUSH1 0x80 PUSH1 0x40 MSTORE CALLVALUE DUP1 ISZERO PUSH2 0x10 JUMPI PUSH1 0x0 DUP1 REVERT JUMPDEST POP PUSH1 0x4 CALLDATASIZE LT PUSH2 0x4C JUMPI PUSH1 0x0 CALLDATALOAD PUSH1 0xE0 SHR DUP1 PUSH4 0x8DA5CB5B EQ PUSH2 0x51 JUMPI DUP1 PUSH4 0x9DCCCF04 EQ PUSH2 0x6F JUMPI DUP1 PUSH4 0xD39FA233 EQ PUSH2 0x8D JUMPI DUP1 PUSH4 0xE5054C69 EQ PUSH2 0xBD JUMPI JUMPDEST PUSH1 0x0 DUP1 REVERT JUMPDEST PUSH2 0x59 PUSH2 0xED JUMP JUMPDEST PUSH1 0x40 MLOAD PUSH2 0x66 SWAP2 SWAP1 PUSH2 0x25E JUMP JUMPDEST PUSH1 0x40 MLOAD DUP1 SWAP2 SUB SWAP1 RETURN JUMPDEST PUSH2 0x77 PUSH2 0x113 JUMP JUMPDEST PUSH1 0x40 MLOAD PUSH2 0x84 SWAP2 SWAP1 PUSH2 0x294 JUMP JUMPDEST PUSH1 0x40 MLOAD DUP1 SWAP2 SUB SWAP1 RETURN JUMPDEST PUSH2 0xA7 PUSH1 0x4 DUP1 CALLDATASIZE SUB DUP2 ADD SWAP1 PUSH2 0xA2 SWAP2 SWAP1 PUSH2 0x208 JUMP JUMPDEST PUSH2 0x1A6 JUMP JUMPDEST PUSH1 0x40 MLOAD PUSH2 0xB4 SWAP2 SWAP1 PUSH2 0x294 JUMP JUMPDEST PUSH1 0x40 MLOAD DUP1 SWAP2 SUB SWAP1 RETURN JUMPDEST PUSH2 0xD7 PUSH1 0x4 DUP1 CALLDATASIZE SUB DUP2 ADD SWAP1 PUSH2 0xD2 SWAP2 SWAP1 PUSH2 0x208 JUMP JUMPDEST PUSH2 0x1CA JUMP JUMPDEST PUSH1 0x40 MLOAD PUSH2 0xE4 SWAP2 SWAP1 PUSH2 0x279 JUMP JUMPDEST PUSH1 0x40 MLOAD DUP1 SWAP2 SUB SWAP1 RETURN JUMPDEST PUSH1 0x1 PUSH1 0x0 SWAP1 SLOAD SWAP1 PUSH2 0x100 EXP SWAP1 DIV PUSH20 0xFFFFFFFFFFFFFFFFFFFFFFFFFFFFFFFFFFFFFFFF AND DUP2 JUMP JUMPDEST PUSH1 0x0 DUP1 PUSH1 0x0 SWAP1 POP PUSH1 0x0 JUMPDEST PUSH1 0x0 DUP1 SLOAD SWAP1 POP DUP2 LT ISZERO PUSH2 0x19E JUMPI PUSH2 0x177 PUSH1 0x0 DUP3 DUP2 SLOAD DUP2 LT PUSH2 0x167 JUMPI PUSH32 0x4E487B7100000000000000000000000000000000000000000000000000000000 PUSH1 0x0 MSTORE PUSH1 0x32 PUSH1 0x4 MSTORE PUSH1 0x24 PUSH1 0x0 REVERT JUMPDEST SWAP1 PUSH1 0x0 MSTORE PUSH1 0x20 PUSH1 0x0 KECCAK256 ADD SLOAD PUSH2 0x1CA JUMP JUMPDEST ISZERO PUSH2 0x18B JUMPI DUP2 DUP1 PUSH2 0x187 SWAP1 PUSH2 0x2F7 JUMP JUMPDEST SWAP3 POP POP JUMPDEST DUP1 DUP1 PUSH2 0x196 SWAP1 PUSH2 0x2F7 JUMP JUMPDEST SWAP2 POP POP PUSH2 0x11D JUMP JUMPDEST POP DUP1 SWAP2 POP POP SWAP1 JUMP JUMPDEST PUSH1 0x0 DUP2 DUP2 SLOAD DUP2 LT PUSH2 0x1B6 JUMPI PUSH1 0x0 DUP1 REVERT JUMPDEST SWAP1 PUSH1 0x0 MSTORE PUSH1 0x20 PUSH1 0x0 KECCAK256 ADD PUSH1 0x0 SWAP2 POP SWAP1 POP SLOAD DUP2 JUMP JUMPDEST PUSH1 0x0 DUP1 PUSH1 0x2 DUP4 PUSH2 0x1DA SWAP2 SWAP1 PUSH2 0x340 JUMP JUMPDEST EQ ISZERO PUSH2 0x1E9 JUMPI PUSH1 0x1 SWAP1 POP PUSH2 0x1EE JUMP JUMPDEST PUSH1 0x0 SWAP1 POP JUMPDEST SWAP2 SWAP1 POP JUMP JUMPDEST PUSH1 0x0 DUP2 CALLDATALOAD SWAP1 POP PUSH2 0x202 DUP2 PUSH2 0x3CF JUMP JUMPDEST SWAP3 SWAP2 POP POP JUMP JUMPDEST PUSH1 0x0 PUSH1 0x20 DUP3 DUP5 SUB SLT ISZERO PUSH2 0x21A JUMPI PUSH1 0x0 DUP1 REVERT JUMPDEST PUSH1 0x0 PUSH2 0x228 DUP5 DUP3 DUP6 ADD PUSH2 0x1F3 JUMP JUMPDEST SWAP2 POP POP SWAP3 SWAP2 POP POP JUMP JUMPDEST PUSH2 0x23A DUP2 PUSH2 0x2AF JUMP JUMPDEST DUP3 MSTORE POP POP JUMP JUMPDEST PUSH2 0x249 DUP2 PUSH2 0x2C1 JUMP JUMPDEST DUP3 MSTORE POP POP JUMP JUMPDEST PUSH2 0x258 DUP2 PUSH2 0x2ED JUMP JUMPDEST DUP3 MSTORE POP POP JUMP JUMPDEST PUSH1 0x0 PUSH1 0x20 DUP3 ADD SWAP1 POP PUSH2 0x273 PUSH1 0x0 DUP4 ADD DUP5 PUSH2 0x231 JUMP JUMPDEST SWAP3 SWAP2 POP POP JUMP JUMPDEST PUSH1 0x0 PUSH1 0x20 DUP3 ADD SWAP1 POP PUSH2 0x28E PUSH1 0x0 DUP4 ADD DUP5 PUSH2 0x240 JUMP JUMPDEST SWAP3 SWAP2 POP POP JUMP JUMPDEST PUSH1 0x0 PUSH1 0x20 DUP3 ADD SWAP1 POP PUSH2 0x2A9 PUSH1 0x0 DUP4 ADD DUP5 PUSH2 0x24F JUMP JUMPDEST SWAP3 SWAP2 POP POP JUMP JUMPDEST PUSH1 0x0 PUSH2 0x2BA DUP3 PUSH2 0x2CD JUMP JUMPDEST SWAP1 POP SWAP2 SWAP1 POP JUMP JUMPDEST PUSH1 0x0 DUP2 ISZERO ISZERO SWAP1 POP SWAP2 SWAP1 POP JUMP JUMPDEST PUSH1 0x0 PUSH20 0xFFFFFFFFFFFFFFFFFFFFFFFFFFFFFFFFFFFFFFFF DUP3 AND SWAP1 POP SWAP2 SWAP1 POP JUMP JUMPDEST PUSH1 0x0 DUP2 SWAP1 POP SWAP2 SWAP1 POP JUMP JUMPDEST PUSH1 0x0 PUSH2 0x302 DUP3 PUSH2 0x2ED JUMP JUMPDEST SWAP2 POP PUSH32 0xFFFFFFFFFFFFFFFFFFFFFFFFFFFFFFFFFFFFFFFFFFFFFFFFFFFFFFFFFFFFFFFF DUP3 EQ ISZERO PUSH2 0x335 JUMPI PUSH2 0x334 PUSH2 0x371 JUMP JUMPDEST JUMPDEST PUSH1 0x1 DUP3 ADD SWAP1 POP SWAP2 SWAP1 POP JUMP JUMPDEST PUSH1 0x0 PUSH2 0x34B DUP3 PUSH2 0x2ED JUMP JUMPDEST SWAP2 POP PUSH2 0x356 DUP4 PUSH2 0x2ED JUMP JUMPDEST SWAP3 POP DUP3 PUSH2 0x366 JUMPI PUSH2 0x365 PUSH2 0x3A0 JUMP JUMPDEST JUMPDEST DUP3 DUP3 MOD SWAP1 POP SWAP3 SWAP2 POP POP JUMP JUMPDEST PUSH32 0x4E487B7100000000000000000000000000000000000000000000000000000000 PUSH1 0x0 MSTORE PUSH1 0x11 PUSH1 0x4 MSTORE PUSH1 0x24 PUSH1 0x0 REVERT JUMPDEST PUSH32 0x4E487B7100000000000000000000000000000000000000000000000000000000 PUSH1 0x0 MSTORE PUSH1 0x12 PUSH1 0x4 MSTORE PUSH1 0x24 PUSH1 0x0 REVERT JUMPDEST PUSH2 0x3D8 DUP2 PUSH2 0x2ED JUMP JUMPDEST DUP2 EQ PUSH2 0x3E3 JUMPI PUSH1 0x0 DUP1 REVERT JUMPDEST POP JUMP INVALID LOG2 PUSH5 0x6970667358 0x22 SLT KECCAK256 0xC7 0x5E CALLDATASIZE BALANCE DUP1 SWAP8 POP 0x4E 0xBD 0xAA 0x21 0xBB CALL 0x24 STATICCALL 0xC0 0xFB DIV PUSH25 0x6E612D9AF54BEAAC1A2569AA4E64736F6C6343000800003300 "
				},
				"gasEstimates": {
					"creation": {
						"codeDepositCost": "210400",
						"executionCost": "infinite",
						"totalCost": "infinite"
					},
					"external": {
						"countEvenNumber()": "infinite",
						"isEvenNumber(uint256)": "infinite",
						"numbers(uint256)": "infinite",
						"owner()": "1192"
					}
				},
				"methodIdentifiers": {
					"countEvenNumber()": "9dcccf04",
					"isEvenNumber(uint256)": "e5054c69",
					"numbers(uint256)": "d39fa233",
					"owner()": "8da5cb5b"
				}
			},
			"storageLayout": {
				"storage": [
					{
						"astId": 15,
						"contract": "contracts/Loops.sol:MyContract",
						"label": "numbers",
						"offset": 0,
						"slot": "0",
						"type": "t_array(t_uint256)dyn_storage"
					},
					{
						"astId": 17,
						"contract": "contracts/Loops.sol:MyContract",
						"label": "owner",
						"offset": 0,
						"slot": "1",
						"type": "t_address"
					}
				],
				"types": {
					"t_address": {
						"encoding": "inplace",
						"label": "address",
						"numberOfBytes": "20"
					},
					"t_array(t_uint256)dyn_storage": {
						"base": "t_uint256",
						"encoding": "dynamic_array",
						"label": "uint256[]",
						"numberOfBytes": "32"
					},
					"t_uint256": {
						"encoding": "inplace",
						"label": "uint256",
						"numberOfBytes": "32"
					}
				}
			},
			"userdoc": {
				"kind": "user",
				"methods": {},
				"version": 1
			}
		}
	}
}