{
	"contracts/Mapping.sol": {
		"MyContract": {
			"abi": [
				{
					"inputs": [],
					"stateMutability": "nonpayable",
					"type": "constructor"
				},
				{
					"inputs": [
						{
							"internalType": "uint256",
							"name": "_id",
							"type": "uint256"
						},
						{
							"internalType": "string",
							"name": "_title",
							"type": "string"
						},
						{
							"internalType": "string",
							"name": "_author",
							"type": "string"
						}
					],
					"name": "addBook",
					"outputs": [],
					"stateMutability": "nonpayable",
					"type": "function"
				},
				{
					"inputs": [
						{
							"internalType": "uint256",
							"name": "",
							"type": "uint256"
						}
					],
					"name": "books",
					"outputs": [
						{
							"internalType": "string",
							"name": "title",
							"type": "string"
						},
						{
							"internalType": "string",
							"name": "author",
							"type": "string"
						}
					],
					"stateMutability": "view",
					"type": "function"
				}
			],
			"devdoc": {
				"kind": "dev",
				"methods": {},
				"version": 1
			},
			"evm": {
				"assembly": "    /* \"contracts/Mapping.sol\":63:651  contract MyContract{\r... */\n  mstore(0x40, 0x80)\n    /* \"contracts/Mapping.sol\":362:478  constructor() public {\r... */\n  callvalue\n  dup1\n  iszero\n  tag_1\n  jumpi\n  0x00\n  dup1\n  revert\ntag_1:\n  pop\n    /* \"contracts/Mapping.sol\":394:412  names[1]  = \"Adam\" */\n  mload(0x40)\n  dup1\n  0x40\n  add\n  0x40\n  mstore\n  dup1\n  0x04\n  dup2\n  mstore\n  0x20\n  add\n  0x4164616d00000000000000000000000000000000000000000000000000000000\n  dup2\n  mstore\n  pop\n    /* \"contracts/Mapping.sol\":394:399  names */\n  0x01\n    /* \"contracts/Mapping.sol\":394:402  names[1] */\n  0x00\n    /* \"contracts/Mapping.sol\":400:401  1 */\n  0x01\n    /* \"contracts/Mapping.sol\":394:402  names[1] */\n  dup2\n  mstore\n  0x20\n  add\n  swap1\n  dup2\n  mstore\n  0x20\n  add\n  0x00\n  keccak256\n    /* \"contracts/Mapping.sol\":394:412  names[1]  = \"Adam\" */\n  swap1\n  dup1\n  mload\n  swap1\n  0x20\n  add\n  swap1\n  tag_4\n  swap3\n  swap2\n  swap1\n  tag_5\n  jump\t// in\ntag_4:\n  pop\n    /* \"contracts/Mapping.sol\":423:441  names[2] = \"Bruce\" */\n  mload(0x40)\n  dup1\n  0x40\n  add\n  0x40\n  mstore\n  dup1\n  0x05\n  dup2\n  mstore\n  0x20\n  add\n  0x4272756365000000000000000000000000000000000000000000000000000000\n  dup2\n  mstore\n  pop\n    /* \"contracts/Mapping.sol\":423:428  names */\n  0x01\n    /* \"contracts/Mapping.sol\":423:431  names[2] */\n  0x00\n    /* \"contracts/Mapping.sol\":429:430  2 */\n  0x02\n    /* \"contracts/Mapping.sol\":423:431  names[2] */\n  dup2\n  mstore\n  0x20\n  add\n  swap1\n  dup2\n  mstore\n  0x20\n  add\n  0x00\n  keccak256\n    /* \"contracts/Mapping.sol\":423:441  names[2] = \"Bruce\" */\n  swap1\n  dup1\n  mload\n  swap1\n  0x20\n  add\n  swap1\n  tag_6\n  swap3\n  swap2\n  swap1\n  tag_5\n  jump\t// in\ntag_6:\n  pop\n    /* \"contracts/Mapping.sol\":452:470  names[3]  = \"Carl\" */\n  mload(0x40)\n  dup1\n  0x40\n  add\n  0x40\n  mstore\n  dup1\n  0x04\n  dup2\n  mstore\n  0x20\n  add\n  0x4361726c00000000000000000000000000000000000000000000000000000000\n  dup2\n  mstore\n  pop\n    /* \"contracts/Mapping.sol\":452:457  names */\n  0x01\n    /* \"contracts/Mapping.sol\":452:460  names[3] */\n  0x00\n    /* \"contracts/Mapping.sol\":458:459  3 */\n  0x03\n    /* \"contracts/Mapping.sol\":452:460  names[3] */\n  dup2\n  mstore\n  0x20\n  add\n  swap1\n  dup2\n  mstore\n  0x20\n  add\n  0x00\n  keccak256\n    /* \"contracts/Mapping.sol\":452:470  names[3]  = \"Carl\" */\n  swap1\n  dup1\n  mload\n  swap1\n  0x20\n  add\n  swap1\n  tag_7\n  swap3\n  swap2\n  swap1\n  tag_5\n  jump\t// in\ntag_7:\n  pop\n    /* \"contracts/Mapping.sol\":63:651  contract MyContract{\r... */\n  jump(tag_8)\ntag_5:\n  dup3\n  dup1\n  sload\n  tag_9\n  swap1\n  tag_10\n  jump\t// in\ntag_9:\n  swap1\n  0x00\n  mstore\n  keccak256(0x00, 0x20)\n  swap1\n  0x1f\n  add\n  0x20\n  swap1\n  div\n  dup2\n  add\n  swap3\n  dup3\n  tag_12\n  jumpi\n  0x00\n  dup6\n  sstore\n  jump(tag_11)\ntag_12:\n  dup3\n  0x1f\n  lt\n  tag_13\n  jumpi\n  dup1\n  mload\n  not(0xff)\n  and\n  dup4\n  dup1\n  add\n  or\n  dup6\n  sstore\n  jump(tag_11)\ntag_13:\n  dup3\n  dup1\n  add\n  0x01\n  add\n  dup6\n  sstore\n  dup3\n  iszero\n  tag_11\n  jumpi\n  swap2\n  dup3\n  add\ntag_14:\n  dup3\n  dup2\n  gt\n  iszero\n  tag_15\n  jumpi\n  dup3\n  mload\n  dup3\n  sstore\n  swap2\n  0x20\n  add\n  swap2\n  swap1\n  0x01\n  add\n  swap1\n  jump(tag_14)\ntag_15:\ntag_11:\n  pop\n  swap1\n  pop\n  tag_16\n  swap2\n  swap1\n  tag_17\n  jump\t// in\ntag_16:\n  pop\n  swap1\n  jump\t// out\ntag_17:\ntag_18:\n  dup1\n  dup3\n  gt\n  iszero\n  tag_19\n  jumpi\n  0x00\n  dup2\n  0x00\n  swap1\n  sstore\n  pop\n  0x01\n  add\n  jump(tag_18)\ntag_19:\n  pop\n  swap1\n  jump\t// out\n    /* \"#utility.yul\":7:327   */\ntag_10:\n  0x00\n    /* \"#utility.yul\":88:89   */\n  0x02\n    /* \"#utility.yul\":82:86   */\n  dup3\n    /* \"#utility.yul\":78:90   */\n  div\n    /* \"#utility.yul\":68:90   */\n  swap1\n  pop\n    /* \"#utility.yul\":135:136   */\n  0x01\n    /* \"#utility.yul\":129:133   */\n  dup3\n    /* \"#utility.yul\":125:137   */\n  and\n    /* \"#utility.yul\":156:174   */\n  dup1\n    /* \"#utility.yul\":146:148   */\n  tag_22\n  jumpi\n    /* \"#utility.yul\":212:216   */\n  0x7f\n    /* \"#utility.yul\":204:210   */\n  dup3\n    /* \"#utility.yul\":200:217   */\n  and\n    /* \"#utility.yul\":190:217   */\n  swap2\n  pop\n    /* \"#utility.yul\":146:148   */\ntag_22:\n    /* \"#utility.yul\":274:276   */\n  0x20\n    /* \"#utility.yul\":266:272   */\n  dup3\n    /* \"#utility.yul\":263:277   */\n  lt\n    /* \"#utility.yul\":243:261   */\n  dup2\n    /* \"#utility.yul\":240:278   */\n  eq\n    /* \"#utility.yul\":237:239   */\n  iszero\n  tag_23\n  jumpi\n    /* \"#utility.yul\":293:311   */\n  tag_24\n  tag_25\n  jump\t// in\ntag_24:\n    /* \"#utility.yul\":237:239   */\ntag_23:\n    /* \"#utility.yul\":58:327   */\n  pop\n  swap2\n  swap1\n  pop\n  jump\t// out\n    /* \"#utility.yul\":333:513   */\ntag_25:\n    /* \"#utility.yul\":381:458   */\n  0x4e487b7100000000000000000000000000000000000000000000000000000000\n    /* \"#utility.yul\":378:379   */\n  0x00\n    /* \"#utility.yul\":371:459   */\n  mstore\n    /* \"#utility.yul\":478:482   */\n  0x22\n    /* \"#utility.yul\":475:476   */\n  0x04\n    /* \"#utility.yul\":468:483   */\n  mstore\n    /* \"#utility.yul\":502:506   */\n  0x24\n    /* \"#utility.yul\":499:500   */\n  0x00\n    /* \"#utility.yul\":492:507   */\n  revert\n    /* \"contracts/Mapping.sol\":63:651  contract MyContract{\r... */\ntag_8:\n  dataSize(sub_0)\n  dup1\n  dataOffset(sub_0)\n  0x00\n  codecopy\n  0x00\n  return\nstop\n\nsub_0: assembly {\n        /* \"contracts/Mapping.sol\":63:651  contract MyContract{\r... */\n      mstore(0x40, 0x80)\n      callvalue\n      dup1\n      iszero\n      tag_1\n      jumpi\n      0x00\n      dup1\n      revert\n    tag_1:\n      pop\n      jumpi(tag_2, lt(calldatasize, 0x04))\n      shr(0xe0, calldataload(0x00))\n      dup1\n      0x028414f2\n      eq\n      tag_3\n      jumpi\n      dup1\n      0x68744046\n      eq\n      tag_4\n      jumpi\n    tag_2:\n      0x00\n      dup1\n      revert\n        /* \"contracts/Mapping.sol\":486:643  function addBook(\r... */\n    tag_3:\n      tag_5\n      0x04\n      dup1\n      calldatasize\n      sub\n      dup2\n      add\n      swap1\n      tag_6\n      swap2\n      swap1\n      tag_7\n      jump\t// in\n    tag_6:\n      tag_8\n      jump\t// in\n    tag_5:\n      stop\n        /* \"contracts/Mapping.sol\":203:237  mapping(uint => Book) public books */\n    tag_4:\n      tag_9\n      0x04\n      dup1\n      calldatasize\n      sub\n      dup2\n      add\n      swap1\n      tag_10\n      swap2\n      swap1\n      tag_11\n      jump\t// in\n    tag_10:\n      tag_12\n      jump\t// in\n    tag_9:\n      mload(0x40)\n      tag_13\n      swap3\n      swap2\n      swap1\n      tag_14\n      jump\t// in\n    tag_13:\n      mload(0x40)\n      dup1\n      swap2\n      sub\n      swap1\n      return\n        /* \"contracts/Mapping.sol\":486:643  function addBook(\r... */\n    tag_8:\n        /* \"contracts/Mapping.sol\":614:635  Book(_title, _author) */\n      mload(0x40)\n      dup1\n      0x40\n      add\n      0x40\n      mstore\n      dup1\n        /* \"contracts/Mapping.sol\":619:625  _title */\n      dup4\n        /* \"contracts/Mapping.sol\":614:635  Book(_title, _author) */\n      dup2\n      mstore\n      0x20\n      add\n        /* \"contracts/Mapping.sol\":627:634  _author */\n      dup3\n        /* \"contracts/Mapping.sol\":614:635  Book(_title, _author) */\n      dup2\n      mstore\n      pop\n        /* \"contracts/Mapping.sol\":601:606  books */\n      0x00\n        /* \"contracts/Mapping.sol\":601:611  books[_id] */\n      dup1\n        /* \"contracts/Mapping.sol\":607:610  _id */\n      dup6\n        /* \"contracts/Mapping.sol\":601:611  books[_id] */\n      dup2\n      mstore\n      0x20\n      add\n      swap1\n      dup2\n      mstore\n      0x20\n      add\n      0x00\n      keccak256\n        /* \"contracts/Mapping.sol\":601:635  books[_id] = Book(_title, _author) */\n      0x00\n      dup3\n      add\n      mload\n      dup2\n      0x00\n      add\n      swap1\n      dup1\n      mload\n      swap1\n      0x20\n      add\n      swap1\n      tag_16\n      swap3\n      swap2\n      swap1\n      tag_17\n      jump\t// in\n    tag_16:\n      pop\n      0x20\n      dup3\n      add\n      mload\n      dup2\n      0x01\n      add\n      swap1\n      dup1\n      mload\n      swap1\n      0x20\n      add\n      swap1\n      tag_18\n      swap3\n      swap2\n      swap1\n      tag_17\n      jump\t// in\n    tag_18:\n      pop\n      swap1\n      pop\n      pop\n        /* \"contracts/Mapping.sol\":486:643  function addBook(\r... */\n      pop\n      pop\n      pop\n      jump\t// out\n        /* \"contracts/Mapping.sol\":203:237  mapping(uint => Book) public books */\n    tag_12:\n      mstore(0x20, 0x00)\n      dup1\n      0x00\n      mstore\n      keccak256(0x00, 0x40)\n      0x00\n      swap2\n      pop\n      swap1\n      pop\n      dup1\n      0x00\n      add\n      dup1\n      sload\n      tag_19\n      swap1\n      tag_20\n      jump\t// in\n    tag_19:\n      dup1\n      0x1f\n      add\n      0x20\n      dup1\n      swap2\n      div\n      mul\n      0x20\n      add\n      mload(0x40)\n      swap1\n      dup2\n      add\n      0x40\n      mstore\n      dup1\n      swap3\n      swap2\n      swap1\n      dup2\n      dup2\n      mstore\n      0x20\n      add\n      dup3\n      dup1\n      sload\n      tag_21\n      swap1\n      tag_20\n      jump\t// in\n    tag_21:\n      dup1\n      iszero\n      tag_22\n      jumpi\n      dup1\n      0x1f\n      lt\n      tag_23\n      jumpi\n      0x0100\n      dup1\n      dup4\n      sload\n      div\n      mul\n      dup4\n      mstore\n      swap2\n      0x20\n      add\n      swap2\n      jump(tag_22)\n    tag_23:\n      dup3\n      add\n      swap2\n      swap1\n      0x00\n      mstore\n      keccak256(0x00, 0x20)\n      swap1\n    tag_24:\n      dup2\n      sload\n      dup2\n      mstore\n      swap1\n      0x01\n      add\n      swap1\n      0x20\n      add\n      dup1\n      dup4\n      gt\n      tag_24\n      jumpi\n      dup3\n      swap1\n      sub\n      0x1f\n      and\n      dup3\n      add\n      swap2\n    tag_22:\n      pop\n      pop\n      pop\n      pop\n      pop\n      swap1\n      dup1\n      0x01\n      add\n      dup1\n      sload\n      tag_25\n      swap1\n      tag_20\n      jump\t// in\n    tag_25:\n      dup1\n      0x1f\n      add\n      0x20\n      dup1\n      swap2\n      div\n      mul\n      0x20\n      add\n      mload(0x40)\n      swap1\n      dup2\n      add\n      0x40\n      mstore\n      dup1\n      swap3\n      swap2\n      swap1\n      dup2\n      dup2\n      mstore\n      0x20\n      add\n      dup3\n      dup1\n      sload\n      tag_26\n      swap1\n      tag_20\n      jump\t// in\n    tag_26:\n      dup1\n      iszero\n      tag_27\n      jumpi\n      dup1\n      0x1f\n      lt\n      tag_28\n      jumpi\n      0x0100\n      dup1\n      dup4\n      sload\n      div\n      mul\n      dup4\n      mstore\n      swap2\n      0x20\n      add\n      swap2\n      jump(tag_27)\n    tag_28:\n      dup3\n      add\n      swap2\n      swap1\n      0x00\n      mstore\n      keccak256(0x00, 0x20)\n      swap1\n    tag_29:\n      dup2\n      sload\n      dup2\n      mstore\n      swap1\n      0x01\n      add\n      swap1\n      0x20\n      add\n      dup1\n      dup4\n      gt\n      tag_29\n      jumpi\n      dup3\n      swap1\n      sub\n      0x1f\n      and\n      dup3\n      add\n      swap2\n    tag_27:\n      pop\n      pop\n      pop\n      pop\n      pop\n      swap1\n      pop\n      dup3\n      jump\t// out\n    tag_17:\n      dup3\n      dup1\n      sload\n      tag_30\n      swap1\n      tag_20\n      jump\t// in\n    tag_30:\n      swap1\n      0x00\n      mstore\n      keccak256(0x00, 0x20)\n      swap1\n      0x1f\n      add\n      0x20\n      swap1\n      div\n      dup2\n      add\n      swap3\n      dup3\n      tag_32\n      jumpi\n      0x00\n      dup6\n      sstore\n      jump(tag_31)\n    tag_32:\n      dup3\n      0x1f\n      lt\n      tag_33\n      jumpi\n      dup1\n      mload\n      not(0xff)\n      and\n      dup4\n      dup1\n      add\n      or\n      dup6\n      sstore\n      jump(tag_31)\n    tag_33:\n      dup3\n      dup1\n      add\n      0x01\n      add\n      dup6\n      sstore\n      dup3\n      iszero\n      tag_31\n      jumpi\n      swap2\n      dup3\n      add\n    tag_34:\n      dup3\n      dup2\n      gt\n      iszero\n      tag_35\n      jumpi\n      dup3\n      mload\n      dup3\n      sstore\n      swap2\n      0x20\n      add\n      swap2\n      swap1\n      0x01\n      add\n      swap1\n      jump(tag_34)\n    tag_35:\n    tag_31:\n      pop\n      swap1\n      pop\n      tag_36\n      swap2\n      swap1\n      tag_37\n      jump\t// in\n    tag_36:\n      pop\n      swap1\n      jump\t// out\n    tag_37:\n    tag_38:\n      dup1\n      dup3\n      gt\n      iszero\n      tag_39\n      jumpi\n      0x00\n      dup2\n      0x00\n      swap1\n      sstore\n      pop\n      0x01\n      add\n      jump(tag_38)\n    tag_39:\n      pop\n      swap1\n      jump\t// out\n        /* \"#utility.yul\":7:351   */\n    tag_41:\n      0x00\n        /* \"#utility.yul\":110:175   */\n      tag_43\n        /* \"#utility.yul\":125:174   */\n      tag_44\n        /* \"#utility.yul\":167:173   */\n      dup5\n        /* \"#utility.yul\":125:174   */\n      tag_45\n      jump\t// in\n    tag_44:\n        /* \"#utility.yul\":110:175   */\n      tag_46\n      jump\t// in\n    tag_43:\n        /* \"#utility.yul\":101:175   */\n      swap1\n      pop\n        /* \"#utility.yul\":198:204   */\n      dup3\n        /* \"#utility.yul\":191:196   */\n      dup2\n        /* \"#utility.yul\":184:205   */\n      mstore\n        /* \"#utility.yul\":236:240   */\n      0x20\n        /* \"#utility.yul\":229:234   */\n      dup2\n        /* \"#utility.yul\":225:241   */\n      add\n        /* \"#utility.yul\":274:277   */\n      dup5\n        /* \"#utility.yul\":265:271   */\n      dup5\n        /* \"#utility.yul\":260:263   */\n      dup5\n        /* \"#utility.yul\":256:272   */\n      add\n        /* \"#utility.yul\":253:278   */\n      gt\n        /* \"#utility.yul\":250:252   */\n      iszero\n      tag_47\n      jumpi\n        /* \"#utility.yul\":291:292   */\n      0x00\n        /* \"#utility.yul\":288:289   */\n      dup1\n        /* \"#utility.yul\":281:293   */\n      revert\n        /* \"#utility.yul\":250:252   */\n    tag_47:\n        /* \"#utility.yul\":304:345   */\n      tag_48\n        /* \"#utility.yul\":338:344   */\n      dup5\n        /* \"#utility.yul\":333:336   */\n      dup3\n        /* \"#utility.yul\":328:331   */\n      dup6\n        /* \"#utility.yul\":304:345   */\n      tag_49\n      jump\t// in\n    tag_48:\n        /* \"#utility.yul\":91:351   */\n      pop\n      swap4\n      swap3\n      pop\n      pop\n      pop\n      jump\t// out\n        /* \"#utility.yul\":371:644   */\n    tag_50:\n      0x00\n        /* \"#utility.yul\":476:479   */\n      dup3\n        /* \"#utility.yul\":469:473   */\n      0x1f\n        /* \"#utility.yul\":461:467   */\n      dup4\n        /* \"#utility.yul\":457:474   */\n      add\n        /* \"#utility.yul\":453:480   */\n      slt\n        /* \"#utility.yul\":443:445   */\n      tag_52\n      jumpi\n        /* \"#utility.yul\":494:495   */\n      0x00\n        /* \"#utility.yul\":491:492   */\n      dup1\n        /* \"#utility.yul\":484:496   */\n      revert\n        /* \"#utility.yul\":443:445   */\n    tag_52:\n        /* \"#utility.yul\":534:540   */\n      dup2\n        /* \"#utility.yul\":521:541   */\n      calldataload\n        /* \"#utility.yul\":559:638   */\n      tag_53\n        /* \"#utility.yul\":634:637   */\n      dup5\n        /* \"#utility.yul\":626:632   */\n      dup3\n        /* \"#utility.yul\":619:623   */\n      0x20\n        /* \"#utility.yul\":611:617   */\n      dup7\n        /* \"#utility.yul\":607:624   */\n      add\n        /* \"#utility.yul\":559:638   */\n      tag_41\n      jump\t// in\n    tag_53:\n        /* \"#utility.yul\":550:638   */\n      swap2\n      pop\n        /* \"#utility.yul\":433:644   */\n      pop\n      swap3\n      swap2\n      pop\n      pop\n      jump\t// out\n        /* \"#utility.yul\":650:789   */\n    tag_54:\n      0x00\n        /* \"#utility.yul\":734:740   */\n      dup2\n        /* \"#utility.yul\":721:741   */\n      calldataload\n        /* \"#utility.yul\":712:741   */\n      swap1\n      pop\n        /* \"#utility.yul\":750:783   */\n      tag_56\n        /* \"#utility.yul\":777:782   */\n      dup2\n        /* \"#utility.yul\":750:783   */\n      tag_57\n      jump\t// in\n    tag_56:\n        /* \"#utility.yul\":702:789   */\n      swap3\n      swap2\n      pop\n      pop\n      jump\t// out\n        /* \"#utility.yul\":795:1057   */\n    tag_11:\n      0x00\n        /* \"#utility.yul\":903:905   */\n      0x20\n        /* \"#utility.yul\":891:900   */\n      dup3\n        /* \"#utility.yul\":882:889   */\n      dup5\n        /* \"#utility.yul\":878:901   */\n      sub\n        /* \"#utility.yul\":874:906   */\n      slt\n        /* \"#utility.yul\":871:873   */\n      iszero\n      tag_59\n      jumpi\n        /* \"#utility.yul\":919:920   */\n      0x00\n        /* \"#utility.yul\":916:917   */\n      dup1\n        /* \"#utility.yul\":909:921   */\n      revert\n        /* \"#utility.yul\":871:873   */\n    tag_59:\n        /* \"#utility.yul\":962:963   */\n      0x00\n        /* \"#utility.yul\":987:1040   */\n      tag_60\n        /* \"#utility.yul\":1032:1039   */\n      dup5\n        /* \"#utility.yul\":1023:1029   */\n      dup3\n        /* \"#utility.yul\":1012:1021   */\n      dup6\n        /* \"#utility.yul\":1008:1030   */\n      add\n        /* \"#utility.yul\":987:1040   */\n      tag_54\n      jump\t// in\n    tag_60:\n        /* \"#utility.yul\":977:1040   */\n      swap2\n      pop\n        /* \"#utility.yul\":933:1050   */\n      pop\n        /* \"#utility.yul\":861:1057   */\n      swap3\n      swap2\n      pop\n      pop\n      jump\t// out\n        /* \"#utility.yul\":1063:1841   */\n    tag_7:\n      0x00\n      dup1\n      0x00\n        /* \"#utility.yul\":1225:1227   */\n      0x60\n        /* \"#utility.yul\":1213:1222   */\n      dup5\n        /* \"#utility.yul\":1204:1211   */\n      dup7\n        /* \"#utility.yul\":1200:1223   */\n      sub\n        /* \"#utility.yul\":1196:1228   */\n      slt\n        /* \"#utility.yul\":1193:1195   */\n      iszero\n      tag_62\n      jumpi\n        /* \"#utility.yul\":1241:1242   */\n      0x00\n        /* \"#utility.yul\":1238:1239   */\n      dup1\n        /* \"#utility.yul\":1231:1243   */\n      revert\n        /* \"#utility.yul\":1193:1195   */\n    tag_62:\n        /* \"#utility.yul\":1284:1285   */\n      0x00\n        /* \"#utility.yul\":1309:1362   */\n      tag_63\n        /* \"#utility.yul\":1354:1361   */\n      dup7\n        /* \"#utility.yul\":1345:1351   */\n      dup3\n        /* \"#utility.yul\":1334:1343   */\n      dup8\n        /* \"#utility.yul\":1330:1352   */\n      add\n        /* \"#utility.yul\":1309:1362   */\n      tag_54\n      jump\t// in\n    tag_63:\n        /* \"#utility.yul\":1299:1362   */\n      swap4\n      pop\n        /* \"#utility.yul\":1255:1372   */\n      pop\n        /* \"#utility.yul\":1439:1441   */\n      0x20\n        /* \"#utility.yul\":1428:1437   */\n      dup5\n        /* \"#utility.yul\":1424:1442   */\n      add\n        /* \"#utility.yul\":1411:1443   */\n      calldataload\n        /* \"#utility.yul\":1470:1488   */\n      0xffffffffffffffff\n        /* \"#utility.yul\":1462:1468   */\n      dup2\n        /* \"#utility.yul\":1459:1489   */\n      gt\n        /* \"#utility.yul\":1456:1458   */\n      iszero\n      tag_64\n      jumpi\n        /* \"#utility.yul\":1502:1503   */\n      0x00\n        /* \"#utility.yul\":1499:1500   */\n      dup1\n        /* \"#utility.yul\":1492:1504   */\n      revert\n        /* \"#utility.yul\":1456:1458   */\n    tag_64:\n        /* \"#utility.yul\":1530:1593   */\n      tag_65\n        /* \"#utility.yul\":1585:1592   */\n      dup7\n        /* \"#utility.yul\":1576:1582   */\n      dup3\n        /* \"#utility.yul\":1565:1574   */\n      dup8\n        /* \"#utility.yul\":1561:1583   */\n      add\n        /* \"#utility.yul\":1530:1593   */\n      tag_50\n      jump\t// in\n    tag_65:\n        /* \"#utility.yul\":1520:1593   */\n      swap3\n      pop\n        /* \"#utility.yul\":1382:1603   */\n      pop\n        /* \"#utility.yul\":1670:1672   */\n      0x40\n        /* \"#utility.yul\":1659:1668   */\n      dup5\n        /* \"#utility.yul\":1655:1673   */\n      add\n        /* \"#utility.yul\":1642:1674   */\n      calldataload\n        /* \"#utility.yul\":1701:1719   */\n      0xffffffffffffffff\n        /* \"#utility.yul\":1693:1699   */\n      dup2\n        /* \"#utility.yul\":1690:1720   */\n      gt\n        /* \"#utility.yul\":1687:1689   */\n      iszero\n      tag_66\n      jumpi\n        /* \"#utility.yul\":1733:1734   */\n      0x00\n        /* \"#utility.yul\":1730:1731   */\n      dup1\n        /* \"#utility.yul\":1723:1735   */\n      revert\n        /* \"#utility.yul\":1687:1689   */\n    tag_66:\n        /* \"#utility.yul\":1761:1824   */\n      tag_67\n        /* \"#utility.yul\":1816:1823   */\n      dup7\n        /* \"#utility.yul\":1807:1813   */\n      dup3\n        /* \"#utility.yul\":1796:1805   */\n      dup8\n        /* \"#utility.yul\":1792:1814   */\n      add\n        /* \"#utility.yul\":1761:1824   */\n      tag_50\n      jump\t// in\n    tag_67:\n        /* \"#utility.yul\":1751:1824   */\n      swap2\n      pop\n        /* \"#utility.yul\":1613:1834   */\n      pop\n        /* \"#utility.yul\":1183:1841   */\n      swap3\n      pop\n      swap3\n      pop\n      swap3\n      jump\t// out\n        /* \"#utility.yul\":1847:2211   */\n    tag_68:\n      0x00\n        /* \"#utility.yul\":1963:2002   */\n      tag_70\n        /* \"#utility.yul\":1996:2001   */\n      dup3\n        /* \"#utility.yul\":1963:2002   */\n      tag_71\n      jump\t// in\n    tag_70:\n        /* \"#utility.yul\":2018:2089   */\n      tag_72\n        /* \"#utility.yul\":2082:2088   */\n      dup2\n        /* \"#utility.yul\":2077:2080   */\n      dup6\n        /* \"#utility.yul\":2018:2089   */\n      tag_73\n      jump\t// in\n    tag_72:\n        /* \"#utility.yul\":2011:2089   */\n      swap4\n      pop\n        /* \"#utility.yul\":2098:2150   */\n      tag_74\n        /* \"#utility.yul\":2143:2149   */\n      dup2\n        /* \"#utility.yul\":2138:2141   */\n      dup6\n        /* \"#utility.yul\":2131:2135   */\n      0x20\n        /* \"#utility.yul\":2124:2129   */\n      dup7\n        /* \"#utility.yul\":2120:2136   */\n      add\n        /* \"#utility.yul\":2098:2150   */\n      tag_75\n      jump\t// in\n    tag_74:\n        /* \"#utility.yul\":2175:2204   */\n      tag_76\n        /* \"#utility.yul\":2197:2203   */\n      dup2\n        /* \"#utility.yul\":2175:2204   */\n      tag_77\n      jump\t// in\n    tag_76:\n        /* \"#utility.yul\":2170:2173   */\n      dup5\n        /* \"#utility.yul\":2166:2205   */\n      add\n        /* \"#utility.yul\":2159:2205   */\n      swap2\n      pop\n        /* \"#utility.yul\":1939:2211   */\n      pop\n      swap3\n      swap2\n      pop\n      pop\n      jump\t// out\n        /* \"#utility.yul\":2217:2731   */\n    tag_14:\n      0x00\n        /* \"#utility.yul\":2416:2418   */\n      0x40\n        /* \"#utility.yul\":2405:2414   */\n      dup3\n        /* \"#utility.yul\":2401:2419   */\n      add\n        /* \"#utility.yul\":2393:2419   */\n      swap1\n      pop\n        /* \"#utility.yul\":2465:2474   */\n      dup2\n        /* \"#utility.yul\":2459:2463   */\n      dup2\n        /* \"#utility.yul\":2455:2475   */\n      sub\n        /* \"#utility.yul\":2451:2452   */\n      0x00\n        /* \"#utility.yul\":2440:2449   */\n      dup4\n        /* \"#utility.yul\":2436:2453   */\n      add\n        /* \"#utility.yul\":2429:2476   */\n      mstore\n        /* \"#utility.yul\":2493:2571   */\n      tag_79\n        /* \"#utility.yul\":2566:2570   */\n      dup2\n        /* \"#utility.yul\":2557:2563   */\n      dup6\n        /* \"#utility.yul\":2493:2571   */\n      tag_68\n      jump\t// in\n    tag_79:\n        /* \"#utility.yul\":2485:2571   */\n      swap1\n      pop\n        /* \"#utility.yul\":2618:2627   */\n      dup2\n        /* \"#utility.yul\":2612:2616   */\n      dup2\n        /* \"#utility.yul\":2608:2628   */\n      sub\n        /* \"#utility.yul\":2603:2605   */\n      0x20\n        /* \"#utility.yul\":2592:2601   */\n      dup4\n        /* \"#utility.yul\":2588:2606   */\n      add\n        /* \"#utility.yul\":2581:2629   */\n      mstore\n        /* \"#utility.yul\":2646:2724   */\n      tag_80\n        /* \"#utility.yul\":2719:2723   */\n      dup2\n        /* \"#utility.yul\":2710:2716   */\n      dup5\n        /* \"#utility.yul\":2646:2724   */\n      tag_68\n      jump\t// in\n    tag_80:\n        /* \"#utility.yul\":2638:2724   */\n      swap1\n      pop\n        /* \"#utility.yul\":2383:2731   */\n      swap4\n      swap3\n      pop\n      pop\n      pop\n      jump\t// out\n        /* \"#utility.yul\":2737:3020   */\n    tag_46:\n      0x00\n        /* \"#utility.yul\":2803:2805   */\n      0x40\n        /* \"#utility.yul\":2797:2806   */\n      mload\n        /* \"#utility.yul\":2787:2806   */\n      swap1\n      pop\n        /* \"#utility.yul\":2845:2849   */\n      dup2\n        /* \"#utility.yul\":2837:2843   */\n      dup2\n        /* \"#utility.yul\":2833:2850   */\n      add\n        /* \"#utility.yul\":2952:2958   */\n      dup2\n        /* \"#utility.yul\":2940:2950   */\n      dup2\n        /* \"#utility.yul\":2937:2959   */\n      lt\n        /* \"#utility.yul\":2916:2934   */\n      0xffffffffffffffff\n        /* \"#utility.yul\":2904:2914   */\n      dup3\n        /* \"#utility.yul\":2901:2935   */\n      gt\n        /* \"#utility.yul\":2898:2960   */\n      or\n        /* \"#utility.yul\":2895:2897   */\n      iszero\n      tag_82\n      jumpi\n        /* \"#utility.yul\":2963:2981   */\n      tag_83\n      tag_84\n      jump\t// in\n    tag_83:\n        /* \"#utility.yul\":2895:2897   */\n    tag_82:\n        /* \"#utility.yul\":3003:3013   */\n      dup1\n        /* \"#utility.yul\":2999:3001   */\n      0x40\n        /* \"#utility.yul\":2992:3014   */\n      mstore\n        /* \"#utility.yul\":2777:3020   */\n      pop\n      swap2\n      swap1\n      pop\n      jump\t// out\n        /* \"#utility.yul\":3026:3358   */\n    tag_45:\n      0x00\n        /* \"#utility.yul\":3178:3196   */\n      0xffffffffffffffff\n        /* \"#utility.yul\":3170:3176   */\n      dup3\n        /* \"#utility.yul\":3167:3197   */\n      gt\n        /* \"#utility.yul\":3164:3166   */\n      iszero\n      tag_86\n      jumpi\n        /* \"#utility.yul\":3200:3218   */\n      tag_87\n      tag_84\n      jump\t// in\n    tag_87:\n        /* \"#utility.yul\":3164:3166   */\n    tag_86:\n        /* \"#utility.yul\":3285:3289   */\n      0x1f\n        /* \"#utility.yul\":3281:3290   */\n      not\n        /* \"#utility.yul\":3274:3278   */\n      0x1f\n        /* \"#utility.yul\":3266:3272   */\n      dup4\n        /* \"#utility.yul\":3262:3279   */\n      add\n        /* \"#utility.yul\":3258:3291   */\n      and\n        /* \"#utility.yul\":3250:3291   */\n      swap1\n      pop\n        /* \"#utility.yul\":3346:3350   */\n      0x20\n        /* \"#utility.yul\":3340:3344   */\n      dup2\n        /* \"#utility.yul\":3336:3351   */\n      add\n        /* \"#utility.yul\":3328:3351   */\n      swap1\n      pop\n        /* \"#utility.yul\":3093:3358   */\n      swap2\n      swap1\n      pop\n      jump\t// out\n        /* \"#utility.yul\":3364:3463   */\n    tag_71:\n      0x00\n        /* \"#utility.yul\":3450:3455   */\n      dup2\n        /* \"#utility.yul\":3444:3456   */\n      mload\n        /* \"#utility.yul\":3434:3456   */\n      swap1\n      pop\n        /* \"#utility.yul\":3423:3463   */\n      swap2\n      swap1\n      pop\n      jump\t// out\n        /* \"#utility.yul\":3469:3638   */\n    tag_73:\n      0x00\n        /* \"#utility.yul\":3587:3593   */\n      dup3\n        /* \"#utility.yul\":3582:3585   */\n      dup3\n        /* \"#utility.yul\":3575:3594   */\n      mstore\n        /* \"#utility.yul\":3627:3631   */\n      0x20\n        /* \"#utility.yul\":3622:3625   */\n      dup3\n        /* \"#utility.yul\":3618:3632   */\n      add\n        /* \"#utility.yul\":3603:3632   */\n      swap1\n      pop\n        /* \"#utility.yul\":3565:3638   */\n      swap3\n      swap2\n      pop\n      pop\n      jump\t// out\n        /* \"#utility.yul\":3644:3721   */\n    tag_90:\n      0x00\n        /* \"#utility.yul\":3710:3715   */\n      dup2\n        /* \"#utility.yul\":3699:3715   */\n      swap1\n      pop\n        /* \"#utility.yul\":3689:3721   */\n      swap2\n      swap1\n      pop\n      jump\t// out\n        /* \"#utility.yul\":3727:3881   */\n    tag_49:\n        /* \"#utility.yul\":3811:3817   */\n      dup3\n        /* \"#utility.yul\":3806:3809   */\n      dup2\n        /* \"#utility.yul\":3801:3804   */\n      dup4\n        /* \"#utility.yul\":3788:3818   */\n      calldatacopy\n        /* \"#utility.yul\":3873:3874   */\n      0x00\n        /* \"#utility.yul\":3864:3870   */\n      dup4\n        /* \"#utility.yul\":3859:3862   */\n      dup4\n        /* \"#utility.yul\":3855:3871   */\n      add\n        /* \"#utility.yul\":3848:3875   */\n      mstore\n        /* \"#utility.yul\":3778:3881   */\n      pop\n      pop\n      pop\n      jump\t// out\n        /* \"#utility.yul\":3887:4194   */\n    tag_75:\n        /* \"#utility.yul\":3955:3956   */\n      0x00\n        /* \"#utility.yul\":3965:4078   */\n    tag_94:\n        /* \"#utility.yul\":3979:3985   */\n      dup4\n        /* \"#utility.yul\":3976:3977   */\n      dup2\n        /* \"#utility.yul\":3973:3986   */\n      lt\n        /* \"#utility.yul\":3965:4078   */\n      iszero\n      tag_96\n      jumpi\n        /* \"#utility.yul\":4064:4065   */\n      dup1\n        /* \"#utility.yul\":4059:4062   */\n      dup3\n        /* \"#utility.yul\":4055:4066   */\n      add\n        /* \"#utility.yul\":4049:4067   */\n      mload\n        /* \"#utility.yul\":4045:4046   */\n      dup2\n        /* \"#utility.yul\":4040:4043   */\n      dup5\n        /* \"#utility.yul\":4036:4047   */\n      add\n        /* \"#utility.yul\":4029:4068   */\n      mstore\n        /* \"#utility.yul\":4001:4003   */\n      0x20\n        /* \"#utility.yul\":3998:3999   */\n      dup2\n        /* \"#utility.yul\":3994:4004   */\n      add\n        /* \"#utility.yul\":3989:4004   */\n      swap1\n      pop\n        /* \"#utility.yul\":3965:4078   */\n      jump(tag_94)\n    tag_96:\n        /* \"#utility.yul\":4096:4102   */\n      dup4\n        /* \"#utility.yul\":4093:4094   */\n      dup2\n        /* \"#utility.yul\":4090:4103   */\n      gt\n        /* \"#utility.yul\":4087:4089   */\n      iszero\n      tag_97\n      jumpi\n        /* \"#utility.yul\":4176:4177   */\n      0x00\n        /* \"#utility.yul\":4167:4173   */\n      dup5\n        /* \"#utility.yul\":4162:4165   */\n      dup5\n        /* \"#utility.yul\":4158:4174   */\n      add\n        /* \"#utility.yul\":4151:4178   */\n      mstore\n        /* \"#utility.yul\":4087:4089   */\n    tag_97:\n        /* \"#utility.yul\":3936:4194   */\n      pop\n      pop\n      pop\n      pop\n      jump\t// out\n        /* \"#utility.yul\":4200:4520   */\n    tag_20:\n      0x00\n        /* \"#utility.yul\":4281:4282   */\n      0x02\n        /* \"#utility.yul\":4275:4279   */\n      dup3\n        /* \"#utility.yul\":4271:4283   */\n      div\n        /* \"#utility.yul\":4261:4283   */\n      swap1\n      pop\n        /* \"#utility.yul\":4328:4329   */\n      0x01\n        /* \"#utility.yul\":4322:4326   */\n      dup3\n        /* \"#utility.yul\":4318:4330   */\n      and\n        /* \"#utility.yul\":4349:4367   */\n      dup1\n        /* \"#utility.yul\":4339:4341   */\n      tag_99\n      jumpi\n        /* \"#utility.yul\":4405:4409   */\n      0x7f\n        /* \"#utility.yul\":4397:4403   */\n      dup3\n        /* \"#utility.yul\":4393:4410   */\n      and\n        /* \"#utility.yul\":4383:4410   */\n      swap2\n      pop\n        /* \"#utility.yul\":4339:4341   */\n    tag_99:\n        /* \"#utility.yul\":4467:4469   */\n      0x20\n        /* \"#utility.yul\":4459:4465   */\n      dup3\n        /* \"#utility.yul\":4456:4470   */\n      lt\n        /* \"#utility.yul\":4436:4454   */\n      dup2\n        /* \"#utility.yul\":4433:4471   */\n      eq\n        /* \"#utility.yul\":4430:4432   */\n      iszero\n      tag_100\n      jumpi\n        /* \"#utility.yul\":4486:4504   */\n      tag_101\n      tag_102\n      jump\t// in\n    tag_101:\n        /* \"#utility.yul\":4430:4432   */\n    tag_100:\n        /* \"#utility.yul\":4251:4520   */\n      pop\n      swap2\n      swap1\n      pop\n      jump\t// out\n        /* \"#utility.yul\":4526:4706   */\n    tag_102:\n        /* \"#utility.yul\":4574:4651   */\n      0x4e487b7100000000000000000000000000000000000000000000000000000000\n        /* \"#utility.yul\":4571:4572   */\n      0x00\n        /* \"#utility.yul\":4564:4652   */\n      mstore\n        /* \"#utility.yul\":4671:4675   */\n      0x22\n        /* \"#utility.yul\":4668:4669   */\n      0x04\n        /* \"#utility.yul\":4661:4676   */\n      mstore\n        /* \"#utility.yul\":4695:4699   */\n      0x24\n        /* \"#utility.yul\":4692:4693   */\n      0x00\n        /* \"#utility.yul\":4685:4700   */\n      revert\n        /* \"#utility.yul\":4712:4892   */\n    tag_84:\n        /* \"#utility.yul\":4760:4837   */\n      0x4e487b7100000000000000000000000000000000000000000000000000000000\n        /* \"#utility.yul\":4757:4758   */\n      0x00\n        /* \"#utility.yul\":4750:4838   */\n      mstore\n        /* \"#utility.yul\":4857:4861   */\n      0x41\n        /* \"#utility.yul\":4854:4855   */\n      0x04\n        /* \"#utility.yul\":4847:4862   */\n      mstore\n        /* \"#utility.yul\":4881:4885   */\n      0x24\n        /* \"#utility.yul\":4878:4879   */\n      0x00\n        /* \"#utility.yul\":4871:4886   */\n      revert\n        /* \"#utility.yul\":4898:5000   */\n    tag_77:\n      0x00\n        /* \"#utility.yul\":4990:4992   */\n      0x1f\n        /* \"#utility.yul\":4986:4993   */\n      not\n        /* \"#utility.yul\":4981:4983   */\n      0x1f\n        /* \"#utility.yul\":4974:4979   */\n      dup4\n        /* \"#utility.yul\":4970:4984   */\n      add\n        /* \"#utility.yul\":4966:4994   */\n      and\n        /* \"#utility.yul\":4956:4994   */\n      swap1\n      pop\n        /* \"#utility.yul\":4946:5000   */\n      swap2\n      swap1\n      pop\n      jump\t// out\n        /* \"#utility.yul\":5006:5128   */\n    tag_57:\n        /* \"#utility.yul\":5079:5103   */\n      tag_107\n        /* \"#utility.yul\":5097:5102   */\n      dup2\n        /* \"#utility.yul\":5079:5103   */\n      tag_90\n      jump\t// in\n    tag_107:\n        /* \"#utility.yul\":5072:5077   */\n      dup2\n        /* \"#utility.yul\":5069:5104   */\n      eq\n        /* \"#utility.yul\":5059:5061   */\n      tag_108\n      jumpi\n        /* \"#utility.yul\":5118:5119   */\n      0x00\n        /* \"#utility.yul\":5115:5116   */\n      dup1\n        /* \"#utility.yul\":5108:5120   */\n      revert\n        /* \"#utility.yul\":5059:5061   */\n    tag_108:\n        /* \"#utility.yul\":5049:5128   */\n      pop\n      jump\t// out\n\n    auxdata: 0xa26469706673582212203e8f71294df43cab8479f130ffd399012ecb53cc57f8d6e41ef09758b8e8932b64736f6c63430008000033\n}\n",
				"bytecode": {
					"linkReferences": {},
					"object": "608060405234801561001057600080fd5b506040518060400160405280600481526020017f4164616d000000000000000000000000000000000000000000000000000000008152506001600060018152602001908152602001600020908051906020019061006e929190610130565b506040518060400160405280600581526020017f4272756365000000000000000000000000000000000000000000000000000000815250600160006002815260200190815260200160002090805190602001906100cc929190610130565b506040518060400160405280600481526020017f4361726c000000000000000000000000000000000000000000000000000000008152506001600060038152602001908152602001600020908051906020019061012a929190610130565b50610234565b82805461013c906101d3565b90600052602060002090601f01602090048101928261015e57600085556101a5565b82601f1061017757805160ff19168380011785556101a5565b828001600101855582156101a5579182015b828111156101a4578251825591602001919060010190610189565b5b5090506101b291906101b6565b5090565b5b808211156101cf5760008160009055506001016101b7565b5090565b600060028204905060018216806101eb57607f821691505b602082108114156101ff576101fe610205565b5b50919050565b7f4e487b7100000000000000000000000000000000000000000000000000000000600052602260045260246000fd5b610614806102436000396000f3fe608060405234801561001057600080fd5b50600436106100365760003560e01c8063028414f21461003b5780636874404614610057575b600080fd5b6100556004803603810190610050919061036e565b610088565b005b610071600480360381019061006c9190610345565b6100f1565b60405161007f929190610426565b60405180910390f35b60405180604001604052808381526020018281525060008085815260200190815260200160002060008201518160000190805190602001906100cb929190610225565b5060208201518160010190805190602001906100e8929190610225565b50905050505050565b600060205280600052604060002060009150905080600001805461011490610526565b80601f016020809104026020016040519081016040528092919081815260200182805461014090610526565b801561018d5780601f106101625761010080835404028352916020019161018d565b820191906000526020600020905b81548152906001019060200180831161017057829003601f168201915b5050505050908060010180546101a290610526565b80601f01602080910402602001604051908101604052809291908181526020018280546101ce90610526565b801561021b5780601f106101f05761010080835404028352916020019161021b565b820191906000526020600020905b8154815290600101906020018083116101fe57829003601f168201915b5050505050905082565b82805461023190610526565b90600052602060002090601f016020900481019282610253576000855561029a565b82601f1061026c57805160ff191683800117855561029a565b8280016001018555821561029a579182015b8281111561029957825182559160200191906001019061027e565b5b5090506102a791906102ab565b5090565b5b808211156102c45760008160009055506001016102ac565b5090565b60006102db6102d68461048e565b61045d565b9050828152602081018484840111156102f357600080fd5b6102fe8482856104e4565b509392505050565b600082601f83011261031757600080fd5b81356103278482602086016102c8565b91505092915050565b60008135905061033f816105c7565b92915050565b60006020828403121561035757600080fd5b600061036584828501610330565b91505092915050565b60008060006060848603121561038357600080fd5b600061039186828701610330565b935050602084013567ffffffffffffffff8111156103ae57600080fd5b6103ba86828701610306565b925050604084013567ffffffffffffffff8111156103d757600080fd5b6103e386828701610306565b9150509250925092565b60006103f8826104be565b61040281856104c9565b93506104128185602086016104f3565b61041b816105b6565b840191505092915050565b6000604082019050818103600083015261044081856103ed565b9050818103602083015261045481846103ed565b90509392505050565b6000604051905081810181811067ffffffffffffffff8211171561048457610483610587565b5b8060405250919050565b600067ffffffffffffffff8211156104a9576104a8610587565b5b601f19601f8301169050602081019050919050565b600081519050919050565b600082825260208201905092915050565b6000819050919050565b82818337600083830152505050565b60005b838110156105115780820151818401526020810190506104f6565b83811115610520576000848401525b50505050565b6000600282049050600182168061053e57607f821691505b6020821081141561055257610551610558565b5b50919050565b7f4e487b7100000000000000000000000000000000000000000000000000000000600052602260045260246000fd5b7f4e487b7100000000000000000000000000000000000000000000000000000000600052604160045260246000fd5b6000601f19601f8301169050919050565b6105d0816104da565b81146105db57600080fd5b5056fea26469706673582212203e8f71294df43cab8479f130ffd399012ecb53cc57f8d6e41ef09758b8e8932b64736f6c63430008000033",
					"opcodes": "PUSH1 0x80 PUSH1 0x40 MSTORE CALLVALUE DUP1 ISZERO PUSH2 0x10 JUMPI PUSH1 0x0 DUP1 REVERT JUMPDEST POP PUSH1 0x40 MLOAD DUP1 PUSH1 0x40 ADD PUSH1 0x40 MSTORE DUP1 PUSH1 0x4 DUP2 MSTORE PUSH1 0x20 ADD PUSH32 0x4164616D00000000000000000000000000000000000000000000000000000000 DUP2 MSTORE POP PUSH1 0x1 PUSH1 0x0 PUSH1 0x1 DUP2 MSTORE PUSH1 0x20 ADD SWAP1 DUP2 MSTORE PUSH1 0x20 ADD PUSH1 0x0 KECCAK256 SWAP1 DUP1 MLOAD SWAP1 PUSH1 0x20 ADD SWAP1 PUSH2 0x6E SWAP3 SWAP2 SWAP1 PUSH2 0x130 JUMP JUMPDEST POP PUSH1 0x40 MLOAD DUP1 PUSH1 0x40 ADD PUSH1 0x40 MSTORE DUP1 PUSH1 0x5 DUP2 MSTORE PUSH1 0x20 ADD PUSH32 0x4272756365000000000000000000000000000000000000000000000000000000 DUP2 MSTORE POP PUSH1 0x1 PUSH1 0x0 PUSH1 0x2 DUP2 MSTORE PUSH1 0x20 ADD SWAP1 DUP2 MSTORE PUSH1 0x20 ADD PUSH1 0x0 KECCAK256 SWAP1 DUP1 MLOAD SWAP1 PUSH1 0x20 ADD SWAP1 PUSH2 0xCC SWAP3 SWAP2 SWAP1 PUSH2 0x130 JUMP JUMPDEST POP PUSH1 0x40 MLOAD DUP1 PUSH1 0x40 ADD PUSH1 0x40 MSTORE DUP1 PUSH1 0x4 DUP2 MSTORE PUSH1 0x20 ADD PUSH32 0x4361726C00000000000000000000000000000000000000000000000000000000 DUP2 MSTORE POP PUSH1 0x1 PUSH1 0x0 PUSH1 0x3 DUP2 MSTORE PUSH1 0x20 ADD SWAP1 DUP2 MSTORE PUSH1 0x20 ADD PUSH1 0x0 KECCAK256 SWAP1 DUP1 MLOAD SWAP1 PUSH1 0x20 ADD SWAP1 PUSH2 0x12A SWAP3 SWAP2 SWAP1 PUSH2 0x130 JUMP JUMPDEST POP PUSH2 0x234 JUMP JUMPDEST DUP3 DUP1 SLOAD PUSH2 0x13C SWAP1 PUSH2 0x1D3 JUMP JUMPDEST SWAP1 PUSH1 0x0 MSTORE PUSH1 0x20 PUSH1 0x0 KECCAK256 SWAP1 PUSH1 0x1F ADD PUSH1 0x20 SWAP1 DIV DUP2 ADD SWAP3 DUP3 PUSH2 0x15E JUMPI PUSH1 0x0 DUP6 SSTORE PUSH2 0x1A5 JUMP JUMPDEST DUP3 PUSH1 0x1F LT PUSH2 0x177 JUMPI DUP1 MLOAD PUSH1 0xFF NOT AND DUP4 DUP1 ADD OR DUP6 SSTORE PUSH2 0x1A5 JUMP JUMPDEST DUP3 DUP1 ADD PUSH1 0x1 ADD DUP6 SSTORE DUP3 ISZERO PUSH2 0x1A5 JUMPI SWAP2 DUP3 ADD JUMPDEST DUP3 DUP2 GT ISZERO PUSH2 0x1A4 JUMPI DUP3 MLOAD DUP3 SSTORE SWAP2 PUSH1 0x20 ADD SWAP2 SWAP1 PUSH1 0x1 ADD SWAP1 PUSH2 0x189 JUMP JUMPDEST JUMPDEST POP SWAP1 POP PUSH2 0x1B2 SWAP2 SWAP1 PUSH2 0x1B6 JUMP JUMPDEST POP SWAP1 JUMP JUMPDEST JUMPDEST DUP1 DUP3 GT ISZERO PUSH2 0x1CF JUMPI PUSH1 0x0 DUP2 PUSH1 0x0 SWAP1 SSTORE POP PUSH1 0x1 ADD PUSH2 0x1B7 JUMP JUMPDEST POP SWAP1 JUMP JUMPDEST PUSH1 0x0 PUSH1 0x2 DUP3 DIV SWAP1 POP PUSH1 0x1 DUP3 AND DUP1 PUSH2 0x1EB JUMPI PUSH1 0x7F DUP3 AND SWAP2 POP JUMPDEST PUSH1 0x20 DUP3 LT DUP2 EQ ISZERO PUSH2 0x1FF JUMPI PUSH2 0x1FE PUSH2 0x205 JUMP JUMPDEST JUMPDEST POP SWAP2 SWAP1 POP JUMP JUMPDEST PUSH32 0x4E487B7100000000000000000000000000000000000000000000000000000000 PUSH1 0x0 MSTORE PUSH1 0x22 PUSH1 0x4 MSTORE PUSH1 0x24 PUSH1 0x0 REVERT JUMPDEST PUSH2 0x614 DUP1 PUSH2 0x243 PUSH1 0x0 CODECOPY PUSH1 0x0 RETURN INVALID PUSH1 0x80 PUSH1 0x40 MSTORE CALLVALUE DUP1 ISZERO PUSH2 0x10 JUMPI PUSH1 0x0 DUP1 REVERT JUMPDEST POP PUSH1 0x4 CALLDATASIZE LT PUSH2 0x36 JUMPI PUSH1 0x0 CALLDATALOAD PUSH1 0xE0 SHR DUP1 PUSH4 0x28414F2 EQ PUSH2 0x3B JUMPI DUP1 PUSH4 0x68744046 EQ PUSH2 0x57 JUMPI JUMPDEST PUSH1 0x0 DUP1 REVERT JUMPDEST PUSH2 0x55 PUSH1 0x4 DUP1 CALLDATASIZE SUB DUP2 ADD SWAP1 PUSH2 0x50 SWAP2 SWAP1 PUSH2 0x36E JUMP JUMPDEST PUSH2 0x88 JUMP JUMPDEST STOP JUMPDEST PUSH2 0x71 PUSH1 0x4 DUP1 CALLDATASIZE SUB DUP2 ADD SWAP1 PUSH2 0x6C SWAP2 SWAP1 PUSH2 0x345 JUMP JUMPDEST PUSH2 0xF1 JUMP JUMPDEST PUSH1 0x40 MLOAD PUSH2 0x7F SWAP3 SWAP2 SWAP1 PUSH2 0x426 JUMP JUMPDEST PUSH1 0x40 MLOAD DUP1 SWAP2 SUB SWAP1 RETURN JUMPDEST PUSH1 0x40 MLOAD DUP1 PUSH1 0x40 ADD PUSH1 0x40 MSTORE DUP1 DUP4 DUP2 MSTORE PUSH1 0x20 ADD DUP3 DUP2 MSTORE POP PUSH1 0x0 DUP1 DUP6 DUP2 MSTORE PUSH1 0x20 ADD SWAP1 DUP2 MSTORE PUSH1 0x20 ADD PUSH1 0x0 KECCAK256 PUSH1 0x0 DUP3 ADD MLOAD DUP2 PUSH1 0x0 ADD SWAP1 DUP1 MLOAD SWAP1 PUSH1 0x20 ADD SWAP1 PUSH2 0xCB SWAP3 SWAP2 SWAP1 PUSH2 0x225 JUMP JUMPDEST POP PUSH1 0x20 DUP3 ADD MLOAD DUP2 PUSH1 0x1 ADD SWAP1 DUP1 MLOAD SWAP1 PUSH1 0x20 ADD SWAP1 PUSH2 0xE8 SWAP3 SWAP2 SWAP1 PUSH2 0x225 JUMP JUMPDEST POP SWAP1 POP POP POP POP POP JUMP JUMPDEST PUSH1 0x0 PUSH1 0x20 MSTORE DUP1 PUSH1 0x0 MSTORE PUSH1 0x40 PUSH1 0x0 KECCAK256 PUSH1 0x0 SWAP2 POP SWAP1 POP DUP1 PUSH1 0x0 ADD DUP1 SLOAD PUSH2 0x114 SWAP1 PUSH2 0x526 JUMP JUMPDEST DUP1 PUSH1 0x1F ADD PUSH1 0x20 DUP1 SWAP2 DIV MUL PUSH1 0x20 ADD PUSH1 0x40 MLOAD SWAP1 DUP2 ADD PUSH1 0x40 MSTORE DUP1 SWAP3 SWAP2 SWAP1 DUP2 DUP2 MSTORE PUSH1 0x20 ADD DUP3 DUP1 SLOAD PUSH2 0x140 SWAP1 PUSH2 0x526 JUMP JUMPDEST DUP1 ISZERO PUSH2 0x18D JUMPI DUP1 PUSH1 0x1F LT PUSH2 0x162 JUMPI PUSH2 0x100 DUP1 DUP4 SLOAD DIV MUL DUP4 MSTORE SWAP2 PUSH1 0x20 ADD SWAP2 PUSH2 0x18D JUMP JUMPDEST DUP3 ADD SWAP2 SWAP1 PUSH1 0x0 MSTORE PUSH1 0x20 PUSH1 0x0 KECCAK256 SWAP1 JUMPDEST DUP2 SLOAD DUP2 MSTORE SWAP1 PUSH1 0x1 ADD SWAP1 PUSH1 0x20 ADD DUP1 DUP4 GT PUSH2 0x170 JUMPI DUP3 SWAP1 SUB PUSH1 0x1F AND DUP3 ADD SWAP2 JUMPDEST POP POP POP POP POP SWAP1 DUP1 PUSH1 0x1 ADD DUP1 SLOAD PUSH2 0x1A2 SWAP1 PUSH2 0x526 JUMP JUMPDEST DUP1 PUSH1 0x1F ADD PUSH1 0x20 DUP1 SWAP2 DIV MUL PUSH1 0x20 ADD PUSH1 0x40 MLOAD SWAP1 DUP2 ADD PUSH1 0x40 MSTORE DUP1 SWAP3 SWAP2 SWAP1 DUP2 DUP2 MSTORE PUSH1 0x20 ADD DUP3 DUP1 SLOAD PUSH2 0x1CE SWAP1 PUSH2 0x526 JUMP JUMPDEST DUP1 ISZERO PUSH2 0x21B JUMPI DUP1 PUSH1 0x1F LT PUSH2 0x1F0 JUMPI PUSH2 0x100 DUP1 DUP4 SLOAD DIV MUL DUP4 MSTORE SWAP2 PUSH1 0x20 ADD SWAP2 PUSH2 0x21B JUMP JUMPDEST DUP3 ADD SWAP2 SWAP1 PUSH1 0x0 MSTORE PUSH1 0x20 PUSH1 0x0 KECCAK256 SWAP1 JUMPDEST DUP2 SLOAD DUP2 MSTORE SWAP1 PUSH1 0x1 ADD SWAP1 PUSH1 0x20 ADD DUP1 DUP4 GT PUSH2 0x1FE JUMPI DUP3 SWAP1 SUB PUSH1 0x1F AND DUP3 ADD SWAP2 JUMPDEST POP POP POP POP POP SWAP1 POP DUP3 JUMP JUMPDEST DUP3 DUP1 SLOAD PUSH2 0x231 SWAP1 PUSH2 0x526 JUMP JUMPDEST SWAP1 PUSH1 0x0 MSTORE PUSH1 0x20 PUSH1 0x0 KECCAK256 SWAP1 PUSH1 0x1F ADD PUSH1 0x20 SWAP1 DIV DUP2 ADD SWAP3 DUP3 PUSH2 0x253 JUMPI PUSH1 0x0 DUP6 SSTORE PUSH2 0x29A JUMP JUMPDEST DUP3 PUSH1 0x1F LT PUSH2 0x26C JUMPI DUP1 MLOAD PUSH1 0xFF NOT AND DUP4 DUP1 ADD OR DUP6 SSTORE PUSH2 0x29A JUMP JUMPDEST DUP3 DUP1 ADD PUSH1 0x1 ADD DUP6 SSTORE DUP3 ISZERO PUSH2 0x29A JUMPI SWAP2 DUP3 ADD JUMPDEST DUP3 DUP2 GT ISZERO PUSH2 0x299 JUMPI DUP3 MLOAD DUP3 SSTORE SWAP2 PUSH1 0x20 ADD SWAP2 SWAP1 PUSH1 0x1 ADD SWAP1 PUSH2 0x27E JUMP JUMPDEST JUMPDEST POP SWAP1 POP PUSH2 0x2A7 SWAP2 SWAP1 PUSH2 0x2AB JUMP JUMPDEST POP SWAP1 JUMP JUMPDEST JUMPDEST DUP1 DUP3 GT ISZERO PUSH2 0x2C4 JUMPI PUSH1 0x0 DUP2 PUSH1 0x0 SWAP1 SSTORE POP PUSH1 0x1 ADD PUSH2 0x2AC JUMP JUMPDEST POP SWAP1 JUMP JUMPDEST PUSH1 0x0 PUSH2 0x2DB PUSH2 0x2D6 DUP5 PUSH2 0x48E JUMP JUMPDEST PUSH2 0x45D JUMP JUMPDEST SWAP1 POP DUP3 DUP2 MSTORE PUSH1 0x20 DUP2 ADD DUP5 DUP5 DUP5 ADD GT ISZERO PUSH2 0x2F3 JUMPI PUSH1 0x0 DUP1 REVERT JUMPDEST PUSH2 0x2FE DUP5 DUP3 DUP6 PUSH2 0x4E4 JUMP JUMPDEST POP SWAP4 SWAP3 POP POP POP JUMP JUMPDEST PUSH1 0x0 DUP3 PUSH1 0x1F DUP4 ADD SLT PUSH2 0x317 JUMPI PUSH1 0x0 DUP1 REVERT JUMPDEST DUP2 CALLDATALOAD PUSH2 0x327 DUP5 DUP3 PUSH1 0x20 DUP7 ADD PUSH2 0x2C8 JUMP JUMPDEST SWAP2 POP POP SWAP3 SWAP2 POP POP JUMP JUMPDEST PUSH1 0x0 DUP2 CALLDATALOAD SWAP1 POP PUSH2 0x33F DUP2 PUSH2 0x5C7 JUMP JUMPDEST SWAP3 SWAP2 POP POP JUMP JUMPDEST PUSH1 0x0 PUSH1 0x20 DUP3 DUP5 SUB SLT ISZERO PUSH2 0x357 JUMPI PUSH1 0x0 DUP1 REVERT JUMPDEST PUSH1 0x0 PUSH2 0x365 DUP5 DUP3 DUP6 ADD PUSH2 0x330 JUMP JUMPDEST SWAP2 POP POP SWAP3 SWAP2 POP POP JUMP JUMPDEST PUSH1 0x0 DUP1 PUSH1 0x0 PUSH1 0x60 DUP5 DUP7 SUB SLT ISZERO PUSH2 0x383 JUMPI PUSH1 0x0 DUP1 REVERT JUMPDEST PUSH1 0x0 PUSH2 0x391 DUP7 DUP3 DUP8 ADD PUSH2 0x330 JUMP JUMPDEST SWAP4 POP POP PUSH1 0x20 DUP5 ADD CALLDATALOAD PUSH8 0xFFFFFFFFFFFFFFFF DUP2 GT ISZERO PUSH2 0x3AE JUMPI PUSH1 0x0 DUP1 REVERT JUMPDEST PUSH2 0x3BA DUP7 DUP3 DUP8 ADD PUSH2 0x306 JUMP JUMPDEST SWAP3 POP POP PUSH1 0x40 DUP5 ADD CALLDATALOAD PUSH8 0xFFFFFFFFFFFFFFFF DUP2 GT ISZERO PUSH2 0x3D7 JUMPI PUSH1 0x0 DUP1 REVERT JUMPDEST PUSH2 0x3E3 DUP7 DUP3 DUP8 ADD PUSH2 0x306 JUMP JUMPDEST SWAP2 POP POP SWAP3 POP SWAP3 POP SWAP3 JUMP JUMPDEST PUSH1 0x0 PUSH2 0x3F8 DUP3 PUSH2 0x4BE JUMP JUMPDEST PUSH2 0x402 DUP2 DUP6 PUSH2 0x4C9 JUMP JUMPDEST SWAP4 POP PUSH2 0x412 DUP2 DUP6 PUSH1 0x20 DUP7 ADD PUSH2 0x4F3 JUMP JUMPDEST PUSH2 0x41B DUP2 PUSH2 0x5B6 JUMP JUMPDEST DUP5 ADD SWAP2 POP POP SWAP3 SWAP2 POP POP JUMP JUMPDEST PUSH1 0x0 PUSH1 0x40 DUP3 ADD SWAP1 POP DUP2 DUP2 SUB PUSH1 0x0 DUP4 ADD MSTORE PUSH2 0x440 DUP2 DUP6 PUSH2 0x3ED JUMP JUMPDEST SWAP1 POP DUP2 DUP2 SUB PUSH1 0x20 DUP4 ADD MSTORE PUSH2 0x454 DUP2 DUP5 PUSH2 0x3ED JUMP JUMPDEST SWAP1 POP SWAP4 SWAP3 POP POP POP JUMP JUMPDEST PUSH1 0x0 PUSH1 0x40 MLOAD SWAP1 POP DUP2 DUP2 ADD DUP2 DUP2 LT PUSH8 0xFFFFFFFFFFFFFFFF DUP3 GT OR ISZERO PUSH2 0x484 JUMPI PUSH2 0x483 PUSH2 0x587 JUMP JUMPDEST JUMPDEST DUP1 PUSH1 0x40 MSTORE POP SWAP2 SWAP1 POP JUMP JUMPDEST PUSH1 0x0 PUSH8 0xFFFFFFFFFFFFFFFF DUP3 GT ISZERO PUSH2 0x4A9 JUMPI PUSH2 0x4A8 PUSH2 0x587 JUMP JUMPDEST JUMPDEST PUSH1 0x1F NOT PUSH1 0x1F DUP4 ADD AND SWAP1 POP PUSH1 0x20 DUP2 ADD SWAP1 POP SWAP2 SWAP1 POP JUMP JUMPDEST PUSH1 0x0 DUP2 MLOAD SWAP1 POP SWAP2 SWAP1 POP JUMP JUMPDEST PUSH1 0x0 DUP3 DUP3 MSTORE PUSH1 0x20 DUP3 ADD SWAP1 POP SWAP3 SWAP2 POP POP JUMP JUMPDEST PUSH1 0x0 DUP2 SWAP1 POP SWAP2 SWAP1 POP JUMP JUMPDEST DUP3 DUP2 DUP4 CALLDATACOPY PUSH1 0x0 DUP4 DUP4 ADD MSTORE POP POP POP JUMP JUMPDEST PUSH1 0x0 JUMPDEST DUP4 DUP2 LT ISZERO PUSH2 0x511 JUMPI DUP1 DUP3 ADD MLOAD DUP2 DUP5 ADD MSTORE PUSH1 0x20 DUP2 ADD SWAP1 POP PUSH2 0x4F6 JUMP JUMPDEST DUP4 DUP2 GT ISZERO PUSH2 0x520 JUMPI PUSH1 0x0 DUP5 DUP5 ADD MSTORE JUMPDEST POP POP POP POP JUMP JUMPDEST PUSH1 0x0 PUSH1 0x2 DUP3 DIV SWAP1 POP PUSH1 0x1 DUP3 AND DUP1 PUSH2 0x53E JUMPI PUSH1 0x7F DUP3 AND SWAP2 POP JUMPDEST PUSH1 0x20 DUP3 LT DUP2 EQ ISZERO PUSH2 0x552 JUMPI PUSH2 0x551 PUSH2 0x558 JUMP JUMPDEST JUMPDEST POP SWAP2 SWAP1 POP JUMP JUMPDEST PUSH32 0x4E487B7100000000000000000000000000000000000000000000000000000000 PUSH1 0x0 MSTORE PUSH1 0x22 PUSH1 0x4 MSTORE PUSH1 0x24 PUSH1 0x0 REVERT JUMPDEST PUSH32 0x4E487B7100000000000000000000000000000000000000000000000000000000 PUSH1 0x0 MSTORE PUSH1 0x41 PUSH1 0x4 MSTORE PUSH1 0x24 PUSH1 0x0 REVERT JUMPDEST PUSH1 0x0 PUSH1 0x1F NOT PUSH1 0x1F DUP4 ADD AND SWAP1 POP SWAP2 SWAP1 POP JUMP JUMPDEST PUSH2 0x5D0 DUP2 PUSH2 0x4DA JUMP JUMPDEST DUP2 EQ PUSH2 0x5DB JUMPI PUSH1 0x0 DUP1 REVERT JUMPDEST POP JUMP INVALID LOG2 PUSH5 0x6970667358 0x22 SLT KECCAK256 RETURNDATACOPY DUP16 PUSH18 0x294DF43CAB8479F130FFD399012ECB53CC57 0xF8 0xD6 0xE4 0x1E CREATE SWAP8 PC 0xB8 0xE8 SWAP4 0x2B PUSH5 0x736F6C6343 STOP ADDMOD STOP STOP CALLER "
				},
				"gasEstimates": {
					"creation": {
						"codeDepositCost": "311200",
						"executionCost": "infinite",
						"totalCost": "infinite"
					},
					"external": {
						"addBook(uint256,string,string)": "infinite",
						"books(uint256)": "infinite"
					}
				},
				"methodIdentifiers": {
					"addBook(uint256,string,string)": "028414f2",
					"books(uint256)": "68744046"
				}
			},
			"storageLayout": {
				"storage": [
					{
						"astId": 6,
						"contract": "contracts/Mapping.sol:MyContract",
						"label": "books",
						"offset": 0,
						"slot": "0",
						"type": "t_mapping(t_uint256,t_struct(Book)15_storage)"
					},
					{
						"astId": 10,
						"contract": "contracts/Mapping.sol:MyContract",
						"label": "names",
						"offset": 0,
						"slot": "1",
						"type": "t_mapping(t_uint256,t_string_storage)"
					}
				],
				"types": {
					"t_mapping(t_uint256,t_string_storage)": {
						"encoding": "mapping",
						"key": "t_uint256",
						"label": "mapping(uint256 => string)",
						"numberOfBytes": "32",
						"value": "t_string_storage"
					},
					"t_mapping(t_uint256,t_struct(Book)15_storage)": {
						"encoding": "mapping",
						"key": "t_uint256",
						"label": "mapping(uint256 => struct MyContract.Book)",
						"numberOfBytes": "32",
						"value": "t_struct(Book)15_storage"
					},
					"t_string_storage": {
						"encoding": "bytes",
						"label": "string",
						"numberOfBytes": "32"
					},
					"t_struct(Book)15_storage": {
						"encoding": "inplace",
						"label": "struct MyContract.Book",
						"members": [
							{
								"astId": 12,
								"contract": "contracts/Mapping.sol:MyContract",
								"label": "title",
								"offset": 0,
								"slot": "0",
								"type": "t_string_storage"
							},
							{
								"astId": 14,
								"contract": "contracts/Mapping.sol:MyContract",
								"label": "author",
								"offset": 0,
								"slot": "1",
								"type": "t_string_storage"
							}
						],
						"numberOfBytes": "64"
					},
					"t_uint256": {
						"encoding": "inplace",
						"label": "uint256",
						"numberOfBytes": "32"
					}
				}
			},
			"userdoc": {
				"kind": "user",
				"methods": {},
				"version": 1
			}
		}
	}
}